{
  "_format": "hh-sol-artifact-1",
  "contractName": "TestToken",
  "sourceName": "contracts/TestToken.sol",
  "abi": [
    {
      "inputs": [],
      "stateMutability": "nonpayable",
      "type": "constructor"
    },
    {
      "anonymous": false,
      "inputs": [
        {
          "indexed": true,
          "internalType": "address",
          "name": "owner",
          "type": "address"
        },
        {
          "indexed": true,
          "internalType": "address",
          "name": "spender",
          "type": "address"
        },
        {
          "indexed": false,
          "internalType": "uint256",
          "name": "value",
          "type": "uint256"
        }
      ],
      "name": "Approval",
      "type": "event"
    },
    {
      "anonymous": false,
      "inputs": [
        {
          "indexed": true,
          "internalType": "address",
          "name": "newDevWallet",
          "type": "address"
        },
        {
          "indexed": true,
          "internalType": "address",
          "name": "oldDevWallet",
          "type": "address"
        }
      ],
      "name": "DevWalletUpdated",
      "type": "event"
    },
    {
      "anonymous": false,
      "inputs": [
        {
          "indexed": true,
          "internalType": "address",
          "name": "account",
          "type": "address"
        },
        {
          "indexed": false,
          "internalType": "bool",
          "name": "isExcluded",
          "type": "bool"
        }
      ],
      "name": "ExcludeFromFees",
      "type": "event"
    },
    {
      "anonymous": false,
      "inputs": [
        {
          "indexed": false,
          "internalType": "address[]",
          "name": "accounts",
          "type": "address[]"
        },
        {
          "indexed": false,
          "internalType": "bool",
          "name": "isExcluded",
          "type": "bool"
        }
      ],
      "name": "ExcludeMultipleAccountsFromFees",
      "type": "event"
    },
    {
      "anonymous": false,
      "inputs": [
        {
          "indexed": true,
          "internalType": "address",
          "name": "account",
          "type": "address"
        },
        {
          "indexed": true,
          "internalType": "uint256",
          "name": "amount",
          "type": "uint256"
        },
        {
          "indexed": true,
          "internalType": "bool",
          "name": "earlyParticipant",
          "type": "bool"
        },
        {
          "indexed": false,
          "internalType": "uint256",
          "name": "numberOfBuyers",
          "type": "uint256"
        }
      ],
      "name": "FixedSaleBuy",
      "type": "event"
    },
    {
      "anonymous": false,
      "inputs": [
        {
          "indexed": true,
          "internalType": "uint256",
          "name": "newValue",
          "type": "uint256"
        },
        {
          "indexed": true,
          "internalType": "uint256",
          "name": "oldValue",
          "type": "uint256"
        }
      ],
      "name": "GasForProcessingUpdated",
      "type": "event"
    },
    {
      "anonymous": false,
      "inputs": [
        {
          "indexed": true,
          "internalType": "address",
          "name": "previousOwner",
          "type": "address"
        },
        {
          "indexed": true,
          "internalType": "address",
          "name": "newOwner",
          "type": "address"
        }
      ],
      "name": "OwnershipTransferred",
      "type": "event"
    },
    {
      "anonymous": false,
      "inputs": [
        {
          "indexed": false,
          "internalType": "uint256",
          "name": "iterations",
          "type": "uint256"
        },
        {
          "indexed": false,
          "internalType": "uint256",
          "name": "claims",
          "type": "uint256"
        },
        {
          "indexed": false,
          "internalType": "uint256",
          "name": "lastProcessedIndex",
          "type": "uint256"
        },
        {
          "indexed": true,
          "internalType": "bool",
          "name": "automatic",
          "type": "bool"
        },
        {
          "indexed": false,
          "internalType": "uint256",
          "name": "gas",
          "type": "uint256"
        },
        {
          "indexed": true,
          "internalType": "address",
          "name": "processor",
          "type": "address"
        }
      ],
      "name": "ProcessedDividendTracker",
      "type": "event"
    },
    {
      "anonymous": false,
      "inputs": [
        {
          "indexed": false,
          "internalType": "uint256",
          "name": "tokensSwapped",
          "type": "uint256"
        },
        {
          "indexed": false,
          "internalType": "uint256",
          "name": "amount",
          "type": "uint256"
        }
      ],
      "name": "SendDividends",
      "type": "event"
    },
    {
      "anonymous": false,
      "inputs": [
        {
          "indexed": true,
          "internalType": "address",
          "name": "pair",
          "type": "address"
        },
        {
          "indexed": true,
          "internalType": "bool",
          "name": "value",
          "type": "bool"
        }
      ],
      "name": "SetAutomatedMarketMakerPair",
      "type": "event"
    },
    {
      "anonymous": false,
      "inputs": [
        {
          "indexed": false,
          "internalType": "uint256",
          "name": "tokensSwapped",
          "type": "uint256"
        },
        {
          "indexed": false,
          "internalType": "uint256",
          "name": "ethReceived",
          "type": "uint256"
        },
        {
          "indexed": false,
          "internalType": "uint256",
          "name": "tokensIntoLiqudity",
          "type": "uint256"
        }
      ],
      "name": "SwapAndLiquify",
      "type": "event"
    },
    {
      "anonymous": false,
      "inputs": [
        {
          "indexed": true,
          "internalType": "address",
          "name": "from",
          "type": "address"
        },
        {
          "indexed": true,
          "internalType": "address",
          "name": "to",
          "type": "address"
        },
        {
          "indexed": false,
          "internalType": "uint256",
          "name": "value",
          "type": "uint256"
        }
      ],
      "name": "Transfer",
      "type": "event"
    },
    {
      "anonymous": false,
      "inputs": [
        {
          "indexed": true,
          "internalType": "address",
          "name": "newAddress",
          "type": "address"
        },
        {
          "indexed": true,
          "internalType": "address",
          "name": "oldAddress",
          "type": "address"
        }
      ],
      "name": "UpdateDividendTracker",
      "type": "event"
    },
    {
      "anonymous": false,
      "inputs": [
        {
          "indexed": true,
          "internalType": "address",
          "name": "newAddress",
          "type": "address"
        },
        {
          "indexed": true,
          "internalType": "address",
          "name": "oldAddress",
          "type": "address"
        }
      ],
      "name": "UpdateUniswapV2Router",
      "type": "event"
    },
    {
      "inputs": [],
      "name": "BUSD",
      "outputs": [
        {
          "internalType": "address",
          "name": "",
          "type": "address"
        }
      ],
      "stateMutability": "view",
      "type": "function"
    },
    {
      "inputs": [],
      "name": "BUSDRewardsFeeBuy",
      "outputs": [
        {
          "internalType": "uint256",
          "name": "",
          "type": "uint256"
        }
      ],
      "stateMutability": "view",
      "type": "function"
    },
    {
      "inputs": [],
      "name": "BUSDRewardsFeeSell",
      "outputs": [
        {
          "internalType": "uint256",
          "name": "",
          "type": "uint256"
        }
      ],
      "stateMutability": "view",
      "type": "function"
    },
    {
      "inputs": [],
      "name": "BurnAddress",
      "outputs": [
        {
          "internalType": "address",
          "name": "",
          "type": "address"
        }
      ],
      "stateMutability": "view",
      "type": "function"
    },
    {
      "inputs": [],
      "name": "BurnFee",
      "outputs": [
        {
          "internalType": "uint256",
          "name": "",
          "type": "uint256"
        }
      ],
      "stateMutability": "view",
      "type": "function"
    },
    {
      "inputs": [],
      "name": "DevFeeBuy",
      "outputs": [
        {
          "internalType": "uint256",
          "name": "",
          "type": "uint256"
        }
      ],
      "stateMutability": "view",
      "type": "function"
    },
    {
      "inputs": [],
      "name": "DevFeeSell",
      "outputs": [
        {
          "internalType": "uint256",
          "name": "",
          "type": "uint256"
        }
      ],
      "stateMutability": "view",
      "type": "function"
    },
    {
      "inputs": [],
      "name": "DevWallet",
      "outputs": [
        {
          "internalType": "address",
          "name": "",
          "type": "address"
        }
      ],
      "stateMutability": "view",
      "type": "function"
    },
    {
      "inputs": [],
      "name": "MarketingFeeBuy",
      "outputs": [
        {
          "internalType": "uint256",
          "name": "",
          "type": "uint256"
        }
      ],
      "stateMutability": "view",
      "type": "function"
    },
    {
      "inputs": [],
      "name": "MarketingFeeSell",
      "outputs": [
        {
          "internalType": "uint256",
          "name": "",
          "type": "uint256"
        }
      ],
      "stateMutability": "view",
      "type": "function"
    },
    {
      "inputs": [],
      "name": "MarketingWallet",
      "outputs": [
        {
          "internalType": "address",
          "name": "",
          "type": "address"
        }
      ],
      "stateMutability": "view",
      "type": "function"
    },
    {
      "inputs": [
        {
          "internalType": "uint256",
          "name": "maxSellTransactionAmount",
          "type": "uint256"
        }
      ],
      "name": "SetmaxSellTransactionAmount",
      "outputs": [],
      "stateMutability": "nonpayable",
      "type": "function"
    },
    {
      "inputs": [],
      "name": "_maxTxAmount",
      "outputs": [
        {
          "internalType": "uint256",
          "name": "",
          "type": "uint256"
        }
      ],
      "stateMutability": "view",
      "type": "function"
    },
    {
      "inputs": [],
      "name": "_maxWalletAmount",
      "outputs": [
        {
          "internalType": "uint256",
          "name": "",
          "type": "uint256"
        }
      ],
      "stateMutability": "view",
      "type": "function"
    },
    {
      "inputs": [
        {
          "internalType": "address",
          "name": "owner",
          "type": "address"
        },
        {
          "internalType": "address",
          "name": "spender",
          "type": "address"
        }
      ],
      "name": "allowance",
      "outputs": [
        {
          "internalType": "uint256",
          "name": "",
          "type": "uint256"
        }
      ],
      "stateMutability": "view",
      "type": "function"
    },
    {
      "inputs": [
        {
          "internalType": "address",
          "name": "spender",
          "type": "address"
        },
        {
          "internalType": "uint256",
          "name": "amount",
          "type": "uint256"
        }
      ],
      "name": "approve",
      "outputs": [
        {
          "internalType": "bool",
          "name": "",
          "type": "bool"
        }
      ],
      "stateMutability": "nonpayable",
      "type": "function"
    },
    {
      "inputs": [
        {
          "internalType": "address",
          "name": "",
          "type": "address"
        }
      ],
      "name": "automatedMarketMakerPairs",
      "outputs": [
        {
          "internalType": "bool",
          "name": "",
          "type": "bool"
        }
      ],
      "stateMutability": "view",
      "type": "function"
    },
    {
      "inputs": [
        {
          "internalType": "address",
          "name": "account",
          "type": "address"
        }
      ],
      "name": "balanceOf",
      "outputs": [
        {
          "internalType": "uint256",
          "name": "",
          "type": "uint256"
        }
      ],
      "stateMutability": "view",
      "type": "function"
    },
    {
      "inputs": [],
      "name": "claim",
      "outputs": [],
      "stateMutability": "nonpayable",
      "type": "function"
    },
    {
      "inputs": [],
      "name": "decimals",
      "outputs": [
        {
          "internalType": "uint8",
          "name": "",
          "type": "uint8"
        }
      ],
      "stateMutability": "view",
      "type": "function"
    },
    {
      "inputs": [
        {
          "internalType": "address",
          "name": "spender",
          "type": "address"
        },
        {
          "internalType": "uint256",
          "name": "subtractedValue",
          "type": "uint256"
        }
      ],
      "name": "decreaseAllowance",
      "outputs": [
        {
          "internalType": "bool",
          "name": "",
          "type": "bool"
        }
      ],
      "stateMutability": "nonpayable",
      "type": "function"
    },
    {
      "inputs": [
        {
          "internalType": "address",
          "name": "account",
          "type": "address"
        }
      ],
      "name": "dividendTokenBalanceOf",
      "outputs": [
        {
          "internalType": "uint256",
          "name": "",
          "type": "uint256"
        }
      ],
      "stateMutability": "view",
      "type": "function"
    },
    {
      "inputs": [],
      "name": "dividendTracker",
      "outputs": [
        {
          "internalType": "contract TestTokenDividendTracker",
          "name": "",
          "type": "address"
        }
      ],
      "stateMutability": "view",
      "type": "function"
    },
    {
      "inputs": [
        {
          "internalType": "address",
          "name": "account",
          "type": "address"
        },
        {
          "internalType": "bool",
          "name": "excluded",
          "type": "bool"
        }
      ],
      "name": "excludeFromFees",
      "outputs": [],
      "stateMutability": "nonpayable",
      "type": "function"
    },
    {
      "inputs": [
        {
          "internalType": "address[]",
          "name": "accounts",
          "type": "address[]"
        },
        {
          "internalType": "bool",
          "name": "excluded",
          "type": "bool"
        }
      ],
      "name": "excludeMultipleAccountsFromFees",
      "outputs": [],
      "stateMutability": "nonpayable",
      "type": "function"
    },
    {
      "inputs": [
        {
          "internalType": "address",
          "name": "account",
          "type": "address"
        }
      ],
      "name": "getAccountDividendsInfo",
      "outputs": [
        {
          "internalType": "address",
          "name": "",
          "type": "address"
        },
        {
          "internalType": "int256",
          "name": "",
          "type": "int256"
        },
        {
          "internalType": "int256",
          "name": "",
          "type": "int256"
        },
        {
          "internalType": "uint256",
          "name": "",
          "type": "uint256"
        },
        {
          "internalType": "uint256",
          "name": "",
          "type": "uint256"
        },
        {
          "internalType": "uint256",
          "name": "",
          "type": "uint256"
        },
        {
          "internalType": "uint256",
          "name": "",
          "type": "uint256"
        },
        {
          "internalType": "uint256",
          "name": "",
          "type": "uint256"
        }
      ],
      "stateMutability": "view",
      "type": "function"
    },
    {
      "inputs": [
        {
          "internalType": "uint256",
          "name": "index",
          "type": "uint256"
        }
      ],
      "name": "getAccountDividendsInfoAtIndex",
      "outputs": [
        {
          "internalType": "address",
          "name": "",
          "type": "address"
        },
        {
          "internalType": "int256",
          "name": "",
          "type": "int256"
        },
        {
          "internalType": "int256",
          "name": "",
          "type": "int256"
        },
        {
          "internalType": "uint256",
          "name": "",
          "type": "uint256"
        },
        {
          "internalType": "uint256",
          "name": "",
          "type": "uint256"
        },
        {
          "internalType": "uint256",
          "name": "",
          "type": "uint256"
        },
        {
          "internalType": "uint256",
          "name": "",
          "type": "uint256"
        },
        {
          "internalType": "uint256",
          "name": "",
          "type": "uint256"
        }
      ],
      "stateMutability": "view",
      "type": "function"
    },
    {
      "inputs": [],
      "name": "getClaimWait",
      "outputs": [
        {
          "internalType": "uint256",
          "name": "",
          "type": "uint256"
        }
      ],
      "stateMutability": "view",
      "type": "function"
    },
    {
      "inputs": [],
      "name": "getLastProcessedIndex",
      "outputs": [
        {
          "internalType": "uint256",
          "name": "",
          "type": "uint256"
        }
      ],
      "stateMutability": "view",
      "type": "function"
    },
    {
      "inputs": [],
      "name": "getNumberOfDividendTokenHolders",
      "outputs": [
        {
          "internalType": "uint256",
          "name": "",
          "type": "uint256"
        }
      ],
      "stateMutability": "view",
      "type": "function"
    },
    {
      "inputs": [],
      "name": "getTotalDividendsDistributed",
      "outputs": [
        {
          "internalType": "uint256",
          "name": "",
          "type": "uint256"
        }
      ],
      "stateMutability": "view",
      "type": "function"
    },
    {
      "inputs": [],
      "name": "getTradingIsEnabled",
      "outputs": [
        {
          "internalType": "bool",
          "name": "",
          "type": "bool"
        }
      ],
      "stateMutability": "view",
      "type": "function"
    },
    {
      "inputs": [
        {
          "internalType": "address",
          "name": "spender",
          "type": "address"
        },
        {
          "internalType": "uint256",
          "name": "addedValue",
          "type": "uint256"
        }
      ],
      "name": "increaseAllowance",
      "outputs": [
        {
          "internalType": "bool",
          "name": "",
          "type": "bool"
        }
      ],
      "stateMutability": "nonpayable",
      "type": "function"
    },
    {
      "inputs": [
        {
          "internalType": "address",
          "name": "account",
          "type": "address"
        }
      ],
      "name": "isExcludedFromFees",
      "outputs": [
        {
          "internalType": "bool",
          "name": "",
          "type": "bool"
        }
      ],
      "stateMutability": "view",
      "type": "function"
    },
    {
      "inputs": [],
      "name": "name",
      "outputs": [
        {
          "internalType": "string",
          "name": "",
          "type": "string"
        }
      ],
      "stateMutability": "view",
      "type": "function"
    },
    {
      "inputs": [],
      "name": "owner",
      "outputs": [
        {
          "internalType": "address",
          "name": "",
          "type": "address"
        }
      ],
      "stateMutability": "view",
      "type": "function"
    },
    {
      "inputs": [
        {
          "internalType": "uint256",
          "name": "gas",
          "type": "uint256"
        }
      ],
      "name": "processDividendTracker",
      "outputs": [],
      "stateMutability": "nonpayable",
      "type": "function"
    },
    {
      "inputs": [],
      "name": "renounceOwnership",
      "outputs": [],
      "stateMutability": "nonpayable",
      "type": "function"
    },
    {
      "inputs": [],
      "name": "sellFeeIncreaseFactor",
      "outputs": [
        {
          "internalType": "uint256",
          "name": "",
          "type": "uint256"
        }
      ],
      "stateMutability": "view",
      "type": "function"
    },
    {
      "inputs": [
        {
          "internalType": "address",
          "name": "pair",
          "type": "address"
        },
        {
          "internalType": "bool",
          "name": "value",
          "type": "bool"
        }
      ],
      "name": "setAutomatedMarketMakerPair",
      "outputs": [],
      "stateMutability": "nonpayable",
      "type": "function"
    },
    {
      "inputs": [
        {
          "internalType": "uint256",
          "name": "val",
          "type": "uint256"
        }
      ],
      "name": "setBUSDRewardsFeeBuy",
      "outputs": [],
      "stateMutability": "nonpayable",
      "type": "function"
    },
    {
      "inputs": [
        {
          "internalType": "uint256",
          "name": "val",
          "type": "uint256"
        }
      ],
      "name": "setBUSDRewardsFeesSell",
      "outputs": [],
      "stateMutability": "nonpayable",
      "type": "function"
    },
    {
      "inputs": [
        {
          "internalType": "uint256",
          "name": "val",
          "type": "uint256"
        }
      ],
      "name": "setBurnFee",
      "outputs": [],
      "stateMutability": "nonpayable",
      "type": "function"
    },
    {
      "inputs": [
        {
          "internalType": "uint256",
          "name": "val",
          "type": "uint256"
        }
      ],
      "name": "setDevFeeBuy",
      "outputs": [],
      "stateMutability": "nonpayable",
      "type": "function"
    },
    {
      "inputs": [
        {
          "internalType": "uint256",
          "name": "val",
          "type": "uint256"
        }
      ],
      "name": "setDevFeeSell",
      "outputs": [],
      "stateMutability": "nonpayable",
      "type": "function"
    },
    {
      "inputs": [
        {
          "internalType": "uint256",
          "name": "val",
          "type": "uint256"
        }
      ],
      "name": "setMarketingFeeBuy",
      "outputs": [],
      "stateMutability": "nonpayable",
      "type": "function"
    },
    {
      "inputs": [
        {
          "internalType": "uint256",
          "name": "val",
          "type": "uint256"
        }
      ],
      "name": "setMarketingFeeSell",
      "outputs": [],
      "stateMutability": "nonpayable",
      "type": "function"
    },
    {
      "inputs": [
        {
          "internalType": "uint256",
          "name": "swapTokensAtAmount",
          "type": "uint256"
        }
      ],
      "name": "setswapTokensAtAmount",
      "outputs": [],
      "stateMutability": "nonpayable",
      "type": "function"
    },
    {
      "inputs": [],
      "name": "symbol",
      "outputs": [
        {
          "internalType": "string",
          "name": "",
          "type": "string"
        }
      ],
      "stateMutability": "view",
      "type": "function"
    },
    {
      "inputs": [],
      "name": "totalFees",
      "outputs": [
        {
          "internalType": "uint256",
          "name": "",
          "type": "uint256"
        }
      ],
      "stateMutability": "view",
      "type": "function"
    },
    {
      "inputs": [],
      "name": "totalSupply",
      "outputs": [
        {
          "internalType": "uint256",
          "name": "",
          "type": "uint256"
        }
      ],
      "stateMutability": "view",
      "type": "function"
    },
    {
      "inputs": [],
      "name": "tradingEnabledTimestamp",
      "outputs": [
        {
          "internalType": "uint256",
          "name": "",
          "type": "uint256"
        }
      ],
      "stateMutability": "view",
      "type": "function"
    },
    {
      "inputs": [
        {
          "internalType": "address",
          "name": "recipient",
          "type": "address"
        },
        {
          "internalType": "uint256",
          "name": "amount",
          "type": "uint256"
        }
      ],
      "name": "transfer",
      "outputs": [
        {
          "internalType": "bool",
          "name": "",
          "type": "bool"
        }
      ],
      "stateMutability": "nonpayable",
      "type": "function"
    },
    {
      "inputs": [
        {
          "internalType": "address",
          "name": "sender",
          "type": "address"
        },
        {
          "internalType": "address",
          "name": "recipient",
          "type": "address"
        },
        {
          "internalType": "uint256",
          "name": "amount",
          "type": "uint256"
        }
      ],
      "name": "transferFrom",
      "outputs": [
        {
          "internalType": "bool",
          "name": "",
          "type": "bool"
        }
      ],
      "stateMutability": "nonpayable",
      "type": "function"
    },
    {
      "inputs": [
        {
          "internalType": "address",
          "name": "newOwner",
          "type": "address"
        }
      ],
      "name": "transferOwnership",
      "outputs": [],
      "stateMutability": "nonpayable",
      "type": "function"
    },
    {
      "inputs": [],
      "name": "uniswapV2Pair",
      "outputs": [
        {
          "internalType": "address",
          "name": "",
          "type": "address"
        }
      ],
      "stateMutability": "view",
      "type": "function"
    },
    {
      "inputs": [],
      "name": "uniswapV2Router",
      "outputs": [
        {
          "internalType": "contract IUniswapV2Router02",
          "name": "",
          "type": "address"
        }
      ],
      "stateMutability": "view",
      "type": "function"
    },
    {
      "inputs": [
        {
          "internalType": "uint256",
          "name": "claimWait",
          "type": "uint256"
        }
      ],
      "name": "updateClaimWait",
      "outputs": [],
      "stateMutability": "nonpayable",
      "type": "function"
    },
    {
      "inputs": [
        {
          "internalType": "address",
          "name": "newDevWallet",
          "type": "address"
        }
      ],
      "name": "updateDevWallet",
      "outputs": [],
      "stateMutability": "nonpayable",
      "type": "function"
    },
    {
      "inputs": [
        {
          "internalType": "address",
          "name": "newAddress",
          "type": "address"
        }
      ],
      "name": "updateDividendTracker",
      "outputs": [],
      "stateMutability": "nonpayable",
      "type": "function"
    },
    {
      "inputs": [
        {
          "internalType": "uint256",
          "name": "newValue",
          "type": "uint256"
        }
      ],
      "name": "updateGasForProcessing",
      "outputs": [],
      "stateMutability": "nonpayable",
      "type": "function"
    },
    {
      "inputs": [
        {
          "internalType": "address",
          "name": "newAddress",
          "type": "address"
        }
      ],
      "name": "updateUniswapV2Router",
      "outputs": [],
      "stateMutability": "nonpayable",
      "type": "function"
    },
    {
      "inputs": [
        {
          "internalType": "address",
          "name": "account",
          "type": "address"
        }
      ],
      "name": "withdrawableDividendOf",
      "outputs": [
        {
          "internalType": "uint256",
          "name": "",
          "type": "uint256"
        }
      ],
      "stateMutability": "view",
      "type": "function"
    },
    {
      "stateMutability": "payable",
      "type": "receive"
    }
  ],
  "bytecode": "0x6101206040527378867bbeef44f2326bf8ddd1941a4439382ef2a760a052600780546001600160a01b0319908116739efbed2cfdf62bfe91d55136d3a944c2859c1471179091556008805490911661dead1790556000600b819055600c8190556b033b2e3c9fd0803ce8000000600d55680ad78ebc5ac6200000600e556a0422ca8b0a00a425000000600f556a18d0bf423c03d8de00000060105560036015819055601655600160175560e052620f42406018556362b4437a61010052348015620000c957600080fd5b506040805180820182526009808252682a32b9ba2a37b5b2b760b91b6020808401828152855180870190965292855284015281519192916200010e9160039162000baa565b5080516200012490600490602084019062000baa565b50506005805460ff191660121790555060006200013e3390565b60058054610100600160a81b0319166101006001600160a01b03841690810291909117909155604051919250906000907f8be0079c531659141344cd1fd0a4f28419497f9722a3daafe3b4186f6b6457e0908290a3506002601181905560016013819055600760c052604051620001b59062000c39565b604051809103906000f080158015620001d2573d6000803e3d6000fd5b50600980546001600160a01b0319166001600160a01b03928316179055600554610100900416600a60006101000a8154816001600160a01b0302191690836001600160a01b031602179055506000739ac64cc6e4415144c455bd8e4837fea55603e5c390506000816001600160a01b031663c45a01556040518163ffffffff1660e01b8152600401602060405180830381865afa15801562000278573d6000803e3d6000fd5b505050506040513d601f19601f820116820180604052508101906200029e919062000c5e565b6001600160a01b031663c9c6539630846001600160a01b031663ad5c46486040518163ffffffff1660e01b8152600401602060405180830381865afa158015620002ec573d6000803e3d6000fd5b505050506040513d601f19601f8201168201806040525081019062000312919062000c5e565b6040516001600160e01b031960e085901b1681526001600160a01b039283166004820152911660248201526044016020604051808303816000875af115801562000360573d6000803e3d6000fd5b505050506040513d601f19601f8201168201806040525081019062000386919062000c5e565b600680546001600160a01b0319166001600160a01b038581169190911790915581166080529050620003ba8160016200064f565b60095460405163031e79db60e41b81526001600160a01b0390911660048201819052906331e79db090602401600060405180830381600087803b1580156200040157600080fd5b505af115801562000416573d6000803e3d6000fd5b505060095460405163031e79db60e41b81523060048201526001600160a01b0390911692506331e79db09150602401600060405180830381600087803b1580156200046057600080fd5b505af115801562000475573d6000803e3d6000fd5b50506009546001600160a01b031691506331e79db09050620004a460055461010090046001600160a01b031690565b6040516001600160e01b031960e084901b1681526001600160a01b039091166004820152602401600060405180830381600087803b158015620004e657600080fd5b505af1158015620004fb573d6000803e3d6000fd5b505060095460405163031e79db60e41b81526001600160a01b03868116600483015290911692506331e79db09150602401600060405180830381600087803b1580156200054757600080fd5b505af11580156200055c573d6000803e3d6000fd5b50505050620005753383600019620007c360201b60201c565b620005843330600019620007c3565b620005933083600019620007c3565b620005aa3060a051600019620007c360201b60201c565b600a54620005c3906001600160a01b03166001620008eb565b620005d0306001620008eb565b6001601a6000620005ee60055461010090046001600160a01b031690565b6001600160a01b031681526020810191909152604001600020805460ff1916911515919091179055620006456200063260055461010090046001600160a01b031690565b6b033b2e3c9fd0803ce800000062000a44565b5050505062000cec565b6001600160a01b0382166000908152601b602052604090205481151560ff909116151503620006f75760405162461bcd60e51b815260206004820152604360248201527f54657374546f6b656e3a204175746f6d61746564206d61726b6574206d616b6560448201527f72207061697220697320616c72656164792073657420746f20746861742076616064820152626c756560e81b608482015260a4015b60405180910390fd5b6001600160a01b0382166000908152601b60205260409020805460ff19168215801591909117909155620007875760095460405163031e79db60e41b81526001600160a01b038481166004830152909116906331e79db090602401600060405180830381600087803b1580156200076d57600080fd5b505af115801562000782573d6000803e3d6000fd5b505050505b604051811515906001600160a01b038416907fffa9187bf1f18bf477bd0ea1bcbb64e93b6a98132473929edfce215cd9b16fab90600090a35050565b6001600160a01b038316620008275760405162461bcd60e51b8152602060048201526024808201527f45524332303a20617070726f76652066726f6d20746865207a65726f206164646044820152637265737360e01b6064820152608401620006ee565b6001600160a01b0382166200088a5760405162461bcd60e51b815260206004820152602260248201527f45524332303a20617070726f766520746f20746865207a65726f206164647265604482015261737360f01b6064820152608401620006ee565b6001600160a01b0383811660008181526001602090815260408083209487168084529482529182902085905590518481527f8c5be1e5ebec7d5bd14f71427d1e84f3dd0314c0f7b2291e5b200ac8c7c3b925910160405180910390a3505050565b6005546001600160a01b036101009091041633146200094d5760405162461bcd60e51b815260206004820181905260248201527f4f776e61626c653a2063616c6c6572206973206e6f7420746865206f776e65726044820152606401620006ee565b6001600160a01b03821660009081526019602052604090205481151560ff909116151503620009e55760405162461bcd60e51b815260206004820152603560248201527f54657374546f6b656e3a204163636f756e7420697320616c726561647920746860448201527f652076616c7565206f6620276578636c756465642700000000000000000000006064820152608401620006ee565b6001600160a01b038216600081815260196020908152604091829020805460ff191685151590811790915591519182527f9d8f7706ea1113d1a167b526eca956215946dd36cc7df39eb16180222d8b5df7910160405180910390a25050565b6001600160a01b03821662000a9c5760405162461bcd60e51b815260206004820152601f60248201527f45524332303a206d696e7420746f20746865207a65726f2061646472657373006044820152606401620006ee565b62000ab88160025462000b4060201b62001fa11790919060201c565b6002556001600160a01b0382166000908152602081815260409091205462000aeb91839062001fa162000b40821b17901c565b6001600160a01b038316600081815260208181526040808320949094559251848152919290917fddf252ad1be2c89b69c2b068fc378daa952ba7f163c4a11628f55a4df523b3ef910160405180910390a35050565b60008062000b4f838562000c89565b90508381101562000ba35760405162461bcd60e51b815260206004820152601b60248201527f536166654d6174683a206164646974696f6e206f766572666c6f7700000000006044820152606401620006ee565b9392505050565b82805462000bb89062000cb0565b90600052602060002090601f01602090048101928262000bdc576000855562000c27565b82601f1062000bf757805160ff191683800117855562000c27565b8280016001018555821562000c27579182015b8281111562000c2757825182559160200191906001019062000c0a565b5062000c3592915062000c47565b5090565b612448806200431c83390190565b5b8082111562000c35576000815560010162000c48565b60006020828403121562000c7157600080fd5b81516001600160a01b038116811462000ba357600080fd5b6000821982111562000cab57634e487b7160e01b600052601160045260246000fd5b500190565b600181811c9082168062000cc557607f821691505b60208210810362000ce657634e487b7160e01b600052602260045260246000fd5b50919050565b60805160a05160c05160e051610100516135ba62000d62600039600081816104ef01528181610635015261217f0152600061047b015260006103b501526000818161059a01528181612c8b01528181612d770152612e0d0152600081816105ce0152818161191801526125b101526135ba6000f3fe60806040526004361061033c5760003560e01c8063700bb191116101b2578063ad01033a116100ed578063da23545911610090578063da23545914610aac578063dd62ed3e14610ac2578063e7841ec014610b08578063e98030c714610b1d578063f27fd25414610b3d578063f2fde38b14610b5d578063f6ed8b1b14610b7d578063ffa9aa1814610b9d57600080fd5b8063ad01033a1461096b578063ad56c13c14610981578063b115e4df146109e6578063b1be427114610a06578063b62496f514610a1c578063c024666814610a4c578063c492f04614610a6c578063cabcc71814610a8c57600080fd5b80638b42cace116101555780638b42cace1461088c5780638da5cb5b146108ac57806395d89b41146108c15780639a7a23d6146108d6578063a26579ad146108f6578063a457c2d71461090b578063a8b9d2401461092b578063a9059cbb1461094b57600080fd5b8063700bb191146107a157806370a08231146107c1578063715018a6146107e1578063721da07c146107f65780637d1db4a514610816578063871c128d1461082c578063888a43fc1461084c57806388bdd9be1461086c57600080fd5b8063484f4ea911610282578063602a48c611610225578063602a48c6146106ca5780636295c649146106ea57806364b0f6531461070057806365b8dbc0146107155780636843cd841461073557806368f8345d146107555780636beb16fd1461076b5780636c0a24eb1461078b57600080fd5b8063484f4ea91461058857806349bd5a5e146105bc5780634bf2c7c9146105f05780634cea44b5146106105780634d33b1ef146106265780634e71d92d1461065c5780634fbee193146106715780635b9b79c5146106aa57600080fd5b806322bd3f7f116102ea57806322bd3f7f1461046957806323b872dd1461049d5780632598cdb2146104bd57806325b61703146104dd5780632c1f52161461051157806330bb4cff14610531578063313ce56714610546578063395093511461056857600080fd5b806306fdde0314610348578063095ea7b31461037357806313114a9d146103a35780631694505e146103e557806318160ddd146104125780631816467f146104275780631ccca7c71461044957600080fd5b3661034357005b600080fd5b34801561035457600080fd5b5061035d610bb3565b60405161036a9190612f9b565b60405180910390f35b34801561037f57600080fd5b5061039361038e366004612fc3565b610c45565b604051901515815260200161036a565b3480156103af57600080fd5b506103d77f000000000000000000000000000000000000000000000000000000000000000081565b60405190815260200161036a565b3480156103f157600080fd5b50600654610405906001600160a01b031681565b60405161036a9190612fef565b34801561041e57600080fd5b506002546103d7565b34801561043357600080fd5b50610447610442366004613003565b610c5b565b005b34801561045557600080fd5b50610447610464366004613020565b610d79565b34801561047557600080fd5b506103d77f000000000000000000000000000000000000000000000000000000000000000081565b3480156104a957600080fd5b506103936104b8366004613039565b610dad565b3480156104c957600080fd5b50600754610405906001600160a01b031681565b3480156104e957600080fd5b506103d77f000000000000000000000000000000000000000000000000000000000000000081565b34801561051d57600080fd5b50600954610405906001600160a01b031681565b34801561053d57600080fd5b506103d7610e16565b34801561055257600080fd5b5060055460405160ff909116815260200161036a565b34801561057457600080fd5b50610393610583366004612fc3565b610e89565b34801561059457600080fd5b506104057f000000000000000000000000000000000000000000000000000000000000000081565b3480156105c857600080fd5b506104057f000000000000000000000000000000000000000000000000000000000000000081565b3480156105fc57600080fd5b5061044761060b366004613020565b610ebf565b34801561061c57600080fd5b506103d760165481565b34801561063257600080fd5b507f0000000000000000000000000000000000000000000000000000000000000000421015610393565b34801561066857600080fd5b50610447610ef3565b34801561067d57600080fd5b5061039361068c366004613003565b6001600160a01b031660009081526019602052604090205460ff1690565b3480156106b657600080fd5b506104476106c5366004613020565b610f6b565b3480156106d657600080fd5b506104476106e5366004613020565b610f9f565b3480156106f657600080fd5b506103d760145481565b34801561070c57600080fd5b506103d7610fd3565b34801561072157600080fd5b50610447610730366004613003565b61101d565b34801561074157600080fd5b506103d7610750366004613003565b61111e565b34801561076157600080fd5b506103d760115481565b34801561077757600080fd5b50610447610786366004613020565b611196565b34801561079757600080fd5b506103d760105481565b3480156107ad57600080fd5b506104476107bc366004613020565b6111ca565b3480156107cd57600080fd5b506103d76107dc366004613003565b61129c565b3480156107ed57600080fd5b506104476112b7565b34801561080257600080fd5b50610447610811366004613020565b611336565b34801561082257600080fd5b506103d7600f5481565b34801561083857600080fd5b50610447610847366004613020565b61136a565b34801561085857600080fd5b50610447610867366004613020565b6114c5565b34801561087857600080fd5b50610447610887366004613003565b6114f9565b34801561089857600080fd5b506104476108a7366004613020565b611890565b3480156108b857600080fd5b506104056118c4565b3480156108cd57600080fd5b5061035d6118d8565b3480156108e257600080fd5b506104476108f1366004613088565b6118e7565b34801561090257600080fd5b506103d76119e4565b34801561091757600080fd5b50610393610926366004612fc3565b611a2e565b34801561093757600080fd5b506103d7610946366004613003565b611a7d565b34801561095757600080fd5b50610393610966366004612fc3565b611aae565b34801561097757600080fd5b506103d760125481565b34801561098d57600080fd5b506109a161099c366004613003565b611abb565b604080516001600160a01b0390991689526020890197909752958701949094526060860192909252608085015260a084015260c083015260e08201526101000161036a565b3480156109f257600080fd5b50600a54610405906001600160a01b031681565b348015610a1257600080fd5b506103d760155481565b348015610a2857600080fd5b50610393610a37366004613003565b601b6020526000908152604090205460ff1681565b348015610a5857600080fd5b50610447610a67366004613088565b611b59565b348015610a7857600080fd5b50610447610a873660046130c1565b611c75565b348015610a9857600080fd5b50600854610405906001600160a01b031681565b348015610ab857600080fd5b506103d760135481565b348015610ace57600080fd5b506103d7610add366004613147565b6001600160a01b03918216600090815260016020908152604080832093909416825291909152205490565b348015610b1457600080fd5b506103d7611d56565b348015610b2957600080fd5b50610447610b38366004613020565b611da0565b348015610b4957600080fd5b506109a1610b58366004613020565b611e30565b348015610b6957600080fd5b50610447610b78366004613003565b611e72565b348015610b8957600080fd5b50610447610b98366004613020565b611f6d565b348015610ba957600080fd5b506103d760175481565b606060038054610bc290613175565b80601f0160208091040260200160405190810160405280929190818152602001828054610bee90613175565b8015610c3b5780601f10610c1057610100808354040283529160200191610c3b565b820191906000526020600020905b815481529060010190602001808311610c1e57829003601f168201915b5050505050905090565b6000610c52338484612007565b50600192915050565b33610c646118c4565b6001600160a01b031614610c935760405162461bcd60e51b8152600401610c8a906131af565b60405180910390fd5b600a546001600160a01b0390811690821603610d115760405162461bcd60e51b815260206004820152603760248201527f54657374546f6b656e3a20546865206c69717569646974792077616c6c657420604482015276697320616c72656164792074686973206164647265737360481b6064820152608401610c8a565b610d1c816001611b59565b600a546040516001600160a01b03918216918316907f0db17895a9d092fb3ca24d626f2150dd80c185b0706b36f1040ee239f56cb87190600090a3600a80546001600160a01b0319166001600160a01b0392909216919091179055565b33610d826118c4565b6001600160a01b031614610da85760405162461bcd60e51b8152600401610c8a906131af565b601255565b6000610dba84848461212c565b610e0c8433610e0785604051806060016040528060288152602001613538602891396001600160a01b038a16600090815260016020908152604080832033845290915290205491906128af565b612007565b5060019392505050565b600954604080516342d359d760e11b815290516000926001600160a01b0316916385a6b3ae9160048083019260209291908290030181865afa158015610e60573d6000803e3d6000fd5b505050506040513d601f19601f82011682018060405250810190610e8491906131e4565b905090565b3360008181526001602090815260408083206001600160a01b03871684529091528120549091610c52918590610e079086611fa1565b33610ec86118c4565b6001600160a01b031614610eee5760405162461bcd60e51b8152600401610c8a906131af565b601755565b60095460405163bc4c4b3760e01b8152336004820152600060248201526001600160a01b039091169063bc4c4b37906044016020604051808303816000875af1158015610f44573d6000803e3d6000fd5b505050506040513d601f19601f82011682018060405250810190610f6891906131fd565b50565b33610f746118c4565b6001600160a01b031614610f9a5760405162461bcd60e51b8152600401610c8a906131af565b601555565b33610fa86118c4565b6001600160a01b031614610fce5760405162461bcd60e51b8152600401610c8a906131af565b600e55565b600954604080516304ddf6ef60e11b815290516000926001600160a01b0316916309bbedde9160048083019260209291908290030181865afa158015610e60573d6000803e3d6000fd5b336110266118c4565b6001600160a01b03161461104c5760405162461bcd60e51b8152600401610c8a906131af565b6006546001600160a01b03908116908216036110c15760405162461bcd60e51b815260206004820152602e60248201527f54657374546f6b656e3a2054686520726f7574657220616c726561647920686160448201526d732074686174206164647265737360901b6064820152608401610c8a565b6006546040516001600160a01b03918216918316907f8fc842bbd331dfa973645f4ed48b11683d501ebf1352708d77a5da2ab49a576e90600090a3600680546001600160a01b0319166001600160a01b0392909216919091179055565b6009546040516370a0823160e01b81526000916001600160a01b0316906370a082319061114f908590600401612fef565b602060405180830381865afa15801561116c573d6000803e3d6000fd5b505050506040513d601f19601f8201168201806040525081019061119091906131e4565b92915050565b3361119f6118c4565b6001600160a01b0316146111c55760405162461bcd60e51b8152600401610c8a906131af565b601455565b6009546040516001624d3b8760e01b0319815260048101839052600091829182916001600160a01b03169063ffb2c479906024016060604051808303816000875af115801561121d573d6000803e3d6000fd5b505050506040513d601f19601f82011682018060405250810190611241919061321a565b604080518481526020810184905290810182905260608101889052929550909350915032906000907fc864333d6121033635ab41b29ae52f10a22cf4438c3e4f1c4c68518feb2f8a989060800160405180910390a350505050565b6001600160a01b031660009081526020819052604090205490565b336112c06118c4565b6001600160a01b0316146112e65760405162461bcd60e51b8152600401610c8a906131af565b60055460405160009161010090046001600160a01b0316907f8be0079c531659141344cd1fd0a4f28419497f9722a3daafe3b4186f6b6457e0908390a360058054610100600160a81b0319169055565b3361133f6118c4565b6001600160a01b0316146113655760405162461bcd60e51b8152600401610c8a906131af565b601355565b336113736118c4565b6001600160a01b0316146113995760405162461bcd60e51b8152600401610c8a906131af565b62030d4081101580156113af57506207a1208111155b6114215760405162461bcd60e51b815260206004820152603f60248201527f54657374546f6b656e3a20676173466f7250726f63657373696e67206d75737460448201527f206265206265747765656e203230302c30303020616e64203530302c303030006064820152608401610c8a565b60185481036114925760405162461bcd60e51b815260206004820152603760248201527f54657374546f6b656e3a2043616e6e6f742075706461746520676173466f7250604482015276726f63657373696e6720746f2073616d652076616c756560481b6064820152608401610c8a565b60185460405182907f40d7e40e79af4e8e5a9b3c57030d8ea93f13d669c06d448c4d631d4ae7d23db790600090a3601855565b336114ce6118c4565b6001600160a01b0316146114f45760405162461bcd60e51b8152600401610c8a906131af565b601655565b336115026118c4565b6001600160a01b0316146115285760405162461bcd60e51b8152600401610c8a906131af565b6009546001600160a01b03908116908216036115a75760405162461bcd60e51b815260206004820152603860248201527f54657374546f6b656e3a20546865206469766964656e6420747261636b657220604482015277616c7265616479206861732074686174206164647265737360401b6064820152608401610c8a565b6000819050306001600160a01b0316816001600160a01b0316638da5cb5b6040518163ffffffff1660e01b8152600401602060405180830381865afa1580156115f4573d6000803e3d6000fd5b505050506040513d601f19601f820116820180604052508101906116189190613248565b6001600160a01b0316146116ae5760405162461bcd60e51b815260206004820152605160248201527f54657374546f6b656e3a20546865206e6577206469766964656e64207472616360448201527f6b6572206d757374206265206f776e6564206279207468652054657374546f6b606482015270195b881d1bdad95b8818dbdb9d1c9858dd607a1b608482015260a401610c8a565b60405163031e79db60e41b81526001600160a01b038216906331e79db0906116da908490600401612fef565b600060405180830381600087803b1580156116f457600080fd5b505af1158015611708573d6000803e3d6000fd5b505060405163031e79db60e41b81526001600160a01b03841692506331e79db09150611738903090600401612fef565b600060405180830381600087803b15801561175257600080fd5b505af1158015611766573d6000803e3d6000fd5b50505050806001600160a01b03166331e79db06117816118c4565b6040518263ffffffff1660e01b815260040161179d9190612fef565b600060405180830381600087803b1580156117b757600080fd5b505af11580156117cb573d6000803e3d6000fd5b505060065460405163031e79db60e41b81526001600160a01b0380861694506331e79db093506117ff921690600401612fef565b600060405180830381600087803b15801561181957600080fd5b505af115801561182d573d6000803e3d6000fd5b50506009546040516001600160a01b03918216935090851691507f90c7d74461c613da5efa97d90740869367d74ab3aa5837aa4ae9a975f954b7a890600090a3600980546001600160a01b0319166001600160a01b039290921691909117905550565b336118996118c4565b6001600160a01b0316146118bf5760405162461bcd60e51b8152600401610c8a906131af565b600d55565b60055461010090046001600160a01b031690565b606060048054610bc290613175565b336118f06118c4565b6001600160a01b0316146119165760405162461bcd60e51b8152600401610c8a906131af565b7f00000000000000000000000000000000000000000000000000000000000000006001600160a01b0316826001600160a01b0316036119d65760405162461bcd60e51b815260206004820152605060248201527f54657374546f6b656e3a205468652050616e63616b655377617020706169722060448201527f63616e6e6f742062652072656d6f7665642066726f6d206175746f6d6174656460648201526f4d61726b65744d616b6572506169727360801b608482015260a401610c8a565b6119e082826128e6565b5050565b60095460408051631bc9e27b60e21b815290516000926001600160a01b031691636f2789ec9160048083019260209291908290030181865afa158015610e60573d6000803e3d6000fd5b6000610c523384610e0785604051806060016040528060258152602001613560602591393360009081526001602090815260408083206001600160a01b038d16845290915290205491906128af565b6009546040516302a2e74960e61b81526000916001600160a01b03169063a8b9d2409061114f908590600401612fef565b6000610c5233848461212c565b60095460405163fbcbc0f160e01b815260009182918291829182918291829182916001600160a01b039091169063fbcbc0f190611afc908c90600401612fef565b61010060405180830381865afa158015611b1a573d6000803e3d6000fd5b505050506040513d601f19601f82011682018060405250810190611b3e9190613265565b97509750975097509750975097509750919395975091939597565b33611b626118c4565b6001600160a01b031614611b885760405162461bcd60e51b8152600401610c8a906131af565b6001600160a01b03821660009081526019602052604090205481151560ff909116151503611c165760405162461bcd60e51b815260206004820152603560248201527f54657374546f6b656e3a204163636f756e7420697320616c7265616479207468604482015274652076616c7565206f6620276578636c756465642760581b6064820152608401610c8a565b6001600160a01b038216600081815260196020908152604091829020805460ff191685151590811790915591519182527f9d8f7706ea1113d1a167b526eca956215946dd36cc7df39eb16180222d8b5df7910160405180910390a25050565b33611c7e6118c4565b6001600160a01b031614611ca45760405162461bcd60e51b8152600401610c8a906131af565b60005b82811015611d15578160196000868685818110611cc657611cc66132cf565b9050602002016020810190611cdb9190613003565b6001600160a01b031681526020810191909152604001600020805460ff191691151591909117905580611d0d816132fb565b915050611ca7565b507f7fdaf542373fa84f4ee8d662c642f44e4c2276a217d7d29e548b6eb29a233b35838383604051611d4993929190613314565b60405180910390a1505050565b6009546040805163039e107b60e61b815290516000926001600160a01b03169163e7841ec09160048083019260209291908290030181865afa158015610e60573d6000803e3d6000fd5b33611da96118c4565b6001600160a01b031614611dcf5760405162461bcd60e51b8152600401610c8a906131af565b60095460405163e98030c760e01b8152600481018390526001600160a01b039091169063e98030c790602401600060405180830381600087803b158015611e1557600080fd5b505af1158015611e29573d6000803e3d6000fd5b5050505050565b600954604051635183d6fd60e01b81526004810183905260009182918291829182918291829182916001600160a01b0390911690635183d6fd90602401611afc565b33611e7b6118c4565b6001600160a01b031614611ea15760405162461bcd60e51b8152600401610c8a906131af565b6001600160a01b038116611f065760405162461bcd60e51b815260206004820152602660248201527f4f776e61626c653a206e6577206f776e657220697320746865207a65726f206160448201526564647265737360d01b6064820152608401610c8a565b6005546040516001600160a01b0380841692610100900416907f8be0079c531659141344cd1fd0a4f28419497f9722a3daafe3b4186f6b6457e090600090a3600580546001600160a01b0390921661010002610100600160a81b0319909216919091179055565b33611f766118c4565b6001600160a01b031614611f9c5760405162461bcd60e51b8152600401610c8a906131af565b601155565b600080611fae838561336d565b9050838110156120005760405162461bcd60e51b815260206004820152601b60248201527f536166654d6174683a206164646974696f6e206f766572666c6f7700000000006044820152606401610c8a565b9392505050565b6001600160a01b0383166120695760405162461bcd60e51b8152602060048201526024808201527f45524332303a20617070726f76652066726f6d20746865207a65726f206164646044820152637265737360e01b6064820152608401610c8a565b6001600160a01b0382166120ca5760405162461bcd60e51b815260206004820152602260248201527f45524332303a20617070726f766520746f20746865207a65726f206164647265604482015261737360f01b6064820152608401610c8a565b6001600160a01b0383811660008181526001602090815260408083209487168084529482529182902085905590518481527f8c5be1e5ebec7d5bd14f71427d1e84f3dd0314c0f7b2291e5b200ac8c7c3b92591015b60405180910390a3505050565b6001600160a01b0383166121525760405162461bcd60e51b8152600401610c8a90613385565b6001600160a01b0382166121785760405162461bcd60e51b8152600401610c8a906133ca565b60008080807f000000000000000000000000000000000000000000000000000000000000000042101580612240576001600160a01b0388166000908152601a602052604090205460ff166122405760405162461bcd60e51b815260206004820152604360248201527f54657374546f6b656e3a2054686973206163636f756e742063616e6e6f74207360448201527f656e6420746f6b656e7320756e74696c2074726164696e6720697320656e61626064820152621b195960ea1b608482015260a401610c8a565b85600003612252575050505050505050565b600854600160a01b900460ff161580156122695750805b801561228d57506001600160a01b0387166000908152601b602052604090205460ff165b80156122a757506006546001600160a01b03898116911614155b80156122cc57506001600160a01b03871660009081526019602052604090205460ff16155b1561234957600d548611156123495760405162461bcd60e51b815260206004820152603a60248201527f53656c6c207472616e7366657220616d6f756e7420657863656564732074686560448201527f206d617853656c6c5472616e73616374696f6e416d6f756e742e0000000000006064820152608401610c8a565b60006123543061129c565b600e5490915081101560008380156123765750600854600160a01b900460ff16155b6001600160a01b038c1660009081526019602052604090205490915060ff16806123b857506001600160a01b038a1660009081526019602052604090205460ff165b156123c1575060005b8015612583576001600160a01b038b166000908152601b602052604090205460ff161561245d5760646011548a6123f8919061340d565b612402919061342c565b965060646013548a612414919061340d565b61241e919061342c565b955060646017548a612430919061340d565b61243a919061342c565b945060646016548a61244c919061340d565b612456919061342c565b97506124ef565b6001600160a01b038a166000908152601b602052604090205460ff16156124ef5760646012548a61248e919061340d565b612498919061342c565b965060646014548a6124aa919061340d565b6124b4919061342c565b955060646017548a6124c6919061340d565b6124d0919061342c565b945060646015548a6124e2919061340d565b6124ec919061342c565b97505b84866124fb898b61336d565b612505919061336d565b61250f919061336d565b612519908a61344e565b985061253a8b308861252b8b8d61336d565b612535919061336d565b612a54565b600854612552908c906001600160a01b031687612a54565b87600b6000828254612564919061336d565b9250508190555085600c600082825461257d919061336d565b90915550505b83801561258d5750815b80156125a35750600854600160a01b900460ff16155b80156125d7575060006125d57f000000000000000000000000000000000000000000000000000000000000000061129c565b115b80156125fc57506001600160a01b038b166000908152601b602052604090205460ff16155b801561262157506001600160a01b038a1660009081526019602052604090205460ff16155b801561264657506001600160a01b038b1660009081526019602052604090205460ff16155b156126f9576008805460ff60a01b1916600160a01b17905560408051808201909152601081526f44657657616c6c65745265736572766560801b6020820152600c546126929190612b5d565b600b54156126b357600b546007546126b391906001600160a01b0316612ba2565b600c54156126d457600c54600a546126d491906001600160a01b0316612ba2565b60006126df3061129c565b90506126ea81612d53565b506008805460ff60a01b191690555b6127048b8b8b612a54565b6009546001600160a01b031663e30443bc8c61271f8161129c565b6040518363ffffffff1660e01b815260040161273c929190613465565b600060405180830381600087803b15801561275657600080fd5b505af1925050508015612767575060015b506009546001600160a01b031663e30443bc8b6127838161129c565b6040518363ffffffff1660e01b81526004016127a0929190613465565b600060405180830381600087803b1580156127ba57600080fd5b505af19250505080156127cb575060015b50600854600160a01b900460ff166128a2576018546009546040516001624d3b8760e01b03198152600481018390526001600160a01b039091169063ffb2c479906024016060604051808303816000875af192505050801561284a575060408051601f3d908101601f191682019092526128479181019061321a565b60015b156128a05760408051848152602081018490529081018290526060810185905232906001907fc864333d6121033635ab41b29ae52f10a22cf4438c3e4f1c4c68518feb2f8a989060800160405180910390a35050505b505b5050505050505050505050565b600081848411156128d35760405162461bcd60e51b8152600401610c8a9190612f9b565b506128de838561344e565b949350505050565b6001600160a01b0382166000908152601b602052604090205481151560ff9091161515036129885760405162461bcd60e51b815260206004820152604360248201527f54657374546f6b656e3a204175746f6d61746564206d61726b6574206d616b6560448201527f72207061697220697320616c72656164792073657420746f20746861742076616064820152626c756560e81b608482015260a401610c8a565b6001600160a01b0382166000908152601b60205260409020805460ff19168215801591909117909155612a185760095460405163031e79db60e41b81526001600160a01b03909116906331e79db0906129e5908590600401612fef565b600060405180830381600087803b1580156129ff57600080fd5b505af1158015612a13573d6000803e3d6000fd5b505050505b604051811515906001600160a01b038416907fffa9187bf1f18bf477bd0ea1bcbb64e93b6a98132473929edfce215cd9b16fab90600090a35050565b6001600160a01b038316612a7a5760405162461bcd60e51b8152600401610c8a90613385565b6001600160a01b038216612aa05760405162461bcd60e51b8152600401610c8a906133ca565b612add81604051806060016040528060268152602001613512602691396001600160a01b03861660009081526020819052604090205491906128af565b6001600160a01b038085166000908152602081905260408082209390935590841681522054612b0c9082611fa1565b6001600160a01b038381166000818152602081815260409182902094909455518481529092918616917fddf252ad1be2c89b69c2b068fc378daa952ba7f163c4a11628f55a4df523b3ef910161211f565b6119e08282604051602401612b7392919061347e565b60408051601f198184030181529190526020810180516001600160e01b03166309710a9d60e41b179052612f2d565b60408051600380825260808201909252600091602082016060803683370190505090503081600081518110612bd957612bd96132cf565b6001600160a01b03928316602091820292909201810191909152600654604080516315ab88c960e31b81529051919093169263ad5c46489260048083019391928290030181865afa158015612c32573d6000803e3d6000fd5b505050506040513d601f19601f82011682018060405250810190612c569190613248565b81600181518110612c6957612c696132cf565b60200260200101906001600160a01b031690816001600160a01b0316815250507f000000000000000000000000000000000000000000000000000000000000000081600281518110612cbd57612cbd6132cf565b6001600160a01b039283166020918202929092010152600654612ce39130911685612007565b600654604051635c11d79560e01b81526001600160a01b0390911690635c11d79590612d1c9086906000908690889042906004016134a0565b600060405180830381600087803b158015612d3657600080fd5b505af1158015612d4a573d6000803e3d6000fd5b50505050505050565b612d5d8130612ba2565b6040516370a0823160e01b81526000906001600160a01b037f000000000000000000000000000000000000000000000000000000000000000016906370a0823190612dac903090600401612fef565b602060405180830381865afa158015612dc9573d6000803e3d6000fd5b505050506040513d601f19601f82011682018060405250810190612ded91906131e4565b60095460405163a9059cbb60e01b81529192506000916001600160a01b037f000000000000000000000000000000000000000000000000000000000000000081169263a9059cbb92612e489291909116908690600401613465565b6020604051808303816000875af1158015612e67573d6000803e3d6000fd5b505050506040513d601f19601f82011682018060405250810190612e8b91906131fd565b90508015612f285760095460405163dd7a422b60e01b8152600481018490526001600160a01b039091169063dd7a422b90602401600060405180830381600087803b158015612ed957600080fd5b505af1158015612eed573d6000803e3d6000fd5b505060408051868152602081018690527f80195cc573b02cc48460cbca6e6e4cc85ddb91959d946e1c3025ea3d87942dc39350019050611d49565b505050565b80516a636f6e736f6c652e6c6f67602083016000808483855afa5050505050565b6000815180845260005b81811015612f7457602081850181015186830182015201612f58565b81811115612f86576000602083870101525b50601f01601f19169290920160200192915050565b6020815260006120006020830184612f4e565b6001600160a01b0381168114610f6857600080fd5b60008060408385031215612fd657600080fd5b8235612fe181612fae565b946020939093013593505050565b6001600160a01b0391909116815260200190565b60006020828403121561301557600080fd5b813561200081612fae565b60006020828403121561303257600080fd5b5035919050565b60008060006060848603121561304e57600080fd5b833561305981612fae565b9250602084013561306981612fae565b929592945050506040919091013590565b8015158114610f6857600080fd5b6000806040838503121561309b57600080fd5b82356130a681612fae565b915060208301356130b68161307a565b809150509250929050565b6000806000604084860312156130d657600080fd5b833567ffffffffffffffff808211156130ee57600080fd5b818601915086601f83011261310257600080fd5b81358181111561311157600080fd5b8760208260051b850101111561312657600080fd5b6020928301955093505084013561313c8161307a565b809150509250925092565b6000806040838503121561315a57600080fd5b823561316581612fae565b915060208301356130b681612fae565b600181811c9082168061318957607f821691505b6020821081036131a957634e487b7160e01b600052602260045260246000fd5b50919050565b6020808252818101527f4f776e61626c653a2063616c6c6572206973206e6f7420746865206f776e6572604082015260600190565b6000602082840312156131f657600080fd5b5051919050565b60006020828403121561320f57600080fd5b81516120008161307a565b60008060006060848603121561322f57600080fd5b8351925060208401519150604084015190509250925092565b60006020828403121561325a57600080fd5b815161200081612fae565b600080600080600080600080610100898b03121561328257600080fd5b885161328d81612fae565b809850506020890151965060408901519550606089015194506080890151935060a0890151925060c0890151915060e089015190509295985092959890939650565b634e487b7160e01b600052603260045260246000fd5b634e487b7160e01b600052601160045260246000fd5b60006001820161330d5761330d6132e5565b5060010190565b6040808252810183905260008460608301825b8681101561335757823561333a81612fae565b6001600160a01b0316825260209283019290910190600101613327565b5080925050508215156020830152949350505050565b60008219821115613380576133806132e5565b500190565b60208082526025908201527f45524332303a207472616e736665722066726f6d20746865207a65726f206164604082015264647265737360d81b606082015260800190565b60208082526023908201527f45524332303a207472616e7366657220746f20746865207a65726f206164647260408201526265737360e81b606082015260800190565b6000816000190483118215151615613427576134276132e5565b500290565b60008261344957634e487b7160e01b600052601260045260246000fd5b500490565b600082821015613460576134606132e5565b500390565b6001600160a01b03929092168252602082015260400190565b6040815260006134916040830185612f4e565b90508260208301529392505050565b600060a082018783526020878185015260a0604085015281875180845260c086019150828901935060005b818110156134f05784516001600160a01b0316835293830193918301916001016134cb565b50506001600160a01b0396909616606085015250505060800152939250505056fe45524332303a207472616e7366657220616d6f756e7420657863656564732062616c616e636545524332303a207472616e7366657220616d6f756e74206578636565647320616c6c6f77616e636545524332303a2064656372656173656420616c6c6f77616e63652062656c6f77207a65726fa26469706673582212204a3bf4eb7930848d744eaf01dca0cfc1767918071c699ce952a38d0f31a5522064736f6c634300080d003360c06040527378867bbeef44f2326bf8ddd1941a4439382ef2a76080523480156200002957600080fd5b50604080518082018252601a8082527f54657374546f6b656e5f4469766964656e645f547261636b657200000000000060208084018281528551808701909652928552840152815191929183918391620000869160039162000121565b5080516200009c90600490602084019062000121565b50506005805460ff191660121790555060009150620000ba90503390565b600b80546001600160a01b0319166001600160a01b038316908117909155604051919250906000907f8be0079c531659141344cd1fd0a4f28419497f9722a3daafe3b4186f6b6457e0908290a35060c860135569021e19e0c9bab240000060a05262000203565b8280546200012f90620001c7565b90600052602060002090601f0160209004810192826200015357600085556200019e565b82601f106200016e57805160ff19168380011785556200019e565b828001600101855582156200019e579182015b828111156200019e57825182559160200191906001019062000181565b50620001ac929150620001b0565b5090565b5b80821115620001ac5760008155600101620001b1565b600181811c90821680620001dc57607f821691505b602082108103620001fd57634e487b7160e01b600052602260045260246000fd5b50919050565b60805160a05161221162000237600039600081816105e10152610f6301526000818161038a01526119f801526122116000f3fe6080604052600436106101ee5760003560e01c8063715018a611610113578063bc4c4b37116100ab578063e7841ec01161006f578063e7841ec014610689578063e98030c71461069e578063f2fde38b146106be578063fbcbc0f1146106de578063ffb2c479146106fe57600080fd5b8063bc4c4b37146105af578063be10b614146105cf578063dd62ed3e14610603578063dd7a422b14610649578063e30443bc1461066957600080fd5b8063715018a6146104a457806385a6b3ae146104b95780638da5cb5b146104cf57806391b89fba146104e457806395d89b4114610504578063a457c2d714610519578063a8b9d24014610539578063a9059cbb14610559578063aafd847a1461057957600080fd5b8063313ce56711610186578063313ce5671461031657806331e79db0146103385780633950935114610358578063484f4ea9146103785780634e7b827f146103c45780635183d6fd146103f45780636a474002146104595780636f2789ec1461046e57806370a082311461048457600080fd5b806303c83302146101fa57806306fdde0314610204578063095ea7b31461022f57806309bbedde1461025f57806318160ddd1461027e578063226cfa3d1461029357806323b872dd146102c057806327ce0147146102e05780633009a6091461030057600080fd5b366101f557005b600080fd5b610202610739565b005b34801561021057600080fd5b506102196107cc565b6040516102269190611ddc565b60405180910390f35b34801561023b57600080fd5b5061024f61024a366004611e46565b61085e565b6040519015158152602001610226565b34801561026b57600080fd5b50600c545b604051908152602001610226565b34801561028a57600080fd5b50600254610270565b34801561029f57600080fd5b506102706102ae366004611e72565b60126020526000908152604090205481565b3480156102cc57600080fd5b5061024f6102db366004611e8f565b610875565b3480156102ec57600080fd5b506102706102fb366004611e72565b6108de565b34801561030c57600080fd5b5061027060105481565b34801561032257600080fd5b5060055460405160ff9091168152602001610226565b34801561034457600080fd5b50610202610353366004611e72565b610937565b34801561036457600080fd5b5061024f610373366004611e46565b610a64565b34801561038457600080fd5b506103ac7f000000000000000000000000000000000000000000000000000000000000000081565b6040516001600160a01b039091168152602001610226565b3480156103d057600080fd5b5061024f6103df366004611e72565b60116020526000908152604090205460ff1681565b34801561040057600080fd5b5061041461040f366004611ed0565b610a9a565b604080516001600160a01b0390991689526020890197909752958701949094526060860192909252608085015260a084015260c083015260e082015261010001610226565b34801561046557600080fd5b50610202610bee565b34801561047a57600080fd5b5061027060135481565b34801561049057600080fd5b5061027061049f366004611e72565b610c9a565b3480156104b057600080fd5b50610202610cb5565b3480156104c557600080fd5b50610270600a5481565b3480156104db57600080fd5b506103ac610d2e565b3480156104f057600080fd5b506102706104ff366004611e72565b610d3d565b34801561051057600080fd5b50610219610d48565b34801561052557600080fd5b5061024f610534366004611e46565b610d57565b34801561054557600080fd5b50610270610554366004611e72565b610da6565b34801561056557600080fd5b5061024f610574366004611e46565b610dd2565b34801561058557600080fd5b50610270610594366004611e72565b6001600160a01b031660009081526009602052604090205490565b3480156105bb57600080fd5b5061024f6105ca366004611ef7565b610ddf565b3480156105db57600080fd5b506102707f000000000000000000000000000000000000000000000000000000000000000081565b34801561060f57600080fd5b5061027061061e366004611f30565b6001600160a01b03918216600090815260016020908152604080832093909416825291909152205490565b34801561065557600080fd5b50610202610664366004611ed0565b610e91565b34801561067557600080fd5b50610202610684366004611e46565b610f12565b34801561069557600080fd5b50601054610270565b3480156106aa57600080fd5b506102026106b9366004611ed0565b611097565b3480156106ca57600080fd5b506102026106d9366004611e72565b611219565b3480156106ea57600080fd5b506104146106f9366004611e72565b611309565b34801561070a57600080fd5b5061071e610719366004611ed0565b61146a565b60408051938452602084019290925290820152606001610226565b600061074460025490565b1161074e57600080fd5b34156107ca5761078161076060025490565b61076e34600160801b611587565b6107789190611f74565b60065490611610565b60065560405134815233907fa493a9229478c3fcd73f66d2cdeb7f94fd0f341da924d1054236d784541165119060200160405180910390a2600a546107c69034611610565b600a555b565b6060600380546107db90611f96565b80601f016020809104026020016040519081016040528092919081815260200182805461080790611f96565b80156108545780601f1061082957610100808354040283529160200191610854565b820191906000526020600020905b81548152906001019060200180831161083757829003601f168201915b5050505050905090565b600061086b33848461166f565b5060015b92915050565b6000610882848484611793565b6108d484336108cf8560405180606001604052806028815260200161218f602891396001600160a01b038a16600090815260016020908152604080832033845290915290205491906117f4565b61166f565b5060019392505050565b6001600160a01b038116600090815260086020526040812054600160801b9061092d906109289061092261091d61091488610c9a565b60065490611587565b61182b565b9061183b565b611879565b61086f9190611f74565b33610940610d2e565b6001600160a01b03161461096f5760405162461bcd60e51b815260040161096690611fd0565b60405180910390fd5b6001600160a01b03811660009081526011602052604090205460ff161561099557600080fd5b6001600160a01b0381166000908152601160205260408120805460ff191660011790556109c390829061188c565b60405163131836e760e21b815273__$28e39cef14f2127ee71ba18b4b8bf6f060$__90634c60db9c906109fd90600c908590600401612005565b60006040518083038186803b158015610a1557600080fd5b505af4158015610a29573d6000803e3d6000fd5b50506040516001600160a01b03841692507fa878b31040b2e6d0a9a3d3361209db3908ba62014b0dca52adbaee451d128b259150600090a250565b3360008181526001602090815260408083206001600160a01b0387168452909152812054909161086b9185906108cf9086611610565b600080600080600080600080600c73__$28e39cef14f2127ee71ba18b4b8bf6f060$__63deb3d89690916040518263ffffffff1660e01b8152600401610ae291815260200190565b602060405180830381865af4158015610aff573d6000803e3d6000fd5b505050506040513d601f19601f82011682018060405250810190610b23919061201c565b8910610b48575060009650600019955085945086935083925082915081905080610be3565b6040516368d54f3f60e11b8152600c6004820152602481018a905260009073__$28e39cef14f2127ee71ba18b4b8bf6f060$__9063d1aa9e7e90604401602060405180830381865af4158015610ba2573d6000803e3d6000fd5b505050506040513d601f19601f82011682018060405250810190610bc69190612035565b9050610bd181611309565b98509850985098509850985098509850505b919395975091939597565b60405162461bcd60e51b815260206004820152606f60248201527f54657374546f6b656e5f4469766964656e645f547261636b65723a207769746860448201527f647261774469766964656e642064697361626c65642e2055736520746865202760648201527f636c61696d272066756e6374696f6e206f6e20746865206d61696e205465737460848201526e2a37b5b2b71031b7b73a3930b1ba1760891b60a482015260c401610966565b6001600160a01b031660009081526020819052604090205490565b33610cbe610d2e565b6001600160a01b031614610ce45760405162461bcd60e51b815260040161096690611fd0565b600b546040516000916001600160a01b0316907f8be0079c531659141344cd1fd0a4f28419497f9722a3daafe3b4186f6b6457e0908390a3600b80546001600160a01b0319169055565b600b546001600160a01b031690565b600061086f82610da6565b6060600480546107db90611f96565b600061086b33846108cf856040518060600160405280602581526020016121b7602591393360009081526001602090815260408083206001600160a01b038d16845290915290205491906117f4565b6001600160a01b03811660009081526009602052604081205461086f90610dcc846108de565b906118e5565b600061086b338484611793565b600033610dea610d2e565b6001600160a01b031614610e105760405162461bcd60e51b815260040161096690611fd0565b6000610e1b84611941565b90508015610e87576001600160a01b038416600081815260126020526040908190204290555184151591907fa2c38e2d2fb7e3e1912d937fd1ca11ed6d51864dee4cfa7a7bf02becd7acf09290610e759085815260200190565b60405180910390a3600191505061086f565b5060009392505050565b6000610e9c60025490565b11610ea657600080fd5b8015610f0f57610ec6610eb860025490565b61076e83600160801b611587565b60065560405181815233907fa493a9229478c3fcd73f66d2cdeb7f94fd0f341da924d1054236d784541165119060200160405180910390a2600a54610f0b9082611610565b600a555b50565b33610f1b610d2e565b6001600160a01b031614610f415760405162461bcd60e51b815260040161096690611fd0565b6001600160a01b03821660009081526011602052604090205460ff16611093577f0000000000000000000000000000000000000000000000000000000000000000811061101057610f92828261188c565b604051632f0ad01760e21b8152600c60048201526001600160a01b03831660248201526044810182905273__$28e39cef14f2127ee71ba18b4b8bf6f060$__9063bc2b405c9060640160006040518083038186803b158015610ff357600080fd5b505af4158015611007573d6000803e3d6000fd5b50505050611086565b61101b82600061188c565b60405163131836e760e21b815273__$28e39cef14f2127ee71ba18b4b8bf6f060$__90634c60db9c9061105590600c908690600401612005565b60006040518083038186803b15801561106d57600080fd5b505af4158015611081573d6000803e3d6000fd5b505050505b611091826001610ddf565b505b5050565b336110a0610d2e565b6001600160a01b0316146110c65760405162461bcd60e51b815260040161096690611fd0565b610e1081101580156110db5750620151808111155b6111655760405162461bcd60e51b815260206004820152604f60248201527f54657374546f6b656e5f4469766964656e645f547261636b65723a20636c616960448201527f6d57616974206d757374206265207570646174656420746f206265747765656e60648201526e203120616e6420323420686f75727360881b608482015260a401610966565b60135481036111e65760405162461bcd60e51b815260206004820152604160248201527f54657374546f6b656e5f4469766964656e645f547261636b65723a2043616e6e60448201527f6f742075706461746520636c61696d5761697420746f2073616d652076616c756064820152606560f81b608482015260a401610966565b60135460405182907f474ea64804364a1e29a4487ddb63c3342a2dd826ccd8acf48825e680a0e6f20f90600090a3601355565b33611222610d2e565b6001600160a01b0316146112485760405162461bcd60e51b815260040161096690611fd0565b6001600160a01b0381166112ad5760405162461bcd60e51b815260206004820152602660248201527f4f776e61626c653a206e6577206f776e657220697320746865207a65726f206160448201526564647265737360d01b6064820152608401610966565b600b546040516001600160a01b038084169216907f8be0079c531659141344cd1fd0a4f28419497f9722a3daafe3b4186f6b6457e090600090a3600b80546001600160a01b0319166001600160a01b0392909216919091179055565b600080600080600080600080889750600c73__$28e39cef14f2127ee71ba18b4b8bf6f060$__6317e142d190918a6040518363ffffffff1660e01b8152600401611354929190612005565b602060405180830381865af4158015611371573d6000803e3d6000fd5b505050506040513d601f19601f82011682018060405250810190611395919061201c565b96506000199550600087126113f7576010548711156113c3576010546113bc908890611ac6565b95506113f7565b601054600c54600091106113d85760006113e7565b601054600c546113e7916118e5565b90506113f3888261183b565b9650505b61140088610da6565b945061140b886108de565b6001600160a01b038916600090815260126020526040902054909450925082611435576000611443565b601354611443908490611610565b915042821161145357600061145d565b61145d82426118e5565b9050919395975091939597565b600c546000908190819080820361148c57505060105460009250829150611580565b6010546000805a90506000805b89841080156114a757508582105b1561156f57846114b681612052565b600c54909650861090506114c957600094505b6000600c60000186815481106114e1576114e161206b565b60009182526020808320909101546001600160a01b0316808352601290915260409091205490915061151290611b12565b1561153557611522816001610ddf565b15611535578161153181612052565b9250505b8261153f81612052565b93505060005a9050808511156115665761156361155c86836118e5565b8790611610565b95505b93506114999050565b601085905590975095509193505050505b9193909250565b6000826000036115995750600061086f565b60006115a58385612081565b9050826115b28583611f74565b146116095760405162461bcd60e51b815260206004820152602160248201527f536166654d6174683a206d756c7469706c69636174696f6e206f766572666c6f6044820152607760f81b6064820152608401610966565b9392505050565b60008061161d83856120a0565b9050838110156116095760405162461bcd60e51b815260206004820152601b60248201527f536166654d6174683a206164646974696f6e206f766572666c6f7700000000006044820152606401610966565b6001600160a01b0383166116d15760405162461bcd60e51b8152602060048201526024808201527f45524332303a20617070726f76652066726f6d20746865207a65726f206164646044820152637265737360e01b6064820152608401610966565b6001600160a01b0382166117325760405162461bcd60e51b815260206004820152602260248201527f45524332303a20617070726f766520746f20746865207a65726f206164647265604482015261737360f01b6064820152608401610966565b6001600160a01b0383811660008181526001602090815260408083209487168084529482529182902085905590518481527f8c5be1e5ebec7d5bd14f71427d1e84f3dd0314c0f7b2291e5b200ac8c7c3b925910160405180910390a3505050565b60405162461bcd60e51b815260206004820152603060248201527f54657374546f6b656e5f4469766964656e645f547261636b65723a204e6f207460448201526f1c985b9cd9995c9cc8185b1b1bddd95960821b6064820152608401610966565b600081848411156118185760405162461bcd60e51b81526004016109669190611ddc565b5061182383856120b8565b949350505050565b6000818181121561086f57600080fd5b60008061184883856120cf565b90506000831215801561185b5750838112155b80611870575060008312801561187057508381125b61160957600080fd5b60008082121561188857600080fd5b5090565b600061189783610c9a565b9050808211156118bf5760006118ad83836118e5565b90506118b98482611b39565b50611091565b808210156110915760006118d382846118e5565b90506118df8482611b9d565b50505050565b6000828211156119375760405162461bcd60e51b815260206004820152601e60248201527f536166654d6174683a207375627472616374696f6e206f766572666c6f7700006044820152606401610966565b61160982846120b8565b60008061194d83610da6565b90508015611abd576001600160a01b0383166000908152600960205260409020546119789082611610565b6001600160a01b038416600081815260096020526040908190209290925590517fee503bee2bb6a87e57bc57db795f98137327401a0e7b7ce42e37926cc1a9ca4d906119c79084815260200190565b60405180910390a260405163a9059cbb60e01b81526001600160a01b038481166004830152602482018390526000917f00000000000000000000000000000000000000000000000000000000000000009091169063a9059cbb906044016020604051808303816000875af1158015611a43573d6000803e3d6000fd5b505050506040513d601f19601f82011682018060405250810190611a679190612110565b905080611ab6576001600160a01b038416600090815260096020526040902054611a9190836118e5565b6001600160a01b03909416600090815260096020526040812094909455509192915050565b5092915050565b50600092915050565b6000808212158015611ae1575082611ade838261212d565b13155b80611aff5750600082128015611aff575082611afd838261212d565b135b611b0857600080fd5b611609828461212d565b600042821115611b2457506000919050565b601354611b3142846118e5565b101592915050565b611b438282611be1565b611b7d611b5e61091d8360065461158790919063ffffffff16565b6001600160a01b03841660009081526008602052604090205490611ac6565b6001600160a01b0390921660009081526008602052604090209190915550565b611ba78282611ccc565b611b7d611bc261091d8360065461158790919063ffffffff16565b6001600160a01b0384166000908152600860205260409020549061183b565b6001600160a01b038216611c375760405162461bcd60e51b815260206004820152601f60248201527f45524332303a206d696e7420746f20746865207a65726f2061646472657373006044820152606401610966565b611c4360008383611091565b600254611c509082611610565b6002556001600160a01b038216600090815260208190526040902054611c769082611610565b6001600160a01b038316600081815260208181526040808320949094559251848152919290917fddf252ad1be2c89b69c2b068fc378daa952ba7f163c4a11628f55a4df523b3ef91015b60405180910390a35050565b6001600160a01b038216611d2c5760405162461bcd60e51b815260206004820152602160248201527f45524332303a206275726e2066726f6d20746865207a65726f206164647265736044820152607360f81b6064820152608401610966565b611d3882600083611091565b611d758160405180606001604052806022815260200161216d602291396001600160a01b03851660009081526020819052604090205491906117f4565b6001600160a01b038316600090815260208190526040902055600254611d9b90826118e5565b6002556040518181526000906001600160a01b038416907fddf252ad1be2c89b69c2b068fc378daa952ba7f163c4a11628f55a4df523b3ef90602001611cc0565b600060208083528351808285015260005b81811015611e0957858101830151858201604001528201611ded565b81811115611e1b576000604083870101525b50601f01601f1916929092016040019392505050565b6001600160a01b0381168114610f0f57600080fd5b60008060408385031215611e5957600080fd5b8235611e6481611e31565b946020939093013593505050565b600060208284031215611e8457600080fd5b813561160981611e31565b600080600060608486031215611ea457600080fd5b8335611eaf81611e31565b92506020840135611ebf81611e31565b929592945050506040919091013590565b600060208284031215611ee257600080fd5b5035919050565b8015158114610f0f57600080fd5b60008060408385031215611f0a57600080fd5b8235611f1581611e31565b91506020830135611f2581611ee9565b809150509250929050565b60008060408385031215611f4357600080fd5b8235611f4e81611e31565b91506020830135611f2581611e31565b634e487b7160e01b600052601160045260246000fd5b600082611f9157634e487b7160e01b600052601260045260246000fd5b500490565b600181811c90821680611faa57607f821691505b602082108103611fca57634e487b7160e01b600052602260045260246000fd5b50919050565b6020808252818101527f4f776e61626c653a2063616c6c6572206973206e6f7420746865206f776e6572604082015260600190565b9182526001600160a01b0316602082015260400190565b60006020828403121561202e57600080fd5b5051919050565b60006020828403121561204757600080fd5b815161160981611e31565b60006001820161206457612064611f5e565b5060010190565b634e487b7160e01b600052603260045260246000fd5b600081600019048311821515161561209b5761209b611f5e565b500290565b600082198211156120b3576120b3611f5e565b500190565b6000828210156120ca576120ca611f5e565b500390565b600080821280156001600160ff1b03849003851316156120f1576120f1611f5e565b600160ff1b839003841281161561210a5761210a611f5e565b50500190565b60006020828403121561212257600080fd5b815161160981611ee9565b60008083128015600160ff1b85018412161561214b5761214b611f5e565b6001600160ff1b038401831381161561216657612166611f5e565b5050039056fe45524332303a206275726e20616d6f756e7420657863656564732062616c616e636545524332303a207472616e7366657220616d6f756e74206578636565647320616c6c6f77616e636545524332303a2064656372656173656420616c6c6f77616e63652062656c6f77207a65726fa2646970667358221220f23fd341c9ec3b276aca6f67f5823996932697cf47aa20cd12b913d8590fd65764736f6c634300080d0033",
  "linkReferences": {
    "contracts/TestToken.sol": {
      "IterableMapping": [
        {
          "length": 20,
          "start": 20261
        },
        {
          "length": 20,
          "start": 20477
        },
        {
          "length": 20,
          "start": 20667
        },
        {
          "length": 20,
          "start": 21777
        },
        {
          "length": 20,
          "start": 21885
        },
        {
          "length": 20,
          "start": 22639
        }
      ]
    }
  },
  "deployedLinkReferences": {}
}