{
    "contractName": "CatPizza",
    "abi": [
        {
            "inputs": [],
            "stateMutability": "nonpayable",
            "type": "constructor"
        },
        {
            "anonymous": false,
            "inputs": [
                {
                    "indexed": true,
                    "internalType": "address",
                    "name": "owner",
                    "type": "address"
                },
                {
                    "indexed": true,
                    "internalType": "address",
                    "name": "spender",
                    "type": "address"
                },
                {
                    "indexed": false,
                    "internalType": "uint256",
                    "name": "value",
                    "type": "uint256"
                }
            ],
            "name": "Approval",
            "type": "event"
        },
        {
            "anonymous": false,
            "inputs": [
                {
                    "indexed": true,
                    "internalType": "address",
                    "name": "sender",
                    "type": "address"
                },
                {
                    "indexed": false,
                    "internalType": "uint256",
                    "name": "amount",
                    "type": "uint256"
                }
            ],
            "name": "Burn",
            "type": "event"
        },
        {
            "anonymous": false,
            "inputs": [
                {
                    "indexed": true,
                    "internalType": "address",
                    "name": "previousOwner",
                    "type": "address"
                },
                {
                    "indexed": true,
                    "internalType": "address",
                    "name": "newOwner",
                    "type": "address"
                }
            ],
            "name": "OwnershipTransferred",
            "type": "event"
        },
        {
            "anonymous": false,
            "inputs": [
                {
                    "indexed": true,
                    "internalType": "address",
                    "name": "from",
                    "type": "address"
                },
                {
                    "indexed": true,
                    "internalType": "address",
                    "name": "to",
                    "type": "address"
                },
                {
                    "indexed": false,
                    "internalType": "uint256",
                    "name": "value",
                    "type": "uint256"
                }
            ],
            "name": "Transfer",
            "type": "event"
        },
        {
            "inputs": [],
            "name": "DEAD",
            "outputs": [
                {
                    "internalType": "address",
                    "name": "",
                    "type": "address"
                }
            ],
            "stateMutability": "view",
            "type": "function"
        },
        {
            "inputs": [],
            "name": "_feesRates",
            "outputs": [
                {
                    "internalType": "uint16",
                    "name": "buyFee",
                    "type": "uint16"
                },
                {
                    "internalType": "uint16",
                    "name": "sellFee",
                    "type": "uint16"
                },
                {
                    "internalType": "uint16",
                    "name": "transferFee",
                    "type": "uint16"
                }
            ],
            "stateMutability": "view",
            "type": "function"
        },
        {
            "inputs": [
                {
                    "internalType": "address",
                    "name": "owner",
                    "type": "address"
                },
                {
                    "internalType": "address",
                    "name": "spender",
                    "type": "address"
                }
            ],
            "name": "allowance",
            "outputs": [
                {
                    "internalType": "uint256",
                    "name": "",
                    "type": "uint256"
                }
            ],
            "stateMutability": "view",
            "type": "function"
        },
        {
            "inputs": [
                {
                    "internalType": "address",
                    "name": "spender",
                    "type": "address"
                },
                {
                    "internalType": "uint256",
                    "name": "amount",
                    "type": "uint256"
                }
            ],
            "name": "approve",
            "outputs": [
                {
                    "internalType": "bool",
                    "name": "",
                    "type": "bool"
                }
            ],
            "stateMutability": "nonpayable",
            "type": "function"
        },
        {
            "inputs": [
                {
                    "internalType": "address",
                    "name": "",
                    "type": "address"
                }
            ],
            "name": "automatedMarketMakerPairs",
            "outputs": [
                {
                    "internalType": "bool",
                    "name": "",
                    "type": "bool"
                }
            ],
            "stateMutability": "view",
            "type": "function"
        },
        {
            "inputs": [
                {
                    "internalType": "address",
                    "name": "account",
                    "type": "address"
                }
            ],
            "name": "balanceOf",
            "outputs": [
                {
                    "internalType": "uint256",
                    "name": "",
                    "type": "uint256"
                }
            ],
            "stateMutability": "view",
            "type": "function"
        },
        {
            "inputs": [
                {
                    "internalType": "uint256",
                    "name": "amount",
                    "type": "uint256"
                }
            ],
            "name": "burn",
            "outputs": [],
            "stateMutability": "nonpayable",
            "type": "function"
        },
        {
            "inputs": [],
            "name": "decimals",
            "outputs": [
                {
                    "internalType": "uint8",
                    "name": "",
                    "type": "uint8"
                }
            ],
            "stateMutability": "view",
            "type": "function"
        },
        {
            "inputs": [
                {
                    "internalType": "address",
                    "name": "spender",
                    "type": "address"
                },
                {
                    "internalType": "uint256",
                    "name": "subtractedValue",
                    "type": "uint256"
                }
            ],
            "name": "decreaseAllowance",
            "outputs": [
                {
                    "internalType": "bool",
                    "name": "",
                    "type": "bool"
                }
            ],
            "stateMutability": "nonpayable",
            "type": "function"
        },
        {
            "inputs": [],
            "name": "enableTrading",
            "outputs": [],
            "stateMutability": "nonpayable",
            "type": "function"
        },
        {
            "inputs": [
                {
                    "internalType": "address",
                    "name": "account",
                    "type": "address"
                },
                {
                    "internalType": "bool",
                    "name": "val",
                    "type": "bool"
                }
            ],
            "name": "excludeFromFee",
            "outputs": [],
            "stateMutability": "nonpayable",
            "type": "function"
        },
        {
            "inputs": [],
            "name": "getOwner",
            "outputs": [
                {
                    "internalType": "address",
                    "name": "",
                    "type": "address"
                }
            ],
            "stateMutability": "view",
            "type": "function"
        },
        {
            "inputs": [
                {
                    "internalType": "address",
                    "name": "spender",
                    "type": "address"
                },
                {
                    "internalType": "uint256",
                    "name": "addedValue",
                    "type": "uint256"
                }
            ],
            "name": "increaseAllowance",
            "outputs": [
                {
                    "internalType": "bool",
                    "name": "",
                    "type": "bool"
                }
            ],
            "stateMutability": "nonpayable",
            "type": "function"
        },
        {
            "inputs": [
                {
                    "internalType": "address",
                    "name": "account",
                    "type": "address"
                }
            ],
            "name": "isExcludedFromFee",
            "outputs": [
                {
                    "internalType": "bool",
                    "name": "",
                    "type": "bool"
                }
            ],
            "stateMutability": "view",
            "type": "function"
        },
        {
            "inputs": [],
            "name": "lpPair",
            "outputs": [
                {
                    "internalType": "address",
                    "name": "",
                    "type": "address"
                }
            ],
            "stateMutability": "view",
            "type": "function"
        },
        {
            "inputs": [],
            "name": "marketingAddress",
            "outputs": [
                {
                    "internalType": "address",
                    "name": "",
                    "type": "address"
                }
            ],
            "stateMutability": "view",
            "type": "function"
        },
        {
            "inputs": [],
            "name": "midasMultinetworkRouterManager",
            "outputs": [
                {
                    "internalType": "contract MidasMultinetworkRouterManager",
                    "name": "",
                    "type": "address"
                }
            ],
            "stateMutability": "view",
            "type": "function"
        },
        {
            "inputs": [],
            "name": "name",
            "outputs": [
                {
                    "internalType": "string",
                    "name": "",
                    "type": "string"
                }
            ],
            "stateMutability": "view",
            "type": "function"
        },
        {
            "inputs": [],
            "name": "owner",
            "outputs": [
                {
                    "internalType": "address",
                    "name": "",
                    "type": "address"
                }
            ],
            "stateMutability": "view",
            "type": "function"
        },
        {
            "inputs": [
                {
                    "internalType": "uint256",
                    "name": "value",
                    "type": "uint256"
                }
            ],
            "name": "setAutoLiquidityPercentPercent",
            "outputs": [],
            "stateMutability": "nonpayable",
            "type": "function"
        },
        {
            "inputs": [
                {
                    "internalType": "address",
                    "name": "account",
                    "type": "address"
                }
            ],
            "name": "setMarketingAddress",
            "outputs": [],
            "stateMutability": "nonpayable",
            "type": "function"
        },
        {
            "inputs": [
                {
                    "internalType": "uint256",
                    "name": "value",
                    "type": "uint256"
                }
            ],
            "name": "setMarketingAddressPercent",
            "outputs": [],
            "stateMutability": "nonpayable",
            "type": "function"
        },
        {
            "inputs": [
                {
                    "internalType": "uint256",
                    "name": "value",
                    "type": "uint256"
                }
            ],
            "name": "setMaxTransactionAmount",
            "outputs": [],
            "stateMutability": "nonpayable",
            "type": "function"
        },
        {
            "inputs": [
                {
                    "internalType": "uint256",
                    "name": "value",
                    "type": "uint256"
                }
            ],
            "name": "setMaxWalletAmount",
            "outputs": [],
            "stateMutability": "nonpayable",
            "type": "function"
        },
        {
            "inputs": [
                {
                    "internalType": "uint256",
                    "name": "value",
                    "type": "uint256"
                }
            ],
            "name": "setSwapThreshold",
            "outputs": [],
            "stateMutability": "nonpayable",
            "type": "function"
        },
        {
            "inputs": [
                {
                    "internalType": "uint16",
                    "name": "buyFee",
                    "type": "uint16"
                },
                {
                    "internalType": "uint16",
                    "name": "sellFee",
                    "type": "uint16"
                },
                {
                    "internalType": "uint16",
                    "name": "transferFee",
                    "type": "uint16"
                }
            ],
            "name": "setTaxes",
            "outputs": [],
            "stateMutability": "nonpayable",
            "type": "function"
        },
        {
            "inputs": [],
            "name": "swapThreshold",
            "outputs": [
                {
                    "internalType": "uint256",
                    "name": "",
                    "type": "uint256"
                }
            ],
            "stateMutability": "view",
            "type": "function"
        },
        {
            "inputs": [],
            "name": "swapTokenAddress",
            "outputs": [
                {
                    "internalType": "address",
                    "name": "",
                    "type": "address"
                }
            ],
            "stateMutability": "view",
            "type": "function"
        },
        {
            "inputs": [],
            "name": "symbol",
            "outputs": [
                {
                    "internalType": "string",
                    "name": "",
                    "type": "string"
                }
            ],
            "stateMutability": "view",
            "type": "function"
        },
        {
            "inputs": [],
            "name": "totalSupply",
            "outputs": [
                {
                    "internalType": "uint256",
                    "name": "",
                    "type": "uint256"
                }
            ],
            "stateMutability": "view",
            "type": "function"
        },
        {
            "inputs": [
                {
                    "internalType": "address",
                    "name": "to",
                    "type": "address"
                },
                {
                    "internalType": "uint256",
                    "name": "amount",
                    "type": "uint256"
                }
            ],
            "name": "transfer",
            "outputs": [
                {
                    "internalType": "bool",
                    "name": "",
                    "type": "bool"
                }
            ],
            "stateMutability": "nonpayable",
            "type": "function"
        },
        {
            "inputs": [
                {
                    "internalType": "address",
                    "name": "from",
                    "type": "address"
                },
                {
                    "internalType": "address",
                    "name": "to",
                    "type": "address"
                },
                {
                    "internalType": "uint256",
                    "name": "amount",
                    "type": "uint256"
                }
            ],
            "name": "transferFrom",
            "outputs": [
                {
                    "internalType": "bool",
                    "name": "",
                    "type": "bool"
                }
            ],
            "stateMutability": "nonpayable",
            "type": "function"
        },
        {
            "inputs": [
                {
                    "internalType": "address",
                    "name": "account",
                    "type": "address"
                }
            ],
            "name": "transferOwnership",
            "outputs": [],
            "stateMutability": "nonpayable",
            "type": "function"
        },
        {
            "stateMutability": "payable",
            "type": "receive"
        }
    ],
    "bytecode": "60806040523480156200001157600080fd5b50604080518082018252600881526743617450697a7a6160c01b6020808301918252835180850190945260048452630436174560e41b9084015281519192916200005e91600391620007e1565b50805162000074906004906020840190620007e1565b50505062000094336a52b7d2dcc80cd2e4000000620005d060201b60201c565b69d3c21bcecceda1000000600c819055600f819055600580546001600160a01b031990811633908117909255600980548216736644ebde0f26c8f74ad18697cce8a5ac4e608cb41781556040805160608101825261012c80825260208083019190915260009183018290526014805465ffffffffffff191663012c012c179055600880549095167378867bbeef44f2326bf8ddd1941a4439382ef2a71785559481526011909452808420805460ff199081166001908117909255308652828620805482168317905592546001600160a01b0390811686528286208054851683179055935490931684529283902080549091169091179055600a91909155611b58600d55610bb8600e5551739ac64cc6e4415144c455bd8e4837fea55603e5c390735498bb86bc934c8d34fda08e81d444153d0d06ad9082908290620001d99062000870565b6001600160a01b03928316815291166020820152604001604051809103906000f0801580156200020d573d6000803e3d6000fd5b50601380546001600160a01b0319166001600160a01b0392909216918217905560408051632165536360e21b815290516385954d8c916004808201926020929091908290030181865afa15801562000269573d6000803e3d6000fd5b505050506040513d601f19601f820116820180604052508101906200028f9190620008ae565b6001600160a01b031663c45a01556040518163ffffffff1660e01b8152600401602060405180830381865afa158015620002cd573d6000803e3d6000fd5b505050506040513d601f19601f82011682018060405250810190620002f39190620008ae565b6001600160a01b031663c9c6539630601360009054906101000a90046001600160a01b03166001600160a01b03166385954d8c6040518163ffffffff1660e01b8152600401602060405180830381865afa15801562000356573d6000803e3d6000fd5b505050506040513d601f19601f820116820180604052508101906200037c9190620008ae565b6001600160a01b03166373b295c26040518163ffffffff1660e01b8152600401602060405180830381865afa158015620003ba573d6000803e3d6000fd5b505050506040513d601f19601f82011682018060405250810190620003e09190620008ae565b6040516001600160e01b031960e085901b1681526001600160a01b039283166004820152911660248201526044016020604051808303816000875af11580156200042e573d6000803e3d6000fd5b505050506040513d601f19601f82011682018060405250810190620004549190620008ae565b600780546001600160a01b0319166001600160a01b03928316908117909155600090815260126020908152604091829020805460ff19166001179055601354825163b9c5524160e01b815292516200050194339492169263b9c5524192600480820193918290030181865afa158015620004d2573d6000803e3d6000fd5b505050506040513d601f19601f82011682018060405250810190620004f89190620008ae565b600019620006b9565b6200055a30601360009054906101000a90046001600160a01b03166001600160a01b031663b9c552416040518163ffffffff1660e01b8152600401602060405180830381865afa158015620004d2573d6000803e3d6000fd5b6008546013546040805163b9c5524160e01b81529051620005ae936001600160a01b0390811693169163b9c552419160048083019260209291908290030181865afa158015620004d2573d6000803e3d6000fd5b5050600680546001600160a01b03191661dead179055612710600b5562000938565b6001600160a01b0382166200062c5760405162461bcd60e51b815260206004820152601f60248201527f45524332303a206d696e7420746f20746865207a65726f20616464726573730060448201526064015b60405180910390fd5b8060026000828254620006409190620008d5565b90915550506001600160a01b038216600090815260208190526040812080548392906200066f908490620008d5565b90915550506040518181526001600160a01b038316906000907fddf252ad1be2c89b69c2b068fc378daa952ba7f163c4a11628f55a4df523b3ef9060200160405180910390a35050565b6001600160a01b0383166200071d5760405162461bcd60e51b8152602060048201526024808201527f45524332303a20617070726f76652066726f6d20746865207a65726f206164646044820152637265737360e01b606482015260840162000623565b6001600160a01b038216620007805760405162461bcd60e51b815260206004820152602260248201527f45524332303a20617070726f766520746f20746865207a65726f206164647265604482015261737360f01b606482015260840162000623565b6001600160a01b0383811660008181526001602090815260408083209487168084529482529182902085905590518481527f8c5be1e5ebec7d5bd14f71427d1e84f3dd0314c0f7b2291e5b200ac8c7c3b925910160405180910390a3505050565b828054620007ef90620008fc565b90600052602060002090601f0160209004810192826200081357600085556200085e565b82601f106200082e57805160ff19168380011785556200085e565b828001600101855582156200085e579182015b828111156200085e57825182559160200191906001019062000841565b506200086c9291506200087e565b5090565b611a1e80620021e783390190565b5b808211156200086c57600081556001016200087f565b6001600160a01b0381168114620008ab57600080fd5b50565b600060208284031215620008c157600080fd5b8151620008ce8162000895565b9392505050565b60008219821115620008f757634e487b7160e01b600052601160045260246000fd5b500190565b600181811c908216806200091157607f821691505b6020821081036200093257634e487b7160e01b600052602260045260246000fd5b50919050565b61189f80620009486000396000f3fe6080604052600436106101f25760003560e01c806370a082311161010d578063a457c2d7116100a0578063b81f15f71161006f578063b81f15f714610601578063dd62ed3e14610621578063df8408fe14610641578063f2fde38b14610661578063f36f79e01461068157600080fd5b8063a457c2d714610571578063a5ece94114610591578063a9059cbb146105b1578063b62496f5146105d157600080fd5b80638da5cb5b116100dc5780638da5cb5b146104fc578063906e9dd01461051c57806395d89b411461053c5780639d0014b11461055157600080fd5b806370a08231146104735780637bb7f072146104a9578063893d20e8146104c95780638a8c523c146104e757600080fd5b806326f64b4411610185578063395093511161015457806339509351146103da57806342966c68146103fa578063452ed4f11461041a5780635342acb41461043a57600080fd5b806326f64b441461035e57806327a14fc21461037e578063313ce5671461039e57806332cde664146103ba57600080fd5b806318160ddd116101c157806318160ddd146102b15780631c06a7e1146102c65780631e293c101461031c57806323b872dd1461033e57600080fd5b806303fd2a45146101fe5780630445b6671461023b57806306fdde031461025f578063095ea7b31461028157600080fd5b366101f957005b600080fd5b34801561020a57600080fd5b5060065461021e906001600160a01b031681565b6040516001600160a01b0390911681526020015b60405180910390f35b34801561024757600080fd5b50610251600a5481565b604051908152602001610232565b34801561026b57600080fd5b506102746106a1565b604051610232919061159e565b34801561028d57600080fd5b506102a161029c36600461160f565b610733565b6040519015158152602001610232565b3480156102bd57600080fd5b50600254610251565b3480156102d257600080fd5b506014546102f79061ffff808216916201000081048216916401000000009091041683565b6040805161ffff94851681529284166020840152921691810191909152606001610232565b34801561032857600080fd5b5061033c610337366004611639565b61074b565b005b34801561034a57600080fd5b506102a1610359366004611652565b610783565b34801561036a57600080fd5b5061033c610379366004611639565b6107a7565b34801561038a57600080fd5b5061033c610399366004611639565b6107d6565b3480156103aa57600080fd5b5060405160128152602001610232565b3480156103c657600080fd5b5061033c6103d53660046116a0565b610805565b3480156103e657600080fd5b506102a16103f536600461160f565b61086e565b34801561040657600080fd5b5061033c610415366004611639565b610890565b34801561042657600080fd5b5060075461021e906001600160a01b031681565b34801561044657600080fd5b506102a16104553660046116e3565b6001600160a01b031660009081526011602052604090205460ff1690565b34801561047f57600080fd5b5061025161048e3660046116e3565b6001600160a01b031660009081526020819052604090205490565b3480156104b557600080fd5b5061033c6104c4366004611639565b610949565b3480156104d557600080fd5b506005546001600160a01b031661021e565b3480156104f357600080fd5b5061033c610978565b34801561050857600080fd5b5060055461021e906001600160a01b031681565b34801561052857600080fd5b5061033c6105373660046116e3565b610a0b565b34801561054857600080fd5b50610274610a57565b34801561055d57600080fd5b5061033c61056c366004611639565b610a66565b34801561057d57600080fd5b506102a161058c36600461160f565b610a95565b34801561059d57600080fd5b5060095461021e906001600160a01b031681565b3480156105bd57600080fd5b506102a16105cc36600461160f565b610b10565b3480156105dd57600080fd5b506102a16105ec3660046116e3565b60126020526000908152604090205460ff1681565b34801561060d57600080fd5b5060135461021e906001600160a01b031681565b34801561062d57600080fd5b5061025161063c366004611705565b610b1e565b34801561064d57600080fd5b5061033c61065c366004611738565b610b49565b34801561066d57600080fd5b5061033c61067c3660046116e3565b610b9e565b34801561068d57600080fd5b5060085461021e906001600160a01b031681565b6060600380546106b090611774565b80601f01602080910402602001604051908101604052809291908181526020018280546106dc90611774565b80156107295780601f106106fe57610100808354040283529160200191610729565b820191906000526020600020905b81548152906001019060200180831161070c57829003601f168201915b5050505050905090565b600033610741818585610bea565b5060019392505050565b6005546001600160a01b0316331461077e5760405162461bcd60e51b8152600401610775906117ae565b60405180910390fd5b600f55565b600033610791858285610d0e565b61079c858585610d88565b506001949350505050565b6005546001600160a01b031633146107d15760405162461bcd60e51b8152600401610775906117ae565b600e55565b6005546001600160a01b031633146108005760405162461bcd60e51b8152600401610775906117ae565b600c55565b6005546001600160a01b0316331461082f5760405162461bcd60e51b8152600401610775906117ae565b6014805461ffff94851663ffffffff199091161762010000938516939093029290921765ffff0000000019166401000000009190931602919091179055565b6000336107418185856108818383610b1e565b61088b91906117f9565b610bea565b336000908152602081905260409020548111156109075760405162461bcd60e51b815260206004820152602f60248201527f4275726e20616d6f756e742073686f756c64206265206c657373207468616e2060448201526e6163636f756e742062616c616e636560881b6064820152608401610775565b6109113382610db9565b60405181815233907fcc16f5dbb4873280815c1ee09dbd06736cffcc184412cf7a71a0fdb75d397ca59060200160405180910390a250565b6005546001600160a01b031633146109735760405162461bcd60e51b8152600401610775906117ae565b600d55565b6005546001600160a01b031633146109a25760405162461bcd60e51b8152600401610775906117ae565b601054610100900460ff16156109fa5760405162461bcd60e51b815260206004820152601e60248201527f54726164696e67456e61626c656420616c7265616479206163746976656400006044820152606401610775565b6010805461ff001916610100179055565b6005546001600160a01b03163314610a355760405162461bcd60e51b8152600401610775906117ae565b600980546001600160a01b0319166001600160a01b0392909216919091179055565b6060600480546106b090611774565b6005546001600160a01b03163314610a905760405162461bcd60e51b8152600401610775906117ae565b600a55565b60003381610aa38286610b1e565b905083811015610b035760405162461bcd60e51b815260206004820152602560248201527f45524332303a2064656372656173656420616c6c6f77616e63652062656c6f77604482015264207a65726f60d81b6064820152608401610775565b61079c8286868403610bea565b600033610741818585610d88565b6001600160a01b03918216600090815260016020908152604080832093909416825291909152205490565b6005546001600160a01b03163314610b735760405162461bcd60e51b8152600401610775906117ae565b6001600160a01b03919091166000908152601160205260409020805460ff1916911515919091179055565b6005546001600160a01b03163314610bc85760405162461bcd60e51b8152600401610775906117ae565b600580546001600160a01b0319166001600160a01b0392909216919091179055565b6001600160a01b038316610c4c5760405162461bcd60e51b8152602060048201526024808201527f45524332303a20617070726f76652066726f6d20746865207a65726f206164646044820152637265737360e01b6064820152608401610775565b6001600160a01b038216610cad5760405162461bcd60e51b815260206004820152602260248201527f45524332303a20617070726f766520746f20746865207a65726f206164647265604482015261737360f01b6064820152608401610775565b6001600160a01b0383811660008181526001602090815260408083209487168084529482529182902085905590518481527f8c5be1e5ebec7d5bd14f71427d1e84f3dd0314c0f7b2291e5b200ac8c7c3b925910160405180910390a3505050565b6000610d1a8484610b1e565b90506000198114610d825781811015610d755760405162461bcd60e51b815260206004820152601d60248201527f45524332303a20696e73756666696369656e7420616c6c6f77616e63650000006044820152606401610775565b610d828484848403610bea565b50505050565b610d93838383610f07565b60105460ff1615610dae57610da983838361128b565b505050565b610da9838383611459565b6001600160a01b038216610e195760405162461bcd60e51b815260206004820152602160248201527f45524332303a206275726e2066726f6d20746865207a65726f206164647265736044820152607360f81b6064820152608401610775565b6001600160a01b03821660009081526020819052604090205481811015610e8d5760405162461bcd60e51b815260206004820152602260248201527f45524332303a206275726e20616d6f756e7420657863656564732062616c616e604482015261636560f01b6064820152608401610775565b6001600160a01b0383166000908152602081905260408120838303905560028054849290610ebc908490611811565b90915550506040518281526000906001600160a01b038516907fddf252ad1be2c89b69c2b068fc378daa952ba7f163c4a11628f55a4df523b3ef9060200160405180910390a3505050565b6001600160a01b038316610f735760405162461bcd60e51b815260206004820152602d60248201527f45524332303a207472616e736665722066726f6d20746865205a45524f5f414460448201526c4452455353206164647265737360981b6064820152608401610775565b6001600160a01b038216610fdd5760405162461bcd60e51b815260206004820152602b60248201527f45524332303a207472616e7366657220746f20746865205a45524f5f4144445260448201526a455353206164647265737360a81b6064820152608401610775565b600081116110475760405162461bcd60e51b815260206004820152603160248201527f5472616e7366657220616d6f756e74206d7573742062652067726561746572206044820152707468616e205a45524f5f4144445245535360781b6064820152608401610775565b6005546001600160a01b0384811691161480159061107357506005546001600160a01b03838116911614155b801561108757506001600160a01b03821615155b801561109e57506001600160a01b03821661dead14155b80156110ad575060105460ff16155b15610da957601054610100900460ff166110fe5760405162461bcd60e51b815260206004820152601260248201527154726164696e67206e6f742061637469766560701b6044820152606401610775565b6001600160a01b03831660009081526012602052604090205460ff16156111f957600f5481111561118f5760405162461bcd60e51b815260206004820152603560248201527f427579207472616e7366657220616d6f756e742065786365656473207468652060448201527436b0bc2a3930b739b0b1ba34b7b720b6b7bab73a1760591b6064820152608401610775565b600c546001600160a01b0383166000908152602081905260409020546111b590836117f9565b1115610da95760405162461bcd60e51b815260206004820152601360248201527213585e081dd85b1b195d08195e18d959591959606a1b6044820152606401610775565b6001600160a01b03821660009081526012602052604090205460ff161561118f57600f54811115610da95760405162461bcd60e51b815260206004820152603660248201527f53656c6c207472616e7366657220616d6f756e742065786365656473207468656044820152751036b0bc2a3930b739b0b1ba34b7b720b6b7bab73a1760511b6064820152608401610775565b6001600160a01b0383166112ef5760405162461bcd60e51b815260206004820152602560248201527f45524332303a207472616e736665722066726f6d20746865207a65726f206164604482015264647265737360d81b6064820152608401610775565b6001600160a01b0382166113515760405162461bcd60e51b815260206004820152602360248201527f45524332303a207472616e7366657220746f20746865207a65726f206164647260448201526265737360e81b6064820152608401610775565b6001600160a01b038316600090815260208190526040902054818110156113c95760405162461bcd60e51b815260206004820152602660248201527f45524332303a207472616e7366657220616d6f756e7420657863656564732062604482015265616c616e636560d01b6064820152608401610775565b6001600160a01b038085166000908152602081905260408082208585039055918516815290812080548492906114009084906117f9565b92505081905550826001600160a01b0316846001600160a01b03167fddf252ad1be2c89b69c2b068fc378daa952ba7f163c4a11628f55a4df523b3ef8460405161144c91815260200190565b60405180910390a3610d82565b6001600160a01b03831660009081526011602052604081205482919060019060ff168061149e57506001600160a01b03851660009081526011602052604090205460ff165b156114a7575060005b80156114d1576114b88686866114e4565b91506114c48285611811565b92506114d186308461128b565b6114dc86868561128b565b505050505050565b6001600160a01b0383166000908152601260205260408120548190819060ff16156115215760145461151a9061ffff16836117f9565b9150611575565b6001600160a01b03851660009081526012602052604090205460ff16156115595760145461151a9062010000900461ffff16836117f9565b60145461157290640100000000900461ffff16836117f9565b91505b811561159557600b546115888386611828565b6115929190611847565b90505b95945050505050565b600060208083528351808285015260005b818110156115cb578581018301518582016040015282016115af565b818111156115dd576000604083870101525b50601f01601f1916929092016040019392505050565b80356001600160a01b038116811461160a57600080fd5b919050565b6000806040838503121561162257600080fd5b61162b836115f3565b946020939093013593505050565b60006020828403121561164b57600080fd5b5035919050565b60008060006060848603121561166757600080fd5b611670846115f3565b925061167e602085016115f3565b9150604084013590509250925092565b803561ffff8116811461160a57600080fd5b6000806000606084860312156116b557600080fd5b6116be8461168e565b92506116cc6020850161168e565b91506116da6040850161168e565b90509250925092565b6000602082840312156116f557600080fd5b6116fe826115f3565b9392505050565b6000806040838503121561171857600080fd5b611721836115f3565b915061172f602084016115f3565b90509250929050565b6000806040838503121561174b57600080fd5b611754836115f3565b91506020830135801515811461176957600080fd5b809150509250929050565b600181811c9082168061178857607f821691505b6020821081036117a857634e487b7160e01b600052602260045260246000fd5b50919050565b6020808252818101527f4f776e61626c653a2063616c6c6572206973206e6f7420746865206f776e6572604082015260600190565b634e487b7160e01b600052601160045260246000fd5b6000821982111561180c5761180c6117e3565b500190565b600082821015611823576118236117e3565b500390565b6000816000190483118215151615611842576118426117e3565b500290565b60008261186457634e487b7160e01b600052601260045260246000fd5b50049056fea26469706673582212204a001c1d95cf16d85015a76ab6d5d44efa6e2fcb0010d3df29dfe78231e84de064736f6c634300080e0033608060405234801561001057600080fd5b50604051611a1e380380611a1e83398101604081905261002f916100e7565b600080546001600160a01b0384166001600160a01b03199182161790915560616002556001805490911690556040518190610069906100be565b6001600160a01b039091168152602001604051809103906000f080158015610095573d6000803e3d6000fd5b50600380546001600160a01b0319166001600160a01b03929092169190911790555061011a9050565b6106048061141a83390190565b80516001600160a01b03811681146100e257600080fd5b919050565b600080604083850312156100fa57600080fd5b610103836100cb565b9150610111602084016100cb565b90509250929050565b6112f1806101296000396000f3fe608060405234801561001057600080fd5b50600436106100a95760003560e01c8063cf6c62ea11610071578063cf6c62ea14610121578063dd6e491e14610134578063e944b8b014610147578063f72f863b1461015a578063f7a765761461018a578063fafcedce1461019d57600080fd5b8063197e8da9146100ae57806385954d8c146100de578063b8b03b22146100ef578063b9c55241146100de578063cc99689914610104575b600080fd5b6100c16100bc366004610955565b6101be565b6040516001600160a01b0390911681526020015b60405180910390f35b6000546001600160a01b03166100c1565b6101026100fd36600461098a565b610264565b005b600154600160a01b900460ff1660405190151581526020016100d5565b61010261012f3660046109c6565b61040f565b6100c1610142366004610955565b61054b565b610102610155366004610a08565b6105a9565b610102610168366004610a08565b600080546001600160a01b0319166001600160a01b0392909216919091179055565b61010261019836600461098a565b610606565b6101b06101ab366004610a2a565b610737565b6040519081526020016100d5565b600073ae13d989dac2f0debff460ac112a837c89baa7cd60618390036101f9575073ae13d989dac2f0debff460ac112a837c89baa7cd61025e565b8260610361021c575073ae13d989dac2f0debff460ac112a837c89baa7cd61025e565b60405162461bcd60e51b8152602060048201526013602482015272756e737570706f72746564206e6574776f726b60681b604482015260640160405180910390fd5b92915050565b6040805160038082526080820190925260009160208201606080368337019050509050838160008151811061029b5761029b610a6a565b60200260200101906001600160a01b031690816001600160a01b0316815250506102c66002546101be565b816001815181106102d9576102d9610a6a565b6001600160a01b03928316602091820292909201015260015482519116908290600290811061030a5761030a610a6a565b6001600160a01b03928316602091820292909201015260015460005460405163095ea7b360e01b81529083166004820152600019602482015291169063095ea7b3906044016020604051808303816000875af115801561036e573d6000803e3d6000fd5b505050506040513d601f19601f820116820180604052508101906103929190610a80565b50600080546001600160a01b031690635c11d79590849084876103b7426103e8610ab8565b6040518663ffffffff1660e01b81526004016103d7959493929190610b14565b600060405180830381600087803b1580156103f157600080fd5b505af1158015610405573d6000803e3d6000fd5b5050505050505050565b60005460405163095ea7b360e01b81526001600160a01b03918216600482015260001960248201529085169063095ea7b3906044016020604051808303816000875af1158015610463573d6000803e3d6000fd5b505050506040513d601f19601f820116820180604052508101906104879190610a80565b50600080546001600160a01b03169063f305d7199083903090869080896104b042612710610ab8565b60405160e089901b6001600160e01b03191681526001600160a01b039687166004820152602481019590955260448501939093526064840191909152909216608482015260a481019190915260c40160606040518083038185885af115801561051d573d6000803e3d6000fd5b50505050506040513d601f19601f820116820180604052508101906105429190610b50565b50505050505050565b60007378867bbeef44f2326bf8ddd1941a4439382ef2a7606183900361058657507378867bbeef44f2326bf8ddd1941a4439382ef2a761025e565b8260610361021c57507378867bbeef44f2326bf8ddd1941a4439382ef2a761025e565b806040516105b690610948565b6001600160a01b039091168152602001604051809103906000f0801580156105e2573d6000803e3d6000fd5b50600380546001600160a01b0319166001600160a01b039290921691909117905550565b604080516002808252606082018352600092602083019080368337019050509050838160008151811061063b5761063b610a6a565b60200260200101906001600160a01b031690816001600160a01b0316815250506106666002546101be565b8160018151811061067957610679610a6a565b6001600160a01b03928316602091820292909201015260005460405163095ea7b360e01b8152908216600482015260001960248201529085169063095ea7b3906044016020604051808303816000875af11580156106db573d6000803e3d6000fd5b505050506040513d601f19601f820116820180604052508101906106ff9190610a80565b506000805460405163791ac94760e01b81526001600160a01b039091169163791ac947916103d7918691869089904290600401610b14565b600080600360009054906101000a90046001600160a01b03166001600160a01b031663b5acc9116040518163ffffffff1660e01b8152600401602060405180830381865afa15801561078d573d6000803e3d6000fd5b505050506040513d601f19601f820116820180604052508101906107b19190610b7e565b6107c0906402540be400610b97565b60408051600380825260808201909252919250600091906020820160608036833701905050905084816000815181106107fb576107fb610a6a565b60200260200101906001600160a01b031690816001600160a01b0316815250506108266002546101be565b8160018151811061083957610839610a6a565b60200260200101906001600160a01b031690816001600160a01b03168152505061086460025461054b565b8160028151811061087757610877610a6a565b6001600160a01b0392831660209182029290920101526000805460405163d06ca61f60e01b81529192169063d06ca61f906108b89088908690600401610bb6565b600060405180830381865afa1580156108d5573d6000803e3d6000fd5b505050506040513d6000823e601f3d908101601f191682016040526108fd9190810190610bd7565b905060008160018151811061091457610914610a6a565b60200260200101519050670de0b6b3a764000081856109339190610b97565b61093d9190610c95565b979650505050505050565b61060480610cb883390190565b60006020828403121561096757600080fd5b5035919050565b80356001600160a01b038116811461098557600080fd5b919050565b60008060006060848603121561099f57600080fd5b6109a88461096e565b92506109b66020850161096e565b9150604084013590509250925092565b600080600080608085870312156109dc57600080fd5b6109e58561096e565b93506109f36020860161096e565b93969395505050506040820135916060013590565b600060208284031215610a1a57600080fd5b610a238261096e565b9392505050565b60008060408385031215610a3d57600080fd5b610a468361096e565b946020939093013593505050565b634e487b7160e01b600052604160045260246000fd5b634e487b7160e01b600052603260045260246000fd5b600060208284031215610a9257600080fd5b81518015158114610a2357600080fd5b634e487b7160e01b600052601160045260246000fd5b60008219821115610acb57610acb610aa2565b500190565b600081518084526020808501945080840160005b83811015610b095781516001600160a01b031687529582019590820190600101610ae4565b509495945050505050565b85815284602082015260a060408201526000610b3360a0830186610ad0565b6001600160a01b0394909416606083015250608001529392505050565b600080600060608486031215610b6557600080fd5b8351925060208401519150604084015190509250925092565b600060208284031215610b9057600080fd5b5051919050565b6000816000190483118215151615610bb157610bb1610aa2565b500290565b828152604060208201526000610bcf6040830184610ad0565b949350505050565b60006020808385031215610bea57600080fd5b825167ffffffffffffffff80821115610c0257600080fd5b818501915085601f830112610c1657600080fd5b815181811115610c2857610c28610a54565b8060051b604051601f19603f83011681018181108582111715610c4d57610c4d610a54565b604052918252848201925083810185019188831115610c6b57600080fd5b938501935b82851015610c8957845184529385019392850192610c70565b98975050505050505050565b600082610cb257634e487b7160e01b600052601260045260246000fd5b50049056fe608060405234801561001057600080fd5b5060405161060438038061060483398101604081905261002f91610054565b600080546001600160a01b0319166001600160a01b0392909216919091179055610084565b60006020828403121561006657600080fd5b81516001600160a01b038116811461007d57600080fd5b9392505050565b610571806100936000396000f3fe608060405234801561001057600080fd5b50600436106100415760003560e01c806307fed6ac146100465780630d11d22214610060578063b5acc91114610073575b600080fd5b61004e61007b565b60405190815260200160405180910390f35b61004e61006e3660046102e3565b610099565b61004e610252565b6000610085610252565b610094906402540be400610324565b905090565b6000806100a4610252565b6100b3906402540be400610324565b604080516002808252606082018352929350600092909160208301908036833701905050905084816000815181106100ed576100ed610367565b60200260200101906001600160a01b031690816001600160a01b031681525050856001600160a01b031663ad5c46486040518163ffffffff1660e01b8152600401602060405180830381865afa15801561014b573d6000803e3d6000fd5b505050506040513d601f19601f8201168201806040525081019061016f919061037d565b8160018151811061018257610182610367565b6001600160a01b03928316602091820292909201015260405163d06ca61f60e01b815260009188169063d06ca61f906101c190889086906004016103a1565b600060405180830381865afa1580156101de573d6000803e3d6000fd5b505050506040513d6000823e601f3d908101601f1916820160405261020691908101906103f8565b905060008160018151811061021d5761021d610367565b60200260200101519050670de0b6b3a7640000818561023c9190610324565b61024691906104aa565b98975050505050505050565b6000805460408051633fabe5a360e21b8152905183926001600160a01b03169163feaf968c9160048083019260a09291908290030181865afa15801561029c573d6000803e3d6000fd5b505050506040513d601f19601f820116820180604052508101906102c091906104eb565b509195945050505050565b6001600160a01b03811681146102e057600080fd5b50565b6000806000606084860312156102f857600080fd5b8335610303816102cb565b92506020840135610313816102cb565b929592945050506040919091013590565b600081600019048311821515161561034c57634e487b7160e01b600052601160045260246000fd5b500290565b634e487b7160e01b600052604160045260246000fd5b634e487b7160e01b600052603260045260246000fd5b60006020828403121561038f57600080fd5b815161039a816102cb565b9392505050565b6000604082018483526020604081850152818551808452606086019150828701935060005b818110156103eb5784516001600160a01b0316835293830193918301916001016103c6565b5090979650505050505050565b6000602080838503121561040b57600080fd5b825167ffffffffffffffff8082111561042357600080fd5b818501915085601f83011261043757600080fd5b81518181111561044957610449610351565b8060051b604051601f19603f8301168101818110858211171561046e5761046e610351565b60405291825284820192508381018501918883111561048c57600080fd5b938501935b8285101561024657845184529385019392850192610491565b6000826104c757634e487b7160e01b600052601260045260246000fd5b500490565b805169ffffffffffffffffffff811681146104e657600080fd5b919050565b600080600080600060a0868803121561050357600080fd5b61050c866104cc565b945060208601519350604086015192506060860151915061052f608087016104cc565b9050929550929590935056fea2646970667358221220a1e272ce3ab3d9ad508f8a529000daa2767b334c5547910ae35da08733ed869964736f6c634300080e0033a26469706673582212201ddee7c62bdc45269bcf215e9703e46a6f397c7e5af20db1a1b2f9a5a568538d64736f6c634300080e0033608060405234801561001057600080fd5b5060405161060438038061060483398101604081905261002f91610054565b600080546001600160a01b0319166001600160a01b0392909216919091179055610084565b60006020828403121561006657600080fd5b81516001600160a01b038116811461007d57600080fd5b9392505050565b610571806100936000396000f3fe608060405234801561001057600080fd5b50600436106100415760003560e01c806307fed6ac146100465780630d11d22214610060578063b5acc91114610073575b600080fd5b61004e61007b565b60405190815260200160405180910390f35b61004e61006e3660046102e3565b610099565b61004e610252565b6000610085610252565b610094906402540be400610324565b905090565b6000806100a4610252565b6100b3906402540be400610324565b604080516002808252606082018352929350600092909160208301908036833701905050905084816000815181106100ed576100ed610367565b60200260200101906001600160a01b031690816001600160a01b031681525050856001600160a01b031663ad5c46486040518163ffffffff1660e01b8152600401602060405180830381865afa15801561014b573d6000803e3d6000fd5b505050506040513d601f19601f8201168201806040525081019061016f919061037d565b8160018151811061018257610182610367565b6001600160a01b03928316602091820292909201015260405163d06ca61f60e01b815260009188169063d06ca61f906101c190889086906004016103a1565b600060405180830381865afa1580156101de573d6000803e3d6000fd5b505050506040513d6000823e601f3d908101601f1916820160405261020691908101906103f8565b905060008160018151811061021d5761021d610367565b60200260200101519050670de0b6b3a7640000818561023c9190610324565b61024691906104aa565b98975050505050505050565b6000805460408051633fabe5a360e21b8152905183926001600160a01b03169163feaf968c9160048083019260a09291908290030181865afa15801561029c573d6000803e3d6000fd5b505050506040513d601f19601f820116820180604052508101906102c091906104eb565b509195945050505050565b6001600160a01b03811681146102e057600080fd5b50565b6000806000606084860312156102f857600080fd5b8335610303816102cb565b92506020840135610313816102cb565b929592945050506040919091013590565b600081600019048311821515161561034c57634e487b7160e01b600052601160045260246000fd5b500290565b634e487b7160e01b600052604160045260246000fd5b634e487b7160e01b600052603260045260246000fd5b60006020828403121561038f57600080fd5b815161039a816102cb565b9392505050565b6000604082018483526020604081850152818551808452606086019150828701935060005b818110156103eb5784516001600160a01b0316835293830193918301916001016103c6565b5090979650505050505050565b6000602080838503121561040b57600080fd5b825167ffffffffffffffff8082111561042357600080fd5b818501915085601f83011261043757600080fd5b81518181111561044957610449610351565b8060051b604051601f19603f8301168101818110858211171561046e5761046e610351565b60405291825284820192508381018501918883111561048c57600080fd5b938501935b8285101561024657845184529385019392850192610491565b6000826104c757634e487b7160e01b600052601260045260246000fd5b500490565b805169ffffffffffffffffffff811681146104e657600080fd5b919050565b600080600080600060a0868803121561050357600080fd5b61050c866104cc565b945060208601519350604086015192506060860151915061052f608087016104cc565b9050929550929590935056fea2646970667358221220a1e272ce3ab3d9ad508f8a529000daa2767b334c5547910ae35da08733ed869964736f6c634300080e0033",
    "sourcePath": "/home/nkt/Desktop/CatPizzaToken/contracts/CatPizza.sol",
    "compiler": {
        "name": "solc",
        "version": "0.8.14+commit.80d49f37"
    },
    "functionHashes": {
        "DEAD()": "03fd2a45",
        "_feesRates()": "1c06a7e1",
        "allowance(address,address)": "dd62ed3e",
        "approve(address,uint256)": "095ea7b3",
        "automatedMarketMakerPairs(address)": "b62496f5",
        "balanceOf(address)": "70a08231",
        "burn(uint256)": "42966c68",
        "decimals()": "313ce567",
        "decreaseAllowance(address,uint256)": "a457c2d7",
        "enableTrading()": "8a8c523c",
        "excludeFromFee(address,bool)": "df8408fe",
        "getOwner()": "893d20e8",
        "increaseAllowance(address,uint256)": "39509351",
        "isExcludedFromFee(address)": "5342acb4",
        "lpPair()": "452ed4f1",
        "marketingAddress()": "a5ece941",
        "midasMultinetworkRouterManager()": "b81f15f7",
        "name()": "06fdde03",
        "owner()": "8da5cb5b",
        "setAutoLiquidityPercentPercent(uint256)": "26f64b44",
        "setMarketingAddress(address)": "906e9dd0",
        "setMarketingAddressPercent(uint256)": "7bb7f072",
        "setMaxTransactionAmount(uint256)": "1e293c10",
        "setMaxWalletAmount(uint256)": "27a14fc2",
        "setSwapThreshold(uint256)": "9d0014b1",
        "setTaxes(uint16,uint16,uint16)": "32cde664",
        "swapThreshold()": "0445b667",
        "swapTokenAddress()": "f36f79e0",
        "symbol()": "95d89b41",
        "totalSupply()": "18160ddd",
        "transfer(address,uint256)": "a9059cbb",
        "transferFrom(address,address,uint256)": "23b872dd",
        "transferOwnership(address)": "f2fde38b"
    },
    "gasEstimates": {
        "creation": {
            "codeDepositCost": "1260600",
            "executionCost": "infinite",
            "totalCost": "infinite"
        },
        "external": {
            "DEAD()": "2373",
            "_feesRates()": "2484",
            "allowance(address,address)": "infinite",
            "approve(address,uint256)": "24714",
            "automatedMarketMakerPairs(address)": "2642",
            "balanceOf(address)": "2586",
            "burn(uint256)": "54544",
            "decimals()": "267",
            "decreaseAllowance(address,uint256)": "26995",
            "enableTrading()": "28757",
            "excludeFromFee(address,bool)": "26922",
            "getOwner()": "2410",
            "increaseAllowance(address,uint256)": "27023",
            "isExcludedFromFee(address)": "2660",
            "lpPair()": "2415",
            "marketingAddress()": "2393",
            "midasMultinetworkRouterManager()": "2370",
            "name()": "infinite",
            "owner()": "2371",
            "setAutoLiquidityPercentPercent(uint256)": "24510",
            "setMarketingAddress(address)": "26778",
            "setMarketingAddressPercent(uint256)": "24532",
            "setMaxTransactionAmount(uint256)": "24554",
            "setMaxWalletAmount(uint256)": "24532",
            "setSwapThreshold(uint256)": "24575",
            "setTaxes(uint16,uint16,uint16)": "infinite",
            "swapThreshold()": "2364",
            "swapTokenAddress()": "2458",
            "symbol()": "infinite",
            "totalSupply()": "2338",
            "transfer(address,uint256)": "infinite",
            "transferFrom(address,address,uint256)": "infinite",
            "transferOwnership(address)": "26821"
        },
        "internal": {
            "_beforeTransferCheck(address,address,uint256)": "infinite",
            "_finalizeTransfer(address,address,uint256)": "infinite",
            "_transfer(address,address,uint256)": "infinite",
            "calcBuySellTransferFee(address,address,uint256)": "8955",
            "contractMustSwap(address,address)": "infinite",
            "getPathForTokensToTokens(address,address)": "infinite",
            "swapTokensForBNB(uint256)": "infinite"
        }
    }
}