{
    "contractName": "CatPizza",
    "abi": [
        {
            "inputs": [],
            "stateMutability": "nonpayable",
            "type": "constructor"
        },
        {
            "anonymous": false,
            "inputs": [
                {
                    "indexed": true,
                    "internalType": "address",
                    "name": "owner",
                    "type": "address"
                },
                {
                    "indexed": true,
                    "internalType": "address",
                    "name": "spender",
                    "type": "address"
                },
                {
                    "indexed": false,
                    "internalType": "uint256",
                    "name": "value",
                    "type": "uint256"
                }
            ],
            "name": "Approval",
            "type": "event"
        },
        {
            "anonymous": false,
            "inputs": [
                {
                    "indexed": true,
                    "internalType": "address",
                    "name": "sender",
                    "type": "address"
                },
                {
                    "indexed": false,
                    "internalType": "uint256",
                    "name": "amount",
                    "type": "uint256"
                }
            ],
            "name": "Burn",
            "type": "event"
        },
        {
            "anonymous": false,
            "inputs": [
                {
                    "indexed": true,
                    "internalType": "address",
                    "name": "previousOwner",
                    "type": "address"
                },
                {
                    "indexed": true,
                    "internalType": "address",
                    "name": "newOwner",
                    "type": "address"
                }
            ],
            "name": "OwnershipTransferred",
            "type": "event"
        },
        {
            "anonymous": false,
            "inputs": [
                {
                    "indexed": true,
                    "internalType": "address",
                    "name": "from",
                    "type": "address"
                },
                {
                    "indexed": true,
                    "internalType": "address",
                    "name": "to",
                    "type": "address"
                },
                {
                    "indexed": false,
                    "internalType": "uint256",
                    "name": "value",
                    "type": "uint256"
                }
            ],
            "name": "Transfer",
            "type": "event"
        },
        {
            "inputs": [],
            "name": "DEAD",
            "outputs": [
                {
                    "internalType": "address",
                    "name": "",
                    "type": "address"
                }
            ],
            "stateMutability": "view",
            "type": "function"
        },
        {
            "inputs": [],
            "name": "_feesRates",
            "outputs": [
                {
                    "internalType": "uint16",
                    "name": "buyFee",
                    "type": "uint16"
                },
                {
                    "internalType": "uint16",
                    "name": "sellFee",
                    "type": "uint16"
                },
                {
                    "internalType": "uint16",
                    "name": "transferFee",
                    "type": "uint16"
                }
            ],
            "stateMutability": "view",
            "type": "function"
        },
        {
            "inputs": [
                {
                    "internalType": "address",
                    "name": "owner",
                    "type": "address"
                },
                {
                    "internalType": "address",
                    "name": "spender",
                    "type": "address"
                }
            ],
            "name": "allowance",
            "outputs": [
                {
                    "internalType": "uint256",
                    "name": "",
                    "type": "uint256"
                }
            ],
            "stateMutability": "view",
            "type": "function"
        },
        {
            "inputs": [
                {
                    "internalType": "address",
                    "name": "spender",
                    "type": "address"
                },
                {
                    "internalType": "uint256",
                    "name": "amount",
                    "type": "uint256"
                }
            ],
            "name": "approve",
            "outputs": [
                {
                    "internalType": "bool",
                    "name": "",
                    "type": "bool"
                }
            ],
            "stateMutability": "nonpayable",
            "type": "function"
        },
        {
            "inputs": [
                {
                    "internalType": "uint256",
                    "name": "tokenAmount",
                    "type": "uint256"
                }
            ],
            "name": "autoLiquidity",
            "outputs": [],
            "stateMutability": "nonpayable",
            "type": "function"
        },
        {
            "inputs": [
                {
                    "internalType": "address",
                    "name": "",
                    "type": "address"
                }
            ],
            "name": "automatedMarketMakerPairs",
            "outputs": [
                {
                    "internalType": "bool",
                    "name": "",
                    "type": "bool"
                }
            ],
            "stateMutability": "view",
            "type": "function"
        },
        {
            "inputs": [
                {
                    "internalType": "address",
                    "name": "account",
                    "type": "address"
                }
            ],
            "name": "balanceOf",
            "outputs": [
                {
                    "internalType": "uint256",
                    "name": "",
                    "type": "uint256"
                }
            ],
            "stateMutability": "view",
            "type": "function"
        },
        {
            "inputs": [
                {
                    "internalType": "uint256",
                    "name": "amount",
                    "type": "uint256"
                }
            ],
            "name": "burn",
            "outputs": [],
            "stateMutability": "nonpayable",
            "type": "function"
        },
        {
            "inputs": [],
            "name": "decimals",
            "outputs": [
                {
                    "internalType": "uint8",
                    "name": "",
                    "type": "uint8"
                }
            ],
            "stateMutability": "view",
            "type": "function"
        },
        {
            "inputs": [
                {
                    "internalType": "address",
                    "name": "spender",
                    "type": "address"
                },
                {
                    "internalType": "uint256",
                    "name": "subtractedValue",
                    "type": "uint256"
                }
            ],
            "name": "decreaseAllowance",
            "outputs": [
                {
                    "internalType": "bool",
                    "name": "",
                    "type": "bool"
                }
            ],
            "stateMutability": "nonpayable",
            "type": "function"
        },
        {
            "inputs": [],
            "name": "dexRouter",
            "outputs": [
                {
                    "internalType": "contract IJoeRouter02",
                    "name": "",
                    "type": "address"
                }
            ],
            "stateMutability": "view",
            "type": "function"
        },
        {
            "inputs": [],
            "name": "enableSell",
            "outputs": [],
            "stateMutability": "nonpayable",
            "type": "function"
        },
        {
            "inputs": [],
            "name": "enableTrading",
            "outputs": [],
            "stateMutability": "nonpayable",
            "type": "function"
        },
        {
            "inputs": [
                {
                    "internalType": "address",
                    "name": "account",
                    "type": "address"
                },
                {
                    "internalType": "bool",
                    "name": "val",
                    "type": "bool"
                }
            ],
            "name": "excludeFromFee",
            "outputs": [],
            "stateMutability": "nonpayable",
            "type": "function"
        },
        {
            "inputs": [],
            "name": "getOwner",
            "outputs": [
                {
                    "internalType": "address",
                    "name": "",
                    "type": "address"
                }
            ],
            "stateMutability": "view",
            "type": "function"
        },
        {
            "inputs": [
                {
                    "internalType": "address",
                    "name": "spender",
                    "type": "address"
                },
                {
                    "internalType": "uint256",
                    "name": "addedValue",
                    "type": "uint256"
                }
            ],
            "name": "increaseAllowance",
            "outputs": [
                {
                    "internalType": "bool",
                    "name": "",
                    "type": "bool"
                }
            ],
            "stateMutability": "nonpayable",
            "type": "function"
        },
        {
            "inputs": [
                {
                    "internalType": "address",
                    "name": "account",
                    "type": "address"
                }
            ],
            "name": "isExcludedFromFee",
            "outputs": [
                {
                    "internalType": "bool",
                    "name": "",
                    "type": "bool"
                }
            ],
            "stateMutability": "view",
            "type": "function"
        },
        {
            "inputs": [],
            "name": "lpPair",
            "outputs": [
                {
                    "internalType": "address",
                    "name": "",
                    "type": "address"
                }
            ],
            "stateMutability": "view",
            "type": "function"
        },
        {
            "inputs": [],
            "name": "marketingAddress",
            "outputs": [
                {
                    "internalType": "address",
                    "name": "",
                    "type": "address"
                }
            ],
            "stateMutability": "view",
            "type": "function"
        },
        {
            "inputs": [],
            "name": "name",
            "outputs": [
                {
                    "internalType": "string",
                    "name": "",
                    "type": "string"
                }
            ],
            "stateMutability": "view",
            "type": "function"
        },
        {
            "inputs": [],
            "name": "owner",
            "outputs": [
                {
                    "internalType": "address",
                    "name": "",
                    "type": "address"
                }
            ],
            "stateMutability": "view",
            "type": "function"
        },
        {
            "inputs": [
                {
                    "internalType": "uint256",
                    "name": "value",
                    "type": "uint256"
                }
            ],
            "name": "setAutoLiquidityPercentPercent",
            "outputs": [],
            "stateMutability": "nonpayable",
            "type": "function"
        },
        {
            "inputs": [
                {
                    "internalType": "address",
                    "name": "account",
                    "type": "address"
                }
            ],
            "name": "setMarketingAddress",
            "outputs": [],
            "stateMutability": "nonpayable",
            "type": "function"
        },
        {
            "inputs": [
                {
                    "internalType": "uint256",
                    "name": "value",
                    "type": "uint256"
                }
            ],
            "name": "setMarketingAddressPercent",
            "outputs": [],
            "stateMutability": "nonpayable",
            "type": "function"
        },
        {
            "inputs": [
                {
                    "internalType": "uint256",
                    "name": "value",
                    "type": "uint256"
                }
            ],
            "name": "setMaxTransactionAmount",
            "outputs": [],
            "stateMutability": "nonpayable",
            "type": "function"
        },
        {
            "inputs": [
                {
                    "internalType": "uint256",
                    "name": "value",
                    "type": "uint256"
                }
            ],
            "name": "setMaxWalletAmount",
            "outputs": [],
            "stateMutability": "nonpayable",
            "type": "function"
        },
        {
            "inputs": [
                {
                    "internalType": "uint256",
                    "name": "value",
                    "type": "uint256"
                }
            ],
            "name": "setSwapThreshold",
            "outputs": [],
            "stateMutability": "nonpayable",
            "type": "function"
        },
        {
            "inputs": [
                {
                    "internalType": "uint16",
                    "name": "buyFee",
                    "type": "uint16"
                },
                {
                    "internalType": "uint16",
                    "name": "sellFee",
                    "type": "uint16"
                },
                {
                    "internalType": "uint16",
                    "name": "transferFee",
                    "type": "uint16"
                }
            ],
            "name": "setTaxes",
            "outputs": [],
            "stateMutability": "nonpayable",
            "type": "function"
        },
        {
            "inputs": [],
            "name": "swapThreshold",
            "outputs": [
                {
                    "internalType": "uint256",
                    "name": "",
                    "type": "uint256"
                }
            ],
            "stateMutability": "view",
            "type": "function"
        },
        {
            "inputs": [],
            "name": "swapTokenAddress",
            "outputs": [
                {
                    "internalType": "address",
                    "name": "",
                    "type": "address"
                }
            ],
            "stateMutability": "view",
            "type": "function"
        },
        {
            "inputs": [],
            "name": "symbol",
            "outputs": [
                {
                    "internalType": "string",
                    "name": "",
                    "type": "string"
                }
            ],
            "stateMutability": "view",
            "type": "function"
        },
        {
            "inputs": [],
            "name": "totalSupply",
            "outputs": [
                {
                    "internalType": "uint256",
                    "name": "",
                    "type": "uint256"
                }
            ],
            "stateMutability": "view",
            "type": "function"
        },
        {
            "inputs": [
                {
                    "internalType": "address",
                    "name": "to",
                    "type": "address"
                },
                {
                    "internalType": "uint256",
                    "name": "amount",
                    "type": "uint256"
                }
            ],
            "name": "transfer",
            "outputs": [
                {
                    "internalType": "bool",
                    "name": "",
                    "type": "bool"
                }
            ],
            "stateMutability": "nonpayable",
            "type": "function"
        },
        {
            "inputs": [
                {
                    "internalType": "address",
                    "name": "from",
                    "type": "address"
                },
                {
                    "internalType": "address",
                    "name": "to",
                    "type": "address"
                },
                {
                    "internalType": "uint256",
                    "name": "amount",
                    "type": "uint256"
                }
            ],
            "name": "transferFrom",
            "outputs": [
                {
                    "internalType": "bool",
                    "name": "",
                    "type": "bool"
                }
            ],
            "stateMutability": "nonpayable",
            "type": "function"
        },
        {
            "inputs": [
                {
                    "internalType": "address",
                    "name": "account",
                    "type": "address"
                }
            ],
            "name": "transferOwnership",
            "outputs": [],
            "stateMutability": "nonpayable",
            "type": "function"
        },
        {
            "stateMutability": "payable",
            "type": "receive"
        }
    ],
    "bytecode": "60806040523480156200001157600080fd5b50604080518082018252600881526743617450697a7a6160c01b6020808301918252835180850190945260048452630436174560e41b9084015281519192916200005e91600391620005c8565b50805162000074906004906020840190620005c8565b50505062000094336a52b7d2dcc80cd2e4000000620003b760201b60201c565b69d3c21bcecceda1000000600c819055600f819055600580546001600160a01b0319908116339081179092556010805462ffff0019169055600980548216736644ebde0f26c8f74ad18697cce8a5ac4e608cb4178155604080516060810182526103e880825260208083019190915260009183018290526014805465ffffffffffff19166303e803e81790556008805486167378867bbeef44f2326bf8ddd1941a4439382ef2a717815595825260118152828220805460ff199081166001908117909255308452848420805482168317905594546001600160a01b039081168452848420805487168317905596549096168252908290208054909316909417909155600a93909355611b58600d55610bb8600e5560138054909116739ac64cc6e4415144c455bd8e4837fea55603e5c3908117909155825163c45a015560e01b815292519092839263c45a0155926004838101938290030181865afa15801562000202573d6000803e3d6000fd5b505050506040513d601f19601f820116820180604052508101906200022891906200066e565b6001600160a01b031663c9c6539630601360009054906101000a90046001600160a01b03166001600160a01b03166373b295c26040518163ffffffff1660e01b8152600401602060405180830381865afa1580156200028b573d6000803e3d6000fd5b505050506040513d601f19601f82011682018060405250810190620002b191906200066e565b6040516001600160e01b031960e085901b1681526001600160a01b039283166004820152911660248201526044016020604051808303816000875af1158015620002ff573d6000803e3d6000fd5b505050506040513d601f19601f820116820180604052508101906200032591906200066e565b600780546001600160a01b0319166001600160a01b039290921691821790556000908152601260205260409020805460ff191660011790556200036c3382600019620004a0565b6200037b3082600019620004a0565b60085462000396906001600160a01b031682600019620004a0565b50600680546001600160a01b03191661dead179055612710600b5562000703565b6001600160a01b038216620004135760405162461bcd60e51b815260206004820152601f60248201527f45524332303a206d696e7420746f20746865207a65726f20616464726573730060448201526064015b60405180910390fd5b8060026000828254620004279190620006a0565b90915550506001600160a01b0382166000908152602081905260408120805483929062000456908490620006a0565b90915550506040518181526001600160a01b038316906000907fddf252ad1be2c89b69c2b068fc378daa952ba7f163c4a11628f55a4df523b3ef9060200160405180910390a35050565b6001600160a01b038316620005045760405162461bcd60e51b8152602060048201526024808201527f45524332303a20617070726f76652066726f6d20746865207a65726f206164646044820152637265737360e01b60648201526084016200040a565b6001600160a01b038216620005675760405162461bcd60e51b815260206004820152602260248201527f45524332303a20617070726f766520746f20746865207a65726f206164647265604482015261737360f01b60648201526084016200040a565b6001600160a01b0383811660008181526001602090815260408083209487168084529482529182902085905590518481527f8c5be1e5ebec7d5bd14f71427d1e84f3dd0314c0f7b2291e5b200ac8c7c3b925910160405180910390a3505050565b828054620005d690620006c7565b90600052602060002090601f016020900481019282620005fa576000855562000645565b82601f106200061557805160ff191683800117855562000645565b8280016001018555821562000645579182015b828111156200064557825182559160200191906001019062000628565b506200065392915062000657565b5090565b5b8082111562000653576000815560010162000658565b6000602082840312156200068157600080fd5b81516001600160a01b03811681146200069957600080fd5b9392505050565b60008219821115620006c257634e487b7160e01b600052601160045260246000fd5b500190565b600181811c90821680620006dc57607f821691505b602082108103620006fd57634e487b7160e01b600052602260045260246000fd5b50919050565b6120d280620007136000396000f3fe6080604052600436106102085760003560e01c80635f56315b11610118578063a457c2d7116100a0578063c6aca36b1161006f578063c6aca36b1461064c578063dd62ed3e1461066c578063df8408fe1461068c578063f2fde38b146106ac578063f36f79e0146106cc57600080fd5b8063a457c2d7146105bc578063a5ece941146105dc578063a9059cbb146105fc578063b62496f51461061c57600080fd5b80638a8c523c116100e75780638a8c523c146105325780638da5cb5b14610547578063906e9dd01461056757806395d89b41146105875780639d0014b11461059c57600080fd5b80635f56315b146104a957806370a08231146104be5780637bb7f072146104f4578063893d20e81461051457600080fd5b806323b872dd1161019b57806332cde6641161016a57806332cde664146103f0578063395093511461041057806342966c6814610430578063452ed4f1146104505780635342acb41461047057600080fd5b806323b872dd1461037457806326f64b441461039457806327a14fc2146103b4578063313ce567146103d457600080fd5b8063095ea7b3116101d7578063095ea7b3146102b757806318160ddd146102e75780631c06a7e1146102fc5780631e293c101461035257600080fd5b806303fd2a45146102145780630445b6671461025157806306fdde03146102755780630758d9241461029757600080fd5b3661020f57005b600080fd5b34801561022057600080fd5b50600654610234906001600160a01b031681565b6040516001600160a01b0390911681526020015b60405180910390f35b34801561025d57600080fd5b50610267600a5481565b604051908152602001610248565b34801561028157600080fd5b5061028a6106ec565b6040516102489190611cd2565b3480156102a357600080fd5b50601354610234906001600160a01b031681565b3480156102c357600080fd5b506102d76102d2366004611d3f565b61077e565b6040519015158152602001610248565b3480156102f357600080fd5b50600254610267565b34801561030857600080fd5b5060145461032d9061ffff808216916201000081048216916401000000009091041683565b6040805161ffff94851681529284166020840152921691810191909152606001610248565b34801561035e57600080fd5b5061037261036d366004611d6b565b610796565b005b34801561038057600080fd5b506102d761038f366004611d84565b6107ce565b3480156103a057600080fd5b506103726103af366004611d6b565b6107f2565b3480156103c057600080fd5b506103726103cf366004611d6b565b610821565b3480156103e057600080fd5b5060405160128152602001610248565b3480156103fc57600080fd5b5061037261040b366004611ddc565b610850565b34801561041c57600080fd5b506102d761042b366004611d3f565b6108b9565b34801561043c57600080fd5b5061037261044b366004611d6b565b6108db565b34801561045c57600080fd5b50600754610234906001600160a01b031681565b34801561047c57600080fd5b506102d761048b366004611e1f565b6001600160a01b031660009081526011602052604090205460ff1690565b3480156104b557600080fd5b50610372610994565b3480156104ca57600080fd5b506102676104d9366004611e1f565b6001600160a01b031660009081526020819052604090205490565b34801561050057600080fd5b5061037261050f366004611d6b565b6109d1565b34801561052057600080fd5b506005546001600160a01b0316610234565b34801561053e57600080fd5b50610372610a00565b34801561055357600080fd5b50600554610234906001600160a01b031681565b34801561057357600080fd5b50610372610582366004611e1f565b610a93565b34801561059357600080fd5b5061028a610adf565b3480156105a857600080fd5b506103726105b7366004611d6b565b610aee565b3480156105c857600080fd5b506102d76105d7366004611d3f565b610b1d565b3480156105e857600080fd5b50600954610234906001600160a01b031681565b34801561060857600080fd5b506102d7610617366004611d3f565b610b98565b34801561062857600080fd5b506102d7610637366004611e1f565b60126020526000908152604090205460ff1681565b34801561065857600080fd5b50610372610667366004611d6b565b610ba6565b34801561067857600080fd5b50610267610687366004611e43565b610bdd565b34801561069857600080fd5b506103726106a7366004611e8a565b610c08565b3480156106b857600080fd5b506103726106c7366004611e1f565b610c5d565b3480156106d857600080fd5b50600854610234906001600160a01b031681565b6060600380546106fb90611eb8565b80601f016020809104026020016040519081016040528092919081815260200182805461072790611eb8565b80156107745780601f1061074957610100808354040283529160200191610774565b820191906000526020600020905b81548152906001019060200180831161075757829003601f168201915b5050505050905090565b60003361078c818585610ca9565b5060019392505050565b6005546001600160a01b031633146107c95760405162461bcd60e51b81526004016107c090611ef2565b60405180910390fd5b600f55565b6000336107dc858285610dcd565b6107e7858585610e41565b506001949350505050565b6005546001600160a01b0316331461081c5760405162461bcd60e51b81526004016107c090611ef2565b600e55565b6005546001600160a01b0316331461084b5760405162461bcd60e51b81526004016107c090611ef2565b600c55565b6005546001600160a01b0316331461087a5760405162461bcd60e51b81526004016107c090611ef2565b6014805461ffff94851663ffffffff199091161762010000938516939093029290921765ffff0000000019166401000000009190931602919091179055565b60003361078c8185856108cc8383610bdd565b6108d69190611f3d565b610ca9565b336000908152602081905260409020548111156109525760405162461bcd60e51b815260206004820152602f60248201527f4275726e20616d6f756e742073686f756c64206265206c657373207468616e2060448201526e6163636f756e742062616c616e636560881b60648201526084016107c0565b61095c3382610ed5565b60405181815233907fcc16f5dbb4873280815c1ee09dbd06736cffcc184412cf7a71a0fdb75d397ca59060200160405180910390a250565b6005546001600160a01b031633146109be5760405162461bcd60e51b81526004016107c090611ef2565b6010805462ff0000191662010000179055565b6005546001600160a01b031633146109fb5760405162461bcd60e51b81526004016107c090611ef2565b600d55565b6005546001600160a01b03163314610a2a5760405162461bcd60e51b81526004016107c090611ef2565b601054610100900460ff1615610a825760405162461bcd60e51b815260206004820152601e60248201527f54726164696e67456e61626c656420616c72656164792061637469766564000060448201526064016107c0565b6010805461ff001916610100179055565b6005546001600160a01b03163314610abd5760405162461bcd60e51b81526004016107c090611ef2565b600980546001600160a01b0319166001600160a01b0392909216919091179055565b6060600480546106fb90611eb8565b6005546001600160a01b03163314610b185760405162461bcd60e51b81526004016107c090611ef2565b600a55565b60003381610b2b8286610bdd565b905083811015610b8b5760405162461bcd60e51b815260206004820152602560248201527f45524332303a2064656372656173656420616c6c6f77616e63652062656c6f77604482015264207a65726f60d81b60648201526084016107c0565b6107e78286868403610ca9565b60003361078c818585610e41565b6000610bb3600283611f55565b905047610bbf82611023565b6000610bcb8247611f77565b9050610bd78382611186565b50505050565b6001600160a01b03918216600090815260016020908152604080832093909416825291909152205490565b6005546001600160a01b03163314610c325760405162461bcd60e51b81526004016107c090611ef2565b6001600160a01b03919091166000908152601160205260409020805460ff1916911515919091179055565b6005546001600160a01b03163314610c875760405162461bcd60e51b81526004016107c090611ef2565b600580546001600160a01b0319166001600160a01b0392909216919091179055565b6001600160a01b038316610d0b5760405162461bcd60e51b8152602060048201526024808201527f45524332303a20617070726f76652066726f6d20746865207a65726f206164646044820152637265737360e01b60648201526084016107c0565b6001600160a01b038216610d6c5760405162461bcd60e51b815260206004820152602260248201527f45524332303a20617070726f766520746f20746865207a65726f206164647265604482015261737360f01b60648201526084016107c0565b6001600160a01b0383811660008181526001602090815260408083209487168084529482529182902085905590518481527f8c5be1e5ebec7d5bd14f71427d1e84f3dd0314c0f7b2291e5b200ac8c7c3b925910160405180910390a3505050565b6000610dd98484610bdd565b90506000198114610bd75781811015610e345760405162461bcd60e51b815260206004820152601d60248201527f45524332303a20696e73756666696369656e7420616c6c6f77616e636500000060448201526064016107c0565b610bd78484848403610ca9565b610e4c838383611269565b60105460ff1615610e6757610e62838383611676565b505050565b610e718383611844565b15610eca5730600090815260208190526040902054600b54600d54610eaa9190610e9b9084611f8e565b610ea59190611f55565b6118f9565b610ec8600b54600e5483610ebe9190611f8e565b6106679190611f55565b505b610e62838383611b95565b6001600160a01b038216610f355760405162461bcd60e51b815260206004820152602160248201527f45524332303a206275726e2066726f6d20746865207a65726f206164647265736044820152607360f81b60648201526084016107c0565b6001600160a01b03821660009081526020819052604090205481811015610fa95760405162461bcd60e51b815260206004820152602260248201527f45524332303a206275726e20616d6f756e7420657863656564732062616c616e604482015261636560f01b60648201526084016107c0565b6001600160a01b0383166000908152602081905260408120838303905560028054849290610fd8908490611f77565b90915550506040518281526000906001600160a01b038516907fddf252ad1be2c89b69c2b068fc378daa952ba7f163c4a11628f55a4df523b3ef9060200160405180910390a3505050565b604080516002808252606082018352600092602083019080368337019050509050308160008151811061105857611058611fad565b6001600160a01b03928316602091820292909201810191909152601354604080516339d94ae160e11b8152905191909316926373b295c29260048083019391928290030181865afa1580156110b1573d6000803e3d6000fd5b505050506040513d601f19601f820116820180604052508101906110d59190611fc3565b816001815181106110e8576110e8611fad565b6001600160a01b03928316602091820292909201015260135461110e9130911684610ca9565b6013546001600160a01b031663762b15628360008430611130426103e8611f3d565b6040518663ffffffff1660e01b8152600401611150959493929190611fe0565b600060405180830381600087803b15801561116a57600080fd5b505af115801561117e573d6000803e3d6000fd5b505050505050565b6013546111a09030906001600160a01b0316600019610ca9565b6013546005546001600160a01b039182169163f91b3f72918491309187916000918291166111d042612710611f3d565b60405160e089901b6001600160e01b03191681526001600160a01b039687166004820152602481019590955260448501939093526064840191909152909216608482015260a481019190915260c40160606040518083038185885af115801561123d573d6000803e3d6000fd5b50505050506040513d601f19601f820116820180604052508101906112629190612051565b5050505050565b6001600160a01b0383166112d55760405162461bcd60e51b815260206004820152602d60248201527f45524332303a207472616e736665722066726f6d20746865205a45524f5f414460448201526c4452455353206164647265737360981b60648201526084016107c0565b6001600160a01b03821661133f5760405162461bcd60e51b815260206004820152602b60248201527f45524332303a207472616e7366657220746f20746865205a45524f5f4144445260448201526a455353206164647265737360a81b60648201526084016107c0565b600081116113a95760405162461bcd60e51b815260206004820152603160248201527f5472616e7366657220616d6f756e74206d7573742062652067726561746572206044820152707468616e205a45524f5f4144445245535360781b60648201526084016107c0565b6005546001600160a01b038481169116148015906113d557506005546001600160a01b03838116911614155b80156113e957506001600160a01b03821615155b801561140057506001600160a01b03821661dead14155b801561140f575060105460ff16155b15610e6257601054610100900460ff166114605760405162461bcd60e51b815260206004820152601260248201527154726164696e67206e6f742061637469766560701b60448201526064016107c0565b601054610100900460ff16156114e9576001600160a01b03821660009081526012602052604090205460ff16156114e95760105462010000900460ff166114e95760405162461bcd60e51b815260206004820152601a60248201527f53656c6c206e6f74206163746976652028686f6e6579706f742900000000000060448201526064016107c0565b6001600160a01b03831660009081526012602052604090205460ff16156115e457600f5481111561157a5760405162461bcd60e51b815260206004820152603560248201527f427579207472616e7366657220616d6f756e742065786365656473207468652060448201527436b0bc2a3930b739b0b1ba34b7b720b6b7bab73a1760591b60648201526084016107c0565b600c546001600160a01b0383166000908152602081905260409020546115a09083611f3d565b1115610e625760405162461bcd60e51b815260206004820152601360248201527213585e081dd85b1b195d08195e18d959591959606a1b60448201526064016107c0565b6001600160a01b03821660009081526012602052604090205460ff161561157a57600f54811115610e625760405162461bcd60e51b815260206004820152603660248201527f53656c6c207472616e7366657220616d6f756e742065786365656473207468656044820152751036b0bc2a3930b739b0b1ba34b7b720b6b7bab73a1760511b60648201526084016107c0565b6001600160a01b0383166116da5760405162461bcd60e51b815260206004820152602560248201527f45524332303a207472616e736665722066726f6d20746865207a65726f206164604482015264647265737360d81b60648201526084016107c0565b6001600160a01b03821661173c5760405162461bcd60e51b815260206004820152602360248201527f45524332303a207472616e7366657220746f20746865207a65726f206164647260448201526265737360e81b60648201526084016107c0565b6001600160a01b038316600090815260208190526040902054818110156117b45760405162461bcd60e51b815260206004820152602660248201527f45524332303a207472616e7366657220616d6f756e7420657863656564732062604482015265616c616e636560d01b60648201526084016107c0565b6001600160a01b038085166000908152602081905260408082208585039055918516815290812080548492906117eb908490611f3d565b92505081905550826001600160a01b0316846001600160a01b03167fddf252ad1be2c89b69c2b068fc378daa952ba7f163c4a11628f55a4df523b3ef8460405161183791815260200190565b60405180910390a3610bd7565b30600090815260208190526040812054600a548110158015611869575060105460ff16155b801561188357506007546001600160a01b03858116911614155b80156118a757506007546001600160a01b0316600090815260208190526040812054115b80156118cc57506001600160a01b03831660009081526011602052604090205460ff16155b80156118f157506001600160a01b03841660009081526011602052604090205460ff16155b949350505050565b6040805160038082526080820190925260009160208201606080368337019050509050308160008151811061193057611930611fad565b6001600160a01b03928316602091820292909201810191909152601354604080516339d94ae160e11b8152905191909316926373b295c29260048083019391928290030181865afa158015611989573d6000803e3d6000fd5b505050506040513d601f19601f820116820180604052508101906119ad9190611fc3565b816001815181106119c0576119c0611fad565b6001600160a01b0392831660209182029290920101526008548251911690829060029081106119f1576119f1611fad565b6001600160a01b03928316602091820292909201015260085460135460405163095ea7b360e01b81529083166004820152600019602482015291169063095ea7b3906044016020604051808303816000875af1158015611a55573d6000803e3d6000fd5b505050506040513d601f19601f82011682018060405250810190611a79919061207f565b50601360009054906101000a90046001600160a01b03166001600160a01b03166373b295c26040518163ffffffff1660e01b8152600401602060405180830381865afa158015611acd573d6000803e3d6000fd5b505050506040513d601f19601f82011682018060405250810190611af19190611fc3565b60135460405163095ea7b360e01b81526001600160a01b039182166004820152600019602482015291169063095ea7b3906044016020604051808303816000875af1158015611b44573d6000803e3d6000fd5b505050506040513d601f19601f82011682018060405250810190611b68919061207f565b506013546009546001600160a01b0391821691635c11d795918591600091869116611130426103e8611f3d565b6001600160a01b03831660009081526011602052604081205482919060019060ff1680611bda57506001600160a01b03851660009081526011602052604090205460ff165b15611be3575060005b8015611c0d57611bf4868686611c18565b9150611c008285611f77565b9250611c0d863084611676565b61117e868685611676565b6001600160a01b0383166000908152601260205260408120548190819060ff1615611c5557601454611c4e9061ffff1683611f3d565b9150611ca9565b6001600160a01b03851660009081526012602052604090205460ff1615611c8d57601454611c4e9062010000900461ffff1683611f3d565b601454611ca690640100000000900461ffff1683611f3d565b91505b8115611cc957600b54611cbc8386611f8e565b611cc69190611f55565b90505b95945050505050565b600060208083528351808285015260005b81811015611cff57858101830151858201604001528201611ce3565b81811115611d11576000604083870101525b50601f01601f1916929092016040019392505050565b6001600160a01b0381168114611d3c57600080fd5b50565b60008060408385031215611d5257600080fd5b8235611d5d81611d27565b946020939093013593505050565b600060208284031215611d7d57600080fd5b5035919050565b600080600060608486031215611d9957600080fd5b8335611da481611d27565b92506020840135611db481611d27565b929592945050506040919091013590565b803561ffff81168114611dd757600080fd5b919050565b600080600060608486031215611df157600080fd5b611dfa84611dc5565b9250611e0860208501611dc5565b9150611e1660408501611dc5565b90509250925092565b600060208284031215611e3157600080fd5b8135611e3c81611d27565b9392505050565b60008060408385031215611e5657600080fd5b8235611e6181611d27565b91506020830135611e7181611d27565b809150509250929050565b8015158114611d3c57600080fd5b60008060408385031215611e9d57600080fd5b8235611ea881611d27565b91506020830135611e7181611e7c565b600181811c90821680611ecc57607f821691505b602082108103611eec57634e487b7160e01b600052602260045260246000fd5b50919050565b6020808252818101527f4f776e61626c653a2063616c6c6572206973206e6f7420746865206f776e6572604082015260600190565b634e487b7160e01b600052601160045260246000fd5b60008219821115611f5057611f50611f27565b500190565b600082611f7257634e487b7160e01b600052601260045260246000fd5b500490565b600082821015611f8957611f89611f27565b500390565b6000816000190483118215151615611fa857611fa8611f27565b500290565b634e487b7160e01b600052603260045260246000fd5b600060208284031215611fd557600080fd5b8151611e3c81611d27565b600060a082018783526020878185015260a0604085015281875180845260c086019150828901935060005b818110156120305784516001600160a01b03168352938301939183019160010161200b565b50506001600160a01b03969096166060850152505050608001529392505050565b60008060006060848603121561206657600080fd5b8351925060208401519150604084015190509250925092565b60006020828403121561209157600080fd5b8151611e3c81611e7c56fea2646970667358221220ebc8afa826c77a380ea0cfda4635524c269a3e7e8ee236af6415fba0fb177dd264736f6c634300080e0033",
    "sourcePath": "/home/nkt/Desktop/CatPizzaToken/contracts/CatPizza.sol",
    "compiler": {
        "name": "solc",
        "version": "0.8.14+commit.80d49f37"
    },
    "functionHashes": {
        "DEAD()": "03fd2a45",
        "_feesRates()": "1c06a7e1",
        "allowance(address,address)": "dd62ed3e",
        "approve(address,uint256)": "095ea7b3",
        "autoLiquidity(uint256)": "c6aca36b",
        "automatedMarketMakerPairs(address)": "b62496f5",
        "balanceOf(address)": "70a08231",
        "burn(uint256)": "42966c68",
        "decimals()": "313ce567",
        "decreaseAllowance(address,uint256)": "a457c2d7",
        "dexRouter()": "0758d924",
        "enableSell()": "5f56315b",
        "enableTrading()": "8a8c523c",
        "excludeFromFee(address,bool)": "df8408fe",
        "getOwner()": "893d20e8",
        "increaseAllowance(address,uint256)": "39509351",
        "isExcludedFromFee(address)": "5342acb4",
        "lpPair()": "452ed4f1",
        "marketingAddress()": "a5ece941",
        "name()": "06fdde03",
        "owner()": "8da5cb5b",
        "setAutoLiquidityPercentPercent(uint256)": "26f64b44",
        "setMarketingAddress(address)": "906e9dd0",
        "setMarketingAddressPercent(uint256)": "7bb7f072",
        "setMaxTransactionAmount(uint256)": "1e293c10",
        "setMaxWalletAmount(uint256)": "27a14fc2",
        "setSwapThreshold(uint256)": "9d0014b1",
        "setTaxes(uint16,uint16,uint16)": "32cde664",
        "swapThreshold()": "0445b667",
        "swapTokenAddress()": "f36f79e0",
        "symbol()": "95d89b41",
        "totalSupply()": "18160ddd",
        "transfer(address,uint256)": "a9059cbb",
        "transferFrom(address,address,uint256)": "23b872dd",
        "transferOwnership(address)": "f2fde38b"
    },
    "gasEstimates": {
        "creation": {
            "codeDepositCost": "1680400",
            "executionCost": "infinite",
            "totalCost": "infinite"
        },
        "external": {
            "DEAD()": "2373",
            "_feesRates()": "2506",
            "allowance(address,address)": "infinite",
            "approve(address,uint256)": "24641",
            "autoLiquidity(uint256)": "infinite",
            "automatedMarketMakerPairs(address)": "2636",
            "balanceOf(address)": "2602",
            "burn(uint256)": "54566",
            "decimals()": "289",
            "decreaseAllowance(address,uint256)": "26989",
            "dexRouter()": "2439",
            "enableSell()": "26554",
            "enableTrading()": "28690",
            "excludeFromFee(address,bool)": "infinite",
            "getOwner()": "2432",
            "increaseAllowance(address,uint256)": "27039",
            "isExcludedFromFee(address)": "2676",
            "lpPair()": "2437",
            "marketingAddress()": "2393",
            "name()": "infinite",
            "owner()": "2393",
            "setAutoLiquidityPercentPercent(uint256)": "24532",
            "setMarketingAddress(address)": "26794",
            "setMarketingAddressPercent(uint256)": "24554",
            "setMaxTransactionAmount(uint256)": "24576",
            "setMaxWalletAmount(uint256)": "24554",
            "setSwapThreshold(uint256)": "24597",
            "setTaxes(uint16,uint16,uint16)": "infinite",
            "swapThreshold()": "2364",
            "swapTokenAddress()": "2458",
            "symbol()": "infinite",
            "totalSupply()": "2360",
            "transfer(address,uint256)": "infinite",
            "transferFrom(address,address,uint256)": "infinite",
            "transferOwnership(address)": "26815"
        },
        "internal": {
            "_beforeTransferCheck(address,address,uint256)": "infinite",
            "_finalizeTransfer(address,address,uint256)": "infinite",
            "_transfer(address,address,uint256)": "infinite",
            "addLiquidity(uint256,uint256)": "infinite",
            "calcBuySellTransferFee(address,address,uint256)": "8955",
            "contractMustSwap(address,address)": "17370",
            "getPathForTokensToTokens(address,address)": "infinite",
            "swapTokensForBNB(uint256)": "infinite",
            "swapTokensForUSD(uint256)": "infinite"
        }
    }
}