{
    "contractName": "MetaStock",
    "abi": [
        {
            "inputs": [],
            "stateMutability": "nonpayable",
            "type": "constructor"
        },
        {
            "anonymous": false,
            "inputs": [
                {
                    "indexed": true,
                    "internalType": "address",
                    "name": "owner",
                    "type": "address"
                },
                {
                    "indexed": true,
                    "internalType": "address",
                    "name": "spender",
                    "type": "address"
                },
                {
                    "indexed": false,
                    "internalType": "uint256",
                    "name": "value",
                    "type": "uint256"
                }
            ],
            "name": "Approval",
            "type": "event"
        },
        {
            "anonymous": false,
            "inputs": [
                {
                    "indexed": true,
                    "internalType": "address",
                    "name": "sender",
                    "type": "address"
                },
                {
                    "indexed": false,
                    "internalType": "uint256",
                    "name": "amount",
                    "type": "uint256"
                }
            ],
            "name": "Burn",
            "type": "event"
        },
        {
            "anonymous": false,
            "inputs": [
                {
                    "indexed": true,
                    "internalType": "address",
                    "name": "previousOwner",
                    "type": "address"
                },
                {
                    "indexed": true,
                    "internalType": "address",
                    "name": "newOwner",
                    "type": "address"
                }
            ],
            "name": "OwnershipTransferred",
            "type": "event"
        },
        {
            "anonymous": false,
            "inputs": [
                {
                    "indexed": true,
                    "internalType": "address",
                    "name": "from",
                    "type": "address"
                },
                {
                    "indexed": true,
                    "internalType": "address",
                    "name": "to",
                    "type": "address"
                },
                {
                    "indexed": false,
                    "internalType": "uint256",
                    "name": "value",
                    "type": "uint256"
                }
            ],
            "name": "Transfer",
            "type": "event"
        },
        {
            "inputs": [],
            "name": "DEAD",
            "outputs": [
                {
                    "internalType": "address",
                    "name": "",
                    "type": "address"
                }
            ],
            "stateMutability": "view",
            "type": "function"
        },
        {
            "inputs": [],
            "name": "_feesRates",
            "outputs": [
                {
                    "internalType": "uint16",
                    "name": "buyFee",
                    "type": "uint16"
                },
                {
                    "internalType": "uint16",
                    "name": "sellFee",
                    "type": "uint16"
                },
                {
                    "internalType": "uint16",
                    "name": "transferFee",
                    "type": "uint16"
                }
            ],
            "stateMutability": "view",
            "type": "function"
        },
        {
            "inputs": [
                {
                    "internalType": "address",
                    "name": "owner",
                    "type": "address"
                },
                {
                    "internalType": "address",
                    "name": "spender",
                    "type": "address"
                }
            ],
            "name": "allowance",
            "outputs": [
                {
                    "internalType": "uint256",
                    "name": "",
                    "type": "uint256"
                }
            ],
            "stateMutability": "view",
            "type": "function"
        },
        {
            "inputs": [
                {
                    "internalType": "address",
                    "name": "spender",
                    "type": "address"
                },
                {
                    "internalType": "uint256",
                    "name": "amount",
                    "type": "uint256"
                }
            ],
            "name": "approve",
            "outputs": [
                {
                    "internalType": "bool",
                    "name": "",
                    "type": "bool"
                }
            ],
            "stateMutability": "nonpayable",
            "type": "function"
        },
        {
            "inputs": [
                {
                    "internalType": "uint256",
                    "name": "tokenAmount",
                    "type": "uint256"
                }
            ],
            "name": "autoLiquidity",
            "outputs": [],
            "stateMutability": "nonpayable",
            "type": "function"
        },
        {
            "inputs": [
                {
                    "internalType": "address",
                    "name": "",
                    "type": "address"
                }
            ],
            "name": "automatedMarketMakerPairs",
            "outputs": [
                {
                    "internalType": "bool",
                    "name": "",
                    "type": "bool"
                }
            ],
            "stateMutability": "view",
            "type": "function"
        },
        {
            "inputs": [
                {
                    "internalType": "address",
                    "name": "account",
                    "type": "address"
                }
            ],
            "name": "balanceOf",
            "outputs": [
                {
                    "internalType": "uint256",
                    "name": "",
                    "type": "uint256"
                }
            ],
            "stateMutability": "view",
            "type": "function"
        },
        {
            "inputs": [
                {
                    "internalType": "uint256",
                    "name": "amount",
                    "type": "uint256"
                }
            ],
            "name": "burn",
            "outputs": [],
            "stateMutability": "nonpayable",
            "type": "function"
        },
        {
            "inputs": [],
            "name": "charityWallet",
            "outputs": [
                {
                    "internalType": "address",
                    "name": "",
                    "type": "address"
                }
            ],
            "stateMutability": "view",
            "type": "function"
        },
        {
            "inputs": [],
            "name": "decimals",
            "outputs": [
                {
                    "internalType": "uint8",
                    "name": "",
                    "type": "uint8"
                }
            ],
            "stateMutability": "view",
            "type": "function"
        },
        {
            "inputs": [
                {
                    "internalType": "address",
                    "name": "spender",
                    "type": "address"
                },
                {
                    "internalType": "uint256",
                    "name": "subtractedValue",
                    "type": "uint256"
                }
            ],
            "name": "decreaseAllowance",
            "outputs": [
                {
                    "internalType": "bool",
                    "name": "",
                    "type": "bool"
                }
            ],
            "stateMutability": "nonpayable",
            "type": "function"
        },
        {
            "inputs": [],
            "name": "dexRouter",
            "outputs": [
                {
                    "internalType": "contract IUniswapV2Router02",
                    "name": "",
                    "type": "address"
                }
            ],
            "stateMutability": "view",
            "type": "function"
        },
        {
            "inputs": [],
            "name": "enableTrading",
            "outputs": [],
            "stateMutability": "nonpayable",
            "type": "function"
        },
        {
            "inputs": [
                {
                    "internalType": "address",
                    "name": "account",
                    "type": "address"
                },
                {
                    "internalType": "bool",
                    "name": "val",
                    "type": "bool"
                }
            ],
            "name": "excludeFromFee",
            "outputs": [],
            "stateMutability": "nonpayable",
            "type": "function"
        },
        {
            "inputs": [],
            "name": "getOwner",
            "outputs": [
                {
                    "internalType": "address",
                    "name": "",
                    "type": "address"
                }
            ],
            "stateMutability": "view",
            "type": "function"
        },
        {
            "inputs": [
                {
                    "internalType": "address",
                    "name": "spender",
                    "type": "address"
                },
                {
                    "internalType": "uint256",
                    "name": "addedValue",
                    "type": "uint256"
                }
            ],
            "name": "increaseAllowance",
            "outputs": [
                {
                    "internalType": "bool",
                    "name": "",
                    "type": "bool"
                }
            ],
            "stateMutability": "nonpayable",
            "type": "function"
        },
        {
            "inputs": [
                {
                    "internalType": "address",
                    "name": "account",
                    "type": "address"
                }
            ],
            "name": "isExcludedFromFee",
            "outputs": [
                {
                    "internalType": "bool",
                    "name": "",
                    "type": "bool"
                }
            ],
            "stateMutability": "view",
            "type": "function"
        },
        {
            "inputs": [],
            "name": "lpPair",
            "outputs": [
                {
                    "internalType": "address",
                    "name": "",
                    "type": "address"
                }
            ],
            "stateMutability": "view",
            "type": "function"
        },
        {
            "inputs": [],
            "name": "name",
            "outputs": [
                {
                    "internalType": "string",
                    "name": "",
                    "type": "string"
                }
            ],
            "stateMutability": "view",
            "type": "function"
        },
        {
            "inputs": [],
            "name": "owner",
            "outputs": [
                {
                    "internalType": "address",
                    "name": "",
                    "type": "address"
                }
            ],
            "stateMutability": "view",
            "type": "function"
        },
        {
            "inputs": [
                {
                    "internalType": "uint256",
                    "name": "value",
                    "type": "uint256"
                }
            ],
            "name": "setMaxTransactionAmount",
            "outputs": [],
            "stateMutability": "nonpayable",
            "type": "function"
        },
        {
            "inputs": [
                {
                    "internalType": "uint256",
                    "name": "value",
                    "type": "uint256"
                }
            ],
            "name": "setMaxWalletAmount",
            "outputs": [],
            "stateMutability": "nonpayable",
            "type": "function"
        },
        {
            "inputs": [
                {
                    "internalType": "uint256",
                    "name": "value",
                    "type": "uint256"
                }
            ],
            "name": "setSwapThreshold",
            "outputs": [],
            "stateMutability": "nonpayable",
            "type": "function"
        },
        {
            "inputs": [
                {
                    "internalType": "uint16",
                    "name": "buyFee",
                    "type": "uint16"
                },
                {
                    "internalType": "uint16",
                    "name": "sellFee",
                    "type": "uint16"
                },
                {
                    "internalType": "uint16",
                    "name": "transferFee",
                    "type": "uint16"
                }
            ],
            "name": "setTaxes",
            "outputs": [],
            "stateMutability": "nonpayable",
            "type": "function"
        },
        {
            "inputs": [],
            "name": "swapThreshold",
            "outputs": [
                {
                    "internalType": "uint256",
                    "name": "",
                    "type": "uint256"
                }
            ],
            "stateMutability": "view",
            "type": "function"
        },
        {
            "inputs": [],
            "name": "swapTokenAddress",
            "outputs": [
                {
                    "internalType": "address",
                    "name": "",
                    "type": "address"
                }
            ],
            "stateMutability": "view",
            "type": "function"
        },
        {
            "inputs": [],
            "name": "symbol",
            "outputs": [
                {
                    "internalType": "string",
                    "name": "",
                    "type": "string"
                }
            ],
            "stateMutability": "view",
            "type": "function"
        },
        {
            "inputs": [],
            "name": "totalSupply",
            "outputs": [
                {
                    "internalType": "uint256",
                    "name": "",
                    "type": "uint256"
                }
            ],
            "stateMutability": "view",
            "type": "function"
        },
        {
            "inputs": [
                {
                    "internalType": "address",
                    "name": "to",
                    "type": "address"
                },
                {
                    "internalType": "uint256",
                    "name": "amount",
                    "type": "uint256"
                }
            ],
            "name": "transfer",
            "outputs": [
                {
                    "internalType": "bool",
                    "name": "",
                    "type": "bool"
                }
            ],
            "stateMutability": "nonpayable",
            "type": "function"
        },
        {
            "inputs": [
                {
                    "internalType": "address",
                    "name": "from",
                    "type": "address"
                },
                {
                    "internalType": "address",
                    "name": "to",
                    "type": "address"
                },
                {
                    "internalType": "uint256",
                    "name": "amount",
                    "type": "uint256"
                }
            ],
            "name": "transferFrom",
            "outputs": [
                {
                    "internalType": "bool",
                    "name": "",
                    "type": "bool"
                }
            ],
            "stateMutability": "nonpayable",
            "type": "function"
        },
        {
            "inputs": [
                {
                    "internalType": "address",
                    "name": "account",
                    "type": "address"
                }
            ],
            "name": "transferOwnership",
            "outputs": [],
            "stateMutability": "nonpayable",
            "type": "function"
        },
        {
            "inputs": [
                {
                    "internalType": "address",
                    "name": "",
                    "type": "address"
                }
            ],
            "name": "usersBuysCounter",
            "outputs": [
                {
                    "internalType": "uint256",
                    "name": "",
                    "type": "uint256"
                }
            ],
            "stateMutability": "view",
            "type": "function"
        },
        {
            "inputs": [
                {
                    "internalType": "uint256",
                    "name": "",
                    "type": "uint256"
                }
            ],
            "name": "usersLastBuysTxs",
            "outputs": [
                {
                    "internalType": "uint256",
                    "name": "",
                    "type": "uint256"
                }
            ],
            "stateMutability": "view",
            "type": "function"
        },
        {
            "inputs": [
                {
                    "internalType": "uint256",
                    "name": "",
                    "type": "uint256"
                }
            ],
            "name": "usersLastSellsTxs",
            "outputs": [
                {
                    "internalType": "uint256",
                    "name": "",
                    "type": "uint256"
                }
            ],
            "stateMutability": "view",
            "type": "function"
        },
        {
            "inputs": [
                {
                    "internalType": "address",
                    "name": "",
                    "type": "address"
                }
            ],
            "name": "usersSellCounter",
            "outputs": [
                {
                    "internalType": "uint256",
                    "name": "",
                    "type": "uint256"
                }
            ],
            "stateMutability": "view",
            "type": "function"
        },
        {
            "inputs": [],
            "name": "w1Address",
            "outputs": [
                {
                    "internalType": "address",
                    "name": "",
                    "type": "address"
                }
            ],
            "stateMutability": "view",
            "type": "function"
        },
        {
            "inputs": [],
            "name": "w2Address",
            "outputs": [
                {
                    "internalType": "address",
                    "name": "",
                    "type": "address"
                }
            ],
            "stateMutability": "view",
            "type": "function"
        },
        {
            "inputs": [],
            "name": "w3Address",
            "outputs": [
                {
                    "internalType": "address",
                    "name": "",
                    "type": "address"
                }
            ],
            "stateMutability": "view",
            "type": "function"
        },
        {
            "inputs": [],
            "name": "w4Address",
            "outputs": [
                {
                    "internalType": "address",
                    "name": "",
                    "type": "address"
                }
            ],
            "stateMutability": "view",
            "type": "function"
        },
        {
            "inputs": [],
            "name": "w5Address",
            "outputs": [
                {
                    "internalType": "address",
                    "name": "",
                    "type": "address"
                }
            ],
            "stateMutability": "view",
            "type": "function"
        },
        {
            "stateMutability": "payable",
            "type": "receive"
        }
    ],
    "bytecode": "6080604052600680546001600160a01b031990811661dead179091556008805482167378867bbeef44f2326bf8ddd1941a4439382ef2a7179055600980548216736644ebde0f26c8f74ad18697cce8a5ac4e608cb4179055600a80548216733c44cdddb6a900fa2b585dd299e03d12fa4293bc179055600b805482167390f79bf6eb2c4f870365e785982e1f101e93b906179055600c8054821673fbaa3c716da6378a0840754185bff6a05a20e1c8179055600d80548216734cf4525ea8225ef715236538a3d7f06151bfee11179055600e8054821673492a9ce7f973958454fcbcae0e22985e15cdbe58179055600f8054909116739ac64cc6e4415144c455bd8e4837fea55603e5c317905569d3c21bcecceda100000060108190556127106011556012819055610640601355610bb86014556101f4601555610b546016556107d060178190556113886018556019819055601a556103e8601b55601c553480156200016b57600080fd5b50604051806040016040528060098152602001684d65746153746f636b60b81b815250604051806040016040528060038152602001624d534b60e81b8152508160039081620001bb91906200071f565b506004620001ca82826200071f565b505050620001ea336a52b7d2dcc80cd2e40000006200046560201b60201c565b600580546001600160a01b03199081163390811790925560408051606081018252600080825261012c6020808401919091529183018190526025805465ffffffffffff191663012c0000179055938452601e8152818420805460ff19908116600190811790925530865294839020805490951617909355600f54602480549093166001600160a01b0391909116908117909255805163c45a015560e01b81529051919263c45a0155926004838101938290030181865afa158015620002b3573d6000803e3d6000fd5b505050506040513d601f19601f82011682018060405250810190620002d99190620007eb565b6001600160a01b031663c9c6539630602460009054906101000a90046001600160a01b03166001600160a01b031663ad5c46486040518163ffffffff1660e01b8152600401602060405180830381865afa1580156200033c573d6000803e3d6000fd5b505050506040513d601f19601f82011682018060405250810190620003629190620007eb565b6040516001600160e01b031960e085901b1681526001600160a01b039283166004820152911660248201526044016020604051808303816000875af1158015620003b0573d6000803e3d6000fd5b505050506040513d601f19601f82011682018060405250810190620003d69190620007eb565b600780546001600160a01b0319166001600160a01b039283169081179091556000908152601f60205260409020805460ff19166001179055600f5462000422913391166000196200054e565b600f546200043e9030906001600160a01b03166000196200054e565b600854600f546200045f916001600160a01b0390811691166000196200054e565b62000844565b6001600160a01b038216620004c15760405162461bcd60e51b815260206004820152601f60248201527f45524332303a206d696e7420746f20746865207a65726f20616464726573730060448201526064015b60405180910390fd5b8060026000828254620004d591906200081d565b90915550506001600160a01b03821660009081526020819052604081208054839290620005049084906200081d565b90915550506040518181526001600160a01b038316906000907fddf252ad1be2c89b69c2b068fc378daa952ba7f163c4a11628f55a4df523b3ef9060200160405180910390a35050565b6001600160a01b038316620005b25760405162461bcd60e51b8152602060048201526024808201527f45524332303a20617070726f76652066726f6d20746865207a65726f206164646044820152637265737360e01b6064820152608401620004b8565b6001600160a01b038216620006155760405162461bcd60e51b815260206004820152602260248201527f45524332303a20617070726f766520746f20746865207a65726f206164647265604482015261737360f01b6064820152608401620004b8565b6001600160a01b0383811660008181526001602090815260408083209487168084529482529182902085905590518481527f8c5be1e5ebec7d5bd14f71427d1e84f3dd0314c0f7b2291e5b200ac8c7c3b925910160405180910390a3505050565b505050565b634e487b7160e01b600052604160045260246000fd5b600181811c90821680620006a657607f821691505b602082108103620006c757634e487b7160e01b600052602260045260246000fd5b50919050565b601f8211156200067657600081815260208120601f850160051c81016020861015620006f65750805b601f850160051c820191505b81811015620007175782815560010162000702565b505050505050565b81516001600160401b038111156200073b576200073b6200067b565b62000753816200074c845462000691565b84620006cd565b602080601f8311600181146200078b5760008415620007725750858301515b600019600386901b1c1916600185901b17855562000717565b600085815260208120601f198616915b82811015620007bc578886015182559484019460019091019084016200079b565b5085821015620007db5787850151600019600388901b60f8161c191681555b5050505050600190811b01905550565b600060208284031215620007fe57600080fd5b81516001600160a01b03811681146200081657600080fd5b9392505050565b600082198211156200083f57634e487b7160e01b600052601160045260246000fd5b500190565b61282180620008546000396000f3fe60806040526004361061023f5760003560e01c80635932959c1161012e578063a457c2d7116100ab578063dd62ed3e1161006f578063dd62ed3e1461073f578063df8408fe1461075f578063f2fde38b1461077f578063f36f79e01461079f578063fe9a79c8146107bf57600080fd5b8063a457c2d71461068f578063a9059cbb146106af578063adb3b635146106cf578063b62496f5146106ef578063c6aca36b1461071f57600080fd5b806389e7bf1c116100f257806389e7bf1c146105f85780638a8c523c146106255780638da5cb5b1461063a57806395d89b411461065a5780639d0014b11461066f57600080fd5b80635932959c1461055a5780636f3433d41461057a57806370a082311461059a5780637b208769146105ba578063893d20e8146105da57600080fd5b8063313ce567116101bc578063452ed4f111610180578063452ed4f11461048757806347fa7c88146104a75780635342acb4146104d457806355106e5f1461050d578063578aaa001461053a57600080fd5b8063313ce567146103eb57806332cde66414610407578063395093511461042757806339d915f11461044757806342966c681461046757600080fd5b806318160ddd1161020357806318160ddd1461031e5780631c06a7e1146103335780631e293c101461038957806323b872dd146103ab57806327a14fc2146103cb57600080fd5b806303fd2a451461024b5780630445b6671461028857806306fdde03146102ac5780630758d924146102ce578063095ea7b3146102ee57600080fd5b3661024657005b600080fd5b34801561025757600080fd5b5060065461026b906001600160a01b031681565b6040516001600160a01b0390911681526020015b60405180910390f35b34801561029457600080fd5b5061029e60105481565b60405190815260200161027f565b3480156102b857600080fd5b506102c16107eb565b60405161027f91906123e2565b3480156102da57600080fd5b5060245461026b906001600160a01b031681565b3480156102fa57600080fd5b5061030e61030936600461244f565b61087d565b604051901515815260200161027f565b34801561032a57600080fd5b5060025461029e565b34801561033f57600080fd5b506025546103649061ffff808216916201000081048216916401000000009091041683565b6040805161ffff9485168152928416602084015292169181019190915260600161027f565b34801561039557600080fd5b506103a96103a436600461247b565b610895565b005b3480156103b757600080fd5b5061030e6103c6366004612494565b6108cd565b3480156103d757600080fd5b506103a96103e636600461247b565b6108f1565b3480156103f757600080fd5b506040516012815260200161027f565b34801561041357600080fd5b506103a96104223660046124ec565b610920565b34801561043357600080fd5b5061030e61044236600461244f565b610ac8565b34801561045357600080fd5b50600b5461026b906001600160a01b031681565b34801561047357600080fd5b506103a961048236600461247b565b610aea565b34801561049357600080fd5b5060075461026b906001600160a01b031681565b3480156104b357600080fd5b5061029e6104c236600461247b565b60236020526000908152604090205481565b3480156104e057600080fd5b5061030e6104ef36600461252f565b6001600160a01b03166000908152601e602052604090205460ff1690565b34801561051957600080fd5b5061029e61052836600461247b565b60226020526000908152604090205481565b34801561054657600080fd5b50600d5461026b906001600160a01b031681565b34801561056657600080fd5b5060095461026b906001600160a01b031681565b34801561058657600080fd5b50600a5461026b906001600160a01b031681565b3480156105a657600080fd5b5061029e6105b536600461252f565b610b9c565b3480156105c657600080fd5b50600e5461026b906001600160a01b031681565b3480156105e657600080fd5b506005546001600160a01b031661026b565b34801561060457600080fd5b5061029e61061336600461252f565b60216020526000908152604090205481565b34801561063157600080fd5b506103a9610bb7565b34801561064657600080fd5b5060055461026b906001600160a01b031681565b34801561066657600080fd5b506102c1610c4a565b34801561067b57600080fd5b506103a961068a36600461247b565b610c59565b34801561069b57600080fd5b5061030e6106aa36600461244f565b610c88565b3480156106bb57600080fd5b5061030e6106ca36600461244f565b610d03565b3480156106db57600080fd5b50600c5461026b906001600160a01b031681565b3480156106fb57600080fd5b5061030e61070a36600461252f565b601f6020526000908152604090205460ff1681565b34801561072b57600080fd5b506103a961073a36600461247b565b610d11565b34801561074b57600080fd5b5061029e61075a366004612553565b610d48565b34801561076b57600080fd5b506103a961077a36600461259a565b610d73565b34801561078b57600080fd5b506103a961079a36600461252f565b610dc8565b3480156107ab57600080fd5b5060085461026b906001600160a01b031681565b3480156107cb57600080fd5b5061029e6107da36600461252f565b602080526000908152604090205481565b6060600380546107fa906125c8565b80601f0160208091040260200160405190810160405280929190818152602001828054610826906125c8565b80156108735780601f1061084857610100808354040283529160200191610873565b820191906000526020600020905b81548152906001019060200180831161085657829003601f168201915b5050505050905090565b60003361088b818585610e14565b5060019392505050565b6005546001600160a01b031633146108c85760405162461bcd60e51b81526004016108bf90612602565b60405180910390fd5b601c55565b6000336108db858285610f38565b6108e6858585610fac565b506001949350505050565b6005546001600160a01b0316331461091b5760405162461bcd60e51b81526004016108bf90612602565b601255565b6005546001600160a01b0316331461094a5760405162461bcd60e51b81526004016108bf90612602565b610bb88361ffff16111561098f5760405162461bcd60e51b815260206004820152600c60248201526b4d415820425559204645455360a01b60448201526064016108bf565b610bb88261ffff1611156109d55760405162461bcd60e51b815260206004820152600d60248201526c4d41582053454c4c204645455360981b60448201526064016108bf565b610bb88161ffff161115610a1f5760405162461bcd60e51b81526020600482015260116024820152704d4158205452414e53464552204645455360781b60448201526064016108bf565b610bb881610a2d848661264d565b610a37919061264d565b61ffff161115610a895760405162461bcd60e51b815260206004820152601c60248201527f4d4158204255592c2053454c4c2c205452414e5346455220464545530000000060448201526064016108bf565b6025805461ffff94851663ffffffff199091161762010000938516939093029290921765ffff0000000019166401000000009190931602919091179055565b60003361088b818585610adb8383610d48565b610ae59190612673565b610e14565b610af333610b9c565b811115610b5a5760405162461bcd60e51b815260206004820152602f60248201527f4275726e20616d6f756e742073686f756c64206265206c657373207468616e2060448201526e6163636f756e742062616c616e636560881b60648201526084016108bf565b610b6433826110f0565b60405181815233907fcc16f5dbb4873280815c1ee09dbd06736cffcc184412cf7a71a0fdb75d397ca59060200160405180910390a250565b6001600160a01b031660009081526020819052604090205490565b6005546001600160a01b03163314610be15760405162461bcd60e51b81526004016108bf90612602565b601d54610100900460ff1615610c395760405162461bcd60e51b815260206004820152601e60248201527f54726164696e67456e61626c656420616c72656164792061637469766564000060448201526064016108bf565b601d805461ff001916610100179055565b6060600480546107fa906125c8565b6005546001600160a01b03163314610c835760405162461bcd60e51b81526004016108bf90612602565b601055565b60003381610c968286610d48565b905083811015610cf65760405162461bcd60e51b815260206004820152602560248201527f45524332303a2064656372656173656420616c6c6f77616e63652062656c6f77604482015264207a65726f60d81b60648201526084016108bf565b6108e68286868403610e14565b60003361088b818585610fac565b6000610d1e60028361268b565b905047610d2a8261123e565b6000610d3682476126ad565b9050610d4283826113a1565b50505050565b6001600160a01b03918216600090815260016020908152604080832093909416825291909152205490565b6005546001600160a01b03163314610d9d5760405162461bcd60e51b81526004016108bf90612602565b6001600160a01b03919091166000908152601e60205260409020805460ff1916911515919091179055565b6005546001600160a01b03163314610df25760405162461bcd60e51b81526004016108bf90612602565b600580546001600160a01b0319166001600160a01b0392909216919091179055565b6001600160a01b038316610e765760405162461bcd60e51b8152602060048201526024808201527f45524332303a20617070726f76652066726f6d20746865207a65726f206164646044820152637265737360e01b60648201526084016108bf565b6001600160a01b038216610ed75760405162461bcd60e51b815260206004820152602260248201527f45524332303a20617070726f766520746f20746865207a65726f206164647265604482015261737360f01b60648201526084016108bf565b6001600160a01b0383811660008181526001602090815260408083209487168084529482529182902085905590518481527f8c5be1e5ebec7d5bd14f71427d1e84f3dd0314c0f7b2291e5b200ac8c7c3b925910160405180910390a3505050565b6000610f448484610d48565b90506000198114610d425781811015610f9f5760405162461bcd60e51b815260206004820152601d60248201527f45524332303a20696e73756666696369656e7420616c6c6f77616e636500000060448201526064016108bf565b610d428484848403610e14565b610fb7838383611484565b601d5460ff1615610fd257610fcd8383836118d9565b505050565b610fdc8383611aa7565b156110e5576000610fec30610b9c565b90506110116011546018548361100291906126c4565b61100c919061268b565b611b57565b611019611df1565b6110376011546019548361102d91906126c4565b61073a919061268b565b611042601a5461219e565b600e54601154601b54309263a9059cbb926001600160a01b039091169161106990866126c4565b611073919061268b565b6040516001600160e01b031960e085901b1681526001600160a01b03909216600483015260248201526044016020604051808303816000875af11580156110be573d6000803e3d6000fd5b505050506040513d601f19601f820116820180604052508101906110e291906126e3565b50505b610fcd8383836122a5565b6001600160a01b0382166111505760405162461bcd60e51b815260206004820152602160248201527f45524332303a206275726e2066726f6d20746865207a65726f206164647265736044820152607360f81b60648201526084016108bf565b6001600160a01b038216600090815260208190526040902054818110156111c45760405162461bcd60e51b815260206004820152602260248201527f45524332303a206275726e20616d6f756e7420657863656564732062616c616e604482015261636560f01b60648201526084016108bf565b6001600160a01b03831660009081526020819052604081208383039055600280548492906111f39084906126ad565b90915550506040518281526000906001600160a01b038516907fddf252ad1be2c89b69c2b068fc378daa952ba7f163c4a11628f55a4df523b3ef9060200160405180910390a3505050565b604080516002808252606082018352600092602083019080368337019050509050308160008151811061127357611273612700565b6001600160a01b03928316602091820292909201810191909152602454604080516315ab88c960e31b81529051919093169263ad5c46489260048083019391928290030181865afa1580156112cc573d6000803e3d6000fd5b505050506040513d601f19601f820116820180604052508101906112f09190612716565b8160018151811061130357611303612700565b6001600160a01b0392831660209182029290920101526024546113299130911684610e14565b6024546001600160a01b031663791ac947836000843061134b426103e8612673565b6040518663ffffffff1660e01b815260040161136b959493929190612733565b600060405180830381600087803b15801561138557600080fd5b505af1158015611399573d6000803e3d6000fd5b505050505050565b6024546113bb9030906001600160a01b0316600019610e14565b6024546005546001600160a01b039182169163f305d719918491309187916000918291166113eb42612710612673565b60405160e089901b6001600160e01b03191681526001600160a01b039687166004820152602481019590955260448501939093526064840191909152909216608482015260a481019190915260c40160606040518083038185885af1158015611458573d6000803e3d6000fd5b50505050506040513d601f19601f8201168201806040525081019061147d91906127a4565b5050505050565b6001600160a01b0383166114f05760405162461bcd60e51b815260206004820152602d60248201527f45524332303a207472616e736665722066726f6d20746865205a45524f5f414460448201526c4452455353206164647265737360981b60648201526084016108bf565b6001600160a01b03821661155a5760405162461bcd60e51b815260206004820152602b60248201527f45524332303a207472616e7366657220746f20746865205a45524f5f4144445260448201526a455353206164647265737360a81b60648201526084016108bf565b600081116115c45760405162461bcd60e51b815260206004820152603160248201527f5472616e7366657220616d6f756e74206d7573742062652067726561746572206044820152707468616e205a45524f5f4144445245535360781b60648201526084016108bf565b6005546001600160a01b038481169116148015906115f057506005546001600160a01b03838116911614155b801561160457506001600160a01b03821615155b801561161b57506001600160a01b03821661dead14155b801561162a5750601d5460ff16155b15610fcd57601d54610100900460ff1661167b5760405162461bcd60e51b815260206004820152601260248201527154726164696e67206e6f742061637469766560701b60448201526064016108bf565b6001600160a01b0383166000908152601f602052604090205460ff16156117a957601c5481111561170c5760405162461bcd60e51b815260206004820152603560248201527f427579207472616e7366657220616d6f756e742065786365656473207468652060448201527436b0bc2a3930b739b0b1ba34b7b720b6b7bab73a1760591b60648201526084016108bf565b60125461171883610b9c565b6117229083612673565b11156117665760405162461bcd60e51b815260206004820152601360248201527213585e081dd85b1b195d08195e18d959591959606a1b60448201526064016108bf565b6001600160a01b038316600090815260208052604081208054916001919061178e8385612673565b90915550506000908152602260205260409020429055505050565b6001600160a01b0382166000908152601f602052604090205460ff161561187f57601c5481111561183b5760405162461bcd60e51b815260206004820152603660248201527f53656c6c207472616e7366657220616d6f756e742065786365656473207468656044820152751036b0bc2a3930b739b0b1ba34b7b720b6b7bab73a1760511b60648201526084016108bf565b6001600160a01b0383166000908152602160205260408120805491600191906118648385612673565b90915550506000908152602360205260409020429055505050565b60125461188b83610b9c565b6118959083612673565b1115610fcd5760405162461bcd60e51b815260206004820152601360248201527213585e081dd85b1b195d08195e18d959591959606a1b60448201526064016108bf565b6001600160a01b03831661193d5760405162461bcd60e51b815260206004820152602560248201527f45524332303a207472616e736665722066726f6d20746865207a65726f206164604482015264647265737360d81b60648201526084016108bf565b6001600160a01b03821661199f5760405162461bcd60e51b815260206004820152602360248201527f45524332303a207472616e7366657220746f20746865207a65726f206164647260448201526265737360e81b60648201526084016108bf565b6001600160a01b03831660009081526020819052604090205481811015611a175760405162461bcd60e51b815260206004820152602660248201527f45524332303a207472616e7366657220616d6f756e7420657863656564732062604482015265616c616e636560d01b60648201526084016108bf565b6001600160a01b03808516600090815260208190526040808220858503905591851681529081208054849290611a4e908490612673565b92505081905550826001600160a01b0316846001600160a01b03167fddf252ad1be2c89b69c2b068fc378daa952ba7f163c4a11628f55a4df523b3ef84604051611a9a91815260200190565b60405180910390a3610d42565b600080611ab330610b9c565b90506010548110158015611aca5750601d5460ff16155b8015611ae457506007546001600160a01b03858116911614155b8015611b055750600754600090611b03906001600160a01b0316610b9c565b115b8015611b2a57506001600160a01b0383166000908152601e602052604090205460ff16155b8015611b4f57506001600160a01b0384166000908152601e602052604090205460ff16155b949350505050565b60408051600380825260808201909252600091602082016060803683370190505090503081600081518110611b8e57611b8e612700565b6001600160a01b03928316602091820292909201810191909152602454604080516315ab88c960e31b81529051919093169263ad5c46489260048083019391928290030181865afa158015611be7573d6000803e3d6000fd5b505050506040513d601f19601f82011682018060405250810190611c0b9190612716565b81600181518110611c1e57611c1e612700565b6001600160a01b039283166020918202929092010152600854825191169082906002908110611c4f57611c4f612700565b6001600160a01b0392831660209182029290920101526008546024805460405163095ea7b360e01b815290841660048201526000199181019190915291169063095ea7b3906044016020604051808303816000875af1158015611cb6573d6000803e3d6000fd5b505050506040513d601f19601f82011682018060405250810190611cda91906126e3565b50602460009054906101000a90046001600160a01b03166001600160a01b031663ad5c46486040518163ffffffff1660e01b8152600401602060405180830381865afa158015611d2e573d6000803e3d6000fd5b505050506040513d601f19601f82011682018060405250810190611d529190612716565b6024805460405163095ea7b360e01b81526001600160a01b03918216600482015260001992810192909252919091169063095ea7b3906044016020604051808303816000875af1158015611daa573d6000803e3d6000fd5b505050506040513d601f19601f82011682018060405250810190611dce91906126e3565b506024546001600160a01b0316635c11d795836000843061134b426103e8612673565b6008546040516370a0823160e01b81523060048201526000916001600160a01b0316906370a0823190602401602060405180830381865afa158015611e3a573d6000803e3d6000fd5b505050506040513d601f19601f82011682018060405250810190611e5e91906127d2565b6008546009546011546013549394506001600160a01b039283169363a9059cbb9390921691611e8d90866126c4565b611e97919061268b565b6040516001600160e01b031960e085901b1681526001600160a01b03909216600483015260248201526044016020604051808303816000875af1158015611ee2573d6000803e3d6000fd5b505050506040513d601f19601f82011682018060405250810190611f0691906126e3565b50600854600a546011546014546001600160a01b039384169363a9059cbb93169190611f3290866126c4565b611f3c919061268b565b6040516001600160e01b031960e085901b1681526001600160a01b03909216600483015260248201526044016020604051808303816000875af1158015611f87573d6000803e3d6000fd5b505050506040513d601f19601f82011682018060405250810190611fab91906126e3565b50600854600b546011546015546001600160a01b039384169363a9059cbb93169190611fd790866126c4565b611fe1919061268b565b6040516001600160e01b031960e085901b1681526001600160a01b03909216600483015260248201526044016020604051808303816000875af115801561202c573d6000803e3d6000fd5b505050506040513d601f19601f8201168201806040525081019061205091906126e3565b50600854600c546011546016546001600160a01b039384169363a9059cbb9316919061207c90866126c4565b612086919061268b565b6040516001600160e01b031960e085901b1681526001600160a01b03909216600483015260248201526044016020604051808303816000875af11580156120d1573d6000803e3d6000fd5b505050506040513d601f19601f820116820180604052508101906120f591906126e3565b50600854600d546011546017546001600160a01b039384169363a9059cbb9316919061212190866126c4565b61212b919061268b565b6040516001600160e01b031960e085901b1681526001600160a01b03909216600483015260248201526044016020604051808303816000875af1158015612176573d6000803e3d6000fd5b505050506040513d601f19601f8201168201806040525081019061219a91906126e3565b5050565b6040805160038082526080820190925260009160208201606080368337505060085482519293506001600160a01b0316918391506000906121e1576121e1612700565b6001600160a01b03928316602091820292909201810191909152602454604080516315ab88c960e31b81529051919093169263ad5c46489260048083019391928290030181865afa15801561223a573d6000803e3d6000fd5b505050506040513d601f19601f8201168201806040525081019061225e9190612716565b8160018151811061227157612271612700565b60200260200101906001600160a01b031690816001600160a01b0316815250503081600281518110611c4f57611c4f612700565b6001600160a01b0383166000908152601e602052604081205482919060019060ff16806122ea57506001600160a01b0385166000908152601e602052604090205460ff165b156122f3575060005b801561231d57612304868686612328565b915061231082856126ad565b925061231d8630846118d9565b6113998686856118d9565b6001600160a01b0383166000908152601f60205260408120548190819060ff16156123655760255461235e9061ffff1683612673565b91506123b9565b6001600160a01b0385166000908152601f602052604090205460ff161561239d5760255461235e9062010000900461ffff1683612673565b6025546123b690640100000000900461ffff1683612673565b91505b81156123d9576011546123cc83866126c4565b6123d6919061268b565b90505b95945050505050565b600060208083528351808285015260005b8181101561240f578581018301518582016040015282016123f3565b81811115612421576000604083870101525b50601f01601f1916929092016040019392505050565b6001600160a01b038116811461244c57600080fd5b50565b6000806040838503121561246257600080fd5b823561246d81612437565b946020939093013593505050565b60006020828403121561248d57600080fd5b5035919050565b6000806000606084860312156124a957600080fd5b83356124b481612437565b925060208401356124c481612437565b929592945050506040919091013590565b803561ffff811681146124e757600080fd5b919050565b60008060006060848603121561250157600080fd5b61250a846124d5565b9250612518602085016124d5565b9150612526604085016124d5565b90509250925092565b60006020828403121561254157600080fd5b813561254c81612437565b9392505050565b6000806040838503121561256657600080fd5b823561257181612437565b9150602083013561258181612437565b809150509250929050565b801515811461244c57600080fd5b600080604083850312156125ad57600080fd5b82356125b881612437565b915060208301356125818161258c565b600181811c908216806125dc57607f821691505b6020821081036125fc57634e487b7160e01b600052602260045260246000fd5b50919050565b6020808252818101527f4f776e61626c653a2063616c6c6572206973206e6f7420746865206f776e6572604082015260600190565b634e487b7160e01b600052601160045260246000fd5b600061ffff80831681851680830382111561266a5761266a612637565b01949350505050565b6000821982111561268657612686612637565b500190565b6000826126a857634e487b7160e01b600052601260045260246000fd5b500490565b6000828210156126bf576126bf612637565b500390565b60008160001904831182151516156126de576126de612637565b500290565b6000602082840312156126f557600080fd5b815161254c8161258c565b634e487b7160e01b600052603260045260246000fd5b60006020828403121561272857600080fd5b815161254c81612437565b600060a082018783526020878185015260a0604085015281875180845260c086019150828901935060005b818110156127835784516001600160a01b03168352938301939183019160010161275e565b50506001600160a01b03969096166060850152505050608001529392505050565b6000806000606084860312156127b957600080fd5b8351925060208401519150604084015190509250925092565b6000602082840312156127e457600080fd5b505191905056fea26469706673582212206e8fbc13fb15f8bf312e0d7631b4f9627c7352c465d320988c5bac31e30cdfac64736f6c634300080f0033",
    "sourcePath": "e:/Desktop/CatPizzaToken/contracts/MetaStock.sol",
    "compiler": {
        "name": "solc",
        "version": "0.8.15+commit.e14f2714"
    },
    "functionHashes": {
        "DEAD()": "03fd2a45",
        "_feesRates()": "1c06a7e1",
        "allowance(address,address)": "dd62ed3e",
        "approve(address,uint256)": "095ea7b3",
        "autoLiquidity(uint256)": "c6aca36b",
        "automatedMarketMakerPairs(address)": "b62496f5",
        "balanceOf(address)": "70a08231",
        "burn(uint256)": "42966c68",
        "charityWallet()": "7b208769",
        "decimals()": "313ce567",
        "decreaseAllowance(address,uint256)": "a457c2d7",
        "dexRouter()": "0758d924",
        "enableTrading()": "8a8c523c",
        "excludeFromFee(address,bool)": "df8408fe",
        "getOwner()": "893d20e8",
        "increaseAllowance(address,uint256)": "39509351",
        "isExcludedFromFee(address)": "5342acb4",
        "lpPair()": "452ed4f1",
        "name()": "06fdde03",
        "owner()": "8da5cb5b",
        "setMaxTransactionAmount(uint256)": "1e293c10",
        "setMaxWalletAmount(uint256)": "27a14fc2",
        "setSwapThreshold(uint256)": "9d0014b1",
        "setTaxes(uint16,uint16,uint16)": "32cde664",
        "swapThreshold()": "0445b667",
        "swapTokenAddress()": "f36f79e0",
        "symbol()": "95d89b41",
        "totalSupply()": "18160ddd",
        "transfer(address,uint256)": "a9059cbb",
        "transferFrom(address,address,uint256)": "23b872dd",
        "transferOwnership(address)": "f2fde38b",
        "usersBuysCounter(address)": "fe9a79c8",
        "usersLastBuysTxs(uint256)": "55106e5f",
        "usersLastSellsTxs(uint256)": "47fa7c88",
        "usersSellCounter(address)": "89e7bf1c",
        "w1Address()": "5932959c",
        "w2Address()": "6f3433d4",
        "w3Address()": "39d915f1",
        "w4Address()": "adb3b635",
        "w5Address()": "578aaa00"
    },
    "gasEstimates": {
        "creation": {
            "codeDepositCost": "2054600",
            "executionCost": "infinite",
            "totalCost": "infinite"
        },
        "external": {
            "DEAD()": "2373",
            "_feesRates()": "2484",
            "allowance(address,address)": "infinite",
            "approve(address,uint256)": "24730",
            "autoLiquidity(uint256)": "infinite",
            "automatedMarketMakerPairs(address)": "2636",
            "balanceOf(address)": "2636",
            "burn(uint256)": "54656",
            "charityWallet()": "2438",
            "decimals()": "223",
            "decreaseAllowance(address,uint256)": "26989",
            "dexRouter()": "2439",
            "enableTrading()": "28712",
            "excludeFromFee(address,bool)": "infinite",
            "getOwner()": "2454",
            "increaseAllowance(address,uint256)": "27062",
            "isExcludedFromFee(address)": "2632",
            "lpPair()": "2371",
            "name()": "infinite",
            "owner()": "2415",
            "setMaxTransactionAmount(uint256)": "24554",
            "setMaxWalletAmount(uint256)": "24598",
            "setSwapThreshold(uint256)": "24597",
            "setTaxes(uint16,uint16,uint16)": "infinite",
            "swapThreshold()": "2364",
            "swapTokenAddress()": "2436",
            "symbol()": "infinite",
            "totalSupply()": "2338",
            "transfer(address,uint256)": "infinite",
            "transferFrom(address,address,uint256)": "infinite",
            "transferOwnership(address)": "26793",
            "usersBuysCounter(address)": "2645",
            "usersLastBuysTxs(uint256)": "2549",
            "usersLastSellsTxs(uint256)": "2505",
            "usersSellCounter(address)": "2558",
            "w1Address()": "2372",
            "w2Address()": "2394",
            "w3Address()": "2438",
            "w4Address()": "2415",
            "w5Address()": "2459"
        },
        "internal": {
            "_beforeTransferCheck(address,address,uint256)": "infinite",
            "_finalizeTransfer(address,address,uint256)": "infinite",
            "_sendToTeam()": "infinite",
            "_transfer(address,address,uint256)": "infinite",
            "addLiquidity(uint256,uint256)": "infinite",
            "calcBuySellTransferFee(address,address,uint256)": "8955",
            "contractMustSwap(address,address)": "infinite",
            "getPathForTokensToTokens(address,address)": "infinite",
            "swapTokensForBNB(uint256)": "infinite",
            "swapTokensForUSD(uint256)": "infinite",
            "swapUSDForTokens(uint256)": "infinite"
        }
    }
}