{
    "contractName": "MetaStockUtils",
    "abi": [
        {
            "inputs": [
                {
                    "internalType": "contract IUniswapV2Router02",
                    "name": "dexRouter",
                    "type": "address"
                },
                {
                    "internalType": "address",
                    "name": "tokenAddress",
                    "type": "address"
                },
                {
                    "internalType": "uint256",
                    "name": "tokenAmount",
                    "type": "uint256"
                },
                {
                    "internalType": "uint256",
                    "name": "ethAmount",
                    "type": "uint256"
                },
                {
                    "internalType": "address",
                    "name": "lpReceiver",
                    "type": "address"
                }
            ],
            "name": "addLiquidity",
            "outputs": [],
            "stateMutability": "nonpayable",
            "type": "function"
        },
        {
            "inputs": [
                {
                    "internalType": "contract IUniswapV2Router02",
                    "name": "dexRouter",
                    "type": "address"
                },
                {
                    "internalType": "address",
                    "name": "tokenAddress",
                    "type": "address"
                },
                {
                    "internalType": "uint256",
                    "name": "tokenAmount",
                    "type": "uint256"
                },
                {
                    "internalType": "address",
                    "name": "lpReceiver",
                    "type": "address"
                }
            ],
            "name": "autoLiquidity",
            "outputs": [],
            "stateMutability": "nonpayable",
            "type": "function"
        },
        {
            "inputs": [
                {
                    "internalType": "address",
                    "name": "tokenAddressA",
                    "type": "address"
                },
                {
                    "internalType": "address",
                    "name": "tokenAddressB",
                    "type": "address"
                }
            ],
            "name": "getPathForTokensToTokens",
            "outputs": [
                {
                    "internalType": "address[]",
                    "name": "",
                    "type": "address[]"
                }
            ],
            "stateMutability": "pure",
            "type": "function"
        },
        {
            "inputs": [
                {
                    "internalType": "address",
                    "name": "tokenAddress",
                    "type": "address"
                },
                {
                    "internalType": "address[]",
                    "name": "wallets",
                    "type": "address[]"
                },
                {
                    "internalType": "uint256[]",
                    "name": "percentages",
                    "type": "uint256[]"
                }
            ],
            "name": "sendToTeam",
            "outputs": [],
            "stateMutability": "nonpayable",
            "type": "function"
        },
        {
            "inputs": [
                {
                    "internalType": "contract IUniswapV2Router02",
                    "name": "dexRouter",
                    "type": "address"
                },
                {
                    "internalType": "address",
                    "name": "tokenAddress",
                    "type": "address"
                },
                {
                    "internalType": "uint256",
                    "name": "tokenAmount",
                    "type": "uint256"
                }
            ],
            "name": "swapTokensForBNB",
            "outputs": [],
            "stateMutability": "nonpayable",
            "type": "function"
        },
        {
            "inputs": [
                {
                    "internalType": "contract IUniswapV2Router02",
                    "name": "dexRouter",
                    "type": "address"
                },
                {
                    "internalType": "address",
                    "name": "tokenAddress",
                    "type": "address"
                },
                {
                    "internalType": "address",
                    "name": "usd",
                    "type": "address"
                },
                {
                    "internalType": "uint256",
                    "name": "tokenAmount",
                    "type": "uint256"
                }
            ],
            "name": "swapTokensForUSD",
            "outputs": [],
            "stateMutability": "nonpayable",
            "type": "function"
        }
    ],
    "bytecode": "608060405234801561001057600080fd5b50610e42806100206000396000f3fe608060405234801561001057600080fd5b50600436106100625760003560e01c806305158061146100675780632606222a1461007c5780633b4a4af41461008f5780634b2fc7bb146100b85780639b3c2ee5146100cb578063f72a8418146100de575b600080fd5b61007a61007536600461090e565b6100f1565b005b61007a61008a36600461095f565b6103c7565b6100a261009d3660046109a0565b61058c565b6040516100af9190610a1d565b60405180910390f35b61007a6100c6366004610a37565b610619565b61007a6100d9366004610a96565b610742565b61007a6100ec366004610bbf565b610795565b6040805160038082526080820190925260009160208201606080368337019050509050838160008151811061012857610128610c95565b60200260200101906001600160a01b031690816001600160a01b031681525050846001600160a01b031663ad5c46486040518163ffffffff1660e01b8152600401602060405180830381865afa158015610186573d6000803e3d6000fd5b505050506040513d601f19601f820116820180604052508101906101aa9190610cab565b816001815181106101bd576101bd610c95565b60200260200101906001600160a01b031690816001600160a01b03168152505082816002815181106101f1576101f1610c95565b6001600160a01b03928316602091820292909201015260405163095ea7b360e01b8152868216600482015260001960248201529084169063095ea7b3906044016020604051808303816000875af1158015610250573d6000803e3d6000fd5b505050506040513d601f19601f820116820180604052508101906102749190610cc8565b50846001600160a01b031663ad5c46486040518163ffffffff1660e01b8152600401602060405180830381865afa1580156102b3573d6000803e3d6000fd5b505050506040513d601f19601f820116820180604052508101906102d79190610cab565b60405163095ea7b360e01b81526001600160a01b0387811660048301526000196024830152919091169063095ea7b3906044016020604051808303816000875af1158015610329573d6000803e3d6000fd5b505050506040513d601f19601f8201168201806040525081019061034d9190610cc8565b506001600160a01b038516635c11d795836000848861036e426103e8610d00565b6040518663ffffffff1660e01b815260040161038e959493929190610d18565b600060405180830381600087803b1580156103a857600080fd5b505af11580156103bc573d6000803e3d6000fd5b505050505050505050565b60408051600280825260608201835260009260208301908036833701905050905082816000815181106103fc576103fc610c95565b60200260200101906001600160a01b031690816001600160a01b031681525050836001600160a01b031663ad5c46486040518163ffffffff1660e01b8152600401602060405180830381865afa15801561045a573d6000803e3d6000fd5b505050506040513d601f19601f8201168201806040525081019061047e9190610cab565b8160018151811061049157610491610c95565b6001600160a01b03928316602091820292909201015260405163095ea7b360e01b81528582166004820152602481018490529084169063095ea7b3906044016020604051808303816000875af11580156104ef573d6000803e3d6000fd5b505050506040513d601f19601f820116820180604052508101906105139190610cc8565b506001600160a01b03841663791ac9478360008487610534426103e8610d00565b6040518663ffffffff1660e01b8152600401610554959493929190610d18565b600060405180830381600087803b15801561056e57600080fd5b505af1158015610582573d6000803e3d6000fd5b5050505050505050565b6040805160028082526060808301845292600092919060208301908036833701905050905083816000815181106105c5576105c5610c95565b60200260200101906001600160a01b031690816001600160a01b03168152505082816001815181106105f9576105f9610c95565b6001600160a01b0390921660209283029190910190910152905092915050565b60405163095ea7b360e01b81526001600160a01b038681166004830152600019602483015285169063095ea7b3906044016020604051808303816000875af1158015610669573d6000803e3d6000fd5b505050506040513d601f19601f8201168201806040525081019061068d9190610cc8565b506001600160a01b03851663f305d719838686600080876106b042612710610d00565b60405160e089901b6001600160e01b03191681526001600160a01b039687166004820152602481019590955260448501939093526064840191909152909216608482015260a481019190915260c40160606040518083038185885af115801561071d573d6000803e3d6000fd5b50505050506040513d601f19601f820116820180604052508101906105829190610d54565b600061074f600284610d82565b90506001600160a01b038416316107678686846103c7565b600061077d826001600160a01b03881631610da4565b905061078c8787858488610619565b50505050505050565b6040516370a0823160e01b81526001600160a01b0384166004820181905261271091600091906370a0823190602401602060405180830381865afa1580156107e1573d6000803e3d6000fd5b505050506040513d601f19601f820116820180604052508101906108059190610dbb565b905060005b84518110156108ee57856001600160a01b031663a9059cbb86838151811061083457610834610c95565b60200260200101518587858151811061084f5761084f610c95565b6020026020010151866108629190610dd4565b61086c9190610d82565b6040516001600160e01b031960e085901b1681526001600160a01b03909216600483015260248201526044016020604051808303816000875af11580156108b7573d6000803e3d6000fd5b505050506040513d601f19601f820116820180604052508101906108db9190610cc8565b50806108e681610df3565b91505061080a565b505050505050565b6001600160a01b038116811461090b57600080fd5b50565b6000806000806080858703121561092457600080fd5b843561092f816108f6565b9350602085013561093f816108f6565b9250604085013561094f816108f6565b9396929550929360600135925050565b60008060006060848603121561097457600080fd5b833561097f816108f6565b9250602084013561098f816108f6565b929592945050506040919091013590565b600080604083850312156109b357600080fd5b82356109be816108f6565b915060208301356109ce816108f6565b809150509250929050565b600081518084526020808501945080840160005b83811015610a125781516001600160a01b0316875295820195908201906001016109ed565b509495945050505050565b602081526000610a3060208301846109d9565b9392505050565b600080600080600060a08688031215610a4f57600080fd5b8535610a5a816108f6565b94506020860135610a6a816108f6565b935060408601359250606086013591506080860135610a88816108f6565b809150509295509295909350565b60008060008060808587031215610aac57600080fd5b8435610ab7816108f6565b93506020850135610ac7816108f6565b9250604085013591506060850135610ade816108f6565b939692955090935050565b634e487b7160e01b600052604160045260246000fd5b604051601f8201601f1916810167ffffffffffffffff81118282101715610b2857610b28610ae9565b604052919050565b600067ffffffffffffffff821115610b4a57610b4a610ae9565b5060051b60200190565b600082601f830112610b6557600080fd5b81356020610b7a610b7583610b30565b610aff565b82815260059290921b84018101918181019086841115610b9957600080fd5b8286015b84811015610bb45780358352918301918301610b9d565b509695505050505050565b600080600060608486031215610bd457600080fd5b8335610bdf816108f6565b925060208481013567ffffffffffffffff80821115610bfd57600080fd5b818701915087601f830112610c1157600080fd5b8135610c1f610b7582610b30565b81815260059190911b8301840190848101908a831115610c3e57600080fd5b938501935b82851015610c65578435610c56816108f6565b82529385019390850190610c43565b965050506040870135925080831115610c7d57600080fd5b5050610c8b86828701610b54565b9150509250925092565b634e487b7160e01b600052603260045260246000fd5b600060208284031215610cbd57600080fd5b8151610a30816108f6565b600060208284031215610cda57600080fd5b81518015158114610a3057600080fd5b634e487b7160e01b600052601160045260246000fd5b60008219821115610d1357610d13610cea565b500190565b85815284602082015260a060408201526000610d3760a08301866109d9565b6001600160a01b0394909416606083015250608001529392505050565b600080600060608486031215610d6957600080fd5b8351925060208401519150604084015190509250925092565b600082610d9f57634e487b7160e01b600052601260045260246000fd5b500490565b600082821015610db657610db6610cea565b500390565b600060208284031215610dcd57600080fd5b5051919050565b6000816000190483118215151615610dee57610dee610cea565b500290565b600060018201610e0557610e05610cea565b506001019056fea2646970667358221220c88278b1df10ef94023fa27a96169d205164430e508a49273c8ee51faef453d764736f6c634300080d0033",
    "sourcePath": "e:/Desktop/CatPizzaToken/contracts/utils.sol",
    "compiler": {
        "name": "solc",
        "version": "0.8.13+commit.abaa5c0e"
    },
    "functionHashes": {
        "addLiquidity(address,address,uint256,uint256,address)": "4b2fc7bb",
        "autoLiquidity(address,address,uint256,address)": "9b3c2ee5",
        "getPathForTokensToTokens(address,address)": "3b4a4af4",
        "sendToTeam(address,address[],uint256[])": "f72a8418",
        "swapTokensForBNB(address,address,uint256)": "2606222a",
        "swapTokensForUSD(address,address,address,uint256)": "05158061"
    },
    "gasEstimates": {
        "creation": {
            "codeDepositCost": "730000",
            "executionCost": "766",
            "totalCost": "730766"
        },
        "external": {
            "addLiquidity(address,address,uint256,uint256,address)": "infinite",
            "autoLiquidity(address,address,uint256,address)": "infinite",
            "getPathForTokensToTokens(address,address)": "infinite",
            "sendToTeam(address,address[],uint256[])": "infinite",
            "swapTokensForBNB(address,address,uint256)": "infinite",
            "swapTokensForUSD(address,address,address,uint256)": "infinite"
        }
    }
}