{
    "contractName": "MetaStock",
    "abi": [
        {
            "inputs": [],
            "stateMutability": "nonpayable",
            "type": "constructor"
        },
        {
            "anonymous": false,
            "inputs": [
                {
                    "indexed": true,
                    "internalType": "address",
                    "name": "owner",
                    "type": "address"
                },
                {
                    "indexed": true,
                    "internalType": "address",
                    "name": "spender",
                    "type": "address"
                },
                {
                    "indexed": false,
                    "internalType": "uint256",
                    "name": "value",
                    "type": "uint256"
                }
            ],
            "name": "Approval",
            "type": "event"
        },
        {
            "anonymous": false,
            "inputs": [
                {
                    "indexed": true,
                    "internalType": "address",
                    "name": "sender",
                    "type": "address"
                },
                {
                    "indexed": false,
                    "internalType": "uint256",
                    "name": "amount",
                    "type": "uint256"
                }
            ],
            "name": "Burn",
            "type": "event"
        },
        {
            "anonymous": false,
            "inputs": [
                {
                    "indexed": true,
                    "internalType": "address",
                    "name": "previousOwner",
                    "type": "address"
                },
                {
                    "indexed": true,
                    "internalType": "address",
                    "name": "newOwner",
                    "type": "address"
                }
            ],
            "name": "OwnershipTransferred",
            "type": "event"
        },
        {
            "anonymous": false,
            "inputs": [
                {
                    "indexed": true,
                    "internalType": "address",
                    "name": "from",
                    "type": "address"
                },
                {
                    "indexed": true,
                    "internalType": "address",
                    "name": "to",
                    "type": "address"
                },
                {
                    "indexed": false,
                    "internalType": "uint256",
                    "name": "value",
                    "type": "uint256"
                }
            ],
            "name": "Transfer",
            "type": "event"
        },
        {
            "inputs": [],
            "name": "DEAD",
            "outputs": [
                {
                    "internalType": "address",
                    "name": "",
                    "type": "address"
                }
            ],
            "stateMutability": "view",
            "type": "function"
        },
        {
            "inputs": [],
            "name": "_feesRates",
            "outputs": [
                {
                    "internalType": "uint16",
                    "name": "buyFee",
                    "type": "uint16"
                },
                {
                    "internalType": "uint16",
                    "name": "sellFee",
                    "type": "uint16"
                },
                {
                    "internalType": "uint16",
                    "name": "transferFee",
                    "type": "uint16"
                }
            ],
            "stateMutability": "view",
            "type": "function"
        },
        {
            "inputs": [
                {
                    "internalType": "address",
                    "name": "owner",
                    "type": "address"
                },
                {
                    "internalType": "address",
                    "name": "spender",
                    "type": "address"
                }
            ],
            "name": "allowance",
            "outputs": [
                {
                    "internalType": "uint256",
                    "name": "",
                    "type": "uint256"
                }
            ],
            "stateMutability": "view",
            "type": "function"
        },
        {
            "inputs": [
                {
                    "internalType": "address",
                    "name": "spender",
                    "type": "address"
                },
                {
                    "internalType": "uint256",
                    "name": "amount",
                    "type": "uint256"
                }
            ],
            "name": "approve",
            "outputs": [
                {
                    "internalType": "bool",
                    "name": "",
                    "type": "bool"
                }
            ],
            "stateMutability": "nonpayable",
            "type": "function"
        },
        {
            "inputs": [
                {
                    "internalType": "uint256",
                    "name": "tokenAmount",
                    "type": "uint256"
                }
            ],
            "name": "autoLiquidity",
            "outputs": [],
            "stateMutability": "nonpayable",
            "type": "function"
        },
        {
            "inputs": [
                {
                    "internalType": "address",
                    "name": "",
                    "type": "address"
                }
            ],
            "name": "automatedMarketMakerPairs",
            "outputs": [
                {
                    "internalType": "bool",
                    "name": "",
                    "type": "bool"
                }
            ],
            "stateMutability": "view",
            "type": "function"
        },
        {
            "inputs": [
                {
                    "internalType": "address",
                    "name": "account",
                    "type": "address"
                }
            ],
            "name": "balanceOf",
            "outputs": [
                {
                    "internalType": "uint256",
                    "name": "",
                    "type": "uint256"
                }
            ],
            "stateMutability": "view",
            "type": "function"
        },
        {
            "inputs": [
                {
                    "internalType": "uint256",
                    "name": "amount",
                    "type": "uint256"
                }
            ],
            "name": "burn",
            "outputs": [],
            "stateMutability": "nonpayable",
            "type": "function"
        },
        {
            "inputs": [],
            "name": "decimals",
            "outputs": [
                {
                    "internalType": "uint8",
                    "name": "",
                    "type": "uint8"
                }
            ],
            "stateMutability": "view",
            "type": "function"
        },
        {
            "inputs": [
                {
                    "internalType": "address",
                    "name": "spender",
                    "type": "address"
                },
                {
                    "internalType": "uint256",
                    "name": "subtractedValue",
                    "type": "uint256"
                }
            ],
            "name": "decreaseAllowance",
            "outputs": [
                {
                    "internalType": "bool",
                    "name": "",
                    "type": "bool"
                }
            ],
            "stateMutability": "nonpayable",
            "type": "function"
        },
        {
            "inputs": [],
            "name": "dexRouter",
            "outputs": [
                {
                    "internalType": "contract IUniswapV2Router02",
                    "name": "",
                    "type": "address"
                }
            ],
            "stateMutability": "view",
            "type": "function"
        },
        {
            "inputs": [],
            "name": "enableTrading",
            "outputs": [],
            "stateMutability": "nonpayable",
            "type": "function"
        },
        {
            "inputs": [
                {
                    "internalType": "address",
                    "name": "account",
                    "type": "address"
                },
                {
                    "internalType": "bool",
                    "name": "val",
                    "type": "bool"
                }
            ],
            "name": "excludeFromFee",
            "outputs": [],
            "stateMutability": "nonpayable",
            "type": "function"
        },
        {
            "inputs": [],
            "name": "getOwner",
            "outputs": [
                {
                    "internalType": "address",
                    "name": "",
                    "type": "address"
                }
            ],
            "stateMutability": "view",
            "type": "function"
        },
        {
            "inputs": [
                {
                    "internalType": "address",
                    "name": "spender",
                    "type": "address"
                },
                {
                    "internalType": "uint256",
                    "name": "addedValue",
                    "type": "uint256"
                }
            ],
            "name": "increaseAllowance",
            "outputs": [
                {
                    "internalType": "bool",
                    "name": "",
                    "type": "bool"
                }
            ],
            "stateMutability": "nonpayable",
            "type": "function"
        },
        {
            "inputs": [
                {
                    "internalType": "address",
                    "name": "account",
                    "type": "address"
                }
            ],
            "name": "isExcludedFromFee",
            "outputs": [
                {
                    "internalType": "bool",
                    "name": "",
                    "type": "bool"
                }
            ],
            "stateMutability": "view",
            "type": "function"
        },
        {
            "inputs": [],
            "name": "lpPair",
            "outputs": [
                {
                    "internalType": "address",
                    "name": "",
                    "type": "address"
                }
            ],
            "stateMutability": "view",
            "type": "function"
        },
        {
            "inputs": [],
            "name": "name",
            "outputs": [
                {
                    "internalType": "string",
                    "name": "",
                    "type": "string"
                }
            ],
            "stateMutability": "view",
            "type": "function"
        },
        {
            "inputs": [],
            "name": "owner",
            "outputs": [
                {
                    "internalType": "address",
                    "name": "",
                    "type": "address"
                }
            ],
            "stateMutability": "view",
            "type": "function"
        },
        {
            "inputs": [
                {
                    "internalType": "uint256",
                    "name": "value",
                    "type": "uint256"
                }
            ],
            "name": "setMaxTransactionAmount",
            "outputs": [],
            "stateMutability": "nonpayable",
            "type": "function"
        },
        {
            "inputs": [
                {
                    "internalType": "uint256",
                    "name": "value",
                    "type": "uint256"
                }
            ],
            "name": "setMaxWalletAmount",
            "outputs": [],
            "stateMutability": "nonpayable",
            "type": "function"
        },
        {
            "inputs": [
                {
                    "internalType": "uint256",
                    "name": "value",
                    "type": "uint256"
                }
            ],
            "name": "setSwapThreshold",
            "outputs": [],
            "stateMutability": "nonpayable",
            "type": "function"
        },
        {
            "inputs": [
                {
                    "internalType": "uint16",
                    "name": "buyFeePercentage",
                    "type": "uint16"
                },
                {
                    "internalType": "uint16",
                    "name": "sellFeePercentage",
                    "type": "uint16"
                },
                {
                    "internalType": "uint16",
                    "name": "transferPercentage",
                    "type": "uint16"
                }
            ],
            "name": "setTaxes",
            "outputs": [],
            "stateMutability": "nonpayable",
            "type": "function"
        },
        {
            "inputs": [],
            "name": "swapThreshold",
            "outputs": [
                {
                    "internalType": "uint256",
                    "name": "",
                    "type": "uint256"
                }
            ],
            "stateMutability": "view",
            "type": "function"
        },
        {
            "inputs": [],
            "name": "symbol",
            "outputs": [
                {
                    "internalType": "string",
                    "name": "",
                    "type": "string"
                }
            ],
            "stateMutability": "view",
            "type": "function"
        },
        {
            "inputs": [],
            "name": "totalSupply",
            "outputs": [
                {
                    "internalType": "uint256",
                    "name": "",
                    "type": "uint256"
                }
            ],
            "stateMutability": "view",
            "type": "function"
        },
        {
            "inputs": [
                {
                    "internalType": "address",
                    "name": "to",
                    "type": "address"
                },
                {
                    "internalType": "uint256",
                    "name": "amount",
                    "type": "uint256"
                }
            ],
            "name": "transfer",
            "outputs": [
                {
                    "internalType": "bool",
                    "name": "",
                    "type": "bool"
                }
            ],
            "stateMutability": "nonpayable",
            "type": "function"
        },
        {
            "inputs": [
                {
                    "internalType": "address",
                    "name": "from",
                    "type": "address"
                },
                {
                    "internalType": "address",
                    "name": "to",
                    "type": "address"
                },
                {
                    "internalType": "uint256",
                    "name": "amount",
                    "type": "uint256"
                }
            ],
            "name": "transferFrom",
            "outputs": [
                {
                    "internalType": "bool",
                    "name": "",
                    "type": "bool"
                }
            ],
            "stateMutability": "nonpayable",
            "type": "function"
        },
        {
            "inputs": [
                {
                    "internalType": "address",
                    "name": "account",
                    "type": "address"
                }
            ],
            "name": "transferOwnership",
            "outputs": [],
            "stateMutability": "nonpayable",
            "type": "function"
        },
        {
            "inputs": [],
            "name": "usdAddress",
            "outputs": [
                {
                    "internalType": "address",
                    "name": "",
                    "type": "address"
                }
            ],
            "stateMutability": "view",
            "type": "function"
        },
        {
            "inputs": [
                {
                    "internalType": "address",
                    "name": "",
                    "type": "address"
                }
            ],
            "name": "usersBuysCounter",
            "outputs": [
                {
                    "internalType": "uint256",
                    "name": "",
                    "type": "uint256"
                }
            ],
            "stateMutability": "view",
            "type": "function"
        },
        {
            "inputs": [
                {
                    "internalType": "uint256",
                    "name": "",
                    "type": "uint256"
                }
            ],
            "name": "usersLastBuysTxs",
            "outputs": [
                {
                    "internalType": "uint256",
                    "name": "",
                    "type": "uint256"
                }
            ],
            "stateMutability": "view",
            "type": "function"
        },
        {
            "inputs": [
                {
                    "internalType": "uint256",
                    "name": "",
                    "type": "uint256"
                }
            ],
            "name": "usersLastSellsTxs",
            "outputs": [
                {
                    "internalType": "uint256",
                    "name": "",
                    "type": "uint256"
                }
            ],
            "stateMutability": "view",
            "type": "function"
        },
        {
            "inputs": [
                {
                    "internalType": "address",
                    "name": "",
                    "type": "address"
                }
            ],
            "name": "usersSellCounter",
            "outputs": [
                {
                    "internalType": "uint256",
                    "name": "",
                    "type": "uint256"
                }
            ],
            "stateMutability": "view",
            "type": "function"
        },
        {
            "stateMutability": "payable",
            "type": "receive"
        }
    ],
    "bytecode": "600680546001600160a01b031990811661dead179091556008805482167378867bbeef44f2326bf8ddd1941a4439382ef2a717905560098054909116739ac64cc6e4415144c455bd8e4837fea55603e5c3179055600a60808181526101e06040529060a061014080368337505081516200008192600a9250602001906200093a565b5069943b1377290cbd800000600b55612710600c5569d3c21bcecceda1000000600d819055600e55611388600f556107d060108190556011556103e860125560408051600a808252610160820190925290602082016101408036833750508151620000f4926013925060200190620009a4565b503480156200010257600080fd5b50604051806040016040528060098152602001684d65746153746f636b60b81b815250604051806040016040528060038152602001624d534b60e81b815250816003908162000152919062000a9d565b50600462000161828262000a9d565b50505062000181336a52b7d2dcc80cd2e40000006200056a60201b60201c565b600580546001600160a01b0319163390811790915560408051606081018252600080825261012c602080840191909152918301819052601c805465ffffffffffff191663012c000017905592835260159052808220805460ff19908116600190811790925530845291909220805490911690911790556200020162000653565b6009546200021d9033906001600160a01b03166000196200080d565b600954620002399030906001600160a01b03166000196200080d565b6008546009546200025a916001600160a01b0390811691166000196200080d565b736644ebde0f26c8f74ad18697cce8a5ac4e608cb4600a60008154811062000286576200028662000b69565b9060005260206000200160006101000a8154816001600160a01b0302191690836001600160a01b03160217905550733c44cdddb6a900fa2b585dd299e03d12fa4293bc600a600181548110620002e057620002e062000b69565b9060005260206000200160006101000a8154816001600160a01b0302191690836001600160a01b031602179055507390f79bf6eb2c4f870365e785982e1f101e93b906600a6002815481106200033a576200033a62000b69565b9060005260206000200160006101000a8154816001600160a01b0302191690836001600160a01b0316021790555073fbaa3c716da6378a0840754185bff6a05a20e1c8600a60038154811062000394576200039462000b69565b9060005260206000200160006101000a8154816001600160a01b0302191690836001600160a01b03160217905550734cf4525ea8225ef715236538a3d7f06151bfee11600a600481548110620003ee57620003ee62000b69565b9060005260206000200160006101000a8154816001600160a01b0302191690836001600160a01b0316021790555073492a9ce7f973958454fcbcae0e22985e15cdbe58600a60058154811062000448576200044862000b69565b9060005260206000200160006101000a8154816001600160a01b0302191690836001600160a01b03160217905550610640601360008154811062000490576200049062000b69565b9060005260206000200181905550610bb86013600181548110620004b857620004b862000b69565b90600052602060002001819055506101f46013600281548110620004e057620004e062000b69565b9060005260206000200181905550610b54601360038154811062000508576200050862000b69565b90600052602060002001819055506107d0601360048154811062000530576200053062000b69565b90600052602060002001819055506103e8601360058154811062000558576200055862000b69565b60009182526020909120015562000bd8565b6001600160a01b038216620005c65760405162461bcd60e51b815260206004820152601f60248201527f45524332303a206d696e7420746f20746865207a65726f20616464726573730060448201526064015b60405180910390fd5b8060026000828254620005da919062000b7f565b90915550506001600160a01b038216600090815260208190526040812080548392906200060990849062000b7f565b90915550506040518181526001600160a01b038316906000907fddf252ad1be2c89b69c2b068fc378daa952ba7f163c4a11628f55a4df523b3ef9060200160405180910390a35050565b600954601b80546001600160a01b0319166001600160a01b0390921691821790556040805163c45a015560e01b8152905163c45a0155916004808201926020929091908290030181865afa158015620006b0573d6000803e3d6000fd5b505050506040513d601f19601f82011682018060405250810190620006d6919062000ba6565b6001600160a01b031663c9c6539630601b60009054906101000a90046001600160a01b03166001600160a01b031663ad5c46486040518163ffffffff1660e01b8152600401602060405180830381865afa15801562000739573d6000803e3d6000fd5b505050506040513d601f19601f820116820180604052508101906200075f919062000ba6565b6040516001600160e01b031960e085901b1681526001600160a01b039283166004820152911660248201526044016020604051808303816000875af1158015620007ad573d6000803e3d6000fd5b505050506040513d601f19601f82011682018060405250810190620007d3919062000ba6565b600780546001600160a01b0319166001600160a01b039290921691821790556000908152601660205260409020805460ff19166001179055565b6001600160a01b038316620008715760405162461bcd60e51b8152602060048201526024808201527f45524332303a20617070726f76652066726f6d20746865207a65726f206164646044820152637265737360e01b6064820152608401620005bd565b6001600160a01b038216620008d45760405162461bcd60e51b815260206004820152602260248201527f45524332303a20617070726f766520746f20746865207a65726f206164647265604482015261737360f01b6064820152608401620005bd565b6001600160a01b0383811660008181526001602090815260408083209487168084529482529182902085905590518481527f8c5be1e5ebec7d5bd14f71427d1e84f3dd0314c0f7b2291e5b200ac8c7c3b925910160405180910390a3505050565b505050565b82805482825590600052602060002090810192821562000992579160200282015b828111156200099257825182546001600160a01b0319166001600160a01b039091161782556020909201916001909101906200095b565b50620009a0929150620009e2565b5090565b82805482825590600052602060002090810192821562000992579160200282015b8281111562000992578251825591602001919060010190620009c5565b5b80821115620009a05760008155600101620009e3565b634e487b7160e01b600052604160045260246000fd5b600181811c9082168062000a2457607f821691505b60208210810362000a4557634e487b7160e01b600052602260045260246000fd5b50919050565b601f8211156200093557600081815260208120601f850160051c8101602086101562000a745750805b601f850160051c820191505b8181101562000a955782815560010162000a80565b505050505050565b81516001600160401b0381111562000ab95762000ab9620009f9565b62000ad18162000aca845462000a0f565b8462000a4b565b602080601f83116001811462000b09576000841562000af05750858301515b600019600386901b1c1916600185901b17855562000a95565b600085815260208120601f198616915b8281101562000b3a5788860151825594840194600190910190840162000b19565b508582101562000b595787850151600019600388901b60f8161c191681555b5050505050600190811b01905550565b634e487b7160e01b600052603260045260246000fd5b6000821982111562000ba157634e487b7160e01b600052601160045260246000fd5b500190565b60006020828403121562000bb957600080fd5b81516001600160a01b038116811462000bd157600080fd5b9392505050565b6120f58062000be86000396000f3fe6080604052600436106101fd5760003560e01c806355106e5f1161010d5780639e1a8613116100a0578063c6aca36b1161006f578063c6aca36b14610653578063dd62ed3e14610673578063df8408fe14610693578063f2fde38b146106b3578063fe9a79c8146106d357600080fd5b80639e1a8613146105c3578063a457c2d7146105e3578063a9059cbb14610603578063b62496f51461062357600080fd5b80638a8c523c116100dc5780638a8c523c146105595780638da5cb5b1461056e57806395d89b411461058e5780639d0014b1146105a357600080fd5b806355106e5f146104ab57806370a08231146104d8578063893d20e81461050e57806389e7bf1c1461052c57600080fd5b806323b872dd11610190578063395093511161015f57806339509351146103e557806342966c6814610405578063452ed4f11461042557806347fa7c88146104455780635342acb41461047257600080fd5b806323b872dd1461036957806327a14fc214610389578063313ce567146103a957806332cde664146103c557600080fd5b8063095ea7b3116101cc578063095ea7b3146102ac57806318160ddd146102dc5780631c06a7e1146102f15780631e293c101461034757600080fd5b806303fd2a45146102095780630445b6671461024657806306fdde031461026a5780630758d9241461028c57600080fd5b3661020457005b600080fd5b34801561021557600080fd5b50600654610229906001600160a01b031681565b6040516001600160a01b0390911681526020015b60405180910390f35b34801561025257600080fd5b5061025c600b5481565b60405190815260200161023d565b34801561027657600080fd5b5061027f610700565b60405161023d9190611ccf565b34801561029857600080fd5b50601b54610229906001600160a01b031681565b3480156102b857600080fd5b506102cc6102c7366004611d3c565b610792565b604051901515815260200161023d565b3480156102e857600080fd5b5060025461025c565b3480156102fd57600080fd5b50601c546103229061ffff808216916201000081048216916401000000009091041683565b6040805161ffff9485168152928416602084015292169181019190915260600161023d565b34801561035357600080fd5b50610367610362366004611d68565b6107aa565b005b34801561037557600080fd5b506102cc610384366004611d81565b6107e2565b34801561039557600080fd5b506103676103a4366004611d68565b610806565b3480156103b557600080fd5b506040516012815260200161023d565b3480156103d157600080fd5b506103676103e0366004611dd9565b610835565b3480156103f157600080fd5b506102cc610400366004611d3c565b6109dd565b34801561041157600080fd5b50610367610420366004611d68565b6109ff565b34801561043157600080fd5b50600754610229906001600160a01b031681565b34801561045157600080fd5b5061025c610460366004611d68565b601a6020526000908152604090205481565b34801561047e57600080fd5b506102cc61048d366004611e1c565b6001600160a01b031660009081526015602052604090205460ff1690565b3480156104b757600080fd5b5061025c6104c6366004611d68565b60196020526000908152604090205481565b3480156104e457600080fd5b5061025c6104f3366004611e1c565b6001600160a01b031660009081526020819052604090205490565b34801561051a57600080fd5b506005546001600160a01b0316610229565b34801561053857600080fd5b5061025c610547366004611e1c565b60186020526000908152604090205481565b34801561056557600080fd5b50610367610ab8565b34801561057a57600080fd5b50600554610229906001600160a01b031681565b34801561059a57600080fd5b5061027f610b4b565b3480156105af57600080fd5b506103676105be366004611d68565b610b5a565b3480156105cf57600080fd5b50600854610229906001600160a01b031681565b3480156105ef57600080fd5b506102cc6105fe366004611d3c565b610b89565b34801561060f57600080fd5b506102cc61061e366004611d3c565b610c04565b34801561062f57600080fd5b506102cc61063e366004611e1c565b60166020526000908152604090205460ff1681565b34801561065f57600080fd5b5061036761066e366004611d68565b610c12565b34801561067f57600080fd5b5061025c61068e366004611e40565b610c4b565b34801561069f57600080fd5b506103676106ae366004611e87565b610c76565b3480156106bf57600080fd5b506103676106ce366004611e1c565b610ccb565b3480156106df57600080fd5b5061025c6106ee366004611e1c565b60176020526000908152604090205481565b60606003805461070f90611eb5565b80601f016020809104026020016040519081016040528092919081815260200182805461073b90611eb5565b80156107885780601f1061075d57610100808354040283529160200191610788565b820191906000526020600020905b81548152906001019060200180831161076b57829003601f168201915b5050505050905090565b6000336107a0818585610d17565b5060019392505050565b6005546001600160a01b031633146107dd5760405162461bcd60e51b81526004016107d490611eef565b60405180910390fd5b600e55565b6000336107f0858285610e3b565b6107fb858585610eaf565b506001949350505050565b6005546001600160a01b031633146108305760405162461bcd60e51b81526004016107d490611eef565b600d55565b6005546001600160a01b0316331461085f5760405162461bcd60e51b81526004016107d490611eef565b610bb88361ffff1611156108a45760405162461bcd60e51b815260206004820152600c60248201526b4d415820425559204645455360a01b60448201526064016107d4565b610bb88261ffff1611156108ea5760405162461bcd60e51b815260206004820152600d60248201526c4d41582053454c4c204645455360981b60448201526064016107d4565b610bb88161ffff1611156109345760405162461bcd60e51b81526020600482015260116024820152704d4158205452414e53464552204645455360781b60448201526064016107d4565b610bb8816109428486611f3a565b61094c9190611f3a565b61ffff16111561099e5760405162461bcd60e51b815260206004820152601c60248201527f4d4158204255592c2053454c4c2c205452414e5346455220464545530000000060448201526064016107d4565b601c805461ffff94851663ffffffff199091161762010000938516939093029290921765ffff0000000019166401000000009190931602919091179055565b6000336107a08185856109f08383610c4b565b6109fa9190611f60565b610d17565b33600090815260208190526040902054811115610a765760405162461bcd60e51b815260206004820152602f60248201527f4275726e20616d6f756e742073686f756c64206265206c657373207468616e2060448201526e6163636f756e742062616c616e636560881b60648201526084016107d4565b610a803382610f4a565b60405181815233907fcc16f5dbb4873280815c1ee09dbd06736cffcc184412cf7a71a0fdb75d397ca59060200160405180910390a250565b6005546001600160a01b03163314610ae25760405162461bcd60e51b81526004016107d490611eef565b601454610100900460ff1615610b3a5760405162461bcd60e51b815260206004820152601e60248201527f54726164696e67456e61626c656420616c72656164792061637469766564000060448201526064016107d4565b6014805461ff001916610100179055565b60606004805461070f90611eb5565b6005546001600160a01b03163314610b845760405162461bcd60e51b81526004016107d490611eef565b600b55565b60003381610b978286610c4b565b905083811015610bf75760405162461bcd60e51b815260206004820152602560248201527f45524332303a2064656372656173656420616c6c6f77616e63652062656c6f77604482015264207a65726f60d81b60648201526084016107d4565b6107fb8286868403610d17565b6000336107a0818585610eaf565b6000610c1f600283611f78565b90503031610c2c82611098565b6000610c39823031611f9a565b9050610c458382611205565b50505050565b6001600160a01b03918216600090815260016020908152604080832093909416825291909152205490565b6005546001600160a01b03163314610ca05760405162461bcd60e51b81526004016107d490611eef565b6001600160a01b03919091166000908152601560205260409020805460ff1916911515919091179055565b6005546001600160a01b03163314610cf55760405162461bcd60e51b81526004016107d490611eef565b600580546001600160a01b0319166001600160a01b0392909216919091179055565b6001600160a01b038316610d795760405162461bcd60e51b8152602060048201526024808201527f45524332303a20617070726f76652066726f6d20746865207a65726f206164646044820152637265737360e01b60648201526084016107d4565b6001600160a01b038216610dda5760405162461bcd60e51b815260206004820152602260248201527f45524332303a20617070726f766520746f20746865207a65726f206164647265604482015261737360f01b60648201526084016107d4565b6001600160a01b0383811660008181526001602090815260408083209487168084529482529182902085905590518481527f8c5be1e5ebec7d5bd14f71427d1e84f3dd0314c0f7b2291e5b200ac8c7c3b925910160405180910390a3505050565b6000610e478484610c4b565b90506000198114610c455781811015610ea25760405162461bcd60e51b815260206004820152601d60248201527f45524332303a20696e73756666696369656e7420616c6c6f77616e636500000060448201526064016107d4565b610c458484848403610d17565b610eba8383836112e1565b60145460ff1615610ed557610ed0838383611778565b505050565b6000610ee0306104f3565b90506000610eef858584611946565b90508015610f3857610f1a600c54600f5484610f0b9190611fb1565b610f159190611f78565b6119ed565b610f38600c5460105484610f2e9190611fb1565b61066e9190611f78565b610f43858585611b92565b5050505050565b6001600160a01b038216610faa5760405162461bcd60e51b815260206004820152602160248201527f45524332303a206275726e2066726f6d20746865207a65726f206164647265736044820152607360f81b60648201526084016107d4565b6001600160a01b0382166000908152602081905260409020548181101561101e5760405162461bcd60e51b815260206004820152602260248201527f45524332303a206275726e20616d6f756e7420657863656564732062616c616e604482015261636560f01b60648201526084016107d4565b6001600160a01b038316600090815260208190526040812083830390556002805484929061104d908490611f9a565b90915550506040518281526000906001600160a01b038516907fddf252ad1be2c89b69c2b068fc378daa952ba7f163c4a11628f55a4df523b3ef9060200160405180910390a3505050565b60408051600280825260608201835260009260208301908036833701905050905030816000815181106110cd576110cd611fd0565b6001600160a01b03928316602091820292909201810191909152601b54604080516315ab88c960e31b81529051919093169263ad5c46489260048083019391928290030181865afa158015611126573d6000803e3d6000fd5b505050506040513d601f19601f8201168201806040525081019061114a9190611fe6565b8160018151811061115d5761115d611fd0565b6001600160a01b039092166020928302919091019091015261118c305b601b546001600160a01b031684610d17565b601b546001600160a01b031663791ac94783600084305b6111af42612710611f60565b6040518663ffffffff1660e01b81526004016111cf959493929190612003565b600060405180830381600087803b1580156111e957600080fd5b505af11580156111fd573d6000803e3d6000fd5b505050505050565b61121d30601b546001600160a01b0316600019610d17565b601b546001600160a01b031663f305d7198230600554869060009081906001600160a01b031661124f42612710611f60565b60405160e089901b6001600160e01b03191681526001600160a01b039687166004820152602481019590955260448501939093526064840191909152909216608482015260a481019190915260c40160606040518083038185885af11580156112bc573d6000803e3d6000fd5b50505050506040513d601f19601f82011682018060405250810190610f439190612074565b6001600160a01b03831661134d5760405162461bcd60e51b815260206004820152602d60248201527f45524332303a207472616e736665722066726f6d20746865205a45524f5f414460448201526c4452455353206164647265737360981b60648201526084016107d4565b6001600160a01b0382166113b75760405162461bcd60e51b815260206004820152602b60248201527f45524332303a207472616e7366657220746f20746865205a45524f5f4144445260448201526a455353206164647265737360a81b60648201526084016107d4565b600081116114215760405162461bcd60e51b815260206004820152603160248201527f5472616e7366657220616d6f756e74206d7573742062652067726561746572206044820152707468616e205a45524f5f4144445245535360781b60648201526084016107d4565b6005546001600160a01b0384811691161480159061144d57506005546001600160a01b03838116911614155b801561146157506001600160a01b03821615155b801561147857506001600160a01b03821661dead14155b8015611487575060145460ff16155b15610ed057601454610100900460ff166114d85760405162461bcd60e51b815260206004820152601260248201527154726164696e67206e6f742061637469766560701b60448201526064016107d4565b6001600160a01b03831660009081526016602052604090205460ff161561161757600e548111156115695760405162461bcd60e51b815260206004820152603560248201527f427579207472616e7366657220616d6f756e742065786365656473207468652060448201527436b0bc2a3930b739b0b1ba34b7b720b6b7bab73a1760591b60648201526084016107d4565b600d546001600160a01b03831660009081526020819052604090205461158f9083611f60565b11156115d35760405162461bcd60e51b815260206004820152601360248201527213585e081dd85b1b195d08195e18d959591959606a1b60448201526064016107d4565b6001600160a01b0383166000908152601760205260408120805491600191906115fc8385611f60565b90915550506000908152601960205260409020429055505050565b6001600160a01b03821660009081526016602052604090205460ff161561170e57600e548111156116a95760405162461bcd60e51b815260206004820152603660248201527f53656c6c207472616e7366657220616d6f756e742065786365656473207468656044820152751036b0bc2a3930b739b0b1ba34b7b720b6b7bab73a1760511b60648201526084016107d4565b6001600160a01b038316600081815260176020908152604080832054601880845282852080548387526019865293862054968652935293909290916001916116f18386611f60565b9091555050506000908152601a6020526040902042905550505050565b600d546001600160a01b0383166000908152602081905260409020546117349083611f60565b1115610ed05760405162461bcd60e51b815260206004820152601360248201527213585e081dd85b1b195d08195e18d959591959606a1b60448201526064016107d4565b6001600160a01b0383166117dc5760405162461bcd60e51b815260206004820152602560248201527f45524332303a207472616e736665722066726f6d20746865207a65726f206164604482015264647265737360d81b60648201526084016107d4565b6001600160a01b03821661183e5760405162461bcd60e51b815260206004820152602360248201527f45524332303a207472616e7366657220746f20746865207a65726f206164647260448201526265737360e81b60648201526084016107d4565b6001600160a01b038316600090815260208190526040902054818110156118b65760405162461bcd60e51b815260206004820152602660248201527f45524332303a207472616e7366657220616d6f756e7420657863656564732062604482015265616c616e636560d01b60648201526084016107d4565b6001600160a01b038085166000908152602081905260408082208585039055918516815290812080548492906118ed908490611f60565b92505081905550826001600160a01b0316846001600160a01b03167fddf252ad1be2c89b69c2b068fc378daa952ba7f163c4a11628f55a4df523b3ef8460405161193991815260200190565b60405180910390a3610c45565b6000600b54821015801561195d575060145460ff16155b801561197757506007546001600160a01b03858116911614155b801561199b57506007546001600160a01b0316600090815260208190526040812054115b80156119c057506001600160a01b03831660009081526015602052604090205460ff16155b80156119e557506001600160a01b03841660009081526015602052604090205460ff16155b949350505050565b60408051600380825260808201909252600091602082016060803683370190505090503081600081518110611a2457611a24611fd0565b6001600160a01b03928316602091820292909201810191909152601b54604080516315ab88c960e31b81529051919093169263ad5c46489260048083019391928290030181865afa158015611a7d573d6000803e3d6000fd5b505050506040513d601f19601f82011682018060405250810190611aa19190611fe6565b81600181518110611ab457611ab4611fd0565b6001600160a01b039283166020918202929092010152600854825191169082906002908110611ae557611ae5611fd0565b6001600160a01b039283166020918202929092010152600854601b5460405163095ea7b360e01b81529083166004820152600019602482015291169063095ea7b3906044016020604051808303816000875af1158015611b49573d6000803e3d6000fd5b505050506040513d601f19601f82011682018060405250810190611b6d91906120a2565b50611b773061117a565b601b546001600160a01b0316635c11d79583600084306111a3565b6001600160a01b03831660009081526015602052604081205482919060019060ff1680611bd757506001600160a01b03851660009081526015602052604090205460ff165b15611be0575060005b8015611c0a57611bf1868686611c15565b9150611bfd8285611f9a565b9250611c0a863084611778565b6111fd868685611778565b6001600160a01b0383166000908152601660205260408120548190819060ff1615611c5257601c54611c4b9061ffff1683611f60565b9150611ca6565b6001600160a01b03851660009081526016602052604090205460ff1615611c8a57601c54611c4b9062010000900461ffff1683611f60565b601c54611ca390640100000000900461ffff1683611f60565b91505b8115611cc657600c54611cb98386611fb1565b611cc39190611f78565b90505b95945050505050565b600060208083528351808285015260005b81811015611cfc57858101830151858201604001528201611ce0565b81811115611d0e576000604083870101525b50601f01601f1916929092016040019392505050565b6001600160a01b0381168114611d3957600080fd5b50565b60008060408385031215611d4f57600080fd5b8235611d5a81611d24565b946020939093013593505050565b600060208284031215611d7a57600080fd5b5035919050565b600080600060608486031215611d9657600080fd5b8335611da181611d24565b92506020840135611db181611d24565b929592945050506040919091013590565b803561ffff81168114611dd457600080fd5b919050565b600080600060608486031215611dee57600080fd5b611df784611dc2565b9250611e0560208501611dc2565b9150611e1360408501611dc2565b90509250925092565b600060208284031215611e2e57600080fd5b8135611e3981611d24565b9392505050565b60008060408385031215611e5357600080fd5b8235611e5e81611d24565b91506020830135611e6e81611d24565b809150509250929050565b8015158114611d3957600080fd5b60008060408385031215611e9a57600080fd5b8235611ea581611d24565b91506020830135611e6e81611e79565b600181811c90821680611ec957607f821691505b602082108103611ee957634e487b7160e01b600052602260045260246000fd5b50919050565b6020808252818101527f4f776e61626c653a2063616c6c6572206973206e6f7420746865206f776e6572604082015260600190565b634e487b7160e01b600052601160045260246000fd5b600061ffff808316818516808303821115611f5757611f57611f24565b01949350505050565b60008219821115611f7357611f73611f24565b500190565b600082611f9557634e487b7160e01b600052601260045260246000fd5b500490565b600082821015611fac57611fac611f24565b500390565b6000816000190483118215151615611fcb57611fcb611f24565b500290565b634e487b7160e01b600052603260045260246000fd5b600060208284031215611ff857600080fd5b8151611e3981611d24565b600060a082018783526020878185015260a0604085015281875180845260c086019150828901935060005b818110156120535784516001600160a01b03168352938301939183019160010161202e565b50506001600160a01b03969096166060850152505050608001529392505050565b60008060006060848603121561208957600080fd5b8351925060208401519150604084015190509250925092565b6000602082840312156120b457600080fd5b8151611e3981611e7956fea2646970667358221220b055fd23576e773b957663e17841e8f3115c9c49728da949a2090fcf3569042364736f6c634300080f0033",
    "sourcePath": "e:/Desktop/CatPizzaToken/contracts/MetaStock.sol",
    "compiler": {
        "name": "solc",
        "version": "0.8.15+commit.e14f2714"
    },
    "functionHashes": {
        "DEAD()": "03fd2a45",
        "_feesRates()": "1c06a7e1",
        "allowance(address,address)": "dd62ed3e",
        "approve(address,uint256)": "095ea7b3",
        "autoLiquidity(uint256)": "c6aca36b",
        "automatedMarketMakerPairs(address)": "b62496f5",
        "balanceOf(address)": "70a08231",
        "burn(uint256)": "42966c68",
        "decimals()": "313ce567",
        "decreaseAllowance(address,uint256)": "a457c2d7",
        "dexRouter()": "0758d924",
        "enableTrading()": "8a8c523c",
        "excludeFromFee(address,bool)": "df8408fe",
        "getOwner()": "893d20e8",
        "increaseAllowance(address,uint256)": "39509351",
        "isExcludedFromFee(address)": "5342acb4",
        "lpPair()": "452ed4f1",
        "name()": "06fdde03",
        "owner()": "8da5cb5b",
        "setMaxTransactionAmount(uint256)": "1e293c10",
        "setMaxWalletAmount(uint256)": "27a14fc2",
        "setSwapThreshold(uint256)": "9d0014b1",
        "setTaxes(uint16,uint16,uint16)": "32cde664",
        "swapThreshold()": "0445b667",
        "symbol()": "95d89b41",
        "totalSupply()": "18160ddd",
        "transfer(address,uint256)": "a9059cbb",
        "transferFrom(address,address,uint256)": "23b872dd",
        "transferOwnership(address)": "f2fde38b",
        "usdAddress()": "9e1a8613",
        "usersBuysCounter(address)": "fe9a79c8",
        "usersLastBuysTxs(uint256)": "55106e5f",
        "usersLastSellsTxs(uint256)": "47fa7c88",
        "usersSellCounter(address)": "89e7bf1c"
    },
    "gasEstimates": {
        "creation": {
            "codeDepositCost": "1687400",
            "executionCost": "infinite",
            "totalCost": "infinite"
        },
        "external": {
            "DEAD()": "2373",
            "_feesRates()": "2506",
            "allowance(address,address)": "infinite",
            "approve(address,uint256)": "24641",
            "autoLiquidity(uint256)": "infinite",
            "automatedMarketMakerPairs(address)": "2636",
            "balanceOf(address)": "2602",
            "burn(uint256)": "54544",
            "decimals()": "267",
            "decreaseAllowance(address,uint256)": "27011",
            "dexRouter()": "2439",
            "enableTrading()": "28690",
            "excludeFromFee(address,bool)": "infinite",
            "getOwner()": "2410",
            "increaseAllowance(address,uint256)": "27017",
            "isExcludedFromFee(address)": "2676",
            "lpPair()": "2415",
            "name()": "infinite",
            "owner()": "2393",
            "setMaxTransactionAmount(uint256)": "24576",
            "setMaxWalletAmount(uint256)": "24532",
            "setSwapThreshold(uint256)": "24575",
            "setTaxes(uint16,uint16,uint16)": "infinite",
            "swapThreshold()": "2364",
            "symbol()": "infinite",
            "totalSupply()": "2360",
            "transfer(address,uint256)": "infinite",
            "transferFrom(address,address,uint256)": "infinite",
            "transferOwnership(address)": "26815",
            "usdAddress()": "2371",
            "usersBuysCounter(address)": "2645",
            "usersLastBuysTxs(uint256)": "2484",
            "usersLastSellsTxs(uint256)": "2549",
            "usersSellCounter(address)": "2625"
        },
        "internal": {
            "_beforeTransferCheck(address,address,uint256)": "infinite",
            "_takeFees(address,address,uint256)": "infinite",
            "_transfer(address,address,uint256)": "infinite",
            "addLiquidity(uint256,uint256)": "infinite",
            "calcBuySellTransferFee(address,address,uint256)": "8955",
            "contractMustSwap(address,address,uint256)": "15199",
            "distributeToWallets()": "infinite",
            "getPathForTokensToTokens(address,address)": "infinite",
            "initializeRouterAndPair()": "infinite",
            "self()": "infinite",
            "swapTokensForBNB(uint256)": "infinite",
            "swapTokensForUSD(uint256)": "infinite",
            "swapUSDForTokens(uint256)": "infinite"
        }
    }
}