{
    "contractName": "MetaStock",
    "abi": [
        {
            "inputs": [],
            "stateMutability": "nonpayable",
            "type": "constructor"
        },
        {
            "anonymous": false,
            "inputs": [
                {
                    "indexed": true,
                    "internalType": "address",
                    "name": "owner",
                    "type": "address"
                },
                {
                    "indexed": true,
                    "internalType": "address",
                    "name": "spender",
                    "type": "address"
                },
                {
                    "indexed": false,
                    "internalType": "uint256",
                    "name": "value",
                    "type": "uint256"
                }
            ],
            "name": "Approval",
            "type": "event"
        },
        {
            "anonymous": false,
            "inputs": [
                {
                    "indexed": true,
                    "internalType": "address",
                    "name": "sender",
                    "type": "address"
                },
                {
                    "indexed": false,
                    "internalType": "uint256",
                    "name": "amount",
                    "type": "uint256"
                }
            ],
            "name": "Burn",
            "type": "event"
        },
        {
            "anonymous": false,
            "inputs": [
                {
                    "indexed": true,
                    "internalType": "address",
                    "name": "previousOwner",
                    "type": "address"
                },
                {
                    "indexed": true,
                    "internalType": "address",
                    "name": "newOwner",
                    "type": "address"
                }
            ],
            "name": "OwnershipTransferred",
            "type": "event"
        },
        {
            "anonymous": false,
            "inputs": [
                {
                    "indexed": true,
                    "internalType": "address",
                    "name": "from",
                    "type": "address"
                },
                {
                    "indexed": true,
                    "internalType": "address",
                    "name": "to",
                    "type": "address"
                },
                {
                    "indexed": false,
                    "internalType": "uint256",
                    "name": "value",
                    "type": "uint256"
                }
            ],
            "name": "Transfer",
            "type": "event"
        },
        {
            "inputs": [],
            "name": "DEAD",
            "outputs": [
                {
                    "internalType": "address",
                    "name": "",
                    "type": "address"
                }
            ],
            "stateMutability": "view",
            "type": "function"
        },
        {
            "inputs": [],
            "name": "_feesRates",
            "outputs": [
                {
                    "internalType": "uint16",
                    "name": "buyFee",
                    "type": "uint16"
                },
                {
                    "internalType": "uint16",
                    "name": "sellFee",
                    "type": "uint16"
                },
                {
                    "internalType": "uint16",
                    "name": "transferFee",
                    "type": "uint16"
                }
            ],
            "stateMutability": "view",
            "type": "function"
        },
        {
            "inputs": [
                {
                    "internalType": "address",
                    "name": "owner",
                    "type": "address"
                },
                {
                    "internalType": "address",
                    "name": "spender",
                    "type": "address"
                }
            ],
            "name": "allowance",
            "outputs": [
                {
                    "internalType": "uint256",
                    "name": "",
                    "type": "uint256"
                }
            ],
            "stateMutability": "view",
            "type": "function"
        },
        {
            "inputs": [
                {
                    "internalType": "address",
                    "name": "spender",
                    "type": "address"
                },
                {
                    "internalType": "uint256",
                    "name": "amount",
                    "type": "uint256"
                }
            ],
            "name": "approve",
            "outputs": [
                {
                    "internalType": "bool",
                    "name": "",
                    "type": "bool"
                }
            ],
            "stateMutability": "nonpayable",
            "type": "function"
        },
        {
            "inputs": [
                {
                    "internalType": "address",
                    "name": "",
                    "type": "address"
                }
            ],
            "name": "automatedMarketMakerPairs",
            "outputs": [
                {
                    "internalType": "bool",
                    "name": "",
                    "type": "bool"
                }
            ],
            "stateMutability": "view",
            "type": "function"
        },
        {
            "inputs": [
                {
                    "internalType": "address",
                    "name": "account",
                    "type": "address"
                }
            ],
            "name": "balanceOf",
            "outputs": [
                {
                    "internalType": "uint256",
                    "name": "",
                    "type": "uint256"
                }
            ],
            "stateMutability": "view",
            "type": "function"
        },
        {
            "inputs": [
                {
                    "internalType": "uint256",
                    "name": "amount",
                    "type": "uint256"
                }
            ],
            "name": "burn",
            "outputs": [],
            "stateMutability": "nonpayable",
            "type": "function"
        },
        {
            "inputs": [],
            "name": "charityWallet",
            "outputs": [
                {
                    "internalType": "address",
                    "name": "",
                    "type": "address"
                }
            ],
            "stateMutability": "view",
            "type": "function"
        },
        {
            "inputs": [],
            "name": "decimals",
            "outputs": [
                {
                    "internalType": "uint8",
                    "name": "",
                    "type": "uint8"
                }
            ],
            "stateMutability": "view",
            "type": "function"
        },
        {
            "inputs": [
                {
                    "internalType": "address",
                    "name": "spender",
                    "type": "address"
                },
                {
                    "internalType": "uint256",
                    "name": "subtractedValue",
                    "type": "uint256"
                }
            ],
            "name": "decreaseAllowance",
            "outputs": [
                {
                    "internalType": "bool",
                    "name": "",
                    "type": "bool"
                }
            ],
            "stateMutability": "nonpayable",
            "type": "function"
        },
        {
            "inputs": [],
            "name": "dexRouter",
            "outputs": [
                {
                    "internalType": "contract IUniswapV2Router02",
                    "name": "",
                    "type": "address"
                }
            ],
            "stateMutability": "view",
            "type": "function"
        },
        {
            "inputs": [],
            "name": "enableTrading",
            "outputs": [],
            "stateMutability": "nonpayable",
            "type": "function"
        },
        {
            "inputs": [
                {
                    "internalType": "address",
                    "name": "account",
                    "type": "address"
                },
                {
                    "internalType": "bool",
                    "name": "val",
                    "type": "bool"
                }
            ],
            "name": "excludeFromFee",
            "outputs": [],
            "stateMutability": "nonpayable",
            "type": "function"
        },
        {
            "inputs": [],
            "name": "getOwner",
            "outputs": [
                {
                    "internalType": "address",
                    "name": "",
                    "type": "address"
                }
            ],
            "stateMutability": "view",
            "type": "function"
        },
        {
            "inputs": [
                {
                    "internalType": "address",
                    "name": "spender",
                    "type": "address"
                },
                {
                    "internalType": "uint256",
                    "name": "addedValue",
                    "type": "uint256"
                }
            ],
            "name": "increaseAllowance",
            "outputs": [
                {
                    "internalType": "bool",
                    "name": "",
                    "type": "bool"
                }
            ],
            "stateMutability": "nonpayable",
            "type": "function"
        },
        {
            "inputs": [
                {
                    "internalType": "address",
                    "name": "account",
                    "type": "address"
                }
            ],
            "name": "isExcludedFromFee",
            "outputs": [
                {
                    "internalType": "bool",
                    "name": "",
                    "type": "bool"
                }
            ],
            "stateMutability": "view",
            "type": "function"
        },
        {
            "inputs": [],
            "name": "lpPair",
            "outputs": [
                {
                    "internalType": "address",
                    "name": "",
                    "type": "address"
                }
            ],
            "stateMutability": "view",
            "type": "function"
        },
        {
            "inputs": [],
            "name": "name",
            "outputs": [
                {
                    "internalType": "string",
                    "name": "",
                    "type": "string"
                }
            ],
            "stateMutability": "view",
            "type": "function"
        },
        {
            "inputs": [],
            "name": "owner",
            "outputs": [
                {
                    "internalType": "address",
                    "name": "",
                    "type": "address"
                }
            ],
            "stateMutability": "view",
            "type": "function"
        },
        {
            "inputs": [
                {
                    "internalType": "uint256",
                    "name": "value",
                    "type": "uint256"
                }
            ],
            "name": "setMaxTransactionAmount",
            "outputs": [],
            "stateMutability": "nonpayable",
            "type": "function"
        },
        {
            "inputs": [
                {
                    "internalType": "uint256",
                    "name": "value",
                    "type": "uint256"
                }
            ],
            "name": "setMaxWalletAmount",
            "outputs": [],
            "stateMutability": "nonpayable",
            "type": "function"
        },
        {
            "inputs": [
                {
                    "internalType": "uint256",
                    "name": "value",
                    "type": "uint256"
                }
            ],
            "name": "setSwapThreshold",
            "outputs": [],
            "stateMutability": "nonpayable",
            "type": "function"
        },
        {
            "inputs": [
                {
                    "internalType": "uint16",
                    "name": "buyFee",
                    "type": "uint16"
                },
                {
                    "internalType": "uint16",
                    "name": "sellFee",
                    "type": "uint16"
                },
                {
                    "internalType": "uint16",
                    "name": "transferFee",
                    "type": "uint16"
                }
            ],
            "name": "setTaxes",
            "outputs": [],
            "stateMutability": "nonpayable",
            "type": "function"
        },
        {
            "inputs": [],
            "name": "swapThreshold",
            "outputs": [
                {
                    "internalType": "uint256",
                    "name": "",
                    "type": "uint256"
                }
            ],
            "stateMutability": "view",
            "type": "function"
        },
        {
            "inputs": [],
            "name": "swapTokenAddress",
            "outputs": [
                {
                    "internalType": "address",
                    "name": "",
                    "type": "address"
                }
            ],
            "stateMutability": "view",
            "type": "function"
        },
        {
            "inputs": [],
            "name": "symbol",
            "outputs": [
                {
                    "internalType": "string",
                    "name": "",
                    "type": "string"
                }
            ],
            "stateMutability": "view",
            "type": "function"
        },
        {
            "inputs": [
                {
                    "internalType": "uint256",
                    "name": "",
                    "type": "uint256"
                }
            ],
            "name": "teamWallets",
            "outputs": [
                {
                    "internalType": "address",
                    "name": "",
                    "type": "address"
                }
            ],
            "stateMutability": "view",
            "type": "function"
        },
        {
            "inputs": [
                {
                    "internalType": "uint256",
                    "name": "",
                    "type": "uint256"
                }
            ],
            "name": "teamWalletsPercentages",
            "outputs": [
                {
                    "internalType": "uint256",
                    "name": "",
                    "type": "uint256"
                }
            ],
            "stateMutability": "view",
            "type": "function"
        },
        {
            "inputs": [],
            "name": "totalSupply",
            "outputs": [
                {
                    "internalType": "uint256",
                    "name": "",
                    "type": "uint256"
                }
            ],
            "stateMutability": "view",
            "type": "function"
        },
        {
            "inputs": [
                {
                    "internalType": "address",
                    "name": "to",
                    "type": "address"
                },
                {
                    "internalType": "uint256",
                    "name": "amount",
                    "type": "uint256"
                }
            ],
            "name": "transfer",
            "outputs": [
                {
                    "internalType": "bool",
                    "name": "",
                    "type": "bool"
                }
            ],
            "stateMutability": "nonpayable",
            "type": "function"
        },
        {
            "inputs": [
                {
                    "internalType": "address",
                    "name": "from",
                    "type": "address"
                },
                {
                    "internalType": "address",
                    "name": "to",
                    "type": "address"
                },
                {
                    "internalType": "uint256",
                    "name": "amount",
                    "type": "uint256"
                }
            ],
            "name": "transferFrom",
            "outputs": [
                {
                    "internalType": "bool",
                    "name": "",
                    "type": "bool"
                }
            ],
            "stateMutability": "nonpayable",
            "type": "function"
        },
        {
            "inputs": [
                {
                    "internalType": "address",
                    "name": "account",
                    "type": "address"
                }
            ],
            "name": "transferOwnership",
            "outputs": [],
            "stateMutability": "nonpayable",
            "type": "function"
        },
        {
            "inputs": [
                {
                    "internalType": "address",
                    "name": "",
                    "type": "address"
                }
            ],
            "name": "usersLastSellsDates",
            "outputs": [
                {
                    "internalType": "uint256",
                    "name": "",
                    "type": "uint256"
                }
            ],
            "stateMutability": "view",
            "type": "function"
        },
        {
            "stateMutability": "payable",
            "type": "receive"
        }
    ],
    "bytecode": "600680546001600160a01b031990811661dead179091556008805482167378867bbeef44f2326bf8ddd1941a4439382ef2a71790556009805490911673492a9ce7f973958454fcbcae0e22985e15cdbe58179055600a60808181526101e06040529060a061014080368337505081516200008192600a92506020019062000942565b5060408051600a808252610160820190925290602082016101408036833750508151620000b692600b925060200190620009ac565b50600c80546001600160a01b031916739ac64cc6e4415144c455bd8e4837fea55603e5c317905569d3c21bcecceda1000000600d819055612710600e55600f8190556113886010556107d060118190556012556103e86013556014553480156200011f57600080fd5b50604051806040016040528060098152602001684d65746153746f636b60b81b815250604051806040016040528060038152602001624d534b60e81b815250816003908051906020019062000176929190620009ea565b5080516200018c906004906020840190620009ea565b505050620001ac336a52b7d2dcc80cd2e40000006200073160201b60201c565b600580546001600160a01b03199081163390811790925560408051606081018252600080825261012c602080840191909152918301819052601a805465ffffffffffff191663012c000017905593845260168152818420805460ff19908116600190811790925530865294839020805490951617909355600c54601980549093166001600160a01b0391909116908117909255805163c45a015560e01b81529051919263c45a0155926004838101938290030181865afa15801562000275573d6000803e3d6000fd5b505050506040513d601f19601f820116820180604052508101906200029b919062000a7d565b6001600160a01b031663c9c6539630601960009054906101000a90046001600160a01b03166001600160a01b031663ad5c46486040518163ffffffff1660e01b8152600401602060405180830381865afa158015620002fe573d6000803e3d6000fd5b505050506040513d601f19601f8201168201806040525081019062000324919062000a7d565b6040516001600160e01b031960e085901b1681526001600160a01b039283166004820152911660248201526044016020604051808303816000875af115801562000372573d6000803e3d6000fd5b505050506040513d601f19601f8201168201806040525081019062000398919062000a7d565b600780546001600160a01b0319166001600160a01b039283169081179091556000908152601760205260409020805460ff19166001179055600c54620003e4913391166000196200081a565b600c54620004009030906001600160a01b03166000196200081a565b600854600c5462000421916001600160a01b0390811691166000196200081a565b734cf4525ea8225ef715236538a3d7f06151bfee11600a6000815481106200044d576200044d62000aaf565b9060005260206000200160006101000a8154816001600160a01b0302191690836001600160a01b031602179055506107d0600b60008154811062000495576200049562000aaf565b9060005260206000200181905550736644ebde0f26c8f74ad18697cce8a5ac4e608cb4600a600181548110620004cf57620004cf62000aaf565b9060005260206000200160006101000a8154816001600160a01b0302191690836001600160a01b03160217905550610640600b60018154811062000517576200051762000aaf565b9060005260206000200181905550733c44cdddb6a900fa2b585dd299e03d12fa4293bc600a60028154811062000551576200055162000aaf565b9060005260206000200160006101000a8154816001600160a01b0302191690836001600160a01b03160217905550610bb8600b60028154811062000599576200059962000aaf565b90600052602060002001819055507390f79bf6eb2c4f870365e785982e1f101e93b906600a600381548110620005d357620005d362000aaf565b9060005260206000200160006101000a8154816001600160a01b0302191690836001600160a01b031602179055506101f4600b6003815481106200061b576200061b62000aaf565b906000526020600020018190555073fbaa3c716da6378a0840754185bff6a05a20e1c8600a60048154811062000655576200065562000aaf565b9060005260206000200160006101000a8154816001600160a01b0302191690836001600160a01b03160217905550610b54600b6004815481106200069d576200069d62000aaf565b9060005260206000200181905550734cf4525ea8225ef715236538a3d7f06151bfee11600a600581548110620006d757620006d762000aaf565b9060005260206000200160006101000a8154816001600160a01b0302191690836001600160a01b031602179055506107d0600b6005815481106200071f576200071f62000aaf565b60009182526020909120015562000b28565b6001600160a01b0382166200078d5760405162461bcd60e51b815260206004820152601f60248201527f45524332303a206d696e7420746f20746865207a65726f20616464726573730060448201526064015b60405180910390fd5b8060026000828254620007a1919062000ac5565b90915550506001600160a01b03821660009081526020819052604081208054839290620007d090849062000ac5565b90915550506040518181526001600160a01b038316906000907fddf252ad1be2c89b69c2b068fc378daa952ba7f163c4a11628f55a4df523b3ef9060200160405180910390a35050565b6001600160a01b0383166200087e5760405162461bcd60e51b8152602060048201526024808201527f45524332303a20617070726f76652066726f6d20746865207a65726f206164646044820152637265737360e01b606482015260840162000784565b6001600160a01b038216620008e15760405162461bcd60e51b815260206004820152602260248201527f45524332303a20617070726f766520746f20746865207a65726f206164647265604482015261737360f01b606482015260840162000784565b6001600160a01b0383811660008181526001602090815260408083209487168084529482529182902085905590518481527f8c5be1e5ebec7d5bd14f71427d1e84f3dd0314c0f7b2291e5b200ac8c7c3b925910160405180910390a3505050565b8280548282559060005260206000209081019282156200099a579160200282015b828111156200099a57825182546001600160a01b0319166001600160a01b0390911617825560209092019160019091019062000963565b50620009a892915062000a66565b5090565b8280548282559060005260206000209081019282156200099a579160200282015b828111156200099a578251825591602001919060010190620009cd565b828054620009f89062000aec565b90600052602060002090601f01602090048101928262000a1c57600085556200099a565b82601f1062000a3757805160ff19168380011785556200099a565b828001600101855582156200099a57918201828111156200099a578251825591602001919060010190620009cd565b5b80821115620009a8576000815560010162000a67565b60006020828403121562000a9057600080fd5b81516001600160a01b038116811462000aa857600080fd5b9392505050565b634e487b7160e01b600052603260045260246000fd5b6000821982111562000ae757634e487b7160e01b600052601160045260246000fd5b500190565b600181811c9082168062000b0157607f821691505b60208210810362000b2257634e487b7160e01b600052602260045260246000fd5b50919050565b611dd18062000b386000396000f3fe6080604052600436106101f25760003560e01c80634e48f6151161010d57806395d89b41116100a0578063b62496f51161006f578063b62496f5146105fe578063dd62ed3e1461062e578063df8408fe1461064e578063f2fde38b1461066e578063f36f79e01461068e57600080fd5b806395d89b41146105895780639d0014b11461059e578063a457c2d7146105be578063a9059cbb146105de57600080fd5b80637bf9ae8f116100dc5780637bf9ae8f14610509578063893d20e8146105365780638a8c523c146105545780638da5cb5b1461056957600080fd5b80634e48f6151461045a5780635342acb41461047a57806370a08231146104b35780637b208769146104e957600080fd5b806323b872dd11610185578063395093511161015457806339509351146103da57806342966c68146103fa578063452ed4f11461041a5780634c1ccf121461043a57600080fd5b806323b872dd1461035e57806327a14fc21461037e578063313ce5671461039e57806332cde664146103ba57600080fd5b8063095ea7b3116101c1578063095ea7b3146102a157806318160ddd146102d15780631c06a7e1146102e65780631e293c101461033c57600080fd5b806303fd2a45146101fe5780630445b6671461023b57806306fdde031461025f5780630758d9241461028157600080fd5b366101f957005b600080fd5b34801561020a57600080fd5b5060065461021e906001600160a01b031681565b6040516001600160a01b0390911681526020015b60405180910390f35b34801561024757600080fd5b50610251600d5481565b604051908152602001610232565b34801561026b57600080fd5b506102746106ae565b60405161023291906119e8565b34801561028d57600080fd5b5060195461021e906001600160a01b031681565b3480156102ad57600080fd5b506102c16102bc366004611a59565b610740565b6040519015158152602001610232565b3480156102dd57600080fd5b50600254610251565b3480156102f257600080fd5b50601a546103179061ffff808216916201000081048216916401000000009091041683565b6040805161ffff94851681529284166020840152921691810191909152606001610232565b34801561034857600080fd5b5061035c610357366004611a83565b610758565b005b34801561036a57600080fd5b506102c1610379366004611a9c565b610790565b34801561038a57600080fd5b5061035c610399366004611a83565b6107b4565b3480156103aa57600080fd5b5060405160128152602001610232565b3480156103c657600080fd5b5061035c6103d5366004611aea565b6107e3565b3480156103e657600080fd5b506102c16103f5366004611a59565b61098b565b34801561040657600080fd5b5061035c610415366004611a83565b6109ad565b34801561042657600080fd5b5060075461021e906001600160a01b031681565b34801561044657600080fd5b5061021e610455366004611a83565b610a66565b34801561046657600080fd5b50610251610475366004611a83565b610a90565b34801561048657600080fd5b506102c1610495366004611b2d565b6001600160a01b031660009081526016602052604090205460ff1690565b3480156104bf57600080fd5b506102516104ce366004611b2d565b6001600160a01b031660009081526020819052604090205490565b3480156104f557600080fd5b5060095461021e906001600160a01b031681565b34801561051557600080fd5b50610251610524366004611b2d565b60186020526000908152604090205481565b34801561054257600080fd5b506005546001600160a01b031661021e565b34801561056057600080fd5b5061035c610ab1565b34801561057557600080fd5b5060055461021e906001600160a01b031681565b34801561059557600080fd5b50610274610b44565b3480156105aa57600080fd5b5061035c6105b9366004611a83565b610b53565b3480156105ca57600080fd5b506102c16105d9366004611a59565b610b82565b3480156105ea57600080fd5b506102c16105f9366004611a59565b610bfd565b34801561060a57600080fd5b506102c1610619366004611b2d565b60176020526000908152604090205460ff1681565b34801561063a57600080fd5b50610251610649366004611b4f565b610c0b565b34801561065a57600080fd5b5061035c610669366004611b93565b610c36565b34801561067a57600080fd5b5061035c610689366004611b2d565b610c8b565b34801561069a57600080fd5b5060085461021e906001600160a01b031681565b6060600380546106bd90611bca565b80601f01602080910402602001604051908101604052809291908181526020018280546106e990611bca565b80156107365780601f1061070b57610100808354040283529160200191610736565b820191906000526020600020905b81548152906001019060200180831161071957829003601f168201915b5050505050905090565b60003361074e818585610cd7565b5060019392505050565b6005546001600160a01b0316331461078b5760405162461bcd60e51b815260040161078290611c04565b60405180910390fd5b601455565b60003361079e858285610dfb565b6107a9858585610e75565b506001949350505050565b6005546001600160a01b031633146107de5760405162461bcd60e51b815260040161078290611c04565b600f55565b6005546001600160a01b0316331461080d5760405162461bcd60e51b815260040161078290611c04565b610bb88361ffff1611156108525760405162461bcd60e51b815260206004820152600c60248201526b4d415820425559204645455360a01b6044820152606401610782565b610bb88261ffff1611156108985760405162461bcd60e51b815260206004820152600d60248201526c4d41582053454c4c204645455360981b6044820152606401610782565b610bb88161ffff1611156108e25760405162461bcd60e51b81526020600482015260116024820152704d4158205452414e53464552204645455360781b6044820152606401610782565b610bb8816108f08486611c4f565b6108fa9190611c4f565b61ffff16111561094c5760405162461bcd60e51b815260206004820152601c60248201527f4d4158204255592c2053454c4c2c205452414e534645522046454553000000006044820152606401610782565b601a805461ffff94851663ffffffff199091161762010000938516939093029290921765ffff0000000019166401000000009190931602919091179055565b60003361074e81858561099e8383610c0b565b6109a89190611c75565b610cd7565b33600090815260208190526040902054811115610a245760405162461bcd60e51b815260206004820152602f60248201527f4275726e20616d6f756e742073686f756c64206265206c657373207468616e2060448201526e6163636f756e742062616c616e636560881b6064820152608401610782565b610a2e3382611132565b60405181815233907fcc16f5dbb4873280815c1ee09dbd06736cffcc184412cf7a71a0fdb75d397ca59060200160405180910390a250565b600a8181548110610a7657600080fd5b6000918252602090912001546001600160a01b0316905081565b600b8181548110610aa057600080fd5b600091825260209091200154905081565b6005546001600160a01b03163314610adb5760405162461bcd60e51b815260040161078290611c04565b601554610100900460ff1615610b335760405162461bcd60e51b815260206004820152601e60248201527f54726164696e67456e61626c656420616c7265616479206163746976656400006044820152606401610782565b6015805461ff001916610100179055565b6060600480546106bd90611bca565b6005546001600160a01b03163314610b7d5760405162461bcd60e51b815260040161078290611c04565b600d55565b60003381610b908286610c0b565b905083811015610bf05760405162461bcd60e51b815260206004820152602560248201527f45524332303a2064656372656173656420616c6c6f77616e63652062656c6f77604482015264207a65726f60d81b6064820152608401610782565b6107a98286868403610cd7565b60003361074e818585610e75565b6001600160a01b03918216600090815260016020908152604080832093909416825291909152205490565b6005546001600160a01b03163314610c605760405162461bcd60e51b815260040161078290611c04565b6001600160a01b03919091166000908152601660205260409020805460ff1916911515919091179055565b6005546001600160a01b03163314610cb55760405162461bcd60e51b815260040161078290611c04565b600580546001600160a01b0319166001600160a01b0392909216919091179055565b6001600160a01b038316610d395760405162461bcd60e51b8152602060048201526024808201527f45524332303a20617070726f76652066726f6d20746865207a65726f206164646044820152637265737360e01b6064820152608401610782565b6001600160a01b038216610d9a5760405162461bcd60e51b815260206004820152602260248201527f45524332303a20617070726f766520746f20746865207a65726f206164647265604482015261737360f01b6064820152608401610782565b6001600160a01b0383811660008181526001602090815260408083209487168084529482529182902085905590518481527f8c5be1e5ebec7d5bd14f71427d1e84f3dd0314c0f7b2291e5b200ac8c7c3b925910160405180910390a3505050565b6000610e078484610c0b565b90506000198114610e6f5781811015610e625760405162461bcd60e51b815260206004820152601d60248201527f45524332303a20696e73756666696369656e7420616c6c6f77616e63650000006044820152606401610782565b610e6f8484848403610cd7565b50505050565b610e80838383611280565b60155460ff1615610e9b57610e96838383611622565b505050565b610ea583836117f0565b15611127576000610eb5306104ce565b601b546019549192506001600160a01b03908116916305158061911630600854600e546010546001600160a01b0390921691610ef19088611c8d565b610efb9190611cac565b6040516001600160e01b031960e087901b1681526001600160a01b0394851660048201529284166024840152921660448201526064810191909152608401600060405180830381600087803b158015610f5357600080fd5b505af1158015610f67573d6000803e3d6000fd5b5050601b54604051631ee5508360e31b81526001600160a01b03909116925063f72a84189150610fa1903090600a90600b90600401611cce565b600060405180830381600087803b158015610fbb57600080fd5b505af1158015610fcf573d6000803e3d6000fd5b5050601b546019546001600160a01b039182169350639b3c2ee592501630600e54601154610ffd9087611c8d565b6110079190611cac565b60055460405160e086901b6001600160e01b03191681526001600160a01b03948516600482015292841660248401526044830191909152919091166064820152608401600060405180830381600087803b15801561106457600080fd5b505af1158015611078573d6000803e3d6000fd5b505050506110833090565b600954600e546013546001600160a01b039384169363a9059cbb931691906110ab9086611c8d565b6110b59190611cac565b6040516001600160e01b031960e085901b1681526001600160a01b03909216600483015260248201526044016020604051808303816000875af1158015611100573d6000803e3d6000fd5b505050506040513d601f19601f820116820180604052508101906111249190611d67565b50505b610e968383836118a3565b6001600160a01b0382166111925760405162461bcd60e51b815260206004820152602160248201527f45524332303a206275726e2066726f6d20746865207a65726f206164647265736044820152607360f81b6064820152608401610782565b6001600160a01b038216600090815260208190526040902054818110156112065760405162461bcd60e51b815260206004820152602260248201527f45524332303a206275726e20616d6f756e7420657863656564732062616c616e604482015261636560f01b6064820152608401610782565b6001600160a01b0383166000908152602081905260408120838303905560028054849290611235908490611d84565b90915550506040518281526000906001600160a01b038516907fddf252ad1be2c89b69c2b068fc378daa952ba7f163c4a11628f55a4df523b3ef9060200160405180910390a3505050565b6001600160a01b0383166112ec5760405162461bcd60e51b815260206004820152602d60248201527f45524332303a207472616e736665722066726f6d20746865205a45524f5f414460448201526c4452455353206164647265737360981b6064820152608401610782565b6001600160a01b0382166113565760405162461bcd60e51b815260206004820152602b60248201527f45524332303a207472616e7366657220746f20746865205a45524f5f4144445260448201526a455353206164647265737360a81b6064820152608401610782565b600081116113c05760405162461bcd60e51b815260206004820152603160248201527f5472616e7366657220616d6f756e74206d7573742062652067726561746572206044820152707468616e205a45524f5f4144445245535360781b6064820152608401610782565b6005546001600160a01b038481169116148015906113ec57506005546001600160a01b03838116911614155b801561140057506001600160a01b03821615155b801561141757506001600160a01b03821661dead14155b8015611426575060155460ff16155b15610e9657601554610100900460ff166114775760405162461bcd60e51b815260206004820152601260248201527154726164696e67206e6f742061637469766560701b6044820152606401610782565b6001600160a01b03831660009081526017602052604090205460ff1615611572576014548111156115085760405162461bcd60e51b815260206004820152603560248201527f427579207472616e7366657220616d6f756e742065786365656473207468652060448201527436b0bc2a3930b739b0b1ba34b7b720b6b7bab73a1760591b6064820152608401610782565b600f546001600160a01b03831660009081526020819052604090205461152e9083611c75565b1115610e965760405162461bcd60e51b815260206004820152601360248201527213585e081dd85b1b195d08195e18d959591959606a1b6044820152606401610782565b6001600160a01b03821660009081526017602052604090205460ff1615611508576014548111156116045760405162461bcd60e51b815260206004820152603660248201527f53656c6c207472616e7366657220616d6f756e742065786365656473207468656044820152751036b0bc2a3930b739b0b1ba34b7b720b6b7bab73a1760511b6064820152608401610782565b50506001600160a01b03166000908152601860205260409020429055565b6001600160a01b0383166116865760405162461bcd60e51b815260206004820152602560248201527f45524332303a207472616e736665722066726f6d20746865207a65726f206164604482015264647265737360d81b6064820152608401610782565b6001600160a01b0382166116e85760405162461bcd60e51b815260206004820152602360248201527f45524332303a207472616e7366657220746f20746865207a65726f206164647260448201526265737360e81b6064820152608401610782565b6001600160a01b038316600090815260208190526040902054818110156117605760405162461bcd60e51b815260206004820152602660248201527f45524332303a207472616e7366657220616d6f756e7420657863656564732062604482015265616c616e636560d01b6064820152608401610782565b6001600160a01b03808516600090815260208190526040808220858503905591851681529081208054849290611797908490611c75565b92505081905550826001600160a01b0316846001600160a01b03167fddf252ad1be2c89b69c2b068fc378daa952ba7f163c4a11628f55a4df523b3ef846040516117e391815260200190565b60405180910390a3610e6f565b6000806117fc306104ce565b9050600d548110158015611813575060155460ff16155b801561182d57506007546001600160a01b03858116911614155b801561185157506007546001600160a01b0316600090815260208190526040812054115b801561187657506001600160a01b03831660009081526016602052604090205460ff16155b801561189b57506001600160a01b03841660009081526016602052604090205460ff16155b949350505050565b6001600160a01b03831660009081526016602052604081205482919060019060ff16806118e857506001600160a01b03851660009081526016602052604090205460ff165b156118f1575060005b801561191b5761190286868661192e565b915061190e8285611d84565b925061191b863084611622565b611926868685611622565b505050505050565b6001600160a01b0383166000908152601760205260408120548190819060ff161561196b57601a546119649061ffff1683611c75565b91506119bf565b6001600160a01b03851660009081526017602052604090205460ff16156119a357601a546119649062010000900461ffff1683611c75565b601a546119bc90640100000000900461ffff1683611c75565b91505b81156119df57600e546119d28386611c8d565b6119dc9190611cac565b90505b95945050505050565b600060208083528351808285015260005b81811015611a15578581018301518582016040015282016119f9565b81811115611a27576000604083870101525b50601f01601f1916929092016040019392505050565b80356001600160a01b0381168114611a5457600080fd5b919050565b60008060408385031215611a6c57600080fd5b611a7583611a3d565b946020939093013593505050565b600060208284031215611a9557600080fd5b5035919050565b600080600060608486031215611ab157600080fd5b611aba84611a3d565b9250611ac860208501611a3d565b9150604084013590509250925092565b803561ffff81168114611a5457600080fd5b600080600060608486031215611aff57600080fd5b611b0884611ad8565b9250611b1660208501611ad8565b9150611b2460408501611ad8565b90509250925092565b600060208284031215611b3f57600080fd5b611b4882611a3d565b9392505050565b60008060408385031215611b6257600080fd5b611b6b83611a3d565b9150611b7960208401611a3d565b90509250929050565b8015158114611b9057600080fd5b50565b60008060408385031215611ba657600080fd5b611baf83611a3d565b91506020830135611bbf81611b82565b809150509250929050565b600181811c90821680611bde57607f821691505b602082108103611bfe57634e487b7160e01b600052602260045260246000fd5b50919050565b6020808252818101527f4f776e61626c653a2063616c6c6572206973206e6f7420746865206f776e6572604082015260600190565b634e487b7160e01b600052601160045260246000fd5b600061ffff808316818516808303821115611c6c57611c6c611c39565b01949350505050565b60008219821115611c8857611c88611c39565b500190565b6000816000190483118215151615611ca757611ca7611c39565b500290565b600082611cc957634e487b7160e01b600052601260045260246000fd5b500490565b60006060820160018060a01b038087168452602060608186015282875480855260808701915060009450888552828520855b82811015611d1e578154861684529284019260019182019101611d00565b5050508581036040870152865480825287855282852091830193505b80851015611d5957815484526001948501949383019390910190611d3a565b509198975050505050505050565b600060208284031215611d7957600080fd5b8151611b4881611b82565b600082821015611d9657611d96611c39565b50039056fea2646970667358221220b4dc4d9d23288affdfb64507c004a8cd30817f908cd59407c64acb4fe1a4e23764736f6c634300080d0033",
    "sourcePath": "e:/Desktop/CatPizzaToken/contracts/MetaStock.sol",
    "compiler": {
        "name": "solc",
        "version": "0.8.13+commit.abaa5c0e"
    },
    "functionHashes": {
        "DEAD()": "03fd2a45",
        "_feesRates()": "1c06a7e1",
        "allowance(address,address)": "dd62ed3e",
        "approve(address,uint256)": "095ea7b3",
        "automatedMarketMakerPairs(address)": "b62496f5",
        "balanceOf(address)": "70a08231",
        "burn(uint256)": "42966c68",
        "charityWallet()": "7b208769",
        "decimals()": "313ce567",
        "decreaseAllowance(address,uint256)": "a457c2d7",
        "dexRouter()": "0758d924",
        "enableTrading()": "8a8c523c",
        "excludeFromFee(address,bool)": "df8408fe",
        "getOwner()": "893d20e8",
        "increaseAllowance(address,uint256)": "39509351",
        "isExcludedFromFee(address)": "5342acb4",
        "lpPair()": "452ed4f1",
        "name()": "06fdde03",
        "owner()": "8da5cb5b",
        "setMaxTransactionAmount(uint256)": "1e293c10",
        "setMaxWalletAmount(uint256)": "27a14fc2",
        "setSwapThreshold(uint256)": "9d0014b1",
        "setTaxes(uint16,uint16,uint16)": "32cde664",
        "swapThreshold()": "0445b667",
        "swapTokenAddress()": "f36f79e0",
        "symbol()": "95d89b41",
        "teamWallets(uint256)": "4c1ccf12",
        "teamWalletsPercentages(uint256)": "4e48f615",
        "totalSupply()": "18160ddd",
        "transfer(address,uint256)": "a9059cbb",
        "transferFrom(address,address,uint256)": "23b872dd",
        "transferOwnership(address)": "f2fde38b",
        "usersLastSellsDates(address)": "7bf9ae8f"
    },
    "gasEstimates": {
        "creation": {
            "codeDepositCost": "1526600",
            "executionCost": "infinite",
            "totalCost": "infinite"
        },
        "external": {
            "DEAD()": "2373",
            "_feesRates()": "2506",
            "allowance(address,address)": "infinite",
            "approve(address,uint256)": "24647",
            "automatedMarketMakerPairs(address)": "2575",
            "balanceOf(address)": "2630",
            "burn(uint256)": "54544",
            "charityWallet()": "2438",
            "decimals()": "267",
            "decreaseAllowance(address,uint256)": "27039",
            "dexRouter()": "2439",
            "enableTrading()": "28734",
            "excludeFromFee(address,bool)": "26951",
            "getOwner()": "2387",
            "increaseAllowance(address,uint256)": "27023",
            "isExcludedFromFee(address)": "2617",
            "lpPair()": "2415",
            "name()": "infinite",
            "owner()": "2437",
            "setMaxTransactionAmount(uint256)": "24576",
            "setMaxWalletAmount(uint256)": "24532",
            "setSwapThreshold(uint256)": "24531",
            "setTaxes(uint16,uint16,uint16)": "infinite",
            "swapThreshold()": "2364",
            "swapTokenAddress()": "2458",
            "symbol()": "infinite",
            "teamWallets(uint256)": "4714",
            "teamWalletsPercentages(uint256)": "4621",
            "totalSupply()": "2360",
            "transfer(address,uint256)": "infinite",
            "transferFrom(address,address,uint256)": "infinite",
            "transferOwnership(address)": "26821",
            "usersLastSellsDates(address)": "2564"
        },
        "internal": {
            "_beforeTransferCheck(address,address,uint256)": "infinite",
            "_finalizeTransfer(address,address,uint256)": "infinite",
            "_transfer(address,address,uint256)": "infinite",
            "calcBuySellTransferFee(address,address,uint256)": "8955",
            "contractMustSwap(address,address)": "17426",
            "self()": "infinite"
        }
    }
}