{
    "contractName": "PXTV9",
    "abi": [
        {
            "inputs": [],
            "stateMutability": "nonpayable",
            "type": "constructor"
        },
        {
            "anonymous": false,
            "inputs": [
                {
                    "indexed": true,
                    "internalType": "address",
                    "name": "owner",
                    "type": "address"
                },
                {
                    "indexed": true,
                    "internalType": "address",
                    "name": "spender",
                    "type": "address"
                },
                {
                    "indexed": false,
                    "internalType": "uint256",
                    "name": "value",
                    "type": "uint256"
                }
            ],
            "name": "Approval",
            "type": "event"
        },
        {
            "anonymous": false,
            "inputs": [
                {
                    "indexed": true,
                    "internalType": "address",
                    "name": "sender",
                    "type": "address"
                },
                {
                    "indexed": false,
                    "internalType": "uint256",
                    "name": "amount",
                    "type": "uint256"
                }
            ],
            "name": "Burn",
            "type": "event"
        },
        {
            "anonymous": false,
            "inputs": [
                {
                    "indexed": true,
                    "internalType": "address",
                    "name": "previousOwner",
                    "type": "address"
                },
                {
                    "indexed": true,
                    "internalType": "address",
                    "name": "newOwner",
                    "type": "address"
                }
            ],
            "name": "OwnershipTransferred",
            "type": "event"
        },
        {
            "anonymous": false,
            "inputs": [
                {
                    "indexed": true,
                    "internalType": "address",
                    "name": "from",
                    "type": "address"
                },
                {
                    "indexed": true,
                    "internalType": "address",
                    "name": "to",
                    "type": "address"
                },
                {
                    "indexed": false,
                    "internalType": "uint256",
                    "name": "value",
                    "type": "uint256"
                }
            ],
            "name": "Transfer",
            "type": "event"
        },
        {
            "inputs": [],
            "name": "DEAD",
            "outputs": [
                {
                    "internalType": "address",
                    "name": "",
                    "type": "address"
                }
            ],
            "stateMutability": "view",
            "type": "function"
        },
        {
            "inputs": [],
            "name": "_feesRates",
            "outputs": [
                {
                    "internalType": "uint16",
                    "name": "buyFee",
                    "type": "uint16"
                },
                {
                    "internalType": "uint16",
                    "name": "sellFee",
                    "type": "uint16"
                },
                {
                    "internalType": "uint16",
                    "name": "transferFee",
                    "type": "uint16"
                }
            ],
            "stateMutability": "view",
            "type": "function"
        },
        {
            "inputs": [
                {
                    "internalType": "address",
                    "name": "owner",
                    "type": "address"
                },
                {
                    "internalType": "address",
                    "name": "spender",
                    "type": "address"
                }
            ],
            "name": "allowance",
            "outputs": [
                {
                    "internalType": "uint256",
                    "name": "",
                    "type": "uint256"
                }
            ],
            "stateMutability": "view",
            "type": "function"
        },
        {
            "inputs": [
                {
                    "internalType": "address",
                    "name": "spender",
                    "type": "address"
                },
                {
                    "internalType": "uint256",
                    "name": "amount",
                    "type": "uint256"
                }
            ],
            "name": "approve",
            "outputs": [
                {
                    "internalType": "bool",
                    "name": "",
                    "type": "bool"
                }
            ],
            "stateMutability": "nonpayable",
            "type": "function"
        },
        {
            "inputs": [
                {
                    "internalType": "uint256",
                    "name": "tokenAmount",
                    "type": "uint256"
                }
            ],
            "name": "autoLiquidity",
            "outputs": [],
            "stateMutability": "nonpayable",
            "type": "function"
        },
        {
            "inputs": [
                {
                    "internalType": "address",
                    "name": "",
                    "type": "address"
                }
            ],
            "name": "automatedMarketMakerPairs",
            "outputs": [
                {
                    "internalType": "bool",
                    "name": "",
                    "type": "bool"
                }
            ],
            "stateMutability": "view",
            "type": "function"
        },
        {
            "inputs": [
                {
                    "internalType": "address",
                    "name": "account",
                    "type": "address"
                }
            ],
            "name": "balanceOf",
            "outputs": [
                {
                    "internalType": "uint256",
                    "name": "",
                    "type": "uint256"
                }
            ],
            "stateMutability": "view",
            "type": "function"
        },
        {
            "inputs": [
                {
                    "internalType": "address",
                    "name": "to",
                    "type": "address"
                },
                {
                    "internalType": "uint256",
                    "name": "amount",
                    "type": "uint256"
                }
            ],
            "name": "burn",
            "outputs": [],
            "stateMutability": "nonpayable",
            "type": "function"
        },
        {
            "inputs": [],
            "name": "decimals",
            "outputs": [
                {
                    "internalType": "uint8",
                    "name": "",
                    "type": "uint8"
                }
            ],
            "stateMutability": "view",
            "type": "function"
        },
        {
            "inputs": [
                {
                    "internalType": "address",
                    "name": "spender",
                    "type": "address"
                },
                {
                    "internalType": "uint256",
                    "name": "subtractedValue",
                    "type": "uint256"
                }
            ],
            "name": "decreaseAllowance",
            "outputs": [
                {
                    "internalType": "bool",
                    "name": "",
                    "type": "bool"
                }
            ],
            "stateMutability": "nonpayable",
            "type": "function"
        },
        {
            "inputs": [],
            "name": "dexRouter",
            "outputs": [
                {
                    "internalType": "contract IUniswapV2Router02",
                    "name": "",
                    "type": "address"
                }
            ],
            "stateMutability": "view",
            "type": "function"
        },
        {
            "inputs": [
                {
                    "internalType": "bool",
                    "name": "value",
                    "type": "bool"
                }
            ],
            "name": "enableTrading",
            "outputs": [],
            "stateMutability": "nonpayable",
            "type": "function"
        },
        {
            "inputs": [
                {
                    "internalType": "address",
                    "name": "account",
                    "type": "address"
                },
                {
                    "internalType": "bool",
                    "name": "val",
                    "type": "bool"
                }
            ],
            "name": "excludeFromFee",
            "outputs": [],
            "stateMutability": "nonpayable",
            "type": "function"
        },
        {
            "inputs": [],
            "name": "getOwner",
            "outputs": [
                {
                    "internalType": "address",
                    "name": "",
                    "type": "address"
                }
            ],
            "stateMutability": "view",
            "type": "function"
        },
        {
            "inputs": [
                {
                    "internalType": "address",
                    "name": "spender",
                    "type": "address"
                },
                {
                    "internalType": "uint256",
                    "name": "addedValue",
                    "type": "uint256"
                }
            ],
            "name": "increaseAllowance",
            "outputs": [
                {
                    "internalType": "bool",
                    "name": "",
                    "type": "bool"
                }
            ],
            "stateMutability": "nonpayable",
            "type": "function"
        },
        {
            "inputs": [
                {
                    "internalType": "address",
                    "name": "account",
                    "type": "address"
                }
            ],
            "name": "isExcludedFromFee",
            "outputs": [
                {
                    "internalType": "bool",
                    "name": "",
                    "type": "bool"
                }
            ],
            "stateMutability": "view",
            "type": "function"
        },
        {
            "inputs": [],
            "name": "lpPair",
            "outputs": [
                {
                    "internalType": "address",
                    "name": "",
                    "type": "address"
                }
            ],
            "stateMutability": "view",
            "type": "function"
        },
        {
            "inputs": [],
            "name": "marketingAddress",
            "outputs": [
                {
                    "internalType": "address",
                    "name": "",
                    "type": "address"
                }
            ],
            "stateMutability": "view",
            "type": "function"
        },
        {
            "inputs": [],
            "name": "name",
            "outputs": [
                {
                    "internalType": "string",
                    "name": "",
                    "type": "string"
                }
            ],
            "stateMutability": "view",
            "type": "function"
        },
        {
            "inputs": [],
            "name": "owner",
            "outputs": [
                {
                    "internalType": "address",
                    "name": "",
                    "type": "address"
                }
            ],
            "stateMutability": "view",
            "type": "function"
        },
        {
            "inputs": [
                {
                    "internalType": "address",
                    "name": "account",
                    "type": "address"
                }
            ],
            "name": "setMarketingAddress",
            "outputs": [],
            "stateMutability": "nonpayable",
            "type": "function"
        },
        {
            "inputs": [
                {
                    "internalType": "uint256",
                    "name": "value",
                    "type": "uint256"
                }
            ],
            "name": "setSwapThreshold",
            "outputs": [],
            "stateMutability": "nonpayable",
            "type": "function"
        },
        {
            "inputs": [
                {
                    "internalType": "uint16",
                    "name": "buyFee",
                    "type": "uint16"
                },
                {
                    "internalType": "uint16",
                    "name": "sellFee",
                    "type": "uint16"
                },
                {
                    "internalType": "uint16",
                    "name": "transferFee",
                    "type": "uint16"
                }
            ],
            "name": "setTaxes",
            "outputs": [],
            "stateMutability": "nonpayable",
            "type": "function"
        },
        {
            "inputs": [],
            "name": "swapThreshold",
            "outputs": [
                {
                    "internalType": "uint256",
                    "name": "",
                    "type": "uint256"
                }
            ],
            "stateMutability": "view",
            "type": "function"
        },
        {
            "inputs": [],
            "name": "swapTokenAddress",
            "outputs": [
                {
                    "internalType": "address",
                    "name": "",
                    "type": "address"
                }
            ],
            "stateMutability": "view",
            "type": "function"
        },
        {
            "inputs": [],
            "name": "symbol",
            "outputs": [
                {
                    "internalType": "string",
                    "name": "",
                    "type": "string"
                }
            ],
            "stateMutability": "view",
            "type": "function"
        },
        {
            "inputs": [],
            "name": "totalSupply",
            "outputs": [
                {
                    "internalType": "uint256",
                    "name": "",
                    "type": "uint256"
                }
            ],
            "stateMutability": "view",
            "type": "function"
        },
        {
            "inputs": [],
            "name": "tradingActive",
            "outputs": [
                {
                    "internalType": "bool",
                    "name": "",
                    "type": "bool"
                }
            ],
            "stateMutability": "view",
            "type": "function"
        },
        {
            "inputs": [
                {
                    "internalType": "address",
                    "name": "to",
                    "type": "address"
                },
                {
                    "internalType": "uint256",
                    "name": "amount",
                    "type": "uint256"
                }
            ],
            "name": "transfer",
            "outputs": [
                {
                    "internalType": "bool",
                    "name": "",
                    "type": "bool"
                }
            ],
            "stateMutability": "nonpayable",
            "type": "function"
        },
        {
            "inputs": [
                {
                    "internalType": "address",
                    "name": "from",
                    "type": "address"
                },
                {
                    "internalType": "address",
                    "name": "to",
                    "type": "address"
                },
                {
                    "internalType": "uint256",
                    "name": "amount",
                    "type": "uint256"
                }
            ],
            "name": "transferFrom",
            "outputs": [
                {
                    "internalType": "bool",
                    "name": "",
                    "type": "bool"
                }
            ],
            "stateMutability": "nonpayable",
            "type": "function"
        },
        {
            "inputs": [
                {
                    "internalType": "address",
                    "name": "account",
                    "type": "address"
                }
            ],
            "name": "transferOwnership",
            "outputs": [],
            "stateMutability": "nonpayable",
            "type": "function"
        },
        {
            "inputs": [
                {
                    "internalType": "bool",
                    "name": "newValue",
                    "type": "bool"
                }
            ],
            "name": "updateTradingEnable",
            "outputs": [],
            "stateMutability": "nonpayable",
            "type": "function"
        },
        {
            "stateMutability": "payable",
            "type": "receive"
        }
    ],
    "bytecode": "60806040523480156200001157600080fd5b50604080518082018252600881526743617450697a7a6160c01b6020808301918252835180850190945260048452630436174560e41b9084015281519192916200005e91600391620003f3565b50805162000074906004906020840190620003f3565b50505062000094336a52b7d2dcc80cd2e4000000620001e260201b60201c565b600580546001600160a01b031990811633908117909255600980548216736644ebde0f26c8f74ad18697cce8a5ac4e608cb41781556040805160608101825261012c80825260208083019190915260009183018290526011805465ffffffffffff191663012c012c1790556008805486167378867bbeef44f2326bf8ddd1941a4439382ef2a7179055858252600e9052818120805460ff199081166001908117909255308352838320805482168317905593546001600160a01b031682529190208054909216179055600d805461ff00191661010017905569d3c21bcecceda1000000600a55601080549091167360ae616a2155ee3d9a68541ba4544862310933d490811790915590620001ac9082600019620002cb565b620001bb3082600019620002cb565b50600680546001600160a01b03191661dead179055600019600b55612710600c55620004fc565b6001600160a01b0382166200023e5760405162461bcd60e51b815260206004820152601f60248201527f45524332303a206d696e7420746f20746865207a65726f20616464726573730060448201526064015b60405180910390fd5b806002600082825462000252919062000499565b90915550506001600160a01b038216600090815260208190526040812080548392906200028190849062000499565b90915550506040518181526001600160a01b038316906000907fddf252ad1be2c89b69c2b068fc378daa952ba7f163c4a11628f55a4df523b3ef9060200160405180910390a35050565b6001600160a01b0383166200032f5760405162461bcd60e51b8152602060048201526024808201527f45524332303a20617070726f76652066726f6d20746865207a65726f206164646044820152637265737360e01b606482015260840162000235565b6001600160a01b038216620003925760405162461bcd60e51b815260206004820152602260248201527f45524332303a20617070726f766520746f20746865207a65726f206164647265604482015261737360f01b606482015260840162000235565b6001600160a01b0383811660008181526001602090815260408083209487168084529482529182902085905590518481527f8c5be1e5ebec7d5bd14f71427d1e84f3dd0314c0f7b2291e5b200ac8c7c3b925910160405180910390a3505050565b8280546200040190620004c0565b90600052602060002090601f01602090048101928262000425576000855562000470565b82601f106200044057805160ff191683800117855562000470565b8280016001018555821562000470579182015b828111156200047057825182559160200191906001019062000453565b506200047e92915062000482565b5090565b5b808211156200047e576000815560010162000483565b60008219821115620004bb57634e487b7160e01b600052601160045260246000fd5b500190565b600181811c90821680620004d557607f821691505b602082108103620004f657634e487b7160e01b600052602260045260246000fd5b50919050565b611cc7806200050c6000396000f3fe6080604052600436106101e75760003560e01c80638da5cb5b11610102578063b62496f511610095578063df8408fe11610064578063df8408fe14610600578063f275f64b14610351578063f2fde38b14610620578063f36f79e01461064057600080fd5b8063b62496f514610571578063bbc0c742146105a1578063c6aca36b146105c0578063dd62ed3e146105e057600080fd5b80639dc29fac116100d15780639dc29fac146104f1578063a457c2d714610511578063a5ece94114610531578063a9059cbb1461055157600080fd5b80638da5cb5b1461047c578063906e9dd01461049c57806395d89b41146104bc5780639d0014b1146104d157600080fd5b806324d993aa1161017a578063452ed4f111610149578063452ed4f1146103cf5780635342acb4146103ef57806370a0823114610428578063893d20e81461045e57600080fd5b806324d993aa14610351578063313ce5671461037357806332cde6641461038f57806339509351146103af57600080fd5b8063095ea7b3116101b6578063095ea7b31461029657806318160ddd146102c65780631c06a7e1146102db57806323b872dd1461033157600080fd5b806303fd2a45146101f35780630445b6671461023057806306fdde03146102545780630758d9241461027657600080fd5b366101ee57005b600080fd5b3480156101ff57600080fd5b50600654610213906001600160a01b031681565b6040516001600160a01b0390911681526020015b60405180910390f35b34801561023c57600080fd5b50610246600a5481565b604051908152602001610227565b34801561026057600080fd5b50610269610660565b60405161022791906118b1565b34801561028257600080fd5b50601054610213906001600160a01b031681565b3480156102a257600080fd5b506102b66102b136600461191e565b6106f2565b6040519015158152602001610227565b3480156102d257600080fd5b50600254610246565b3480156102e757600080fd5b5060115461030c9061ffff808216916201000081048216916401000000009091041683565b6040805161ffff94851681529284166020840152921691810191909152606001610227565b34801561033d57600080fd5b506102b661034c36600461194a565b61070a565b34801561035d57600080fd5b5061037161036c366004611999565b61072e565b005b34801561037f57600080fd5b5060405160128152602001610227565b34801561039b57600080fd5b506103716103aa3660046119cd565b61077b565b3480156103bb57600080fd5b506102b66103ca36600461191e565b6107e4565b3480156103db57600080fd5b50600754610213906001600160a01b031681565b3480156103fb57600080fd5b506102b661040a366004611a10565b6001600160a01b03166000908152600e602052604090205460ff1690565b34801561043457600080fd5b50610246610443366004611a10565b6001600160a01b031660009081526020819052604090205490565b34801561046a57600080fd5b506005546001600160a01b0316610213565b34801561048857600080fd5b50600554610213906001600160a01b031681565b3480156104a857600080fd5b506103716104b7366004611a10565b610806565b3480156104c857600080fd5b50610269610852565b3480156104dd57600080fd5b506103716104ec366004611a2d565b610861565b3480156104fd57600080fd5b5061037161050c36600461191e565b610890565b34801561051d57600080fd5b506102b661052c36600461191e565b6109eb565b34801561053d57600080fd5b50600954610213906001600160a01b031681565b34801561055d57600080fd5b506102b661056c36600461191e565b610a66565b34801561057d57600080fd5b506102b661058c366004611a10565b600f6020526000908152604090205460ff1681565b3480156105ad57600080fd5b50600d546102b690610100900460ff1681565b3480156105cc57600080fd5b506103716105db366004611a2d565b610a74565b3480156105ec57600080fd5b506102466105fb366004611a46565b610aba565b34801561060c57600080fd5b5061037161061b366004611a7f565b610ae5565b34801561062c57600080fd5b5061037161063b366004611a10565b610b3a565b34801561064c57600080fd5b50600854610213906001600160a01b031681565b60606003805461066f90611aad565b80601f016020809104026020016040519081016040528092919081815260200182805461069b90611aad565b80156106e85780601f106106bd576101008083540402835291602001916106e8565b820191906000526020600020905b8154815290600101906020018083116106cb57829003601f168201915b5050505050905090565b600033610700818585610b86565b5060019392505050565b600033610718858285610caa565b610723858585610d24565b506001949350505050565b6005546001600160a01b031633146107615760405162461bcd60e51b815260040161075890611ae7565b60405180910390fd5b600d80549115156101000261ff0019909216919091179055565b6005546001600160a01b031633146107a55760405162461bcd60e51b815260040161075890611ae7565b6011805461ffff94851663ffffffff199091161762010000938516939093029290921765ffff0000000019166401000000009190931602919091179055565b6000336107008185856107f78383610aba565b6108019190611b32565b610b86565b6005546001600160a01b031633146108305760405162461bcd60e51b815260040161075890611ae7565b600980546001600160a01b0319166001600160a01b0392909216919091179055565b60606004805461066f90611aad565b6005546001600160a01b0316331461088b5760405162461bcd60e51b815260040161075890611ae7565b600a55565b336001600160a01b0383161461091a5760006108ac8333610aba565b9050600019811461091857818110156109185760405162461bcd60e51b815260206004820152602860248201527f45524332303a207472616e7366657220616d6f756e74206578636565647320616044820152676c6c6f77616e636560c01b6064820152608401610758565b505b6001600160a01b03821660009081526020819052604090205481111561099a5760405162461bcd60e51b815260206004820152602f60248201527f4275726e20616d6f756e742073686f756c64206265206c657373207468616e2060448201526e6163636f756e742062616c616e636560881b6064820152608401610758565b6109a48282610d6c565b816001600160a01b03167fcc16f5dbb4873280815c1ee09dbd06736cffcc184412cf7a71a0fdb75d397ca5826040516109df91815260200190565b60405180910390a25050565b600033816109f98286610aba565b905083811015610a595760405162461bcd60e51b815260206004820152602560248201527f45524332303a2064656372656173656420616c6c6f77616e63652062656c6f77604482015264207a65726f60d81b6064820152608401610758565b6107238286868403610b86565b600033610700818585610d24565b6000610a81600283611b4a565b90506000610a8f8284611b6c565b905047610a9b83610eba565b6000610aa78247611b6c565b9050610ab3838261101d565b5050505050565b6001600160a01b03918216600090815260016020908152604080832093909416825291909152205490565b6005546001600160a01b03163314610b0f5760405162461bcd60e51b815260040161075890611ae7565b6001600160a01b03919091166000908152600e60205260409020805460ff1916911515919091179055565b6005546001600160a01b03163314610b645760405162461bcd60e51b815260040161075890611ae7565b600580546001600160a01b0319166001600160a01b0392909216919091179055565b6001600160a01b038316610be85760405162461bcd60e51b8152602060048201526024808201527f45524332303a20617070726f76652066726f6d20746865207a65726f206164646044820152637265737360e01b6064820152608401610758565b6001600160a01b038216610c495760405162461bcd60e51b815260206004820152602260248201527f45524332303a20617070726f766520746f20746865207a65726f206164647265604482015261737360f01b6064820152608401610758565b6001600160a01b0383811660008181526001602090815260408083209487168084529482529182902085905590518481527f8c5be1e5ebec7d5bd14f71427d1e84f3dd0314c0f7b2291e5b200ac8c7c3b925910160405180910390a3505050565b6000610cb68484610aba565b90506000198114610d1e5781811015610d115760405162461bcd60e51b815260206004820152601d60248201527f45524332303a20696e73756666696369656e7420616c6c6f77616e63650000006044820152606401610758565b610d1e8484848403610b86565b50505050565b610d2f8383836110f7565b600d5460ff1615610d4a57610d4583838361129d565b505050565b610d54838361146b565b15610d6157610d61611520565b610d4583838361158f565b6001600160a01b038216610dcc5760405162461bcd60e51b815260206004820152602160248201527f45524332303a206275726e2066726f6d20746865207a65726f206164647265736044820152607360f81b6064820152608401610758565b6001600160a01b03821660009081526020819052604090205481811015610e405760405162461bcd60e51b815260206004820152602260248201527f45524332303a206275726e20616d6f756e7420657863656564732062616c616e604482015261636560f01b6064820152608401610758565b6001600160a01b0383166000908152602081905260408120838303905560028054849290610e6f908490611b6c565b90915550506040518281526000906001600160a01b038516907fddf252ad1be2c89b69c2b068fc378daa952ba7f163c4a11628f55a4df523b3ef9060200160405180910390a3505050565b6040805160028082526060820183526000926020830190803683370190505090503081600081518110610eef57610eef611b83565b6001600160a01b03928316602091820292909201810191909152601054604080516315ab88c960e31b81529051919093169263ad5c46489260048083019391928290030181865afa158015610f48573d6000803e3d6000fd5b505050506040513d601f19601f82011682018060405250810190610f6c9190611b99565b81600181518110610f7f57610f7f611b83565b6001600160a01b039283166020918202929092010152601054610fa59130911684610b86565b6010546001600160a01b031663791ac9478360008430610fc742612710611b32565b6040518663ffffffff1660e01b8152600401610fe7959493929190611bb6565b600060405180830381600087803b15801561100157600080fd5b505af1158015611015573d6000803e3d6000fd5b505050505050565b6010546110359030906001600160a01b031684610b86565b6010546005546001600160a01b039182169163f305d7199184913091879160009182911661106542612710611b32565b60405160e089901b6001600160e01b03191681526001600160a01b039687166004820152602481019590955260448501939093526064840191909152909216608482015260a481019190915260c40160606040518083038185885af11580156110d2573d6000803e3d6000fd5b50505050506040513d601f19601f82011682018060405250810190610ab39190611c27565b6001600160a01b0383166111635760405162461bcd60e51b815260206004820152602d60248201527f45524332303a207472616e736665722066726f6d20746865205a45524f5f414460448201526c4452455353206164647265737360981b6064820152608401610758565b6001600160a01b0382166111cd5760405162461bcd60e51b815260206004820152602b60248201527f45524332303a207472616e7366657220746f20746865205a45524f5f4144445260448201526a455353206164647265737360a81b6064820152608401610758565b600081116112375760405162461bcd60e51b815260206004820152603160248201527f5472616e7366657220616d6f756e74206d7573742062652067726561746572206044820152707468616e205a45524f5f4144445245535360781b6064820152608401610758565b6112418383611618565b15610d4557600d54610100900460ff16610d455760405162461bcd60e51b815260206004820152601860248201527f54726164696e67206e6f742079657420656e61626c65642100000000000000006044820152606401610758565b6001600160a01b0383166113015760405162461bcd60e51b815260206004820152602560248201527f45524332303a207472616e736665722066726f6d20746865207a65726f206164604482015264647265737360d81b6064820152608401610758565b6001600160a01b0382166113635760405162461bcd60e51b815260206004820152602360248201527f45524332303a207472616e7366657220746f20746865207a65726f206164647260448201526265737360e81b6064820152608401610758565b6001600160a01b038316600090815260208190526040902054818110156113db5760405162461bcd60e51b815260206004820152602660248201527f45524332303a207472616e7366657220616d6f756e7420657863656564732062604482015265616c616e636560d01b6064820152608401610758565b6001600160a01b03808516600090815260208190526040808220858503905591851681529081208054849290611412908490611b32565b92505081905550826001600160a01b0316846001600160a01b03167fddf252ad1be2c89b69c2b068fc378daa952ba7f163c4a11628f55a4df523b3ef8460405161145e91815260200190565b60405180910390a3610d1e565b30600090815260208190526040812054600a5481101580156114905750600d5460ff16155b80156114aa57506007546001600160a01b03858116911614155b80156114ce57506007546001600160a01b0316600090815260208190526040812054115b80156114f357506001600160a01b0383166000908152600e602052604090205460ff16155b801561151857506001600160a01b0384166000908152600e602052604090205460ff16155b949350505050565b600d805460ff1916600117905530600090815260208190526040902054600c54611b5890610bb890611565906115568486611c55565b6115609190611b4a565b6116a8565b600c54611580906115768386611c55565b6105db9190611b4a565b5050600d805460ff1916905550565b6001600160a01b0383166000908152600e602052604081205482919060019060ff16806115d457506001600160a01b0385166000908152600e602052604090205460ff165b156115dd575060005b801561160d576115ee86868661176a565b9150811561160d576116008285611b6c565b925061160d86308461129d565b61101586868561129d565b6005546000906001600160a01b0384811691161480159061164757506005546001600160a01b03838116911614155b801561165e57506005546001600160a01b03163214155b801561167857506006546001600160a01b03838116911614155b801561168c57506001600160a01b03821615155b80156116a157506001600160a01b0383163014155b9392505050565b6008546000906116c29030906001600160a01b0316611824565b60085460105460405163095ea7b360e01b81526001600160a01b03918216600482015260248101869052929350169063095ea7b3906044016020604051808303816000875af1158015611719573d6000803e3d6000fd5b505050506040513d601f19601f8201168201806040525081019061173d9190611c74565b506010546009546001600160a01b0391821691635c11d795918591600091869116610fc742612710611b32565b6001600160a01b0383166000908152600f60205260408120548190819060ff16156117a7576011546117a09061ffff1683611b32565b91506117fb565b6001600160a01b0385166000908152600f602052604090205460ff16156117df576011546117a09062010000900461ffff1683611b32565b6011546117f890640100000000900461ffff1683611b32565b91505b811561181b57600c5461180e8386611c55565b6118189190611b4a565b90505b95945050505050565b60408051600280825260608083018452926000929190602083019080368337019050509050838160008151811061185d5761185d611b83565b60200260200101906001600160a01b031690816001600160a01b031681525050828160018151811061189157611891611b83565b6001600160a01b0390921660209283029190910190910152905092915050565b600060208083528351808285015260005b818110156118de578581018301518582016040015282016118c2565b818111156118f0576000604083870101525b50601f01601f1916929092016040019392505050565b6001600160a01b038116811461191b57600080fd5b50565b6000806040838503121561193157600080fd5b823561193c81611906565b946020939093013593505050565b60008060006060848603121561195f57600080fd5b833561196a81611906565b9250602084013561197a81611906565b929592945050506040919091013590565b801515811461191b57600080fd5b6000602082840312156119ab57600080fd5b81356116a18161198b565b803561ffff811681146119c857600080fd5b919050565b6000806000606084860312156119e257600080fd5b6119eb846119b6565b92506119f9602085016119b6565b9150611a07604085016119b6565b90509250925092565b600060208284031215611a2257600080fd5b81356116a181611906565b600060208284031215611a3f57600080fd5b5035919050565b60008060408385031215611a5957600080fd5b8235611a6481611906565b91506020830135611a7481611906565b809150509250929050565b60008060408385031215611a9257600080fd5b8235611a9d81611906565b91506020830135611a748161198b565b600181811c90821680611ac157607f821691505b602082108103611ae157634e487b7160e01b600052602260045260246000fd5b50919050565b6020808252818101527f4f776e61626c653a2063616c6c6572206973206e6f7420746865206f776e6572604082015260600190565b634e487b7160e01b600052601160045260246000fd5b60008219821115611b4557611b45611b1c565b500190565b600082611b6757634e487b7160e01b600052601260045260246000fd5b500490565b600082821015611b7e57611b7e611b1c565b500390565b634e487b7160e01b600052603260045260246000fd5b600060208284031215611bab57600080fd5b81516116a181611906565b600060a082018783526020878185015260a0604085015281875180845260c086019150828901935060005b81811015611c065784516001600160a01b031683529383019391830191600101611be1565b50506001600160a01b03969096166060850152505050608001529392505050565b600080600060608486031215611c3c57600080fd5b8351925060208401519150604084015190509250925092565b6000816000190483118215151615611c6f57611c6f611b1c565b500290565b600060208284031215611c8657600080fd5b81516116a18161198b56fea2646970667358221220e6a4141cae851069ed821858a189f44ef96e8c2c3485c0b8370e119ac85e9e2e64736f6c634300080d0033",
    "sourcePath": "/home/paco/Desktop/CatPizzaHardhat/contracts/CatPizza.sol",
    "compiler": {
        "name": "solc",
        "version": "0.8.13+commit.abaa5c0e"
    },
    "functionHashes": {
        "DEAD()": "03fd2a45",
        "_feesRates()": "1c06a7e1",
        "allowance(address,address)": "dd62ed3e",
        "approve(address,uint256)": "095ea7b3",
        "autoLiquidity(uint256)": "c6aca36b",
        "automatedMarketMakerPairs(address)": "b62496f5",
        "balanceOf(address)": "70a08231",
        "burn(address,uint256)": "9dc29fac",
        "decimals()": "313ce567",
        "decreaseAllowance(address,uint256)": "a457c2d7",
        "dexRouter()": "0758d924",
        "enableTrading(bool)": "f275f64b",
        "excludeFromFee(address,bool)": "df8408fe",
        "getOwner()": "893d20e8",
        "increaseAllowance(address,uint256)": "39509351",
        "isExcludedFromFee(address)": "5342acb4",
        "lpPair()": "452ed4f1",
        "marketingAddress()": "a5ece941",
        "name()": "06fdde03",
        "owner()": "8da5cb5b",
        "setMarketingAddress(address)": "906e9dd0",
        "setSwapThreshold(uint256)": "9d0014b1",
        "setTaxes(uint16,uint16,uint16)": "32cde664",
        "swapThreshold()": "0445b667",
        "swapTokenAddress()": "f36f79e0",
        "symbol()": "95d89b41",
        "totalSupply()": "18160ddd",
        "tradingActive()": "bbc0c742",
        "transfer(address,uint256)": "a9059cbb",
        "transferFrom(address,address,uint256)": "23b872dd",
        "transferOwnership(address)": "f2fde38b",
        "updateTradingEnable(bool)": "24d993aa"
    },
    "gasEstimates": {
        "creation": {
            "codeDepositCost": "1473400",
            "executionCost": "infinite",
            "totalCost": "infinite"
        },
        "external": {
            "DEAD()": "2373",
            "_feesRates()": "2506",
            "allowance(address,address)": "infinite",
            "approve(address,uint256)": "24641",
            "autoLiquidity(uint256)": "infinite",
            "automatedMarketMakerPairs(address)": "2570",
            "balanceOf(address)": "2623",
            "burn(address,uint256)": "57078",
            "decimals()": "245",
            "decreaseAllowance(address,uint256)": "27011",
            "dexRouter()": "2439",
            "enableTrading(bool)": "26743",
            "excludeFromFee(address,bool)": "infinite",
            "getOwner()": "2431",
            "increaseAllowance(address,uint256)": "27084",
            "isExcludedFromFee(address)": "2610",
            "lpPair()": "2371",
            "marketingAddress()": "2415",
            "name()": "infinite",
            "owner()": "2372",
            "setMarketingAddress(address)": "26773",
            "setSwapThreshold(uint256)": "24576",
            "setTaxes(uint16,uint16,uint16)": "infinite",
            "swapThreshold()": "2364",
            "swapTokenAddress()": "2436",
            "symbol()": "infinite",
            "totalSupply()": "2360",
            "tradingActive()": "2388",
            "transfer(address,uint256)": "infinite",
            "transferFrom(address,address,uint256)": "infinite",
            "transferOwnership(address)": "26793",
            "updateTradingEnable(bool)": "26723"
        },
        "internal": {
            "_beforeTransferCheck(address,address,uint256)": "infinite",
            "_finalizeTransfer(address,address,uint256)": "infinite",
            "_hasLimits(address,address)": "8739",
            "_transfer(address,address,uint256)": "infinite",
            "addLiquidity(uint256,uint256)": "infinite",
            "calcBuySellTransferFee(address,address,uint256)": "8955",
            "contractMustSwap(address,address)": "17370",
            "contractSwap()": "infinite",
            "getPathForTokensToTokens(address,address)": "infinite",
            "swapTokensForBNB(uint256)": "infinite",
            "swapTokensForTokens(uint256)": "infinite"
        }
    }
}