{
  "_format": "hh-sol-artifact-1",
  "contractName": "MetaStockUtils",
  "sourceName": "contracts/MetaStockUtils.sol",
  "abi": [
    {
      "inputs": [
        {
          "internalType": "contract IUniswapV2Router02",
          "name": "dexRouter",
          "type": "address"
        },
        {
          "internalType": "address",
          "name": "tokenAddress",
          "type": "address"
        },
        {
          "internalType": "uint256",
          "name": "tokenAmount",
          "type": "uint256"
        },
        {
          "internalType": "uint256",
          "name": "ethAmount",
          "type": "uint256"
        },
        {
          "internalType": "address",
          "name": "lpReceiver",
          "type": "address"
        }
      ],
      "name": "addLiquidity",
      "outputs": [],
      "stateMutability": "nonpayable",
      "type": "function"
    },
    {
      "inputs": [
        {
          "internalType": "contract IUniswapV2Router02",
          "name": "dexRouter",
          "type": "address"
        },
        {
          "internalType": "address",
          "name": "tokenAddress",
          "type": "address"
        },
        {
          "internalType": "uint256",
          "name": "tokenAmount",
          "type": "uint256"
        },
        {
          "internalType": "address",
          "name": "lpReceiver",
          "type": "address"
        }
      ],
      "name": "autoLiquidity",
      "outputs": [],
      "stateMutability": "nonpayable",
      "type": "function"
    },
    {
      "inputs": [
        {
          "internalType": "address",
          "name": "tokenAddressA",
          "type": "address"
        },
        {
          "internalType": "address",
          "name": "tokenAddressB",
          "type": "address"
        }
      ],
      "name": "getPathForTokensToTokens",
      "outputs": [
        {
          "internalType": "address[]",
          "name": "",
          "type": "address[]"
        }
      ],
      "stateMutability": "pure",
      "type": "function"
    },
    {
      "inputs": [
        {
          "internalType": "address",
          "name": "tokenAddress",
          "type": "address"
        },
        {
          "internalType": "address[]",
          "name": "wallets",
          "type": "address[]"
        },
        {
          "internalType": "uint256[]",
          "name": "percentages",
          "type": "uint256[]"
        }
      ],
      "name": "sendToTeam",
      "outputs": [],
      "stateMutability": "nonpayable",
      "type": "function"
    },
    {
      "inputs": [
        {
          "internalType": "contract IUniswapV2Router02",
          "name": "dexRouter",
          "type": "address"
        },
        {
          "internalType": "address",
          "name": "tokenAddress",
          "type": "address"
        },
        {
          "internalType": "uint256",
          "name": "tokenAmount",
          "type": "uint256"
        }
      ],
      "name": "swapTokensForBNB",
      "outputs": [],
      "stateMutability": "nonpayable",
      "type": "function"
    },
    {
      "inputs": [
        {
          "internalType": "contract IUniswapV2Router02",
          "name": "dexRouter",
          "type": "address"
        },
        {
          "internalType": "address",
          "name": "tokenAddress",
          "type": "address"
        },
        {
          "internalType": "address",
          "name": "usd",
          "type": "address"
        },
        {
          "internalType": "uint256",
          "name": "tokenAmount",
          "type": "uint256"
        }
      ],
      "name": "swapTokensForUSD",
      "outputs": [],
      "stateMutability": "nonpayable",
      "type": "function"
    }
  ],
  "bytecode": "0x608060405234801561001057600080fd5b50610d69806100206000396000f3fe608060405234801561001057600080fd5b50600436106100625760003560e01c806305158061146100675780632606222a1461007c5780633b4a4af41461008f5780634b2fc7bb146100b85780639b3c2ee5146100cb578063f72a8418146100de575b600080fd5b61007a610075366004610835565b6100f1565b005b61007a61008a366004610886565b6102ee565b6100a261009d3660046108c7565b6104b3565b6040516100af9190610944565b60405180910390f35b61007a6100c636600461095e565b610540565b61007a6100d93660046109bd565b610669565b61007a6100ec366004610ae6565b6106bc565b6040805160038082526080820190925260009160208201606080368337019050509050838160008151811061012857610128610bbc565b60200260200101906001600160a01b031690816001600160a01b031681525050846001600160a01b031663ad5c46486040518163ffffffff1660e01b8152600401602060405180830381865afa158015610186573d6000803e3d6000fd5b505050506040513d601f19601f820116820180604052508101906101aa9190610bd2565b816001815181106101bd576101bd610bbc565b60200260200101906001600160a01b031690816001600160a01b03168152505082816002815181106101f1576101f1610bbc565b6001600160a01b03928316602091820292909201015260405163095ea7b360e01b8152868216600482015260001960248201529085169063095ea7b3906044016020604051808303816000875af1158015610250573d6000803e3d6000fd5b505050506040513d601f19601f820116820180604052508101906102749190610bef565b506001600160a01b038516635c11d7958360008488610295426103e8610c27565b6040518663ffffffff1660e01b81526004016102b5959493929190610c3f565b600060405180830381600087803b1580156102cf57600080fd5b505af11580156102e3573d6000803e3d6000fd5b505050505050505050565b604080516002808252606082018352600092602083019080368337019050509050828160008151811061032357610323610bbc565b60200260200101906001600160a01b031690816001600160a01b031681525050836001600160a01b031663ad5c46486040518163ffffffff1660e01b8152600401602060405180830381865afa158015610381573d6000803e3d6000fd5b505050506040513d601f19601f820116820180604052508101906103a59190610bd2565b816001815181106103b8576103b8610bbc565b6001600160a01b03928316602091820292909201015260405163095ea7b360e01b81528582166004820152602481018490529084169063095ea7b3906044016020604051808303816000875af1158015610416573d6000803e3d6000fd5b505050506040513d601f19601f8201168201806040525081019061043a9190610bef565b506001600160a01b03841663791ac947836000848761045b426103e8610c27565b6040518663ffffffff1660e01b815260040161047b959493929190610c3f565b600060405180830381600087803b15801561049557600080fd5b505af11580156104a9573d6000803e3d6000fd5b5050505050505050565b6040805160028082526060808301845292600092919060208301908036833701905050905083816000815181106104ec576104ec610bbc565b60200260200101906001600160a01b031690816001600160a01b031681525050828160018151811061052057610520610bbc565b6001600160a01b0390921660209283029190910190910152905092915050565b60405163095ea7b360e01b81526001600160a01b038681166004830152600019602483015285169063095ea7b3906044016020604051808303816000875af1158015610590573d6000803e3d6000fd5b505050506040513d601f19601f820116820180604052508101906105b49190610bef565b506001600160a01b03851663f305d719838686600080876105d742612710610c27565b60405160e089901b6001600160e01b03191681526001600160a01b039687166004820152602481019590955260448501939093526064840191909152909216608482015260a481019190915260c40160606040518083038185885af1158015610644573d6000803e3d6000fd5b50505050506040513d601f19601f820116820180604052508101906104a99190610c7b565b6000610676600284610ca9565b90506001600160a01b0384163161068e8686846102ee565b60006106a4826001600160a01b03881631610ccb565b90506106b38787858488610540565b50505050505050565b6040516370a0823160e01b81526001600160a01b0384166004820181905261271091600091906370a0823190602401602060405180830381865afa158015610708573d6000803e3d6000fd5b505050506040513d601f19601f8201168201806040525081019061072c9190610ce2565b905060005b845181101561081557856001600160a01b031663a9059cbb86838151811061075b5761075b610bbc565b60200260200101518587858151811061077657610776610bbc565b6020026020010151866107899190610cfb565b6107939190610ca9565b6040516001600160e01b031960e085901b1681526001600160a01b03909216600483015260248201526044016020604051808303816000875af11580156107de573d6000803e3d6000fd5b505050506040513d601f19601f820116820180604052508101906108029190610bef565b508061080d81610d1a565b915050610731565b505050505050565b6001600160a01b038116811461083257600080fd5b50565b6000806000806080858703121561084b57600080fd5b84356108568161081d565b935060208501356108668161081d565b925060408501356108768161081d565b9396929550929360600135925050565b60008060006060848603121561089b57600080fd5b83356108a68161081d565b925060208401356108b68161081d565b929592945050506040919091013590565b600080604083850312156108da57600080fd5b82356108e58161081d565b915060208301356108f58161081d565b809150509250929050565b600081518084526020808501945080840160005b838110156109395781516001600160a01b031687529582019590820190600101610914565b509495945050505050565b6020815260006109576020830184610900565b9392505050565b600080600080600060a0868803121561097657600080fd5b85356109818161081d565b945060208601356109918161081d565b9350604086013592506060860135915060808601356109af8161081d565b809150509295509295909350565b600080600080608085870312156109d357600080fd5b84356109de8161081d565b935060208501356109ee8161081d565b9250604085013591506060850135610a058161081d565b939692955090935050565b634e487b7160e01b600052604160045260246000fd5b604051601f8201601f1916810167ffffffffffffffff81118282101715610a4f57610a4f610a10565b604052919050565b600067ffffffffffffffff821115610a7157610a71610a10565b5060051b60200190565b600082601f830112610a8c57600080fd5b81356020610aa1610a9c83610a57565b610a26565b82815260059290921b84018101918181019086841115610ac057600080fd5b8286015b84811015610adb5780358352918301918301610ac4565b509695505050505050565b600080600060608486031215610afb57600080fd5b8335610b068161081d565b925060208481013567ffffffffffffffff80821115610b2457600080fd5b818701915087601f830112610b3857600080fd5b8135610b46610a9c82610a57565b81815260059190911b8301840190848101908a831115610b6557600080fd5b938501935b82851015610b8c578435610b7d8161081d565b82529385019390850190610b6a565b965050506040870135925080831115610ba457600080fd5b5050610bb286828701610a7b565b9150509250925092565b634e487b7160e01b600052603260045260246000fd5b600060208284031215610be457600080fd5b81516109578161081d565b600060208284031215610c0157600080fd5b8151801515811461095757600080fd5b634e487b7160e01b600052601160045260246000fd5b60008219821115610c3a57610c3a610c11565b500190565b85815284602082015260a060408201526000610c5e60a0830186610900565b6001600160a01b0394909416606083015250608001529392505050565b600080600060608486031215610c9057600080fd5b8351925060208401519150604084015190509250925092565b600082610cc657634e487b7160e01b600052601260045260246000fd5b500490565b600082821015610cdd57610cdd610c11565b500390565b600060208284031215610cf457600080fd5b5051919050565b6000816000190483118215151615610d1557610d15610c11565b500290565b600060018201610d2c57610d2c610c11565b506001019056fea2646970667358221220f1065055f1b7c19c8988b6f882e9a7d9e118fce8130aa1ad3d18f099d0ac21e964736f6c634300080f0033",
  "linkReferences": {},
  "deployedLinkReferences": {}
}