{
  "_format": "hh-sol-artifact-1",
  "contractName": "ChainlinkDataFeedsManager",
  "sourceName": "contracts/midas/ChainlinkDataFeedsManager.sol",
  "abi": [
    {
      "inputs": [
        {
          "internalType": "address",
          "name": "_priceFeedAddress",
          "type": "address"
        }
      ],
      "stateMutability": "nonpayable",
      "type": "constructor"
    },
    {
      "inputs": [
        {
          "internalType": "contract IMidasMultiNetworkRouter",
          "name": "dexRouter",
          "type": "address"
        },
        {
          "internalType": "address",
          "name": "_tokenAddress",
          "type": "address"
        },
        {
          "internalType": "uint256",
          "name": "_amount",
          "type": "uint256"
        }
      ],
      "name": "getAmountOutUSD",
      "outputs": [
        {
          "internalType": "uint256",
          "name": "",
          "type": "uint256"
        }
      ],
      "stateMutability": "view",
      "type": "function"
    },
    {
      "inputs": [],
      "name": "getLatestPriceFromChainlink",
      "outputs": [
        {
          "internalType": "int256",
          "name": "",
          "type": "int256"
        }
      ],
      "stateMutability": "view",
      "type": "function"
    },
    {
      "inputs": [],
      "name": "getNativeNetworkCurrencyInUsd",
      "outputs": [
        {
          "internalType": "uint256",
          "name": "",
          "type": "uint256"
        }
      ],
      "stateMutability": "view",
      "type": "function"
    }
  ],
  "bytecode": "0x608060405234801561001057600080fd5b5060405161060438038061060483398101604081905261002f91610054565b600080546001600160a01b0319166001600160a01b0392909216919091179055610084565b60006020828403121561006657600080fd5b81516001600160a01b038116811461007d57600080fd5b9392505050565b610571806100936000396000f3fe608060405234801561001057600080fd5b50600436106100415760003560e01c806307fed6ac146100465780630d11d22214610060578063b5acc91114610073575b600080fd5b61004e61007b565b60405190815260200160405180910390f35b61004e61006e3660046102e3565b610099565b61004e610252565b6000610085610252565b610094906402540be400610324565b905090565b6000806100a4610252565b6100b3906402540be400610324565b604080516002808252606082018352929350600092909160208301908036833701905050905084816000815181106100ed576100ed610367565b60200260200101906001600160a01b031690816001600160a01b031681525050856001600160a01b031663ad5c46486040518163ffffffff1660e01b8152600401602060405180830381865afa15801561014b573d6000803e3d6000fd5b505050506040513d601f19601f8201168201806040525081019061016f919061037d565b8160018151811061018257610182610367565b6001600160a01b03928316602091820292909201015260405163d06ca61f60e01b815260009188169063d06ca61f906101c190889086906004016103a1565b600060405180830381865afa1580156101de573d6000803e3d6000fd5b505050506040513d6000823e601f3d908101601f1916820160405261020691908101906103f8565b905060008160018151811061021d5761021d610367565b60200260200101519050670de0b6b3a7640000818561023c9190610324565b61024691906104aa565b98975050505050505050565b6000805460408051633fabe5a360e21b8152905183926001600160a01b03169163feaf968c9160048083019260a09291908290030181865afa15801561029c573d6000803e3d6000fd5b505050506040513d601f19601f820116820180604052508101906102c091906104eb565b509195945050505050565b6001600160a01b03811681146102e057600080fd5b50565b6000806000606084860312156102f857600080fd5b8335610303816102cb565b92506020840135610313816102cb565b929592945050506040919091013590565b600081600019048311821515161561034c57634e487b7160e01b600052601160045260246000fd5b500290565b634e487b7160e01b600052604160045260246000fd5b634e487b7160e01b600052603260045260246000fd5b60006020828403121561038f57600080fd5b815161039a816102cb565b9392505050565b6000604082018483526020604081850152818551808452606086019150828701935060005b818110156103eb5784516001600160a01b0316835293830193918301916001016103c6565b5090979650505050505050565b6000602080838503121561040b57600080fd5b825167ffffffffffffffff8082111561042357600080fd5b818501915085601f83011261043757600080fd5b81518181111561044957610449610351565b8060051b604051601f19603f8301168101818110858211171561046e5761046e610351565b60405291825284820192508381018501918883111561048c57600080fd5b938501935b8285101561024657845184529385019392850192610491565b6000826104c757634e487b7160e01b600052601260045260246000fd5b500490565b805169ffffffffffffffffffff811681146104e657600080fd5b919050565b600080600080600060a0868803121561050357600080fd5b61050c866104cc565b945060208601519350604086015192506060860151915061052f608087016104cc565b9050929550929590935056fea2646970667358221220efcc79c9d045670d2fe7a252f7c09efd9ddf5bc2ff7d4949784c392413bd91da64736f6c634300080e0033",
  "linkReferences": {},
  "deployedLinkReferences": {}
}