{
  "_format": "hh-sol-artifact-1",
  "contractName": "CatPizza",
  "sourceName": "contracts/CatPizza.sol",
  "abi": [
    {
      "inputs": [],
      "stateMutability": "nonpayable",
      "type": "constructor"
    },
    {
      "anonymous": false,
      "inputs": [
        {
          "indexed": true,
          "internalType": "address",
          "name": "owner",
          "type": "address"
        },
        {
          "indexed": true,
          "internalType": "address",
          "name": "spender",
          "type": "address"
        },
        {
          "indexed": false,
          "internalType": "uint256",
          "name": "value",
          "type": "uint256"
        }
      ],
      "name": "Approval",
      "type": "event"
    },
    {
      "anonymous": false,
      "inputs": [
        {
          "indexed": true,
          "internalType": "address",
          "name": "sender",
          "type": "address"
        },
        {
          "indexed": false,
          "internalType": "uint256",
          "name": "amount",
          "type": "uint256"
        }
      ],
      "name": "Burn",
      "type": "event"
    },
    {
      "anonymous": false,
      "inputs": [
        {
          "indexed": true,
          "internalType": "address",
          "name": "previousOwner",
          "type": "address"
        },
        {
          "indexed": true,
          "internalType": "address",
          "name": "newOwner",
          "type": "address"
        }
      ],
      "name": "OwnershipTransferred",
      "type": "event"
    },
    {
      "anonymous": false,
      "inputs": [
        {
          "indexed": true,
          "internalType": "address",
          "name": "from",
          "type": "address"
        },
        {
          "indexed": true,
          "internalType": "address",
          "name": "to",
          "type": "address"
        },
        {
          "indexed": false,
          "internalType": "uint256",
          "name": "value",
          "type": "uint256"
        }
      ],
      "name": "Transfer",
      "type": "event"
    },
    {
      "inputs": [],
      "name": "DEAD",
      "outputs": [
        {
          "internalType": "address",
          "name": "",
          "type": "address"
        }
      ],
      "stateMutability": "view",
      "type": "function"
    },
    {
      "inputs": [],
      "name": "_feesRates",
      "outputs": [
        {
          "internalType": "uint16",
          "name": "buyFee",
          "type": "uint16"
        },
        {
          "internalType": "uint16",
          "name": "sellFee",
          "type": "uint16"
        },
        {
          "internalType": "uint16",
          "name": "transferFee",
          "type": "uint16"
        }
      ],
      "stateMutability": "view",
      "type": "function"
    },
    {
      "inputs": [
        {
          "internalType": "address",
          "name": "owner",
          "type": "address"
        },
        {
          "internalType": "address",
          "name": "spender",
          "type": "address"
        }
      ],
      "name": "allowance",
      "outputs": [
        {
          "internalType": "uint256",
          "name": "",
          "type": "uint256"
        }
      ],
      "stateMutability": "view",
      "type": "function"
    },
    {
      "inputs": [
        {
          "internalType": "address",
          "name": "spender",
          "type": "address"
        },
        {
          "internalType": "uint256",
          "name": "amount",
          "type": "uint256"
        }
      ],
      "name": "approve",
      "outputs": [
        {
          "internalType": "bool",
          "name": "",
          "type": "bool"
        }
      ],
      "stateMutability": "nonpayable",
      "type": "function"
    },
    {
      "inputs": [
        {
          "internalType": "uint256",
          "name": "tokenAmount",
          "type": "uint256"
        }
      ],
      "name": "autoLiquidity",
      "outputs": [],
      "stateMutability": "nonpayable",
      "type": "function"
    },
    {
      "inputs": [
        {
          "internalType": "address",
          "name": "account",
          "type": "address"
        }
      ],
      "name": "balanceOf",
      "outputs": [
        {
          "internalType": "uint256",
          "name": "",
          "type": "uint256"
        }
      ],
      "stateMutability": "view",
      "type": "function"
    },
    {
      "inputs": [
        {
          "internalType": "uint256",
          "name": "amount",
          "type": "uint256"
        }
      ],
      "name": "burn",
      "outputs": [],
      "stateMutability": "nonpayable",
      "type": "function"
    },
    {
      "inputs": [],
      "name": "decimals",
      "outputs": [
        {
          "internalType": "uint8",
          "name": "",
          "type": "uint8"
        }
      ],
      "stateMutability": "view",
      "type": "function"
    },
    {
      "inputs": [
        {
          "internalType": "address",
          "name": "spender",
          "type": "address"
        },
        {
          "internalType": "uint256",
          "name": "subtractedValue",
          "type": "uint256"
        }
      ],
      "name": "decreaseAllowance",
      "outputs": [
        {
          "internalType": "bool",
          "name": "",
          "type": "bool"
        }
      ],
      "stateMutability": "nonpayable",
      "type": "function"
    },
    {
      "inputs": [],
      "name": "dexRouter",
      "outputs": [
        {
          "internalType": "contract IUniswapV2Router02",
          "name": "",
          "type": "address"
        }
      ],
      "stateMutability": "view",
      "type": "function"
    },
    {
      "inputs": [
        {
          "internalType": "address",
          "name": "account",
          "type": "address"
        },
        {
          "internalType": "bool",
          "name": "val",
          "type": "bool"
        }
      ],
      "name": "excludeFromFee",
      "outputs": [],
      "stateMutability": "nonpayable",
      "type": "function"
    },
    {
      "inputs": [],
      "name": "getOwner",
      "outputs": [
        {
          "internalType": "address",
          "name": "",
          "type": "address"
        }
      ],
      "stateMutability": "view",
      "type": "function"
    },
    {
      "inputs": [
        {
          "internalType": "address",
          "name": "spender",
          "type": "address"
        },
        {
          "internalType": "uint256",
          "name": "addedValue",
          "type": "uint256"
        }
      ],
      "name": "increaseAllowance",
      "outputs": [
        {
          "internalType": "bool",
          "name": "",
          "type": "bool"
        }
      ],
      "stateMutability": "nonpayable",
      "type": "function"
    },
    {
      "inputs": [
        {
          "internalType": "address",
          "name": "account",
          "type": "address"
        }
      ],
      "name": "isExcludedFromFee",
      "outputs": [
        {
          "internalType": "bool",
          "name": "",
          "type": "bool"
        }
      ],
      "stateMutability": "view",
      "type": "function"
    },
    {
      "inputs": [],
      "name": "lpPair",
      "outputs": [
        {
          "internalType": "address",
          "name": "",
          "type": "address"
        }
      ],
      "stateMutability": "view",
      "type": "function"
    },
    {
      "inputs": [],
      "name": "marketingAddress",
      "outputs": [
        {
          "internalType": "address",
          "name": "",
          "type": "address"
        }
      ],
      "stateMutability": "view",
      "type": "function"
    },
    {
      "inputs": [],
      "name": "name",
      "outputs": [
        {
          "internalType": "string",
          "name": "",
          "type": "string"
        }
      ],
      "stateMutability": "view",
      "type": "function"
    },
    {
      "inputs": [],
      "name": "owner",
      "outputs": [
        {
          "internalType": "address",
          "name": "",
          "type": "address"
        }
      ],
      "stateMutability": "view",
      "type": "function"
    },
    {
      "inputs": [
        {
          "internalType": "address",
          "name": "account",
          "type": "address"
        }
      ],
      "name": "setMarketingAddress",
      "outputs": [],
      "stateMutability": "nonpayable",
      "type": "function"
    },
    {
      "inputs": [
        {
          "internalType": "uint256",
          "name": "value",
          "type": "uint256"
        }
      ],
      "name": "setMaxWalletAmount",
      "outputs": [],
      "stateMutability": "nonpayable",
      "type": "function"
    },
    {
      "inputs": [
        {
          "internalType": "uint256",
          "name": "value",
          "type": "uint256"
        }
      ],
      "name": "setSwapThreshold",
      "outputs": [],
      "stateMutability": "nonpayable",
      "type": "function"
    },
    {
      "inputs": [
        {
          "internalType": "uint16",
          "name": "buyFee",
          "type": "uint16"
        },
        {
          "internalType": "uint16",
          "name": "sellFee",
          "type": "uint16"
        },
        {
          "internalType": "uint16",
          "name": "transferFee",
          "type": "uint16"
        }
      ],
      "name": "setTaxes",
      "outputs": [],
      "stateMutability": "nonpayable",
      "type": "function"
    },
    {
      "inputs": [],
      "name": "swapThreshold",
      "outputs": [
        {
          "internalType": "uint256",
          "name": "",
          "type": "uint256"
        }
      ],
      "stateMutability": "view",
      "type": "function"
    },
    {
      "inputs": [],
      "name": "swapTokenAddress",
      "outputs": [
        {
          "internalType": "address",
          "name": "",
          "type": "address"
        }
      ],
      "stateMutability": "view",
      "type": "function"
    },
    {
      "inputs": [],
      "name": "symbol",
      "outputs": [
        {
          "internalType": "string",
          "name": "",
          "type": "string"
        }
      ],
      "stateMutability": "view",
      "type": "function"
    },
    {
      "inputs": [],
      "name": "totalSupply",
      "outputs": [
        {
          "internalType": "uint256",
          "name": "",
          "type": "uint256"
        }
      ],
      "stateMutability": "view",
      "type": "function"
    },
    {
      "inputs": [
        {
          "internalType": "address",
          "name": "to",
          "type": "address"
        },
        {
          "internalType": "uint256",
          "name": "amount",
          "type": "uint256"
        }
      ],
      "name": "transfer",
      "outputs": [
        {
          "internalType": "bool",
          "name": "",
          "type": "bool"
        }
      ],
      "stateMutability": "nonpayable",
      "type": "function"
    },
    {
      "inputs": [
        {
          "internalType": "address",
          "name": "from",
          "type": "address"
        },
        {
          "internalType": "address",
          "name": "to",
          "type": "address"
        },
        {
          "internalType": "uint256",
          "name": "amount",
          "type": "uint256"
        }
      ],
      "name": "transferFrom",
      "outputs": [
        {
          "internalType": "bool",
          "name": "",
          "type": "bool"
        }
      ],
      "stateMutability": "nonpayable",
      "type": "function"
    },
    {
      "inputs": [
        {
          "internalType": "address",
          "name": "account",
          "type": "address"
        }
      ],
      "name": "transferOwnership",
      "outputs": [],
      "stateMutability": "nonpayable",
      "type": "function"
    },
    {
      "stateMutability": "payable",
      "type": "receive"
    }
  ],
  "bytecode": "0x60806040523480156200001157600080fd5b50604080518082018252600881526743617450697a7a6160c01b6020808301918252835180850190945260048452630436174560e41b9084015281519192916200005e91600391620005a8565b50805162000074906004906020840190620005a8565b50505062000094336a52b7d2dcc80cd2e40000006200039760201b60201c565b6a084595161401484a000000600c55600580546001600160a01b031990811633908117909255600980548216736644ebde0f26c8f74ad18697cce8a5ac4e608cb41781556040805160608101825261012c80825260208083019190915260009183018290526012805465ffffffffffff191663012c012c1790556008805486167378867bbeef44f2326bf8ddd1941a4439382ef2a717815595825260108152828220805460ff199081166001908117909255308452848420805482168317905594546001600160a01b03908116845284842080548716831790559654909616825290829020805490931690941790915569d3c21bcecceda1000000600a55611b58600d55610bb8600e5560118054909216739ac64cc6e4415144c455bd8e4837fea55603e5c3908117909255805163c45a015560e01b815290519192839263c45a01559260048181019392918290030181865afa158015620001fa573d6000803e3d6000fd5b505050506040513d601f19601f820116820180604052508101906200022091906200064e565b6001600160a01b031663c9c6539630601160009054906101000a90046001600160a01b03166001600160a01b031663ad5c46486040518163ffffffff1660e01b8152600401602060405180830381865afa15801562000283573d6000803e3d6000fd5b505050506040513d601f19601f82011682018060405250810190620002a991906200064e565b6040516001600160e01b031960e085901b1681526001600160a01b039283166004820152911660248201526044016020604051808303816000875af1158015620002f7573d6000803e3d6000fd5b505050506040513d601f19601f820116820180604052508101906200031d91906200064e565b600780546001600160a01b0319166001600160a01b03929092169190911790556200034c338260001962000480565b6200035b308260001962000480565b60085462000376906001600160a01b03168260001962000480565b50600680546001600160a01b03191661dead179055612710600b55620006e3565b6001600160a01b038216620003f35760405162461bcd60e51b815260206004820152601f60248201527f45524332303a206d696e7420746f20746865207a65726f20616464726573730060448201526064015b60405180910390fd5b806002600082825462000407919062000680565b90915550506001600160a01b038216600090815260208190526040812080548392906200043690849062000680565b90915550506040518181526001600160a01b038316906000907fddf252ad1be2c89b69c2b068fc378daa952ba7f163c4a11628f55a4df523b3ef9060200160405180910390a35050565b6001600160a01b038316620004e45760405162461bcd60e51b8152602060048201526024808201527f45524332303a20617070726f76652066726f6d20746865207a65726f206164646044820152637265737360e01b6064820152608401620003ea565b6001600160a01b038216620005475760405162461bcd60e51b815260206004820152602260248201527f45524332303a20617070726f766520746f20746865207a65726f206164647265604482015261737360f01b6064820152608401620003ea565b6001600160a01b0383811660008181526001602090815260408083209487168084529482529182902085905590518481527f8c5be1e5ebec7d5bd14f71427d1e84f3dd0314c0f7b2291e5b200ac8c7c3b925910160405180910390a3505050565b828054620005b690620006a7565b90600052602060002090601f016020900481019282620005da576000855562000625565b82601f10620005f557805160ff191683800117855562000625565b8280016001018555821562000625579182015b828111156200062557825182559160200191906001019062000608565b506200063392915062000637565b5090565b5b8082111562000633576000815560010162000638565b6000602082840312156200066157600080fd5b81516001600160a01b03811681146200067957600080fd5b9392505050565b60008219821115620006a257634e487b7160e01b600052601160045260246000fd5b500190565b600181811c90821680620006bc57607f821691505b602082108103620006dd57634e487b7160e01b600052602260045260246000fd5b50919050565b611cc980620006f36000396000f3fe6080604052600436106101865760003560e01c80635342acb4116100d7578063a457c2d711610085578063a457c2d71461049a578063a5ece941146104ba578063a9059cbb146104da578063c6aca36b146104fa578063dd62ed3e1461051a578063df8408fe1461053a578063f2fde38b1461055a578063f36f79e01461057a57600080fd5b80635342acb4146103ae57806370a08231146103e7578063893d20e8146104075780638da5cb5b14610425578063906e9dd01461044557806395d89b41146104655780639d0014b11461047a57600080fd5b806323b872dd1161013457806323b872dd146102d057806327a14fc2146102f0578063313ce5671461031257806332cde6641461032e578063395093511461034e57806342966c681461036e578063452ed4f11461038e57600080fd5b806303fd2a45146101925780630445b667146101cf57806306fdde03146101f35780630758d92414610215578063095ea7b31461023557806318160ddd146102655780631c06a7e11461027a57600080fd5b3661018d57005b600080fd5b34801561019e57600080fd5b506006546101b2906001600160a01b031681565b6040516001600160a01b0390911681526020015b60405180910390f35b3480156101db57600080fd5b506101e5600a5481565b6040519081526020016101c6565b3480156101ff57600080fd5b5061020861059a565b6040516101c691906118d0565b34801561022157600080fd5b506011546101b2906001600160a01b031681565b34801561024157600080fd5b5061025561025036600461193d565b61062c565b60405190151581526020016101c6565b34801561027157600080fd5b506002546101e5565b34801561028657600080fd5b506012546102ab9061ffff808216916201000081048216916401000000009091041683565b6040805161ffff948516815292841660208401529216918101919091526060016101c6565b3480156102dc57600080fd5b506102556102eb366004611969565b610644565b3480156102fc57600080fd5b5061031061030b3660046119aa565b610668565b005b34801561031e57600080fd5b50604051601281526020016101c6565b34801561033a57600080fd5b506103106103493660046119da565b6106a0565b34801561035a57600080fd5b5061025561036936600461193d565b610709565b34801561037a57600080fd5b506103106103893660046119aa565b61072b565b34801561039a57600080fd5b506007546101b2906001600160a01b031681565b3480156103ba57600080fd5b506102556103c9366004611a1d565b6001600160a01b031660009081526010602052604090205460ff1690565b3480156103f357600080fd5b506101e5610402366004611a1d565b6107dd565b34801561041357600080fd5b506005546001600160a01b03166101b2565b34801561043157600080fd5b506005546101b2906001600160a01b031681565b34801561045157600080fd5b50610310610460366004611a1d565b6107f8565b34801561047157600080fd5b50610208610844565b34801561048657600080fd5b506103106104953660046119aa565b610853565b3480156104a657600080fd5b506102556104b536600461193d565b610882565b3480156104c657600080fd5b506009546101b2906001600160a01b031681565b3480156104e657600080fd5b506102556104f536600461193d565b6108fd565b34801561050657600080fd5b506103106105153660046119aa565b61090b565b34801561052657600080fd5b506101e5610535366004611a3a565b610942565b34801561054657600080fd5b50610310610555366004611a81565b61096d565b34801561056657600080fd5b50610310610575366004611a1d565b6109c2565b34801561058657600080fd5b506008546101b2906001600160a01b031681565b6060600380546105a990611aaf565b80601f01602080910402602001604051908101604052809291908181526020018280546105d590611aaf565b80156106225780601f106105f757610100808354040283529160200191610622565b820191906000526020600020905b81548152906001019060200180831161060557829003601f168201915b5050505050905090565b60003361063a818585610a0e565b5060019392505050565b600033610652858285610b32565b61065d858585610ba6565b506001949350505050565b6005546001600160a01b0316331461069b5760405162461bcd60e51b815260040161069290611ae9565b60405180910390fd5b600c55565b6005546001600160a01b031633146106ca5760405162461bcd60e51b815260040161069290611ae9565b6012805461ffff94851663ffffffff199091161762010000938516939093029290921765ffff0000000019166401000000009190931602919091179055565b60003361063a81858561071c8383610942565b6107269190611b34565b610a0e565b610734336107dd565b81111561079b5760405162461bcd60e51b815260206004820152602f60248201527f4275726e20616d6f756e742073686f756c64206265206c657373207468616e2060448201526e6163636f756e742062616c616e636560881b6064820152608401610692565b6107a53382610c69565b60405181815233907fcc16f5dbb4873280815c1ee09dbd06736cffcc184412cf7a71a0fdb75d397ca59060200160405180910390a250565b6001600160a01b031660009081526020819052604090205490565b6005546001600160a01b031633146108225760405162461bcd60e51b815260040161069290611ae9565b600980546001600160a01b0319166001600160a01b0392909216919091179055565b6060600480546105a990611aaf565b6005546001600160a01b0316331461087d5760405162461bcd60e51b815260040161069290611ae9565b600a55565b600033816108908286610942565b9050838110156108f05760405162461bcd60e51b815260206004820152602560248201527f45524332303a2064656372656173656420616c6c6f77616e63652062656c6f77604482015264207a65726f60d81b6064820152608401610692565b61065d8286868403610a0e565b60003361063a818585610ba6565b6000610918600283611b4c565b90504761092482610db7565b60006109308247611b6e565b905061093c8382610f1a565b50505050565b6001600160a01b03918216600090815260016020908152604080832093909416825291909152205490565b6005546001600160a01b031633146109975760405162461bcd60e51b815260040161069290611ae9565b6001600160a01b03919091166000908152601060205260409020805460ff1916911515919091179055565b6005546001600160a01b031633146109ec5760405162461bcd60e51b815260040161069290611ae9565b600580546001600160a01b0319166001600160a01b0392909216919091179055565b6001600160a01b038316610a705760405162461bcd60e51b8152602060048201526024808201527f45524332303a20617070726f76652066726f6d20746865207a65726f206164646044820152637265737360e01b6064820152608401610692565b6001600160a01b038216610ad15760405162461bcd60e51b815260206004820152602260248201527f45524332303a20617070726f766520746f20746865207a65726f206164647265604482015261737360f01b6064820152608401610692565b6001600160a01b0383811660008181526001602090815260408083209487168084529482529182902085905590518481527f8c5be1e5ebec7d5bd14f71427d1e84f3dd0314c0f7b2291e5b200ac8c7c3b925910160405180910390a3505050565b6000610b3e8484610942565b9050600019811461093c5781811015610b995760405162461bcd60e51b815260206004820152601d60248201527f45524332303a20696e73756666696369656e7420616c6c6f77616e63650000006044820152606401610692565b61093c8484848403610a0e565b610bb1838383610ff6565b600f5460ff1615610bcc57610bc78383836111ea565b505050565b610bd683836113b8565b15610be357610be3611468565b60016000610bf185856114d0565b6001600160a01b03861660009081526010602052604090205490915060ff1680610c3357506001600160a01b03841660009081526010602052604090205460ff165b15610c3d57600091505b8080610c47575081155b15610c5e57610c578585856111ea565b5050505050565b610c57858585611506565b6001600160a01b038216610cc95760405162461bcd60e51b815260206004820152602160248201527f45524332303a206275726e2066726f6d20746865207a65726f206164647265736044820152607360f81b6064820152608401610692565b6001600160a01b03821660009081526020819052604090205481811015610d3d5760405162461bcd60e51b815260206004820152602260248201527f45524332303a206275726e20616d6f756e7420657863656564732062616c616e604482015261636560f01b6064820152608401610692565b6001600160a01b0383166000908152602081905260408120838303905560028054849290610d6c908490611b6e565b90915550506040518281526000906001600160a01b038516907fddf252ad1be2c89b69c2b068fc378daa952ba7f163c4a11628f55a4df523b3ef9060200160405180910390a3505050565b6040805160028082526060820183526000926020830190803683370190505090503081600081518110610dec57610dec611b85565b6001600160a01b03928316602091820292909201810191909152601154604080516315ab88c960e31b81529051919093169263ad5c46489260048083019391928290030181865afa158015610e45573d6000803e3d6000fd5b505050506040513d601f19601f82011682018060405250810190610e699190611b9b565b81600181518110610e7c57610e7c611b85565b6001600160a01b039283166020918202929092010152601154610ea29130911684610a0e565b6011546001600160a01b031663791ac9478360008430610ec4426103e8611b34565b6040518663ffffffff1660e01b8152600401610ee4959493929190611bb8565b600060405180830381600087803b158015610efe57600080fd5b505af1158015610f12573d6000803e3d6000fd5b505050505050565b601154610f349030906001600160a01b0316600019610a0e565b6011546005546001600160a01b039182169163f305d71991849130918791600091829116610f6442612710611b34565b60405160e089901b6001600160e01b03191681526001600160a01b039687166004820152602481019590955260448501939093526064840191909152909216608482015260a481019190915260c40160606040518083038185885af1158015610fd1573d6000803e3d6000fd5b50505050506040513d601f19601f82011682018060405250810190610c579190611c29565b6001600160a01b0383166110625760405162461bcd60e51b815260206004820152602d60248201527f45524332303a207472616e736665722066726f6d20746865205a45524f5f414460448201526c4452455353206164647265737360981b6064820152608401610692565b6001600160a01b0382166110cc5760405162461bcd60e51b815260206004820152602b60248201527f45524332303a207472616e7366657220746f20746865205a45524f5f4144445260448201526a455353206164647265737360a81b6064820152608401610692565b600081116111365760405162461bcd60e51b815260206004820152603160248201527f5472616e7366657220616d6f756e74206d7573742062652067726561746572206044820152707468616e205a45524f5f4144445245535360781b6064820152608401610692565b6005546001600160a01b0384811691161480159061116257506011546001600160a01b03838116911614155b801561117c57506007546001600160a01b03838116911614155b15610bc757600061118c836107dd565b600c5490915061119c8383611b34565b111561093c5760405162461bcd60e51b815260206004820152601d60248201527f45786365656473206d6178696d756d2077616c6c657420616d6f756e740000006044820152606401610692565b6001600160a01b03831661124e5760405162461bcd60e51b815260206004820152602560248201527f45524332303a207472616e736665722066726f6d20746865207a65726f206164604482015264647265737360d81b6064820152608401610692565b6001600160a01b0382166112b05760405162461bcd60e51b815260206004820152602360248201527f45524332303a207472616e7366657220746f20746865207a65726f206164647260448201526265737360e81b6064820152608401610692565b6001600160a01b038316600090815260208190526040902054818110156113285760405162461bcd60e51b815260206004820152602660248201527f45524332303a207472616e7366657220616d6f756e7420657863656564732062604482015265616c616e636560d01b6064820152608401610692565b6001600160a01b0380851660009081526020819052604080822085850390559185168152908120805484929061135f908490611b34565b92505081905550826001600160a01b0316846001600160a01b03167fddf252ad1be2c89b69c2b068fc378daa952ba7f163c4a11628f55a4df523b3ef846040516113ab91815260200190565b60405180910390a361093c565b6000806113c4306107dd565b9050600a5481101580156113db5750600f5460ff16155b80156113f557506007546001600160a01b03858116911614155b80156114165750600754600090611414906001600160a01b03166107dd565b115b801561143b57506001600160a01b03831660009081526010602052604090205460ff16155b801561146057506001600160a01b03841660009081526010602052604090205460ff16155b949350505050565b600f805460ff191660011790556000611480306107dd565b90506114a5600b54600d54836114969190611c57565b6114a09190611b4c565b61158f565b6114c3600b54600e54836114b99190611c57565b6105159190611b4c565b50600f805460ff19169055565b6007546000906001600160a01b038481169116148015906114ff57506007546001600160a01b03838116911614155b9392505050565b6001600160a01b03831660009081526010602052604081205482919060019060ff168061154b57506001600160a01b03851660009081526010602052604090205460ff165b15611554575060005b80156115845761156586868661182b565b91508115611584576115778285611b6e565b92506115848630846111ea565b610f128686856111ea565b604080516003808252608082019092526000916020820160608036833701905050905030816000815181106115c6576115c6611b85565b6001600160a01b03928316602091820292909201810191909152601154604080516315ab88c960e31b81529051919093169263ad5c46489260048083019391928290030181865afa15801561161f573d6000803e3d6000fd5b505050506040513d601f19601f820116820180604052508101906116439190611b9b565b8160018151811061165657611656611b85565b6001600160a01b03928316602091820292909201015260085482519116908290600290811061168757611687611b85565b6001600160a01b03928316602091820292909201015260085460115460405163095ea7b360e01b81529083166004820152600019602482015291169063095ea7b3906044016020604051808303816000875af11580156116eb573d6000803e3d6000fd5b505050506040513d601f19601f8201168201806040525081019061170f9190611c76565b50601160009054906101000a90046001600160a01b03166001600160a01b031663ad5c46486040518163ffffffff1660e01b8152600401602060405180830381865afa158015611763573d6000803e3d6000fd5b505050506040513d601f19601f820116820180604052508101906117879190611b9b565b60115460405163095ea7b360e01b81526001600160a01b039182166004820152600019602482015291169063095ea7b3906044016020604051808303816000875af11580156117da573d6000803e3d6000fd5b505050506040513d601f19601f820116820180604052508101906117fe9190611c76565b506011546009546001600160a01b0391821691635c11d795918591600091869116610ec4426103e8611b34565b600754600090819081906001600160a01b0380881691160361185f576012546118589061ffff1683611b34565b91506118a7565b6007546001600160a01b0380871691160361188b576012546118589062010000900461ffff1683611b34565b6012546118a490640100000000900461ffff1683611b34565b91505b81156118c757600b546118ba8386611c57565b6118c49190611b4c565b90505b95945050505050565b600060208083528351808285015260005b818110156118fd578581018301518582016040015282016118e1565b8181111561190f576000604083870101525b50601f01601f1916929092016040019392505050565b6001600160a01b038116811461193a57600080fd5b50565b6000806040838503121561195057600080fd5b823561195b81611925565b946020939093013593505050565b60008060006060848603121561197e57600080fd5b833561198981611925565b9250602084013561199981611925565b929592945050506040919091013590565b6000602082840312156119bc57600080fd5b5035919050565b803561ffff811681146119d557600080fd5b919050565b6000806000606084860312156119ef57600080fd5b6119f8846119c3565b9250611a06602085016119c3565b9150611a14604085016119c3565b90509250925092565b600060208284031215611a2f57600080fd5b81356114ff81611925565b60008060408385031215611a4d57600080fd5b8235611a5881611925565b91506020830135611a6881611925565b809150509250929050565b801515811461193a57600080fd5b60008060408385031215611a9457600080fd5b8235611a9f81611925565b91506020830135611a6881611a73565b600181811c90821680611ac357607f821691505b602082108103611ae357634e487b7160e01b600052602260045260246000fd5b50919050565b6020808252818101527f4f776e61626c653a2063616c6c6572206973206e6f7420746865206f776e6572604082015260600190565b634e487b7160e01b600052601160045260246000fd5b60008219821115611b4757611b47611b1e565b500190565b600082611b6957634e487b7160e01b600052601260045260246000fd5b500490565b600082821015611b8057611b80611b1e565b500390565b634e487b7160e01b600052603260045260246000fd5b600060208284031215611bad57600080fd5b81516114ff81611925565b600060a082018783526020878185015260a0604085015281875180845260c086019150828901935060005b81811015611c085784516001600160a01b031683529383019391830191600101611be3565b50506001600160a01b03969096166060850152505050608001529392505050565b600080600060608486031215611c3e57600080fd5b8351925060208401519150604084015190509250925092565b6000816000190483118215151615611c7157611c71611b1e565b500290565b600060208284031215611c8857600080fd5b81516114ff81611a7356fea2646970667358221220345a669c153196de847c08d81b4088417e915b45903f3a1449ec886827cb4eeb64736f6c634300080d0033",
  "linkReferences": {},
  "deployedLinkReferences": {}
}