{
  "_format": "hh-sol-artifact-1",
  "contractName": "CatPizza",
  "sourceName": "contracts/CatPizza.sol",
  "abi": [
    {
      "inputs": [],
      "stateMutability": "nonpayable",
      "type": "constructor"
    },
    {
      "anonymous": false,
      "inputs": [
        {
          "indexed": true,
          "internalType": "address",
          "name": "owner",
          "type": "address"
        },
        {
          "indexed": true,
          "internalType": "address",
          "name": "spender",
          "type": "address"
        },
        {
          "indexed": false,
          "internalType": "uint256",
          "name": "value",
          "type": "uint256"
        }
      ],
      "name": "Approval",
      "type": "event"
    },
    {
      "anonymous": false,
      "inputs": [
        {
          "indexed": true,
          "internalType": "address",
          "name": "sender",
          "type": "address"
        },
        {
          "indexed": false,
          "internalType": "uint256",
          "name": "amount",
          "type": "uint256"
        }
      ],
      "name": "Burn",
      "type": "event"
    },
    {
      "anonymous": false,
      "inputs": [
        {
          "indexed": true,
          "internalType": "address",
          "name": "previousOwner",
          "type": "address"
        },
        {
          "indexed": true,
          "internalType": "address",
          "name": "newOwner",
          "type": "address"
        }
      ],
      "name": "OwnershipTransferred",
      "type": "event"
    },
    {
      "anonymous": false,
      "inputs": [
        {
          "indexed": true,
          "internalType": "address",
          "name": "from",
          "type": "address"
        },
        {
          "indexed": true,
          "internalType": "address",
          "name": "to",
          "type": "address"
        },
        {
          "indexed": false,
          "internalType": "uint256",
          "name": "value",
          "type": "uint256"
        }
      ],
      "name": "Transfer",
      "type": "event"
    },
    {
      "inputs": [],
      "name": "DEAD",
      "outputs": [
        {
          "internalType": "address",
          "name": "",
          "type": "address"
        }
      ],
      "stateMutability": "view",
      "type": "function"
    },
    {
      "inputs": [],
      "name": "_feesRates",
      "outputs": [
        {
          "internalType": "uint16",
          "name": "buyFee",
          "type": "uint16"
        },
        {
          "internalType": "uint16",
          "name": "sellFee",
          "type": "uint16"
        },
        {
          "internalType": "uint16",
          "name": "transferFee",
          "type": "uint16"
        }
      ],
      "stateMutability": "view",
      "type": "function"
    },
    {
      "inputs": [
        {
          "internalType": "address",
          "name": "owner",
          "type": "address"
        },
        {
          "internalType": "address",
          "name": "spender",
          "type": "address"
        }
      ],
      "name": "allowance",
      "outputs": [
        {
          "internalType": "uint256",
          "name": "",
          "type": "uint256"
        }
      ],
      "stateMutability": "view",
      "type": "function"
    },
    {
      "inputs": [
        {
          "internalType": "address",
          "name": "spender",
          "type": "address"
        },
        {
          "internalType": "uint256",
          "name": "amount",
          "type": "uint256"
        }
      ],
      "name": "approve",
      "outputs": [
        {
          "internalType": "bool",
          "name": "",
          "type": "bool"
        }
      ],
      "stateMutability": "nonpayable",
      "type": "function"
    },
    {
      "inputs": [
        {
          "internalType": "uint256",
          "name": "tokenAmount",
          "type": "uint256"
        }
      ],
      "name": "autoLiquidity",
      "outputs": [],
      "stateMutability": "nonpayable",
      "type": "function"
    },
    {
      "inputs": [
        {
          "internalType": "address",
          "name": "",
          "type": "address"
        }
      ],
      "name": "automatedMarketMakerPairs",
      "outputs": [
        {
          "internalType": "bool",
          "name": "",
          "type": "bool"
        }
      ],
      "stateMutability": "view",
      "type": "function"
    },
    {
      "inputs": [
        {
          "internalType": "address",
          "name": "account",
          "type": "address"
        }
      ],
      "name": "balanceOf",
      "outputs": [
        {
          "internalType": "uint256",
          "name": "",
          "type": "uint256"
        }
      ],
      "stateMutability": "view",
      "type": "function"
    },
    {
      "inputs": [
        {
          "internalType": "uint256",
          "name": "amount",
          "type": "uint256"
        }
      ],
      "name": "burn",
      "outputs": [],
      "stateMutability": "nonpayable",
      "type": "function"
    },
    {
      "inputs": [],
      "name": "decimals",
      "outputs": [
        {
          "internalType": "uint8",
          "name": "",
          "type": "uint8"
        }
      ],
      "stateMutability": "view",
      "type": "function"
    },
    {
      "inputs": [
        {
          "internalType": "address",
          "name": "spender",
          "type": "address"
        },
        {
          "internalType": "uint256",
          "name": "subtractedValue",
          "type": "uint256"
        }
      ],
      "name": "decreaseAllowance",
      "outputs": [
        {
          "internalType": "bool",
          "name": "",
          "type": "bool"
        }
      ],
      "stateMutability": "nonpayable",
      "type": "function"
    },
    {
      "inputs": [],
      "name": "dexRouter",
      "outputs": [
        {
          "internalType": "contract IUniswapV2Router02",
          "name": "",
          "type": "address"
        }
      ],
      "stateMutability": "view",
      "type": "function"
    },
    {
      "inputs": [],
      "name": "enableTrading",
      "outputs": [],
      "stateMutability": "nonpayable",
      "type": "function"
    },
    {
      "inputs": [
        {
          "internalType": "address",
          "name": "account",
          "type": "address"
        },
        {
          "internalType": "bool",
          "name": "val",
          "type": "bool"
        }
      ],
      "name": "excludeFromFee",
      "outputs": [],
      "stateMutability": "nonpayable",
      "type": "function"
    },
    {
      "inputs": [],
      "name": "getOwner",
      "outputs": [
        {
          "internalType": "address",
          "name": "",
          "type": "address"
        }
      ],
      "stateMutability": "view",
      "type": "function"
    },
    {
      "inputs": [
        {
          "internalType": "address",
          "name": "spender",
          "type": "address"
        },
        {
          "internalType": "uint256",
          "name": "addedValue",
          "type": "uint256"
        }
      ],
      "name": "increaseAllowance",
      "outputs": [
        {
          "internalType": "bool",
          "name": "",
          "type": "bool"
        }
      ],
      "stateMutability": "nonpayable",
      "type": "function"
    },
    {
      "inputs": [
        {
          "internalType": "address",
          "name": "account",
          "type": "address"
        }
      ],
      "name": "isExcludedFromFee",
      "outputs": [
        {
          "internalType": "bool",
          "name": "",
          "type": "bool"
        }
      ],
      "stateMutability": "view",
      "type": "function"
    },
    {
      "inputs": [],
      "name": "lpPair",
      "outputs": [
        {
          "internalType": "address",
          "name": "",
          "type": "address"
        }
      ],
      "stateMutability": "view",
      "type": "function"
    },
    {
      "inputs": [],
      "name": "marketingAddress",
      "outputs": [
        {
          "internalType": "address",
          "name": "",
          "type": "address"
        }
      ],
      "stateMutability": "view",
      "type": "function"
    },
    {
      "inputs": [],
      "name": "name",
      "outputs": [
        {
          "internalType": "string",
          "name": "",
          "type": "string"
        }
      ],
      "stateMutability": "view",
      "type": "function"
    },
    {
      "inputs": [],
      "name": "owner",
      "outputs": [
        {
          "internalType": "address",
          "name": "",
          "type": "address"
        }
      ],
      "stateMutability": "view",
      "type": "function"
    },
    {
      "inputs": [
        {
          "internalType": "uint256",
          "name": "value",
          "type": "uint256"
        }
      ],
      "name": "setAutoLiquidityPercentPercent",
      "outputs": [],
      "stateMutability": "nonpayable",
      "type": "function"
    },
    {
      "inputs": [
        {
          "internalType": "address",
          "name": "account",
          "type": "address"
        }
      ],
      "name": "setMarketingAddress",
      "outputs": [],
      "stateMutability": "nonpayable",
      "type": "function"
    },
    {
      "inputs": [
        {
          "internalType": "uint256",
          "name": "value",
          "type": "uint256"
        }
      ],
      "name": "setMarketingAddressPercent",
      "outputs": [],
      "stateMutability": "nonpayable",
      "type": "function"
    },
    {
      "inputs": [
        {
          "internalType": "uint256",
          "name": "value",
          "type": "uint256"
        }
      ],
      "name": "setMaxTransactionAmount",
      "outputs": [],
      "stateMutability": "nonpayable",
      "type": "function"
    },
    {
      "inputs": [
        {
          "internalType": "uint256",
          "name": "value",
          "type": "uint256"
        }
      ],
      "name": "setMaxWalletAmount",
      "outputs": [],
      "stateMutability": "nonpayable",
      "type": "function"
    },
    {
      "inputs": [
        {
          "internalType": "uint256",
          "name": "value",
          "type": "uint256"
        }
      ],
      "name": "setSwapThreshold",
      "outputs": [],
      "stateMutability": "nonpayable",
      "type": "function"
    },
    {
      "inputs": [
        {
          "internalType": "uint16",
          "name": "buyFee",
          "type": "uint16"
        },
        {
          "internalType": "uint16",
          "name": "sellFee",
          "type": "uint16"
        },
        {
          "internalType": "uint16",
          "name": "transferFee",
          "type": "uint16"
        }
      ],
      "name": "setTaxes",
      "outputs": [],
      "stateMutability": "nonpayable",
      "type": "function"
    },
    {
      "inputs": [],
      "name": "swapThreshold",
      "outputs": [
        {
          "internalType": "uint256",
          "name": "",
          "type": "uint256"
        }
      ],
      "stateMutability": "view",
      "type": "function"
    },
    {
      "inputs": [],
      "name": "swapTokenAddress",
      "outputs": [
        {
          "internalType": "address",
          "name": "",
          "type": "address"
        }
      ],
      "stateMutability": "view",
      "type": "function"
    },
    {
      "inputs": [],
      "name": "symbol",
      "outputs": [
        {
          "internalType": "string",
          "name": "",
          "type": "string"
        }
      ],
      "stateMutability": "view",
      "type": "function"
    },
    {
      "inputs": [],
      "name": "totalSupply",
      "outputs": [
        {
          "internalType": "uint256",
          "name": "",
          "type": "uint256"
        }
      ],
      "stateMutability": "view",
      "type": "function"
    },
    {
      "inputs": [
        {
          "internalType": "address",
          "name": "to",
          "type": "address"
        },
        {
          "internalType": "uint256",
          "name": "amount",
          "type": "uint256"
        }
      ],
      "name": "transfer",
      "outputs": [
        {
          "internalType": "bool",
          "name": "",
          "type": "bool"
        }
      ],
      "stateMutability": "nonpayable",
      "type": "function"
    },
    {
      "inputs": [
        {
          "internalType": "address",
          "name": "from",
          "type": "address"
        },
        {
          "internalType": "address",
          "name": "to",
          "type": "address"
        },
        {
          "internalType": "uint256",
          "name": "amount",
          "type": "uint256"
        }
      ],
      "name": "transferFrom",
      "outputs": [
        {
          "internalType": "bool",
          "name": "",
          "type": "bool"
        }
      ],
      "stateMutability": "nonpayable",
      "type": "function"
    },
    {
      "inputs": [
        {
          "internalType": "address",
          "name": "account",
          "type": "address"
        }
      ],
      "name": "transferOwnership",
      "outputs": [],
      "stateMutability": "nonpayable",
      "type": "function"
    },
    {
      "stateMutability": "payable",
      "type": "receive"
    }
  ],
  "bytecode": "0x60806040523480156200001157600080fd5b50604080518082018252600881526743617450697a7a6160c01b6020808301918252835180850190945260048452630436174560e41b9084015281519192916200005e91600391620005bc565b50805162000074906004906020840190620005bc565b50505062000094336a52b7d2dcc80cd2e4000000620003ab60201b60201c565b69d3c21bcecceda1000000600c819055600f819055600580546001600160a01b031990811633908117909255600980548216736644ebde0f26c8f74ad18697cce8a5ac4e608cb41781556040805160608101825261012c80825260208083019190915260009183018290526014805465ffffffffffff191663012c012c1790556008805486167378867bbeef44f2326bf8ddd1941a4439382ef2a717815595825260118152828220805460ff199081166001908117909255308452848420805482168317905594546001600160a01b039081168452848420805487168317905596549096168252908290208054909316909417909155600a93909355611b58600d55610bb8600e5560138054909116739ac64cc6e4415144c455bd8e4837fea55603e5c3908117909155825163c45a015560e01b815292519092839263c45a0155926004838101938290030181865afa158015620001f6573d6000803e3d6000fd5b505050506040513d601f19601f820116820180604052508101906200021c919062000662565b6001600160a01b031663c9c6539630601360009054906101000a90046001600160a01b03166001600160a01b031663ad5c46486040518163ffffffff1660e01b8152600401602060405180830381865afa1580156200027f573d6000803e3d6000fd5b505050506040513d601f19601f82011682018060405250810190620002a5919062000662565b6040516001600160e01b031960e085901b1681526001600160a01b039283166004820152911660248201526044016020604051808303816000875af1158015620002f3573d6000803e3d6000fd5b505050506040513d601f19601f8201168201806040525081019062000319919062000662565b600780546001600160a01b0319166001600160a01b039290921691821790556000908152601260205260409020805460ff1916600117905562000360338260001962000494565b6200036f308260001962000494565b6008546200038a906001600160a01b03168260001962000494565b50600680546001600160a01b03191661dead179055612710600b55620006f7565b6001600160a01b038216620004075760405162461bcd60e51b815260206004820152601f60248201527f45524332303a206d696e7420746f20746865207a65726f20616464726573730060448201526064015b60405180910390fd5b80600260008282546200041b919062000694565b90915550506001600160a01b038216600090815260208190526040812080548392906200044a90849062000694565b90915550506040518181526001600160a01b038316906000907fddf252ad1be2c89b69c2b068fc378daa952ba7f163c4a11628f55a4df523b3ef9060200160405180910390a35050565b6001600160a01b038316620004f85760405162461bcd60e51b8152602060048201526024808201527f45524332303a20617070726f76652066726f6d20746865207a65726f206164646044820152637265737360e01b6064820152608401620003fe565b6001600160a01b0382166200055b5760405162461bcd60e51b815260206004820152602260248201527f45524332303a20617070726f766520746f20746865207a65726f206164647265604482015261737360f01b6064820152608401620003fe565b6001600160a01b0383811660008181526001602090815260408083209487168084529482529182902085905590518481527f8c5be1e5ebec7d5bd14f71427d1e84f3dd0314c0f7b2291e5b200ac8c7c3b925910160405180910390a3505050565b828054620005ca90620006bb565b90600052602060002090601f016020900481019282620005ee576000855562000639565b82601f106200060957805160ff191683800117855562000639565b8280016001018555821562000639579182015b82811115620006395782518255916020019190600101906200061c565b50620006479291506200064b565b5090565b5b808211156200064757600081556001016200064c565b6000602082840312156200067557600080fd5b81516001600160a01b03811681146200068d57600080fd5b9392505050565b60008219821115620006b657634e487b7160e01b600052601160045260246000fd5b500190565b600181811c90821680620006d057607f821691505b602082108103620006f157634e487b7160e01b600052602260045260246000fd5b50919050565b611f9180620007076000396000f3fe6080604052600436106101bd5760003560e01c806370a08231116100ed578063a457c2d711610090578063a457c2d714610546578063a5ece94114610566578063a9059cbb14610586578063b62496f5146105a6578063c6aca36b146105d6578063dd62ed3e146105f6578063df8408fe14610616578063f2fde38b14610636578063f36f79e01461065657600080fd5b806370a082311461045e5780637bb7f0721461047e578063893d20e81461049e5780638a8c523c146104bc5780638da5cb5b146104d1578063906e9dd0146104f157806395d89b41146105115780639d0014b11461052657600080fd5b806323b872dd1161016057806323b872dd1461032957806326f64b441461034957806327a14fc214610369578063313ce5671461038957806332cde664146103a557806339509351146103c557806342966c68146103e5578063452ed4f1146104055780635342acb41461042557600080fd5b806303fd2a45146101c95780630445b6671461020657806306fdde031461022a5780630758d9241461024c578063095ea7b31461026c57806318160ddd1461029c5780631c06a7e1146102b15780631e293c101461030757600080fd5b366101c457005b600080fd5b3480156101d557600080fd5b506006546101e9906001600160a01b031681565b6040516001600160a01b0390911681526020015b60405180910390f35b34801561021257600080fd5b5061021c600a5481565b6040519081526020016101fd565b34801561023657600080fd5b5061023f610676565b6040516101fd9190611b91565b34801561025857600080fd5b506013546101e9906001600160a01b031681565b34801561027857600080fd5b5061028c610287366004611bfe565b610708565b60405190151581526020016101fd565b3480156102a857600080fd5b5060025461021c565b3480156102bd57600080fd5b506014546102e29061ffff808216916201000081048216916401000000009091041683565b6040805161ffff948516815292841660208401529216918101919091526060016101fd565b34801561031357600080fd5b50610327610322366004611c2a565b610720565b005b34801561033557600080fd5b5061028c610344366004611c43565b610758565b34801561035557600080fd5b50610327610364366004611c2a565b61077c565b34801561037557600080fd5b50610327610384366004611c2a565b6107ab565b34801561039557600080fd5b50604051601281526020016101fd565b3480156103b157600080fd5b506103276103c0366004611c9b565b6107da565b3480156103d157600080fd5b5061028c6103e0366004611bfe565b610843565b3480156103f157600080fd5b50610327610400366004611c2a565b610865565b34801561041157600080fd5b506007546101e9906001600160a01b031681565b34801561043157600080fd5b5061028c610440366004611cde565b6001600160a01b031660009081526011602052604090205460ff1690565b34801561046a57600080fd5b5061021c610479366004611cde565b610917565b34801561048a57600080fd5b50610327610499366004611c2a565b610932565b3480156104aa57600080fd5b506005546001600160a01b03166101e9565b3480156104c857600080fd5b50610327610961565b3480156104dd57600080fd5b506005546101e9906001600160a01b031681565b3480156104fd57600080fd5b5061032761050c366004611cde565b6109f4565b34801561051d57600080fd5b5061023f610a40565b34801561053257600080fd5b50610327610541366004611c2a565b610a4f565b34801561055257600080fd5b5061028c610561366004611bfe565b610a7e565b34801561057257600080fd5b506009546101e9906001600160a01b031681565b34801561059257600080fd5b5061028c6105a1366004611bfe565b610af9565b3480156105b257600080fd5b5061028c6105c1366004611cde565b60126020526000908152604090205460ff1681565b3480156105e257600080fd5b506103276105f1366004611c2a565b610b07565b34801561060257600080fd5b5061021c610611366004611d02565b610b3e565b34801561062257600080fd5b50610327610631366004611d49565b610b69565b34801561064257600080fd5b50610327610651366004611cde565b610bbe565b34801561066257600080fd5b506008546101e9906001600160a01b031681565b60606003805461068590611d77565b80601f01602080910402602001604051908101604052809291908181526020018280546106b190611d77565b80156106fe5780601f106106d3576101008083540402835291602001916106fe565b820191906000526020600020905b8154815290600101906020018083116106e157829003601f168201915b5050505050905090565b600033610716818585610c0a565b5060019392505050565b6005546001600160a01b031633146107535760405162461bcd60e51b815260040161074a90611db1565b60405180910390fd5b600f55565b600033610766858285610d2e565b610771858585610da2565b506001949350505050565b6005546001600160a01b031633146107a65760405162461bcd60e51b815260040161074a90611db1565b600e55565b6005546001600160a01b031633146107d55760405162461bcd60e51b815260040161074a90611db1565b600c55565b6005546001600160a01b031633146108045760405162461bcd60e51b815260040161074a90611db1565b6014805461ffff94851663ffffffff199091161762010000938516939093029290921765ffff0000000019166401000000009190931602919091179055565b6000336107168185856108568383610b3e565b6108609190611dfc565b610c0a565b61086e33610917565b8111156108d55760405162461bcd60e51b815260206004820152602f60248201527f4275726e20616d6f756e742073686f756c64206265206c657373207468616e2060448201526e6163636f756e742062616c616e636560881b606482015260840161074a565b6108df3382610e32565b60405181815233907fcc16f5dbb4873280815c1ee09dbd06736cffcc184412cf7a71a0fdb75d397ca59060200160405180910390a250565b6001600160a01b031660009081526020819052604090205490565b6005546001600160a01b0316331461095c5760405162461bcd60e51b815260040161074a90611db1565b600d55565b6005546001600160a01b0316331461098b5760405162461bcd60e51b815260040161074a90611db1565b601054610100900460ff16156109e35760405162461bcd60e51b815260206004820152601e60248201527f54726164696e67456e61626c656420616c726561647920616374697665640000604482015260640161074a565b6010805461ff001916610100179055565b6005546001600160a01b03163314610a1e5760405162461bcd60e51b815260040161074a90611db1565b600980546001600160a01b0319166001600160a01b0392909216919091179055565b60606004805461068590611d77565b6005546001600160a01b03163314610a795760405162461bcd60e51b815260040161074a90611db1565b600a55565b60003381610a8c8286610b3e565b905083811015610aec5760405162461bcd60e51b815260206004820152602560248201527f45524332303a2064656372656173656420616c6c6f77616e63652062656c6f77604482015264207a65726f60d81b606482015260840161074a565b6107718286868403610c0a565b600033610716818585610da2565b6000610b14600283611e14565b905047610b2082610f80565b6000610b2c8247611e36565b9050610b3883826110e3565b50505050565b6001600160a01b03918216600090815260016020908152604080832093909416825291909152205490565b6005546001600160a01b03163314610b935760405162461bcd60e51b815260040161074a90611db1565b6001600160a01b03919091166000908152601160205260409020805460ff1916911515919091179055565b6005546001600160a01b03163314610be85760405162461bcd60e51b815260040161074a90611db1565b600580546001600160a01b0319166001600160a01b0392909216919091179055565b6001600160a01b038316610c6c5760405162461bcd60e51b8152602060048201526024808201527f45524332303a20617070726f76652066726f6d20746865207a65726f206164646044820152637265737360e01b606482015260840161074a565b6001600160a01b038216610ccd5760405162461bcd60e51b815260206004820152602260248201527f45524332303a20617070726f766520746f20746865207a65726f206164647265604482015261737360f01b606482015260840161074a565b6001600160a01b0383811660008181526001602090815260408083209487168084529482529182902085905590518481527f8c5be1e5ebec7d5bd14f71427d1e84f3dd0314c0f7b2291e5b200ac8c7c3b925910160405180910390a3505050565b6000610d3a8484610b3e565b90506000198114610b385781811015610d955760405162461bcd60e51b815260206004820152601d60248201527f45524332303a20696e73756666696369656e7420616c6c6f77616e6365000000604482015260640161074a565b610b388484848403610c0a565b610dad8383836111c6565b60105460ff1615610dc857610dc383838361153a565b505050565b610dd28383611708565b15610e27576000610de230610917565b9050610e07600b54600d5483610df89190611e4d565b610e029190611e14565b6117b8565b610e25600b54600e5483610e1b9190611e4d565b6105f19190611e14565b505b610dc3838383611a54565b6001600160a01b038216610e925760405162461bcd60e51b815260206004820152602160248201527f45524332303a206275726e2066726f6d20746865207a65726f206164647265736044820152607360f81b606482015260840161074a565b6001600160a01b03821660009081526020819052604090205481811015610f065760405162461bcd60e51b815260206004820152602260248201527f45524332303a206275726e20616d6f756e7420657863656564732062616c616e604482015261636560f01b606482015260840161074a565b6001600160a01b0383166000908152602081905260408120838303905560028054849290610f35908490611e36565b90915550506040518281526000906001600160a01b038516907fddf252ad1be2c89b69c2b068fc378daa952ba7f163c4a11628f55a4df523b3ef9060200160405180910390a3505050565b6040805160028082526060820183526000926020830190803683370190505090503081600081518110610fb557610fb5611e6c565b6001600160a01b03928316602091820292909201810191909152601354604080516315ab88c960e31b81529051919093169263ad5c46489260048083019391928290030181865afa15801561100e573d6000803e3d6000fd5b505050506040513d601f19601f820116820180604052508101906110329190611e82565b8160018151811061104557611045611e6c565b6001600160a01b03928316602091820292909201015260135461106b9130911684610c0a565b6013546001600160a01b031663791ac947836000843061108d426103e8611dfc565b6040518663ffffffff1660e01b81526004016110ad959493929190611e9f565b600060405180830381600087803b1580156110c757600080fd5b505af11580156110db573d6000803e3d6000fd5b505050505050565b6013546110fd9030906001600160a01b0316600019610c0a565b6013546005546001600160a01b039182169163f305d7199184913091879160009182911661112d42612710611dfc565b60405160e089901b6001600160e01b03191681526001600160a01b039687166004820152602481019590955260448501939093526064840191909152909216608482015260a481019190915260c40160606040518083038185885af115801561119a573d6000803e3d6000fd5b50505050506040513d601f19601f820116820180604052508101906111bf9190611f10565b5050505050565b6001600160a01b0383166112325760405162461bcd60e51b815260206004820152602d60248201527f45524332303a207472616e736665722066726f6d20746865205a45524f5f414460448201526c4452455353206164647265737360981b606482015260840161074a565b6001600160a01b03821661129c5760405162461bcd60e51b815260206004820152602b60248201527f45524332303a207472616e7366657220746f20746865205a45524f5f4144445260448201526a455353206164647265737360a81b606482015260840161074a565b600081116113065760405162461bcd60e51b815260206004820152603160248201527f5472616e7366657220616d6f756e74206d7573742062652067726561746572206044820152707468616e205a45524f5f4144445245535360781b606482015260840161074a565b6005546001600160a01b0384811691161480159061133257506005546001600160a01b03838116911614155b801561134657506001600160a01b03821615155b801561135d57506001600160a01b03821661dead14155b801561136c575060105460ff16155b15610dc357601054610100900460ff166113bd5760405162461bcd60e51b815260206004820152601260248201527154726164696e67206e6f742061637469766560701b604482015260640161074a565b6001600160a01b03831660009081526012602052604090205460ff16156114a857600f5481111561144e5760405162461bcd60e51b815260206004820152603560248201527f427579207472616e7366657220616d6f756e742065786365656473207468652060448201527436b0bc2a3930b739b0b1ba34b7b720b6b7bab73a1760591b606482015260840161074a565b600c5461145a83610917565b6114649083611dfc565b1115610dc35760405162461bcd60e51b815260206004820152601360248201527213585e081dd85b1b195d08195e18d959591959606a1b604482015260640161074a565b6001600160a01b03821660009081526012602052604090205460ff161561144e57600f54811115610dc35760405162461bcd60e51b815260206004820152603660248201527f53656c6c207472616e7366657220616d6f756e742065786365656473207468656044820152751036b0bc2a3930b739b0b1ba34b7b720b6b7bab73a1760511b606482015260840161074a565b6001600160a01b03831661159e5760405162461bcd60e51b815260206004820152602560248201527f45524332303a207472616e736665722066726f6d20746865207a65726f206164604482015264647265737360d81b606482015260840161074a565b6001600160a01b0382166116005760405162461bcd60e51b815260206004820152602360248201527f45524332303a207472616e7366657220746f20746865207a65726f206164647260448201526265737360e81b606482015260840161074a565b6001600160a01b038316600090815260208190526040902054818110156116785760405162461bcd60e51b815260206004820152602660248201527f45524332303a207472616e7366657220616d6f756e7420657863656564732062604482015265616c616e636560d01b606482015260840161074a565b6001600160a01b038085166000908152602081905260408082208585039055918516815290812080548492906116af908490611dfc565b92505081905550826001600160a01b0316846001600160a01b03167fddf252ad1be2c89b69c2b068fc378daa952ba7f163c4a11628f55a4df523b3ef846040516116fb91815260200190565b60405180910390a3610b38565b60008061171430610917565b9050600a54811015801561172b575060105460ff16155b801561174557506007546001600160a01b03858116911614155b80156117665750600754600090611764906001600160a01b0316610917565b115b801561178b57506001600160a01b03831660009081526011602052604090205460ff16155b80156117b057506001600160a01b03841660009081526011602052604090205460ff16155b949350505050565b604080516003808252608082019092526000916020820160608036833701905050905030816000815181106117ef576117ef611e6c565b6001600160a01b03928316602091820292909201810191909152601354604080516315ab88c960e31b81529051919093169263ad5c46489260048083019391928290030181865afa158015611848573d6000803e3d6000fd5b505050506040513d601f19601f8201168201806040525081019061186c9190611e82565b8160018151811061187f5761187f611e6c565b6001600160a01b0392831660209182029290920101526008548251911690829060029081106118b0576118b0611e6c565b6001600160a01b03928316602091820292909201015260085460135460405163095ea7b360e01b81529083166004820152600019602482015291169063095ea7b3906044016020604051808303816000875af1158015611914573d6000803e3d6000fd5b505050506040513d601f19601f820116820180604052508101906119389190611f3e565b50601360009054906101000a90046001600160a01b03166001600160a01b031663ad5c46486040518163ffffffff1660e01b8152600401602060405180830381865afa15801561198c573d6000803e3d6000fd5b505050506040513d601f19601f820116820180604052508101906119b09190611e82565b60135460405163095ea7b360e01b81526001600160a01b039182166004820152600019602482015291169063095ea7b3906044016020604051808303816000875af1158015611a03573d6000803e3d6000fd5b505050506040513d601f19601f82011682018060405250810190611a279190611f3e565b506013546009546001600160a01b0391821691635c11d79591859160009186911661108d426103e8611dfc565b6001600160a01b03831660009081526011602052604081205482919060019060ff1680611a9957506001600160a01b03851660009081526011602052604090205460ff165b15611aa2575060005b8015611acc57611ab3868686611ad7565b9150611abf8285611e36565b9250611acc86308461153a565b6110db86868561153a565b6001600160a01b0383166000908152601260205260408120548190819060ff1615611b1457601454611b0d9061ffff1683611dfc565b9150611b68565b6001600160a01b03851660009081526012602052604090205460ff1615611b4c57601454611b0d9062010000900461ffff1683611dfc565b601454611b6590640100000000900461ffff1683611dfc565b91505b8115611b8857600b54611b7b8386611e4d565b611b859190611e14565b90505b95945050505050565b600060208083528351808285015260005b81811015611bbe57858101830151858201604001528201611ba2565b81811115611bd0576000604083870101525b50601f01601f1916929092016040019392505050565b6001600160a01b0381168114611bfb57600080fd5b50565b60008060408385031215611c1157600080fd5b8235611c1c81611be6565b946020939093013593505050565b600060208284031215611c3c57600080fd5b5035919050565b600080600060608486031215611c5857600080fd5b8335611c6381611be6565b92506020840135611c7381611be6565b929592945050506040919091013590565b803561ffff81168114611c9657600080fd5b919050565b600080600060608486031215611cb057600080fd5b611cb984611c84565b9250611cc760208501611c84565b9150611cd560408501611c84565b90509250925092565b600060208284031215611cf057600080fd5b8135611cfb81611be6565b9392505050565b60008060408385031215611d1557600080fd5b8235611d2081611be6565b91506020830135611d3081611be6565b809150509250929050565b8015158114611bfb57600080fd5b60008060408385031215611d5c57600080fd5b8235611d6781611be6565b91506020830135611d3081611d3b565b600181811c90821680611d8b57607f821691505b602082108103611dab57634e487b7160e01b600052602260045260246000fd5b50919050565b6020808252818101527f4f776e61626c653a2063616c6c6572206973206e6f7420746865206f776e6572604082015260600190565b634e487b7160e01b600052601160045260246000fd5b60008219821115611e0f57611e0f611de6565b500190565b600082611e3157634e487b7160e01b600052601260045260246000fd5b500490565b600082821015611e4857611e48611de6565b500390565b6000816000190483118215151615611e6757611e67611de6565b500290565b634e487b7160e01b600052603260045260246000fd5b600060208284031215611e9457600080fd5b8151611cfb81611be6565b600060a082018783526020878185015260a0604085015281875180845260c086019150828901935060005b81811015611eef5784516001600160a01b031683529383019391830191600101611eca565b50506001600160a01b03969096166060850152505050608001529392505050565b600080600060608486031215611f2557600080fd5b8351925060208401519150604084015190509250925092565b600060208284031215611f5057600080fd5b8151611cfb81611d3b56fea26469706673582212200ecf09b356cae8b3fb3870ceae373c5451b9b9d70eb965b40a0fc84965882d6364736f6c634300080d0033",
  "linkReferences": {},
  "deployedLinkReferences": {}
}