{
  "_format": "hh-sol-artifact-1",
  "contractName": "CatPizza",
  "sourceName": "contracts/CatPizza.sol",
  "abi": [
    {
      "inputs": [],
      "stateMutability": "nonpayable",
      "type": "constructor"
    },
    {
      "anonymous": false,
      "inputs": [
        {
          "indexed": true,
          "internalType": "address",
          "name": "owner",
          "type": "address"
        },
        {
          "indexed": true,
          "internalType": "address",
          "name": "spender",
          "type": "address"
        },
        {
          "indexed": false,
          "internalType": "uint256",
          "name": "value",
          "type": "uint256"
        }
      ],
      "name": "Approval",
      "type": "event"
    },
    {
      "anonymous": false,
      "inputs": [
        {
          "indexed": true,
          "internalType": "address",
          "name": "sender",
          "type": "address"
        },
        {
          "indexed": false,
          "internalType": "uint256",
          "name": "amount",
          "type": "uint256"
        }
      ],
      "name": "Burn",
      "type": "event"
    },
    {
      "anonymous": false,
      "inputs": [
        {
          "indexed": true,
          "internalType": "address",
          "name": "previousOwner",
          "type": "address"
        },
        {
          "indexed": true,
          "internalType": "address",
          "name": "newOwner",
          "type": "address"
        }
      ],
      "name": "OwnershipTransferred",
      "type": "event"
    },
    {
      "anonymous": false,
      "inputs": [
        {
          "indexed": true,
          "internalType": "address",
          "name": "from",
          "type": "address"
        },
        {
          "indexed": true,
          "internalType": "address",
          "name": "to",
          "type": "address"
        },
        {
          "indexed": false,
          "internalType": "uint256",
          "name": "value",
          "type": "uint256"
        }
      ],
      "name": "Transfer",
      "type": "event"
    },
    {
      "inputs": [],
      "name": "DEAD",
      "outputs": [
        {
          "internalType": "address",
          "name": "",
          "type": "address"
        }
      ],
      "stateMutability": "view",
      "type": "function"
    },
    {
      "inputs": [],
      "name": "_feesRates",
      "outputs": [
        {
          "internalType": "uint16",
          "name": "buyFee",
          "type": "uint16"
        },
        {
          "internalType": "uint16",
          "name": "sellFee",
          "type": "uint16"
        },
        {
          "internalType": "uint16",
          "name": "transferFee",
          "type": "uint16"
        }
      ],
      "stateMutability": "view",
      "type": "function"
    },
    {
      "inputs": [
        {
          "internalType": "address",
          "name": "owner",
          "type": "address"
        },
        {
          "internalType": "address",
          "name": "spender",
          "type": "address"
        }
      ],
      "name": "allowance",
      "outputs": [
        {
          "internalType": "uint256",
          "name": "",
          "type": "uint256"
        }
      ],
      "stateMutability": "view",
      "type": "function"
    },
    {
      "inputs": [
        {
          "internalType": "address",
          "name": "spender",
          "type": "address"
        },
        {
          "internalType": "uint256",
          "name": "amount",
          "type": "uint256"
        }
      ],
      "name": "approve",
      "outputs": [
        {
          "internalType": "bool",
          "name": "",
          "type": "bool"
        }
      ],
      "stateMutability": "nonpayable",
      "type": "function"
    },
    {
      "inputs": [
        {
          "internalType": "uint256",
          "name": "tokenAmount",
          "type": "uint256"
        }
      ],
      "name": "autoLiquidity",
      "outputs": [],
      "stateMutability": "nonpayable",
      "type": "function"
    },
    {
      "inputs": [
        {
          "internalType": "address",
          "name": "account",
          "type": "address"
        }
      ],
      "name": "balanceOf",
      "outputs": [
        {
          "internalType": "uint256",
          "name": "",
          "type": "uint256"
        }
      ],
      "stateMutability": "view",
      "type": "function"
    },
    {
      "inputs": [
        {
          "internalType": "uint256",
          "name": "amount",
          "type": "uint256"
        }
      ],
      "name": "burn",
      "outputs": [],
      "stateMutability": "nonpayable",
      "type": "function"
    },
    {
      "inputs": [],
      "name": "decimals",
      "outputs": [
        {
          "internalType": "uint8",
          "name": "",
          "type": "uint8"
        }
      ],
      "stateMutability": "view",
      "type": "function"
    },
    {
      "inputs": [
        {
          "internalType": "address",
          "name": "spender",
          "type": "address"
        },
        {
          "internalType": "uint256",
          "name": "subtractedValue",
          "type": "uint256"
        }
      ],
      "name": "decreaseAllowance",
      "outputs": [
        {
          "internalType": "bool",
          "name": "",
          "type": "bool"
        }
      ],
      "stateMutability": "nonpayable",
      "type": "function"
    },
    {
      "inputs": [],
      "name": "dexRouter",
      "outputs": [
        {
          "internalType": "contract IUniswapV2Router02",
          "name": "",
          "type": "address"
        }
      ],
      "stateMutability": "view",
      "type": "function"
    },
    {
      "inputs": [
        {
          "internalType": "address",
          "name": "account",
          "type": "address"
        },
        {
          "internalType": "bool",
          "name": "val",
          "type": "bool"
        }
      ],
      "name": "excludeFromFee",
      "outputs": [],
      "stateMutability": "nonpayable",
      "type": "function"
    },
    {
      "inputs": [],
      "name": "getOwner",
      "outputs": [
        {
          "internalType": "address",
          "name": "",
          "type": "address"
        }
      ],
      "stateMutability": "view",
      "type": "function"
    },
    {
      "inputs": [
        {
          "internalType": "address",
          "name": "spender",
          "type": "address"
        },
        {
          "internalType": "uint256",
          "name": "addedValue",
          "type": "uint256"
        }
      ],
      "name": "increaseAllowance",
      "outputs": [
        {
          "internalType": "bool",
          "name": "",
          "type": "bool"
        }
      ],
      "stateMutability": "nonpayable",
      "type": "function"
    },
    {
      "inputs": [
        {
          "internalType": "address",
          "name": "account",
          "type": "address"
        }
      ],
      "name": "isExcludedFromFee",
      "outputs": [
        {
          "internalType": "bool",
          "name": "",
          "type": "bool"
        }
      ],
      "stateMutability": "view",
      "type": "function"
    },
    {
      "inputs": [],
      "name": "lpPair",
      "outputs": [
        {
          "internalType": "address",
          "name": "",
          "type": "address"
        }
      ],
      "stateMutability": "view",
      "type": "function"
    },
    {
      "inputs": [],
      "name": "marketingAddress",
      "outputs": [
        {
          "internalType": "address",
          "name": "",
          "type": "address"
        }
      ],
      "stateMutability": "view",
      "type": "function"
    },
    {
      "inputs": [],
      "name": "name",
      "outputs": [
        {
          "internalType": "string",
          "name": "",
          "type": "string"
        }
      ],
      "stateMutability": "view",
      "type": "function"
    },
    {
      "inputs": [],
      "name": "owner",
      "outputs": [
        {
          "internalType": "address",
          "name": "",
          "type": "address"
        }
      ],
      "stateMutability": "view",
      "type": "function"
    },
    {
      "inputs": [
        {
          "internalType": "address",
          "name": "account",
          "type": "address"
        }
      ],
      "name": "setMarketingAddress",
      "outputs": [],
      "stateMutability": "nonpayable",
      "type": "function"
    },
    {
      "inputs": [
        {
          "internalType": "uint256",
          "name": "value",
          "type": "uint256"
        }
      ],
      "name": "setMaxWalletAmount",
      "outputs": [],
      "stateMutability": "nonpayable",
      "type": "function"
    },
    {
      "inputs": [
        {
          "internalType": "uint256",
          "name": "value",
          "type": "uint256"
        }
      ],
      "name": "setSwapThreshold",
      "outputs": [],
      "stateMutability": "nonpayable",
      "type": "function"
    },
    {
      "inputs": [
        {
          "internalType": "uint16",
          "name": "buyFee",
          "type": "uint16"
        },
        {
          "internalType": "uint16",
          "name": "sellFee",
          "type": "uint16"
        },
        {
          "internalType": "uint16",
          "name": "transferFee",
          "type": "uint16"
        }
      ],
      "name": "setTaxes",
      "outputs": [],
      "stateMutability": "nonpayable",
      "type": "function"
    },
    {
      "inputs": [],
      "name": "swapThreshold",
      "outputs": [
        {
          "internalType": "uint256",
          "name": "",
          "type": "uint256"
        }
      ],
      "stateMutability": "view",
      "type": "function"
    },
    {
      "inputs": [],
      "name": "swapTokenAddress",
      "outputs": [
        {
          "internalType": "address",
          "name": "",
          "type": "address"
        }
      ],
      "stateMutability": "view",
      "type": "function"
    },
    {
      "inputs": [],
      "name": "symbol",
      "outputs": [
        {
          "internalType": "string",
          "name": "",
          "type": "string"
        }
      ],
      "stateMutability": "view",
      "type": "function"
    },
    {
      "inputs": [],
      "name": "totalSupply",
      "outputs": [
        {
          "internalType": "uint256",
          "name": "",
          "type": "uint256"
        }
      ],
      "stateMutability": "view",
      "type": "function"
    },
    {
      "inputs": [
        {
          "internalType": "address",
          "name": "to",
          "type": "address"
        },
        {
          "internalType": "uint256",
          "name": "amount",
          "type": "uint256"
        }
      ],
      "name": "transfer",
      "outputs": [
        {
          "internalType": "bool",
          "name": "",
          "type": "bool"
        }
      ],
      "stateMutability": "nonpayable",
      "type": "function"
    },
    {
      "inputs": [
        {
          "internalType": "address",
          "name": "from",
          "type": "address"
        },
        {
          "internalType": "address",
          "name": "to",
          "type": "address"
        },
        {
          "internalType": "uint256",
          "name": "amount",
          "type": "uint256"
        }
      ],
      "name": "transferFrom",
      "outputs": [
        {
          "internalType": "bool",
          "name": "",
          "type": "bool"
        }
      ],
      "stateMutability": "nonpayable",
      "type": "function"
    },
    {
      "inputs": [
        {
          "internalType": "address",
          "name": "account",
          "type": "address"
        }
      ],
      "name": "transferOwnership",
      "outputs": [],
      "stateMutability": "nonpayable",
      "type": "function"
    },
    {
      "stateMutability": "payable",
      "type": "receive"
    }
  ],
  "bytecode": "0x60806040523480156200001157600080fd5b50604080518082018252600881526743617450697a7a6160c01b6020808301918252835180850190945260048452630436174560e41b9084015281519192916200005e9160039162000599565b5080516200007490600490602084019062000599565b50505062000094336a52b7d2dcc80cd2e40000006200038860201b60201c565b600580546001600160a01b031990811633908117909255600980548216736644ebde0f26c8f74ad18697cce8a5ac4e608cb41781556040805160608101825261012c80825260208083019190915260009183018290526012805465ffffffffffff191663012c012c1790556008805486167378867bbeef44f2326bf8ddd1941a4439382ef2a717815595825260108152828220805460ff199081166001908117909255308452848420805482168317905594546001600160a01b03908116845284842080548716831790559654909616825290829020805490931690941790915569d3c21bcecceda1000000600a55611b58600d55610bb8600e5560118054909216739ac64cc6e4415144c455bd8e4837fea55603e5c3908117909255805163c45a015560e01b815290519192839263c45a01559260048181019392918290030181865afa158015620001eb573d6000803e3d6000fd5b505050506040513d601f19601f820116820180604052508101906200021191906200063f565b6001600160a01b031663c9c6539630601160009054906101000a90046001600160a01b03166001600160a01b031663ad5c46486040518163ffffffff1660e01b8152600401602060405180830381865afa15801562000274573d6000803e3d6000fd5b505050506040513d601f19601f820116820180604052508101906200029a91906200063f565b6040516001600160e01b031960e085901b1681526001600160a01b039283166004820152911660248201526044016020604051808303816000875af1158015620002e8573d6000803e3d6000fd5b505050506040513d601f19601f820116820180604052508101906200030e91906200063f565b600780546001600160a01b0319166001600160a01b03929092169190911790556200033d338260001962000471565b6200034c308260001962000471565b60085462000367906001600160a01b03168260001962000471565b50600680546001600160a01b03191661dead179055612710600b55620006d4565b6001600160a01b038216620003e45760405162461bcd60e51b815260206004820152601f60248201527f45524332303a206d696e7420746f20746865207a65726f20616464726573730060448201526064015b60405180910390fd5b8060026000828254620003f8919062000671565b90915550506001600160a01b038216600090815260208190526040812080548392906200042790849062000671565b90915550506040518181526001600160a01b038316906000907fddf252ad1be2c89b69c2b068fc378daa952ba7f163c4a11628f55a4df523b3ef9060200160405180910390a35050565b6001600160a01b038316620004d55760405162461bcd60e51b8152602060048201526024808201527f45524332303a20617070726f76652066726f6d20746865207a65726f206164646044820152637265737360e01b6064820152608401620003db565b6001600160a01b038216620005385760405162461bcd60e51b815260206004820152602260248201527f45524332303a20617070726f766520746f20746865207a65726f206164647265604482015261737360f01b6064820152608401620003db565b6001600160a01b0383811660008181526001602090815260408083209487168084529482529182902085905590518481527f8c5be1e5ebec7d5bd14f71427d1e84f3dd0314c0f7b2291e5b200ac8c7c3b925910160405180910390a3505050565b828054620005a79062000698565b90600052602060002090601f016020900481019282620005cb576000855562000616565b82601f10620005e657805160ff191683800117855562000616565b8280016001018555821562000616579182015b8281111562000616578251825591602001919060010190620005f9565b506200062492915062000628565b5090565b5b8082111562000624576000815560010162000629565b6000602082840312156200065257600080fd5b81516001600160a01b03811681146200066a57600080fd5b9392505050565b600082198211156200069357634e487b7160e01b600052601160045260246000fd5b500190565b600181811c90821680620006ad57607f821691505b602082108103620006ce57634e487b7160e01b600052602260045260246000fd5b50919050565b611c6680620006e46000396000f3fe6080604052600436106101565760003560e01c806303fd2a45146101625780630445b6671461019f57806306fdde03146101c35780630758d924146101e5578063095ea7b31461020557806318160ddd146102355780631c06a7e11461024a57806323b872dd1461029f57806327a14fc2146102bf578063313ce567146102e157806332cde664146102fd578063395093511461031d57806342966c681461033d578063452ed4f11461035d5780635342acb41461037d57806370a08231146103b6578063893d20e8146103d65780638da5cb5b146103f4578063906e9dd01461041457806395d89b41146104345780639d0014b114610449578063a457c2d714610469578063a5ece94114610489578063a9059cbb146104a9578063c6aca36b146104c9578063dd62ed3e146104e9578063df8408fe14610509578063f2fde38b14610529578063f36f79e01461054957600080fd5b3661015d57005b600080fd5b34801561016e57600080fd5b50600654610182906001600160a01b031681565b6040516001600160a01b0390911681526020015b60405180910390f35b3480156101ab57600080fd5b506101b5600a5481565b604051908152602001610196565b3480156101cf57600080fd5b506101d8610569565b6040516101969190611834565b3480156101f157600080fd5b50601154610182906001600160a01b031681565b34801561021157600080fd5b506102256102203660046118a1565b6105fb565b6040519015158152602001610196565b34801561024157600080fd5b506002546101b5565b34801561025657600080fd5b5060125461027a9061ffff80821691620100008104821691600160201b9091041683565b6040805161ffff94851681529284166020840152921691810191909152606001610196565b3480156102ab57600080fd5b506102256102ba3660046118cd565b610613565b3480156102cb57600080fd5b506102df6102da36600461190e565b610637565b005b3480156102ed57600080fd5b5060405160128152602001610196565b34801561030957600080fd5b506102df61031836600461193e565b61066f565b34801561032957600080fd5b506102256103383660046118a1565b6106d6565b34801561034957600080fd5b506102df61035836600461190e565b6106f8565b34801561036957600080fd5b50600754610182906001600160a01b031681565b34801561038957600080fd5b50610225610398366004611981565b6001600160a01b031660009081526010602052604090205460ff1690565b3480156103c257600080fd5b506101b56103d1366004611981565b6107aa565b3480156103e257600080fd5b506005546001600160a01b0316610182565b34801561040057600080fd5b50600554610182906001600160a01b031681565b34801561042057600080fd5b506102df61042f366004611981565b6107c5565b34801561044057600080fd5b506101d8610811565b34801561045557600080fd5b506102df61046436600461190e565b610820565b34801561047557600080fd5b506102256104843660046118a1565b61084f565b34801561049557600080fd5b50600954610182906001600160a01b031681565b3480156104b557600080fd5b506102256104c43660046118a1565b6108ca565b3480156104d557600080fd5b506102df6104e436600461190e565b6108d8565b3480156104f557600080fd5b506101b561050436600461199e565b61090f565b34801561051557600080fd5b506102df6105243660046119e5565b61093a565b34801561053557600080fd5b506102df610544366004611981565b61098f565b34801561055557600080fd5b50600854610182906001600160a01b031681565b60606003805461057890611a13565b80601f01602080910402602001604051908101604052809291908181526020018280546105a490611a13565b80156105f15780601f106105c6576101008083540402835291602001916105f1565b820191906000526020600020905b8154815290600101906020018083116105d457829003601f168201915b5050505050905090565b6000336106098185856109db565b5060019392505050565b600033610621858285610aff565b61062c858585610b73565b506001949350505050565b6005546001600160a01b0316331461066a5760405162461bcd60e51b815260040161066190611a4d565b60405180910390fd5b600c55565b6005546001600160a01b031633146106995760405162461bcd60e51b815260040161066190611a4d565b6012805461ffff94851663ffffffff199091161762010000938516939093029290921761ffff60201b1916600160201b9190931602919091179055565b6000336106098185856106e9838361090f565b6106f39190611a98565b6109db565b610701336107aa565b8111156107685760405162461bcd60e51b815260206004820152602f60248201527f4275726e20616d6f756e742073686f756c64206265206c657373207468616e2060448201526e6163636f756e742062616c616e636560881b6064820152608401610661565b6107723382610c36565b60405181815233907fcc16f5dbb4873280815c1ee09dbd06736cffcc184412cf7a71a0fdb75d397ca59060200160405180910390a250565b6001600160a01b031660009081526020819052604090205490565b6005546001600160a01b031633146107ef5760405162461bcd60e51b815260040161066190611a4d565b600980546001600160a01b0319166001600160a01b0392909216919091179055565b60606004805461057890611a13565b6005546001600160a01b0316331461084a5760405162461bcd60e51b815260040161066190611a4d565b600a55565b6000338161085d828661090f565b9050838110156108bd5760405162461bcd60e51b815260206004820152602560248201527f45524332303a2064656372656173656420616c6c6f77616e63652062656c6f77604482015264207a65726f60d81b6064820152608401610661565b61062c82868684036109db565b600033610609818585610b73565b60006108e5600283611ab0565b9050476108f182610d72565b60006108fd8247611ad2565b90506109098382610ed5565b50505050565b6001600160a01b03918216600090815260016020908152604080832093909416825291909152205490565b6005546001600160a01b031633146109645760405162461bcd60e51b815260040161066190611a4d565b6001600160a01b03919091166000908152601060205260409020805460ff1916911515919091179055565b6005546001600160a01b031633146109b95760405162461bcd60e51b815260040161066190611a4d565b600580546001600160a01b0319166001600160a01b0392909216919091179055565b6001600160a01b038316610a3d5760405162461bcd60e51b8152602060048201526024808201527f45524332303a20617070726f76652066726f6d20746865207a65726f206164646044820152637265737360e01b6064820152608401610661565b6001600160a01b038216610a9e5760405162461bcd60e51b815260206004820152602260248201527f45524332303a20617070726f766520746f20746865207a65726f206164647265604482015261737360f01b6064820152608401610661565b6001600160a01b0383811660008181526001602090815260408083209487168084529482529182902085905590518481527f8c5be1e5ebec7d5bd14f71427d1e84f3dd0314c0f7b2291e5b200ac8c7c3b925910160405180910390a3505050565b6000610b0b848461090f565b905060001981146109095781811015610b665760405162461bcd60e51b815260206004820152601d60248201527f45524332303a20696e73756666696369656e7420616c6c6f77616e63650000006044820152606401610661565b61090984848484036109db565b610b7e838383610fb1565b600f5460ff1615610b9957610b9483838361115e565b505050565b610ba3838361131a565b15610bb057610bb06113ca565b60016000610bbe8585611432565b6001600160a01b03861660009081526010602052604090205490915060ff1680610c0057506001600160a01b03841660009081526010602052604090205460ff165b15610c0a57600091505b8080610c14575081155b15610c2b57610c2485858561115e565b5050505050565b610c24858585611468565b6001600160a01b038216610c965760405162461bcd60e51b815260206004820152602160248201527f45524332303a206275726e2066726f6d20746865207a65726f206164647265736044820152607360f81b6064820152608401610661565b6001600160a01b03821660009081526020819052604090205481811015610d0a5760405162461bcd60e51b815260206004820152602260248201527f45524332303a206275726e20616d6f756e7420657863656564732062616c616e604482015261636560f01b6064820152608401610661565b6001600160a01b0383166000908152602081905260408120838303905560028054849290610d39908490611ad2565b90915550506040518281526000906001600160a01b03851690600080516020611c118339815191529060200160405180910390a3505050565b6040805160028082526060820183526000926020830190803683370190505090503081600081518110610da757610da7611ae9565b6001600160a01b03928316602091820292909201810191909152601154604080516315ab88c960e31b81529051919093169263ad5c46489260048083019391928290030181865afa158015610e00573d6000803e3d6000fd5b505050506040513d601f19601f82011682018060405250810190610e249190611aff565b81600181518110610e3757610e37611ae9565b6001600160a01b039283166020918202929092010152601154610e5d91309116846109db565b6011546001600160a01b031663791ac9478360008430610e7f426103e8611a98565b6040518663ffffffff1660e01b8152600401610e9f959493929190611b1c565b600060405180830381600087803b158015610eb957600080fd5b505af1158015610ecd573d6000803e3d6000fd5b505050505050565b601154610eef9030906001600160a01b03166000196109db565b6011546005546001600160a01b039182169163f305d71991849130918791600091829116610f1f42612710611a98565b60405160e089901b6001600160e01b03191681526001600160a01b039687166004820152602481019590955260448501939093526064840191909152909216608482015260a481019190915260c40160606040518083038185885af1158015610f8c573d6000803e3d6000fd5b50505050506040513d601f19601f82011682018060405250810190610c249190611b8d565b6001600160a01b03831661101d5760405162461bcd60e51b815260206004820152602d60248201527f45524332303a207472616e736665722066726f6d20746865205a45524f5f414460448201526c4452455353206164647265737360981b6064820152608401610661565b6001600160a01b0382166110875760405162461bcd60e51b815260206004820152602b60248201527f45524332303a207472616e7366657220746f20746865205a45524f5f4144445260448201526a455353206164647265737360a81b6064820152608401610661565b600081116110f15760405162461bcd60e51b815260206004820152603160248201527f5472616e7366657220616d6f756e74206d7573742062652067726561746572206044820152707468616e205a45524f5f4144445245535360781b6064820152608401610661565b6007546001600160a01b03808516911603610b9457600c54611112846107aa565b61111c9190611a98565b8110610b945760405162461bcd60e51b815260206004820152601160248201527013585e0815d85b1b195d08105b5bdd5b9d607a1b6044820152606401610661565b6001600160a01b0383166111c25760405162461bcd60e51b815260206004820152602560248201527f45524332303a207472616e736665722066726f6d20746865207a65726f206164604482015264647265737360d81b6064820152608401610661565b6001600160a01b0382166112245760405162461bcd60e51b815260206004820152602360248201527f45524332303a207472616e7366657220746f20746865207a65726f206164647260448201526265737360e81b6064820152608401610661565b6001600160a01b0383166000908152602081905260409020548181101561129c5760405162461bcd60e51b815260206004820152602660248201527f45524332303a207472616e7366657220616d6f756e7420657863656564732062604482015265616c616e636560d01b6064820152608401610661565b6001600160a01b038085166000908152602081905260408082208585039055918516815290812080548492906112d3908490611a98565b92505081905550826001600160a01b0316846001600160a01b0316600080516020611c118339815191528460405161130d91815260200190565b60405180910390a3610909565b600080611326306107aa565b9050600a54811015801561133d5750600f5460ff16155b801561135757506007546001600160a01b03858116911614155b80156113785750600754600090611376906001600160a01b03166107aa565b115b801561139d57506001600160a01b03831660009081526010602052604090205460ff16155b80156113c257506001600160a01b03841660009081526010602052604090205460ff16155b949350505050565b600f805460ff1916600117905560006113e2306107aa565b9050611407600b54600d54836113f89190611bbb565b6114029190611ab0565b6114f1565b611425600b54600e548361141b9190611bbb565b6104e49190611ab0565b50600f805460ff19169055565b6007546000906001600160a01b0384811691161480159061146157506007546001600160a01b03838116911614155b9392505050565b6001600160a01b03831660009081526010602052604081205482919060019060ff16806114ad57506001600160a01b03851660009081526010602052604090205460ff165b156114b6575060005b80156114e6576114c7868686611790565b915081156114e6576114d98285611ad2565b92506114e686308461115e565b610ecd86868561115e565b6040805160038082526080820190925260009160208201606080368337019050509050308160008151811061152857611528611ae9565b6001600160a01b03928316602091820292909201810191909152601154604080516315ab88c960e31b81529051919093169263ad5c46489260048083019391928290030181865afa158015611581573d6000803e3d6000fd5b505050506040513d601f19601f820116820180604052508101906115a59190611aff565b816001815181106115b8576115b8611ae9565b6001600160a01b0392831660209182029290920101526008548251911690829060029081106115e9576115e9611ae9565b6001600160a01b03928316602091820292909201015260085460115460405163095ea7b360e01b81529183169263095ea7b392611630929091169060001990600401611bda565b6020604051808303816000875af115801561164f573d6000803e3d6000fd5b505050506040513d601f19601f820116820180604052508101906116739190611bf3565b50601160009054906101000a90046001600160a01b03166001600160a01b031663ad5c46486040518163ffffffff1660e01b8152600401602060405180830381865afa1580156116c7573d6000803e3d6000fd5b505050506040513d601f19601f820116820180604052508101906116eb9190611aff565b60115460405163095ea7b360e01b81526001600160a01b039283169263095ea7b3926117209291169060001990600401611bda565b6020604051808303816000875af115801561173f573d6000803e3d6000fd5b505050506040513d601f19601f820116820180604052508101906117639190611bf3565b506011546009546001600160a01b0391821691635c11d795918591600091869116610e7f426103e8611a98565b600754600090819081906001600160a01b038088169116036117c4576012546117bd9061ffff1683611a98565b915061180b565b6007546001600160a01b038087169116036117f0576012546117bd9062010000900461ffff1683611a98565b60125461180890600160201b900461ffff1683611a98565b91505b811561182b57600b5461181e8386611bbb565b6118289190611ab0565b90505b95945050505050565b600060208083528351808285015260005b8181101561186157858101830151858201604001528201611845565b81811115611873576000604083870101525b50601f01601f1916929092016040019392505050565b6001600160a01b038116811461189e57600080fd5b50565b600080604083850312156118b457600080fd5b82356118bf81611889565b946020939093013593505050565b6000806000606084860312156118e257600080fd5b83356118ed81611889565b925060208401356118fd81611889565b929592945050506040919091013590565b60006020828403121561192057600080fd5b5035919050565b803561ffff8116811461193957600080fd5b919050565b60008060006060848603121561195357600080fd5b61195c84611927565b925061196a60208501611927565b915061197860408501611927565b90509250925092565b60006020828403121561199357600080fd5b813561146181611889565b600080604083850312156119b157600080fd5b82356119bc81611889565b915060208301356119cc81611889565b809150509250929050565b801515811461189e57600080fd5b600080604083850312156119f857600080fd5b8235611a0381611889565b915060208301356119cc816119d7565b600181811c90821680611a2757607f821691505b602082108103611a4757634e487b7160e01b600052602260045260246000fd5b50919050565b6020808252818101527f4f776e61626c653a2063616c6c6572206973206e6f7420746865206f776e6572604082015260600190565b634e487b7160e01b600052601160045260246000fd5b60008219821115611aab57611aab611a82565b500190565b600082611acd57634e487b7160e01b600052601260045260246000fd5b500490565b600082821015611ae457611ae4611a82565b500390565b634e487b7160e01b600052603260045260246000fd5b600060208284031215611b1157600080fd5b815161146181611889565b600060a082018783526020878185015260a0604085015281875180845260c086019150828901935060005b81811015611b6c5784516001600160a01b031683529383019391830191600101611b47565b50506001600160a01b03969096166060850152505050608001529392505050565b600080600060608486031215611ba257600080fd5b8351925060208401519150604084015190509250925092565b6000816000190483118215151615611bd557611bd5611a82565b500290565b6001600160a01b03929092168252602082015260400190565b600060208284031215611c0557600080fd5b8151611461816119d756feddf252ad1be2c89b69c2b068fc378daa952ba7f163c4a11628f55a4df523b3efa2646970667358221220539103afbbfe01746240bf922515503080ea5eaf727a4f1c7abfa89d019ed6ff64736f6c634300080d0033",
  "linkReferences": {},
  "deployedLinkReferences": {}
}