{
  "_format": "hh-sol-artifact-1",
  "contractName": "CatPizza",
  "sourceName": "contracts/CatPizza.sol",
  "abi": [
    {
      "inputs": [],
      "stateMutability": "nonpayable",
      "type": "constructor"
    },
    {
      "anonymous": false,
      "inputs": [
        {
          "indexed": true,
          "internalType": "address",
          "name": "owner",
          "type": "address"
        },
        {
          "indexed": true,
          "internalType": "address",
          "name": "spender",
          "type": "address"
        },
        {
          "indexed": false,
          "internalType": "uint256",
          "name": "value",
          "type": "uint256"
        }
      ],
      "name": "Approval",
      "type": "event"
    },
    {
      "anonymous": false,
      "inputs": [
        {
          "indexed": true,
          "internalType": "address",
          "name": "sender",
          "type": "address"
        },
        {
          "indexed": false,
          "internalType": "uint256",
          "name": "amount",
          "type": "uint256"
        }
      ],
      "name": "Burn",
      "type": "event"
    },
    {
      "anonymous": false,
      "inputs": [
        {
          "indexed": true,
          "internalType": "address",
          "name": "previousOwner",
          "type": "address"
        },
        {
          "indexed": true,
          "internalType": "address",
          "name": "newOwner",
          "type": "address"
        }
      ],
      "name": "OwnershipTransferred",
      "type": "event"
    },
    {
      "anonymous": false,
      "inputs": [
        {
          "indexed": true,
          "internalType": "address",
          "name": "from",
          "type": "address"
        },
        {
          "indexed": true,
          "internalType": "address",
          "name": "to",
          "type": "address"
        },
        {
          "indexed": false,
          "internalType": "uint256",
          "name": "value",
          "type": "uint256"
        }
      ],
      "name": "Transfer",
      "type": "event"
    },
    {
      "inputs": [],
      "name": "DEAD",
      "outputs": [
        {
          "internalType": "address",
          "name": "",
          "type": "address"
        }
      ],
      "stateMutability": "view",
      "type": "function"
    },
    {
      "inputs": [],
      "name": "_feesRates",
      "outputs": [
        {
          "internalType": "uint16",
          "name": "buyFee",
          "type": "uint16"
        },
        {
          "internalType": "uint16",
          "name": "sellFee",
          "type": "uint16"
        },
        {
          "internalType": "uint16",
          "name": "transferFee",
          "type": "uint16"
        }
      ],
      "stateMutability": "view",
      "type": "function"
    },
    {
      "inputs": [
        {
          "internalType": "address",
          "name": "owner",
          "type": "address"
        },
        {
          "internalType": "address",
          "name": "spender",
          "type": "address"
        }
      ],
      "name": "allowance",
      "outputs": [
        {
          "internalType": "uint256",
          "name": "",
          "type": "uint256"
        }
      ],
      "stateMutability": "view",
      "type": "function"
    },
    {
      "inputs": [
        {
          "internalType": "address",
          "name": "spender",
          "type": "address"
        },
        {
          "internalType": "uint256",
          "name": "amount",
          "type": "uint256"
        }
      ],
      "name": "approve",
      "outputs": [
        {
          "internalType": "bool",
          "name": "",
          "type": "bool"
        }
      ],
      "stateMutability": "nonpayable",
      "type": "function"
    },
    {
      "inputs": [
        {
          "internalType": "uint256",
          "name": "tokenAmount",
          "type": "uint256"
        }
      ],
      "name": "autoLiquidity",
      "outputs": [],
      "stateMutability": "nonpayable",
      "type": "function"
    },
    {
      "inputs": [
        {
          "internalType": "address",
          "name": "",
          "type": "address"
        }
      ],
      "name": "automatedMarketMakerPairs",
      "outputs": [
        {
          "internalType": "bool",
          "name": "",
          "type": "bool"
        }
      ],
      "stateMutability": "view",
      "type": "function"
    },
    {
      "inputs": [
        {
          "internalType": "address",
          "name": "account",
          "type": "address"
        }
      ],
      "name": "balanceOf",
      "outputs": [
        {
          "internalType": "uint256",
          "name": "",
          "type": "uint256"
        }
      ],
      "stateMutability": "view",
      "type": "function"
    },
    {
      "inputs": [
        {
          "internalType": "uint256",
          "name": "amount",
          "type": "uint256"
        }
      ],
      "name": "burn",
      "outputs": [],
      "stateMutability": "nonpayable",
      "type": "function"
    },
    {
      "inputs": [],
      "name": "decimals",
      "outputs": [
        {
          "internalType": "uint8",
          "name": "",
          "type": "uint8"
        }
      ],
      "stateMutability": "view",
      "type": "function"
    },
    {
      "inputs": [
        {
          "internalType": "address",
          "name": "spender",
          "type": "address"
        },
        {
          "internalType": "uint256",
          "name": "subtractedValue",
          "type": "uint256"
        }
      ],
      "name": "decreaseAllowance",
      "outputs": [
        {
          "internalType": "bool",
          "name": "",
          "type": "bool"
        }
      ],
      "stateMutability": "nonpayable",
      "type": "function"
    },
    {
      "inputs": [],
      "name": "dexRouter",
      "outputs": [
        {
          "internalType": "contract IUniswapV2Router02",
          "name": "",
          "type": "address"
        }
      ],
      "stateMutability": "view",
      "type": "function"
    },
    {
      "inputs": [],
      "name": "enableTrading",
      "outputs": [],
      "stateMutability": "nonpayable",
      "type": "function"
    },
    {
      "inputs": [
        {
          "internalType": "address",
          "name": "account",
          "type": "address"
        },
        {
          "internalType": "bool",
          "name": "val",
          "type": "bool"
        }
      ],
      "name": "excludeFromFee",
      "outputs": [],
      "stateMutability": "nonpayable",
      "type": "function"
    },
    {
      "inputs": [],
      "name": "getOwner",
      "outputs": [
        {
          "internalType": "address",
          "name": "",
          "type": "address"
        }
      ],
      "stateMutability": "view",
      "type": "function"
    },
    {
      "inputs": [
        {
          "internalType": "address",
          "name": "spender",
          "type": "address"
        },
        {
          "internalType": "uint256",
          "name": "addedValue",
          "type": "uint256"
        }
      ],
      "name": "increaseAllowance",
      "outputs": [
        {
          "internalType": "bool",
          "name": "",
          "type": "bool"
        }
      ],
      "stateMutability": "nonpayable",
      "type": "function"
    },
    {
      "inputs": [
        {
          "internalType": "address",
          "name": "account",
          "type": "address"
        }
      ],
      "name": "isExcludedFromFee",
      "outputs": [
        {
          "internalType": "bool",
          "name": "",
          "type": "bool"
        }
      ],
      "stateMutability": "view",
      "type": "function"
    },
    {
      "inputs": [],
      "name": "lpPair",
      "outputs": [
        {
          "internalType": "address",
          "name": "",
          "type": "address"
        }
      ],
      "stateMutability": "view",
      "type": "function"
    },
    {
      "inputs": [],
      "name": "name",
      "outputs": [
        {
          "internalType": "string",
          "name": "",
          "type": "string"
        }
      ],
      "stateMutability": "view",
      "type": "function"
    },
    {
      "inputs": [],
      "name": "owner",
      "outputs": [
        {
          "internalType": "address",
          "name": "",
          "type": "address"
        }
      ],
      "stateMutability": "view",
      "type": "function"
    },
    {
      "inputs": [
        {
          "internalType": "uint256",
          "name": "value",
          "type": "uint256"
        }
      ],
      "name": "setMaxTransactionAmount",
      "outputs": [],
      "stateMutability": "nonpayable",
      "type": "function"
    },
    {
      "inputs": [
        {
          "internalType": "uint256",
          "name": "value",
          "type": "uint256"
        }
      ],
      "name": "setMaxWalletAmount",
      "outputs": [],
      "stateMutability": "nonpayable",
      "type": "function"
    },
    {
      "inputs": [
        {
          "internalType": "uint256",
          "name": "value",
          "type": "uint256"
        }
      ],
      "name": "setSwapThreshold",
      "outputs": [],
      "stateMutability": "nonpayable",
      "type": "function"
    },
    {
      "inputs": [
        {
          "internalType": "uint16",
          "name": "buyFee",
          "type": "uint16"
        },
        {
          "internalType": "uint16",
          "name": "sellFee",
          "type": "uint16"
        },
        {
          "internalType": "uint16",
          "name": "transferFee",
          "type": "uint16"
        }
      ],
      "name": "setTaxes",
      "outputs": [],
      "stateMutability": "nonpayable",
      "type": "function"
    },
    {
      "inputs": [],
      "name": "swapThreshold",
      "outputs": [
        {
          "internalType": "uint256",
          "name": "",
          "type": "uint256"
        }
      ],
      "stateMutability": "view",
      "type": "function"
    },
    {
      "inputs": [],
      "name": "swapTokenAddress",
      "outputs": [
        {
          "internalType": "address",
          "name": "",
          "type": "address"
        }
      ],
      "stateMutability": "view",
      "type": "function"
    },
    {
      "inputs": [],
      "name": "symbol",
      "outputs": [
        {
          "internalType": "string",
          "name": "",
          "type": "string"
        }
      ],
      "stateMutability": "view",
      "type": "function"
    },
    {
      "inputs": [],
      "name": "totalSupply",
      "outputs": [
        {
          "internalType": "uint256",
          "name": "",
          "type": "uint256"
        }
      ],
      "stateMutability": "view",
      "type": "function"
    },
    {
      "inputs": [
        {
          "internalType": "address",
          "name": "to",
          "type": "address"
        },
        {
          "internalType": "uint256",
          "name": "amount",
          "type": "uint256"
        }
      ],
      "name": "transfer",
      "outputs": [
        {
          "internalType": "bool",
          "name": "",
          "type": "bool"
        }
      ],
      "stateMutability": "nonpayable",
      "type": "function"
    },
    {
      "inputs": [
        {
          "internalType": "address",
          "name": "from",
          "type": "address"
        },
        {
          "internalType": "address",
          "name": "to",
          "type": "address"
        },
        {
          "internalType": "uint256",
          "name": "amount",
          "type": "uint256"
        }
      ],
      "name": "transferFrom",
      "outputs": [
        {
          "internalType": "bool",
          "name": "",
          "type": "bool"
        }
      ],
      "stateMutability": "nonpayable",
      "type": "function"
    },
    {
      "inputs": [
        {
          "internalType": "address",
          "name": "account",
          "type": "address"
        }
      ],
      "name": "transferOwnership",
      "outputs": [],
      "stateMutability": "nonpayable",
      "type": "function"
    },
    {
      "inputs": [],
      "name": "w1Address",
      "outputs": [
        {
          "internalType": "address",
          "name": "",
          "type": "address"
        }
      ],
      "stateMutability": "view",
      "type": "function"
    },
    {
      "inputs": [],
      "name": "w2Address",
      "outputs": [
        {
          "internalType": "address",
          "name": "",
          "type": "address"
        }
      ],
      "stateMutability": "view",
      "type": "function"
    },
    {
      "inputs": [],
      "name": "w3Address",
      "outputs": [
        {
          "internalType": "address",
          "name": "",
          "type": "address"
        }
      ],
      "stateMutability": "view",
      "type": "function"
    },
    {
      "inputs": [],
      "name": "w4Address",
      "outputs": [
        {
          "internalType": "address",
          "name": "",
          "type": "address"
        }
      ],
      "stateMutability": "view",
      "type": "function"
    },
    {
      "inputs": [],
      "name": "w5Address",
      "outputs": [
        {
          "internalType": "address",
          "name": "",
          "type": "address"
        }
      ],
      "stateMutability": "view",
      "type": "function"
    },
    {
      "stateMutability": "payable",
      "type": "receive"
    }
  ],
  "bytecode": "0x60806040523480156200001157600080fd5b506040518060400160405280600881526020016743617450697a7a6160c01b815250604051806040016040528060048152602001630436174560e41b815250816003908162000061919062000671565b50600462000070828262000671565b50505062000090336a52b7d2dcc80cd2e4000000620003b760201b60201c565b69d3c21bcecceda10000006010819055601781905560058054336001600160a01b0319918216811790925560098054736644ebde0f26c8f74ad18697cce8a5ac4e608cb49083168117909155600a8054831682179055600b8054831682179055600c8054831682179055600d80548316909117905560408051606081018252600080825261012c602080840191909152918301819052601c805463012c000065ffffffffffff19909116179055600880547378867bbeef44f2326bf8ddd1941a4439382ef2a790861617905593845260198152818420805460ff19908116600190811790925530865294839020805490951617909355600e939093556103e860118190556012819055601381905560148190556015819055601655601b8054739ac64cc6e4415144c455bd8e4837fea55603e5c3921682179055825163c45a015560e01b815292519092839263c45a0155926004838101938290030181865afa15801562000202573d6000803e3d6000fd5b505050506040513d601f19601f820116820180604052508101906200022891906200073d565b6001600160a01b031663c9c6539630601b60009054906101000a90046001600160a01b03166001600160a01b031663ad5c46486040518163ffffffff1660e01b8152600401602060405180830381865afa1580156200028b573d6000803e3d6000fd5b505050506040513d601f19601f82011682018060405250810190620002b191906200073d565b6040516001600160e01b031960e085901b1681526001600160a01b039283166004820152911660248201526044016020604051808303816000875af1158015620002ff573d6000803e3d6000fd5b505050506040513d601f19601f820116820180604052508101906200032591906200073d565b600780546001600160a01b0319166001600160a01b039290921691821790556000908152601a60205260409020805460ff191660011790556200036c3382600019620004a0565b6200037b3082600019620004a0565b60085462000396906001600160a01b031682600019620004a0565b50600680546001600160a01b03191661dead179055612710600f5562000796565b6001600160a01b038216620004135760405162461bcd60e51b815260206004820152601f60248201527f45524332303a206d696e7420746f20746865207a65726f20616464726573730060448201526064015b60405180910390fd5b80600260008282546200042791906200076f565b90915550506001600160a01b03821660009081526020819052604081208054839290620004569084906200076f565b90915550506040518181526001600160a01b038316906000907fddf252ad1be2c89b69c2b068fc378daa952ba7f163c4a11628f55a4df523b3ef9060200160405180910390a35050565b6001600160a01b038316620005045760405162461bcd60e51b8152602060048201526024808201527f45524332303a20617070726f76652066726f6d20746865207a65726f206164646044820152637265737360e01b60648201526084016200040a565b6001600160a01b038216620005675760405162461bcd60e51b815260206004820152602260248201527f45524332303a20617070726f766520746f20746865207a65726f206164647265604482015261737360f01b60648201526084016200040a565b6001600160a01b0383811660008181526001602090815260408083209487168084529482529182902085905590518481527f8c5be1e5ebec7d5bd14f71427d1e84f3dd0314c0f7b2291e5b200ac8c7c3b925910160405180910390a3505050565b505050565b634e487b7160e01b600052604160045260246000fd5b600181811c90821680620005f857607f821691505b6020821081036200061957634e487b7160e01b600052602260045260246000fd5b50919050565b601f821115620005c857600081815260208120601f850160051c81016020861015620006485750805b601f850160051c820191505b81811015620006695782815560010162000654565b505050505050565b81516001600160401b038111156200068d576200068d620005cd565b620006a5816200069e8454620005e3565b846200061f565b602080601f831160018114620006dd5760008415620006c45750858301515b600019600386901b1c1916600185901b17855562000669565b600085815260208120601f198616915b828110156200070e57888601518255948401946001909101908401620006ed565b50858210156200072d5787850151600019600388901b60f8161c191681555b5050505050600190811b01905550565b6000602082840312156200075057600080fd5b81516001600160a01b03811681146200076857600080fd5b9392505050565b600082198211156200079157634e487b7160e01b600052601160045260246000fd5b500190565b61208380620007a66000396000f3fe6080604052600436106101985760003560e01c806303fd2a45146101a45780630445b667146101e157806306fdde03146102055780630758d92414610227578063095ea7b31461024757806318160ddd146102775780631c06a7e11461028c5780631e293c10146102e157806323b872dd1461030357806327a14fc214610323578063313ce5671461034357806332cde6641461035f578063395093511461037f57806339d915f11461039f57806342966c68146103bf578063452ed4f1146103df5780635342acb4146103ff578063578aaa00146104385780635932959c146104585780636f3433d41461047857806370a0823114610498578063893d20e8146104b85780638a8c523c146104d65780638da5cb5b146104eb57806395d89b411461050b5780639d0014b114610520578063a457c2d714610540578063a9059cbb14610560578063adb3b63514610580578063b62496f5146105a0578063c6aca36b146105d0578063dd62ed3e146105f0578063df8408fe14610610578063f2fde38b14610630578063f36f79e01461065057600080fd5b3661019f57005b600080fd5b3480156101b057600080fd5b506006546101c4906001600160a01b031681565b6040516001600160a01b0390911681526020015b60405180910390f35b3480156101ed57600080fd5b506101f7600e5481565b6040519081526020016101d8565b34801561021157600080fd5b5061021a610670565b6040516101d89190611c24565b34801561023357600080fd5b50601b546101c4906001600160a01b031681565b34801561025357600080fd5b50610267610262366004611c91565b610702565b60405190151581526020016101d8565b34801561028357600080fd5b506002546101f7565b34801561029857600080fd5b50601c546102bc9061ffff80821691620100008104821691600160201b9091041683565b6040805161ffff948516815292841660208401529216918101919091526060016101d8565b3480156102ed57600080fd5b506103016102fc366004611cbd565b61071a565b005b34801561030f57600080fd5b5061026761031e366004611cd6565b610752565b34801561032f57600080fd5b5061030161033e366004611cbd565b610776565b34801561034f57600080fd5b50604051600881526020016101d8565b34801561036b57600080fd5b5061030161037a366004611d2e565b6107a5565b34801561038b57600080fd5b5061026761039a366004611c91565b61094a565b3480156103ab57600080fd5b50600b546101c4906001600160a01b031681565b3480156103cb57600080fd5b506103016103da366004611cbd565b61096c565b3480156103eb57600080fd5b506007546101c4906001600160a01b031681565b34801561040b57600080fd5b5061026761041a366004611d71565b6001600160a01b031660009081526019602052604090205460ff1690565b34801561044457600080fd5b50600d546101c4906001600160a01b031681565b34801561046457600080fd5b506009546101c4906001600160a01b031681565b34801561048457600080fd5b50600a546101c4906001600160a01b031681565b3480156104a457600080fd5b506101f76104b3366004611d71565b610a1e565b3480156104c457600080fd5b506005546001600160a01b03166101c4565b3480156104e257600080fd5b50610301610a39565b3480156104f757600080fd5b506005546101c4906001600160a01b031681565b34801561051757600080fd5b5061021a610acc565b34801561052c57600080fd5b5061030161053b366004611cbd565b610adb565b34801561054c57600080fd5b5061026761055b366004611c91565b610b0a565b34801561056c57600080fd5b5061026761057b366004611c91565b610b85565b34801561058c57600080fd5b50600c546101c4906001600160a01b031681565b3480156105ac57600080fd5b506102676105bb366004611d71565b601a6020526000908152604090205460ff1681565b3480156105dc57600080fd5b506103016105eb366004611cbd565b610b93565b3480156105fc57600080fd5b506101f761060b366004611d95565b610bca565b34801561061c57600080fd5b5061030161062b366004611ddc565b610bf5565b34801561063c57600080fd5b5061030161064b366004611d71565b610c4a565b34801561065c57600080fd5b506008546101c4906001600160a01b031681565b60606003805461067f90611e0a565b80601f01602080910402602001604051908101604052809291908181526020018280546106ab90611e0a565b80156106f85780601f106106cd576101008083540402835291602001916106f8565b820191906000526020600020905b8154815290600101906020018083116106db57829003601f168201915b5050505050905090565b600033610710818585610c96565b5060019392505050565b6005546001600160a01b0316331461074d5760405162461bcd60e51b815260040161074490611e44565b60405180910390fd5b601755565b600033610760858285610dba565b61076b858585610e2e565b506001949350505050565b6005546001600160a01b031633146107a05760405162461bcd60e51b815260040161074490611e44565b601055565b6005546001600160a01b031633146107cf5760405162461bcd60e51b815260040161074490611e44565b610bb88361ffff1611156108145760405162461bcd60e51b815260206004820152600c60248201526b4d415820425559204645455360a01b6044820152606401610744565b610bb88261ffff16111561085a5760405162461bcd60e51b815260206004820152600d60248201526c4d41582053454c4c204645455360981b6044820152606401610744565b610bb88161ffff1611156108a45760405162461bcd60e51b81526020600482015260116024820152704d4158205452414e53464552204645455360781b6044820152606401610744565b610bb8816108b28486611e8f565b6108bc9190611e8f565b61ffff16111561090d5760405162461bcd60e51b815260206004820152601c60248201527b4d4158204255592c2053454c4c2c205452414e53464552204645455360201b6044820152606401610744565b601c805461ffff94851663ffffffff199091161762010000938516939093029290921761ffff60201b1916600160201b9190931602919091179055565b60003361071081858561095d8383610bca565b6109679190611eb5565b610c96565b61097533610a1e565b8111156109dc5760405162461bcd60e51b815260206004820152602f60248201527f4275726e20616d6f756e742073686f756c64206265206c657373207468616e2060448201526e6163636f756e742062616c616e636560881b6064820152608401610744565b6109e63382610ef1565b60405181815233907fcc16f5dbb4873280815c1ee09dbd06736cffcc184412cf7a71a0fdb75d397ca59060200160405180910390a250565b6001600160a01b031660009081526020819052604090205490565b6005546001600160a01b03163314610a635760405162461bcd60e51b815260040161074490611e44565b601854610100900460ff1615610abb5760405162461bcd60e51b815260206004820152601e60248201527f54726164696e67456e61626c656420616c7265616479206163746976656400006044820152606401610744565b6018805461ff001916610100179055565b60606004805461067f90611e0a565b6005546001600160a01b03163314610b055760405162461bcd60e51b815260040161074490611e44565b600e55565b60003381610b188286610bca565b905083811015610b785760405162461bcd60e51b815260206004820152602560248201527f45524332303a2064656372656173656420616c6c6f77616e63652062656c6f77604482015264207a65726f60d81b6064820152608401610744565b61076b8286868403610c96565b600033610710818585610e2e565b6000610ba0600283611ecd565b905047610bac8261102d565b6000610bb88247611eef565b9050610bc48382611190565b50505050565b6001600160a01b03918216600090815260016020908152604080832093909416825291909152205490565b6005546001600160a01b03163314610c1f5760405162461bcd60e51b815260040161074490611e44565b6001600160a01b03919091166000908152601960205260409020805460ff1916911515919091179055565b6005546001600160a01b03163314610c745760405162461bcd60e51b815260040161074490611e44565b600580546001600160a01b0319166001600160a01b0392909216919091179055565b6001600160a01b038316610cf85760405162461bcd60e51b8152602060048201526024808201527f45524332303a20617070726f76652066726f6d20746865207a65726f206164646044820152637265737360e01b6064820152608401610744565b6001600160a01b038216610d595760405162461bcd60e51b815260206004820152602260248201527f45524332303a20617070726f766520746f20746865207a65726f206164647265604482015261737360f01b6064820152608401610744565b6001600160a01b0383811660008181526001602090815260408083209487168084529482529182902085905590518481527f8c5be1e5ebec7d5bd14f71427d1e84f3dd0314c0f7b2291e5b200ac8c7c3b925910160405180910390a3505050565b6000610dc68484610bca565b90506000198114610bc45781811015610e215760405162461bcd60e51b815260206004820152601d60248201527f45524332303a20696e73756666696369656e7420616c6c6f77616e63650000006044820152606401610744565b610bc48484848403610c96565b610e39838383611273565b60185460ff1615610e5457610e4f8383836115e7565b505050565b610e5e83836117a3565b15610ee6576000610e6e30610a1e565b9050610ec6600f54601554601454601354601254601154610e8f9190611eb5565b610e999190611eb5565b610ea39190611eb5565b610ead9190611eb5565b610eb79084611f06565b610ec19190611ecd565b611853565b610ee4600f5460165483610eda9190611f06565b6105eb9190611ecd565b505b610e4f838383611ae8565b6001600160a01b038216610f515760405162461bcd60e51b815260206004820152602160248201527f45524332303a206275726e2066726f6d20746865207a65726f206164647265736044820152607360f81b6064820152608401610744565b6001600160a01b03821660009081526020819052604090205481811015610fc55760405162461bcd60e51b815260206004820152602260248201527f45524332303a206275726e20616d6f756e7420657863656564732062616c616e604482015261636560f01b6064820152608401610744565b6001600160a01b0383166000908152602081905260408120838303905560028054849290610ff4908490611eef565b90915550506040518281526000906001600160a01b0385169060008051602061202e8339815191529060200160405180910390a3505050565b604080516002808252606082018352600092602083019080368337019050509050308160008151811061106257611062611f25565b6001600160a01b03928316602091820292909201810191909152601b54604080516315ab88c960e31b81529051919093169263ad5c46489260048083019391928290030181865afa1580156110bb573d6000803e3d6000fd5b505050506040513d601f19601f820116820180604052508101906110df9190611f3b565b816001815181106110f2576110f2611f25565b6001600160a01b039283166020918202929092010152601b546111189130911684610c96565b601b546001600160a01b031663791ac947836000843061113a426103e8611eb5565b6040518663ffffffff1660e01b815260040161115a959493929190611f58565b600060405180830381600087803b15801561117457600080fd5b505af1158015611188573d6000803e3d6000fd5b505050505050565b601b546111aa9030906001600160a01b0316600019610c96565b601b546005546001600160a01b039182169163f305d719918491309187916000918291166111da42612710611eb5565b60405160e089901b6001600160e01b03191681526001600160a01b039687166004820152602481019590955260448501939093526064840191909152909216608482015260a481019190915260c40160606040518083038185885af1158015611247573d6000803e3d6000fd5b50505050506040513d601f19601f8201168201806040525081019061126c9190611fc9565b5050505050565b6001600160a01b0383166112df5760405162461bcd60e51b815260206004820152602d60248201527f45524332303a207472616e736665722066726f6d20746865205a45524f5f414460448201526c4452455353206164647265737360981b6064820152608401610744565b6001600160a01b0382166113495760405162461bcd60e51b815260206004820152602b60248201527f45524332303a207472616e7366657220746f20746865205a45524f5f4144445260448201526a455353206164647265737360a81b6064820152608401610744565b600081116113b35760405162461bcd60e51b815260206004820152603160248201527f5472616e7366657220616d6f756e74206d7573742062652067726561746572206044820152707468616e205a45524f5f4144445245535360781b6064820152608401610744565b6005546001600160a01b038481169116148015906113df57506005546001600160a01b03838116911614155b80156113f357506001600160a01b03821615155b801561140a57506001600160a01b03821661dead14155b8015611419575060185460ff16155b15610e4f57601854610100900460ff1661146a5760405162461bcd60e51b815260206004820152601260248201527154726164696e67206e6f742061637469766560701b6044820152606401610744565b6001600160a01b0383166000908152601a602052604090205460ff1615611555576017548111156114fb5760405162461bcd60e51b815260206004820152603560248201527f427579207472616e7366657220616d6f756e742065786365656473207468652060448201527436b0bc2a3930b739b0b1ba34b7b720b6b7bab73a1760591b6064820152608401610744565b60105461150783610a1e565b6115119083611eb5565b1115610e4f5760405162461bcd60e51b815260206004820152601360248201527213585e081dd85b1b195d08195e18d959591959606a1b6044820152606401610744565b6001600160a01b0382166000908152601a602052604090205460ff16156114fb57601754811115610e4f5760405162461bcd60e51b815260206004820152603660248201527f53656c6c207472616e7366657220616d6f756e742065786365656473207468656044820152751036b0bc2a3930b739b0b1ba34b7b720b6b7bab73a1760511b6064820152608401610744565b6001600160a01b03831661164b5760405162461bcd60e51b815260206004820152602560248201527f45524332303a207472616e736665722066726f6d20746865207a65726f206164604482015264647265737360d81b6064820152608401610744565b6001600160a01b0382166116ad5760405162461bcd60e51b815260206004820152602360248201527f45524332303a207472616e7366657220746f20746865207a65726f206164647260448201526265737360e81b6064820152608401610744565b6001600160a01b038316600090815260208190526040902054818110156117255760405162461bcd60e51b815260206004820152602660248201527f45524332303a207472616e7366657220616d6f756e7420657863656564732062604482015265616c616e636560d01b6064820152608401610744565b6001600160a01b0380851660009081526020819052604080822085850390559185168152908120805484929061175c908490611eb5565b92505081905550826001600160a01b0316846001600160a01b031660008051602061202e8339815191528460405161179691815260200190565b60405180910390a3610bc4565b6000806117af30610a1e565b9050600e5481101580156117c6575060185460ff16155b80156117e057506007546001600160a01b03858116911614155b801561180157506007546000906117ff906001600160a01b0316610a1e565b115b801561182657506001600160a01b03831660009081526019602052604090205460ff16155b801561184b57506001600160a01b03841660009081526019602052604090205460ff16155b949350505050565b6040805160038082526080820190925260009160208201606080368337019050509050308160008151811061188a5761188a611f25565b6001600160a01b03928316602091820292909201810191909152601b54604080516315ab88c960e31b81529051919093169263ad5c46489260048083019391928290030181865afa1580156118e3573d6000803e3d6000fd5b505050506040513d601f19601f820116820180604052508101906119079190611f3b565b8160018151811061191a5761191a611f25565b6001600160a01b03928316602091820292909201015260085482519116908290600290811061194b5761194b611f25565b6001600160a01b039283166020918202929092010152600854601b5460405163095ea7b360e01b81529183169263095ea7b392611992929091169060001990600401611ff7565b6020604051808303816000875af11580156119b1573d6000803e3d6000fd5b505050506040513d601f19601f820116820180604052508101906119d59190612010565b50601b60009054906101000a90046001600160a01b03166001600160a01b031663ad5c46486040518163ffffffff1660e01b8152600401602060405180830381865afa158015611a29573d6000803e3d6000fd5b505050506040513d601f19601f82011682018060405250810190611a4d9190611f3b565b601b5460405163095ea7b360e01b81526001600160a01b039283169263095ea7b392611a829291169060001990600401611ff7565b6020604051808303816000875af1158015611aa1573d6000803e3d6000fd5b505050506040513d601f19601f82011682018060405250810190611ac59190612010565b50601b546001600160a01b0316635c11d795836000843061113a426103e8611eb5565b6001600160a01b03831660009081526019602052604081205482919060019060ff1680611b2d57506001600160a01b03851660009081526019602052604090205460ff165b15611b36575060005b8015611b6057611b47868686611b6b565b9150611b538285611eef565b9250611b608630846115e7565b6111888686856115e7565b6001600160a01b0383166000908152601a60205260408120548190819060ff1615611ba857601c54611ba19061ffff1683611eb5565b9150611bfb565b6001600160a01b0385166000908152601a602052604090205460ff1615611be057601c54611ba19062010000900461ffff1683611eb5565b601c54611bf890600160201b900461ffff1683611eb5565b91505b8115611c1b57600f54611c0e8386611f06565b611c189190611ecd565b90505b95945050505050565b600060208083528351808285015260005b81811015611c5157858101830151858201604001528201611c35565b81811115611c63576000604083870101525b50601f01601f1916929092016040019392505050565b6001600160a01b0381168114611c8e57600080fd5b50565b60008060408385031215611ca457600080fd5b8235611caf81611c79565b946020939093013593505050565b600060208284031215611ccf57600080fd5b5035919050565b600080600060608486031215611ceb57600080fd5b8335611cf681611c79565b92506020840135611d0681611c79565b929592945050506040919091013590565b803561ffff81168114611d2957600080fd5b919050565b600080600060608486031215611d4357600080fd5b611d4c84611d17565b9250611d5a60208501611d17565b9150611d6860408501611d17565b90509250925092565b600060208284031215611d8357600080fd5b8135611d8e81611c79565b9392505050565b60008060408385031215611da857600080fd5b8235611db381611c79565b91506020830135611dc381611c79565b809150509250929050565b8015158114611c8e57600080fd5b60008060408385031215611def57600080fd5b8235611dfa81611c79565b91506020830135611dc381611dce565b600181811c90821680611e1e57607f821691505b602082108103611e3e57634e487b7160e01b600052602260045260246000fd5b50919050565b6020808252818101527f4f776e61626c653a2063616c6c6572206973206e6f7420746865206f776e6572604082015260600190565b634e487b7160e01b600052601160045260246000fd5b600061ffff808316818516808303821115611eac57611eac611e79565b01949350505050565b60008219821115611ec857611ec8611e79565b500190565b600082611eea57634e487b7160e01b600052601260045260246000fd5b500490565b600082821015611f0157611f01611e79565b500390565b6000816000190483118215151615611f2057611f20611e79565b500290565b634e487b7160e01b600052603260045260246000fd5b600060208284031215611f4d57600080fd5b8151611d8e81611c79565b600060a082018783526020878185015260a0604085015281875180845260c086019150828901935060005b81811015611fa85784516001600160a01b031683529383019391830191600101611f83565b50506001600160a01b03969096166060850152505050608001529392505050565b600080600060608486031215611fde57600080fd5b8351925060208401519150604084015190509250925092565b6001600160a01b03929092168252602082015260400190565b60006020828403121561202257600080fd5b8151611d8e81611dce56feddf252ad1be2c89b69c2b068fc378daa952ba7f163c4a11628f55a4df523b3efa2646970667358221220a746bbbf3f528a8dc4141cbe17207f6b506721e8e7cff35143818df44db8949464736f6c634300080f0033",
  "linkReferences": {},
  "deployedLinkReferences": {}
}