{
  "_format": "hh-sol-artifact-1",
  "contractName": "CatPizza",
  "sourceName": "contracts/CatPizza.sol",
  "abi": [
    {
      "inputs": [],
      "stateMutability": "nonpayable",
      "type": "constructor"
    },
    {
      "anonymous": false,
      "inputs": [
        {
          "indexed": true,
          "internalType": "address",
          "name": "owner",
          "type": "address"
        },
        {
          "indexed": true,
          "internalType": "address",
          "name": "spender",
          "type": "address"
        },
        {
          "indexed": false,
          "internalType": "uint256",
          "name": "value",
          "type": "uint256"
        }
      ],
      "name": "Approval",
      "type": "event"
    },
    {
      "anonymous": false,
      "inputs": [
        {
          "indexed": true,
          "internalType": "address",
          "name": "sender",
          "type": "address"
        },
        {
          "indexed": false,
          "internalType": "uint256",
          "name": "amount",
          "type": "uint256"
        }
      ],
      "name": "Burn",
      "type": "event"
    },
    {
      "anonymous": false,
      "inputs": [
        {
          "indexed": true,
          "internalType": "address",
          "name": "previousOwner",
          "type": "address"
        },
        {
          "indexed": true,
          "internalType": "address",
          "name": "newOwner",
          "type": "address"
        }
      ],
      "name": "OwnershipTransferred",
      "type": "event"
    },
    {
      "anonymous": false,
      "inputs": [
        {
          "indexed": true,
          "internalType": "address",
          "name": "from",
          "type": "address"
        },
        {
          "indexed": true,
          "internalType": "address",
          "name": "to",
          "type": "address"
        },
        {
          "indexed": false,
          "internalType": "uint256",
          "name": "value",
          "type": "uint256"
        }
      ],
      "name": "Transfer",
      "type": "event"
    },
    {
      "inputs": [],
      "name": "DEAD",
      "outputs": [
        {
          "internalType": "address",
          "name": "",
          "type": "address"
        }
      ],
      "stateMutability": "view",
      "type": "function"
    },
    {
      "inputs": [],
      "name": "_feesRates",
      "outputs": [
        {
          "internalType": "uint16",
          "name": "buyFee",
          "type": "uint16"
        },
        {
          "internalType": "uint16",
          "name": "sellFee",
          "type": "uint16"
        },
        {
          "internalType": "uint16",
          "name": "transferFee",
          "type": "uint16"
        }
      ],
      "stateMutability": "view",
      "type": "function"
    },
    {
      "inputs": [
        {
          "internalType": "address",
          "name": "owner",
          "type": "address"
        },
        {
          "internalType": "address",
          "name": "spender",
          "type": "address"
        }
      ],
      "name": "allowance",
      "outputs": [
        {
          "internalType": "uint256",
          "name": "",
          "type": "uint256"
        }
      ],
      "stateMutability": "view",
      "type": "function"
    },
    {
      "inputs": [
        {
          "internalType": "address",
          "name": "spender",
          "type": "address"
        },
        {
          "internalType": "uint256",
          "name": "amount",
          "type": "uint256"
        }
      ],
      "name": "approve",
      "outputs": [
        {
          "internalType": "bool",
          "name": "",
          "type": "bool"
        }
      ],
      "stateMutability": "nonpayable",
      "type": "function"
    },
    {
      "inputs": [
        {
          "internalType": "uint256",
          "name": "tokenAmount",
          "type": "uint256"
        }
      ],
      "name": "autoLiquidity",
      "outputs": [],
      "stateMutability": "nonpayable",
      "type": "function"
    },
    {
      "inputs": [
        {
          "internalType": "address",
          "name": "",
          "type": "address"
        }
      ],
      "name": "automatedMarketMakerPairs",
      "outputs": [
        {
          "internalType": "bool",
          "name": "",
          "type": "bool"
        }
      ],
      "stateMutability": "view",
      "type": "function"
    },
    {
      "inputs": [
        {
          "internalType": "address",
          "name": "account",
          "type": "address"
        }
      ],
      "name": "balanceOf",
      "outputs": [
        {
          "internalType": "uint256",
          "name": "",
          "type": "uint256"
        }
      ],
      "stateMutability": "view",
      "type": "function"
    },
    {
      "inputs": [
        {
          "internalType": "address",
          "name": "to",
          "type": "address"
        },
        {
          "internalType": "uint256",
          "name": "amount",
          "type": "uint256"
        }
      ],
      "name": "burn",
      "outputs": [],
      "stateMutability": "nonpayable",
      "type": "function"
    },
    {
      "inputs": [],
      "name": "decimals",
      "outputs": [
        {
          "internalType": "uint8",
          "name": "",
          "type": "uint8"
        }
      ],
      "stateMutability": "view",
      "type": "function"
    },
    {
      "inputs": [
        {
          "internalType": "address",
          "name": "spender",
          "type": "address"
        },
        {
          "internalType": "uint256",
          "name": "subtractedValue",
          "type": "uint256"
        }
      ],
      "name": "decreaseAllowance",
      "outputs": [
        {
          "internalType": "bool",
          "name": "",
          "type": "bool"
        }
      ],
      "stateMutability": "nonpayable",
      "type": "function"
    },
    {
      "inputs": [],
      "name": "dexRouter",
      "outputs": [
        {
          "internalType": "contract IUniswapV2Router02",
          "name": "",
          "type": "address"
        }
      ],
      "stateMutability": "view",
      "type": "function"
    },
    {
      "inputs": [
        {
          "internalType": "bool",
          "name": "value",
          "type": "bool"
        }
      ],
      "name": "enableTrading",
      "outputs": [],
      "stateMutability": "nonpayable",
      "type": "function"
    },
    {
      "inputs": [
        {
          "internalType": "address",
          "name": "account",
          "type": "address"
        },
        {
          "internalType": "bool",
          "name": "val",
          "type": "bool"
        }
      ],
      "name": "excludeFromFee",
      "outputs": [],
      "stateMutability": "nonpayable",
      "type": "function"
    },
    {
      "inputs": [],
      "name": "getOwner",
      "outputs": [
        {
          "internalType": "address",
          "name": "",
          "type": "address"
        }
      ],
      "stateMutability": "view",
      "type": "function"
    },
    {
      "inputs": [
        {
          "internalType": "address",
          "name": "spender",
          "type": "address"
        },
        {
          "internalType": "uint256",
          "name": "addedValue",
          "type": "uint256"
        }
      ],
      "name": "increaseAllowance",
      "outputs": [
        {
          "internalType": "bool",
          "name": "",
          "type": "bool"
        }
      ],
      "stateMutability": "nonpayable",
      "type": "function"
    },
    {
      "inputs": [
        {
          "internalType": "address",
          "name": "account",
          "type": "address"
        }
      ],
      "name": "isExcludedFromFee",
      "outputs": [
        {
          "internalType": "bool",
          "name": "",
          "type": "bool"
        }
      ],
      "stateMutability": "view",
      "type": "function"
    },
    {
      "inputs": [],
      "name": "lpPair",
      "outputs": [
        {
          "internalType": "address",
          "name": "",
          "type": "address"
        }
      ],
      "stateMutability": "view",
      "type": "function"
    },
    {
      "inputs": [],
      "name": "marketingAddress",
      "outputs": [
        {
          "internalType": "address",
          "name": "",
          "type": "address"
        }
      ],
      "stateMutability": "view",
      "type": "function"
    },
    {
      "inputs": [],
      "name": "name",
      "outputs": [
        {
          "internalType": "string",
          "name": "",
          "type": "string"
        }
      ],
      "stateMutability": "view",
      "type": "function"
    },
    {
      "inputs": [],
      "name": "owner",
      "outputs": [
        {
          "internalType": "address",
          "name": "",
          "type": "address"
        }
      ],
      "stateMutability": "view",
      "type": "function"
    },
    {
      "inputs": [
        {
          "internalType": "address",
          "name": "account",
          "type": "address"
        }
      ],
      "name": "setMarketingAddress",
      "outputs": [],
      "stateMutability": "nonpayable",
      "type": "function"
    },
    {
      "inputs": [
        {
          "internalType": "uint256",
          "name": "value",
          "type": "uint256"
        }
      ],
      "name": "setSwapThreshold",
      "outputs": [],
      "stateMutability": "nonpayable",
      "type": "function"
    },
    {
      "inputs": [
        {
          "internalType": "uint16",
          "name": "buyFee",
          "type": "uint16"
        },
        {
          "internalType": "uint16",
          "name": "sellFee",
          "type": "uint16"
        },
        {
          "internalType": "uint16",
          "name": "transferFee",
          "type": "uint16"
        }
      ],
      "name": "setTaxes",
      "outputs": [],
      "stateMutability": "nonpayable",
      "type": "function"
    },
    {
      "inputs": [],
      "name": "swapThreshold",
      "outputs": [
        {
          "internalType": "uint256",
          "name": "",
          "type": "uint256"
        }
      ],
      "stateMutability": "view",
      "type": "function"
    },
    {
      "inputs": [],
      "name": "swapTokenAddress",
      "outputs": [
        {
          "internalType": "address",
          "name": "",
          "type": "address"
        }
      ],
      "stateMutability": "view",
      "type": "function"
    },
    {
      "inputs": [],
      "name": "symbol",
      "outputs": [
        {
          "internalType": "string",
          "name": "",
          "type": "string"
        }
      ],
      "stateMutability": "view",
      "type": "function"
    },
    {
      "inputs": [],
      "name": "totalSupply",
      "outputs": [
        {
          "internalType": "uint256",
          "name": "",
          "type": "uint256"
        }
      ],
      "stateMutability": "view",
      "type": "function"
    },
    {
      "inputs": [],
      "name": "tradingActive",
      "outputs": [
        {
          "internalType": "bool",
          "name": "",
          "type": "bool"
        }
      ],
      "stateMutability": "view",
      "type": "function"
    },
    {
      "inputs": [
        {
          "internalType": "address",
          "name": "to",
          "type": "address"
        },
        {
          "internalType": "uint256",
          "name": "amount",
          "type": "uint256"
        }
      ],
      "name": "transfer",
      "outputs": [
        {
          "internalType": "bool",
          "name": "",
          "type": "bool"
        }
      ],
      "stateMutability": "nonpayable",
      "type": "function"
    },
    {
      "inputs": [
        {
          "internalType": "address",
          "name": "from",
          "type": "address"
        },
        {
          "internalType": "address",
          "name": "to",
          "type": "address"
        },
        {
          "internalType": "uint256",
          "name": "amount",
          "type": "uint256"
        }
      ],
      "name": "transferFrom",
      "outputs": [
        {
          "internalType": "bool",
          "name": "",
          "type": "bool"
        }
      ],
      "stateMutability": "nonpayable",
      "type": "function"
    },
    {
      "inputs": [
        {
          "internalType": "address",
          "name": "account",
          "type": "address"
        }
      ],
      "name": "transferOwnership",
      "outputs": [],
      "stateMutability": "nonpayable",
      "type": "function"
    },
    {
      "inputs": [
        {
          "internalType": "bool",
          "name": "newValue",
          "type": "bool"
        }
      ],
      "name": "updateTradingEnable",
      "outputs": [],
      "stateMutability": "nonpayable",
      "type": "function"
    },
    {
      "stateMutability": "payable",
      "type": "receive"
    }
  ],
  "bytecode": "0x60806040523480156200001157600080fd5b50604080518082018252600881526743617450697a7a6160c01b6020808301918252835180850190945260048452630436174560e41b9084015281519192916200005e91600391620003f3565b50805162000074906004906020840190620003f3565b50505062000094336a52b7d2dcc80cd2e4000000620001e260201b60201c565b600580546001600160a01b031990811633908117909255600980548216736644ebde0f26c8f74ad18697cce8a5ac4e608cb41781556040805160608101825261012c80825260208083019190915260009183018290526011805465ffffffffffff191663012c012c1790556008805486167378867bbeef44f2326bf8ddd1941a4439382ef2a7179055858252600e9052818120805460ff199081166001908117909255308352838320805482168317905593546001600160a01b031682529190208054909216179055600d805461ff00191661010017905569d3c21bcecceda1000000600a5560108054909116739ac64cc6e4415144c455bd8e4837fea55603e5c390811790915590620001ac9082600019620002cb565b620001bb3082600019620002cb565b50600680546001600160a01b03191661dead179055600019600b55612710600c55620004fc565b6001600160a01b0382166200023e5760405162461bcd60e51b815260206004820152601f60248201527f45524332303a206d696e7420746f20746865207a65726f20616464726573730060448201526064015b60405180910390fd5b806002600082825462000252919062000499565b90915550506001600160a01b038216600090815260208190526040812080548392906200028190849062000499565b90915550506040518181526001600160a01b038316906000907fddf252ad1be2c89b69c2b068fc378daa952ba7f163c4a11628f55a4df523b3ef9060200160405180910390a35050565b6001600160a01b0383166200032f5760405162461bcd60e51b8152602060048201526024808201527f45524332303a20617070726f76652066726f6d20746865207a65726f206164646044820152637265737360e01b606482015260840162000235565b6001600160a01b038216620003925760405162461bcd60e51b815260206004820152602260248201527f45524332303a20617070726f766520746f20746865207a65726f206164647265604482015261737360f01b606482015260840162000235565b6001600160a01b0383811660008181526001602090815260408083209487168084529482529182902085905590518481527f8c5be1e5ebec7d5bd14f71427d1e84f3dd0314c0f7b2291e5b200ac8c7c3b925910160405180910390a3505050565b8280546200040190620004c0565b90600052602060002090601f01602090048101928262000425576000855562000470565b82601f106200044057805160ff191683800117855562000470565b8280016001018555821562000470579182015b828111156200047057825182559160200191906001019062000453565b506200047e92915062000482565b5090565b5b808211156200047e576000815560010162000483565b60008219821115620004bb57634e487b7160e01b600052601160045260246000fd5b500190565b600181811c90821680620004d557607f821691505b602082108103620004f657634e487b7160e01b600052602260045260246000fd5b50919050565b611c38806200050c6000396000f3fe6080604052600436106101775760003560e01c806303fd2a45146101835780630445b667146101c057806306fdde03146101e45780630758d92414610206578063095ea7b31461022657806318160ddd146102565780631c06a7e11461026b57806323b872dd146102c057806324d993aa146102e0578063313ce5671461030257806332cde6641461031e578063395093511461033e578063452ed4f11461035e5780635342acb41461037e57806370a08231146103b7578063893d20e8146103d75780638da5cb5b146103f5578063906e9dd01461041557806395d89b41146104355780639d0014b11461044a5780639dc29fac1461046a578063a457c2d71461048a578063a5ece941146104aa578063a9059cbb146104ca578063b62496f5146104ea578063bbc0c7421461051a578063c6aca36b14610539578063dd62ed3e14610559578063df8408fe14610579578063f275f64b146102e0578063f2fde38b14610599578063f36f79e0146105b957600080fd5b3661017e57005b600080fd5b34801561018f57600080fd5b506006546101a3906001600160a01b031681565b6040516001600160a01b0390911681526020015b60405180910390f35b3480156101cc57600080fd5b506101d6600a5481565b6040519081526020016101b7565b3480156101f057600080fd5b506101f96105d9565b6040516101b79190611802565b34801561021257600080fd5b506010546101a3906001600160a01b031681565b34801561023257600080fd5b5061024661024136600461186f565b61066b565b60405190151581526020016101b7565b34801561026257600080fd5b506002546101d6565b34801561027757600080fd5b5060115461029b9061ffff80821691620100008104821691600160201b9091041683565b6040805161ffff948516815292841660208401529216918101919091526060016101b7565b3480156102cc57600080fd5b506102466102db36600461189b565b610683565b3480156102ec57600080fd5b506103006102fb3660046118ea565b6106a7565b005b34801561030e57600080fd5b50604051601281526020016101b7565b34801561032a57600080fd5b5061030061033936600461191e565b6106f4565b34801561034a57600080fd5b5061024661035936600461186f565b61075b565b34801561036a57600080fd5b506007546101a3906001600160a01b031681565b34801561038a57600080fd5b50610246610399366004611961565b6001600160a01b03166000908152600e602052604090205460ff1690565b3480156103c357600080fd5b506101d66103d2366004611961565b61077d565b3480156103e357600080fd5b506005546001600160a01b03166101a3565b34801561040157600080fd5b506005546101a3906001600160a01b031681565b34801561042157600080fd5b50610300610430366004611961565b610798565b34801561044157600080fd5b506101f96107e4565b34801561045657600080fd5b5061030061046536600461197e565b6107f3565b34801561047657600080fd5b5061030061048536600461186f565b610822565b34801561049657600080fd5b506102466104a536600461186f565b61096d565b3480156104b657600080fd5b506009546101a3906001600160a01b031681565b3480156104d657600080fd5b506102466104e536600461186f565b6109e8565b3480156104f657600080fd5b50610246610505366004611961565b600f6020526000908152604090205460ff1681565b34801561052657600080fd5b50600d5461024690610100900460ff1681565b34801561054557600080fd5b5061030061055436600461197e565b6109f6565b34801561056557600080fd5b506101d6610574366004611997565b610a3c565b34801561058557600080fd5b506103006105943660046119d0565b610a67565b3480156105a557600080fd5b506103006105b4366004611961565b610abc565b3480156105c557600080fd5b506008546101a3906001600160a01b031681565b6060600380546105e8906119fe565b80601f0160208091040260200160405190810160405280929190818152602001828054610614906119fe565b80156106615780601f1061063657610100808354040283529160200191610661565b820191906000526020600020905b81548152906001019060200180831161064457829003601f168201915b5050505050905090565b600033610679818585610b08565b5060019392505050565b600033610691858285610c2c565b61069c858585610ca6565b506001949350505050565b6005546001600160a01b031633146106da5760405162461bcd60e51b81526004016106d190611a38565b60405180910390fd5b600d80549115156101000261ff0019909216919091179055565b6005546001600160a01b0316331461071e5760405162461bcd60e51b81526004016106d190611a38565b6011805461ffff94851663ffffffff199091161762010000938516939093029290921761ffff60201b1916600160201b9190931602919091179055565b60003361067981858561076e8383610a3c565b6107789190611a83565b610b08565b6001600160a01b031660009081526020819052604090205490565b6005546001600160a01b031633146107c25760405162461bcd60e51b81526004016106d190611a38565b600980546001600160a01b0319166001600160a01b0392909216919091179055565b6060600480546105e8906119fe565b6005546001600160a01b0316331461081d5760405162461bcd60e51b81526004016106d190611a38565b600a55565b336001600160a01b038316146108ac57600061083e8333610a3c565b905060001981146108aa57818110156108aa5760405162461bcd60e51b815260206004820152602860248201527f45524332303a207472616e7366657220616d6f756e74206578636565647320616044820152676c6c6f77616e636560c01b60648201526084016106d1565b505b6108b58261077d565b81111561091c5760405162461bcd60e51b815260206004820152602f60248201527f4275726e20616d6f756e742073686f756c64206265206c657373207468616e2060448201526e6163636f756e742062616c616e636560881b60648201526084016106d1565b6109268282610cee565b816001600160a01b03167fcc16f5dbb4873280815c1ee09dbd06736cffcc184412cf7a71a0fdb75d397ca58260405161096191815260200190565b60405180910390a25050565b6000338161097b8286610a3c565b9050838110156109db5760405162461bcd60e51b815260206004820152602560248201527f45524332303a2064656372656173656420616c6c6f77616e63652062656c6f77604482015264207a65726f60d81b60648201526084016106d1565b61069c8286868403610b08565b600033610679818585610ca6565b6000610a03600283611a9b565b90506000610a118284611abd565b905047610a1d83610e2a565b6000610a298247611abd565b9050610a358382610f8d565b5050505050565b6001600160a01b03918216600090815260016020908152604080832093909416825291909152205490565b6005546001600160a01b03163314610a915760405162461bcd60e51b81526004016106d190611a38565b6001600160a01b03919091166000908152600e60205260409020805460ff1916911515919091179055565b6005546001600160a01b03163314610ae65760405162461bcd60e51b81526004016106d190611a38565b600580546001600160a01b0319166001600160a01b0392909216919091179055565b6001600160a01b038316610b6a5760405162461bcd60e51b8152602060048201526024808201527f45524332303a20617070726f76652066726f6d20746865207a65726f206164646044820152637265737360e01b60648201526084016106d1565b6001600160a01b038216610bcb5760405162461bcd60e51b815260206004820152602260248201527f45524332303a20617070726f766520746f20746865207a65726f206164647265604482015261737360f01b60648201526084016106d1565b6001600160a01b0383811660008181526001602090815260408083209487168084529482529182902085905590518481527f8c5be1e5ebec7d5bd14f71427d1e84f3dd0314c0f7b2291e5b200ac8c7c3b925910160405180910390a3505050565b6000610c388484610a3c565b90506000198114610ca05781811015610c935760405162461bcd60e51b815260206004820152601d60248201527f45524332303a20696e73756666696369656e7420616c6c6f77616e636500000060448201526064016106d1565b610ca08484848403610b08565b50505050565b610cb1838383611067565b600d5460ff1615610ccc57610cc7838383611208565b505050565b610cd683836113c4565b15610ce357610ce3611474565b610cc78383836114e1565b6001600160a01b038216610d4e5760405162461bcd60e51b815260206004820152602160248201527f45524332303a206275726e2066726f6d20746865207a65726f206164647265736044820152607360f81b60648201526084016106d1565b6001600160a01b03821660009081526020819052604090205481811015610dc25760405162461bcd60e51b815260206004820152602260248201527f45524332303a206275726e20616d6f756e7420657863656564732062616c616e604482015261636560f01b60648201526084016106d1565b6001600160a01b0383166000908152602081905260408120838303905560028054849290610df1908490611abd565b90915550506040518281526000906001600160a01b03851690600080516020611be38339815191529060200160405180910390a3505050565b6040805160028082526060820183526000926020830190803683370190505090503081600081518110610e5f57610e5f611ad4565b6001600160a01b03928316602091820292909201810191909152601054604080516315ab88c960e31b81529051919093169263ad5c46489260048083019391928290030181865afa158015610eb8573d6000803e3d6000fd5b505050506040513d601f19601f82011682018060405250810190610edc9190611aea565b81600181518110610eef57610eef611ad4565b6001600160a01b039283166020918202929092010152601054610f159130911684610b08565b6010546001600160a01b031663791ac9478360008430610f3742612710611a83565b6040518663ffffffff1660e01b8152600401610f57959493929190611b07565b600060405180830381600087803b158015610f7157600080fd5b505af1158015610f85573d6000803e3d6000fd5b505050505050565b601054610fa59030906001600160a01b031684610b08565b6010546005546001600160a01b039182169163f305d71991849130918791600091829116610fd542612710611a83565b60405160e089901b6001600160e01b03191681526001600160a01b039687166004820152602481019590955260448501939093526064840191909152909216608482015260a481019190915260c40160606040518083038185885af1158015611042573d6000803e3d6000fd5b50505050506040513d601f19601f82011682018060405250810190610a359190611b78565b6001600160a01b0383166110d35760405162461bcd60e51b815260206004820152602d60248201527f45524332303a207472616e736665722066726f6d20746865205a45524f5f414460448201526c4452455353206164647265737360981b60648201526084016106d1565b6001600160a01b03821661113d5760405162461bcd60e51b815260206004820152602b60248201527f45524332303a207472616e7366657220746f20746865205a45524f5f4144445260448201526a455353206164647265737360a81b60648201526084016106d1565b600081116111a75760405162461bcd60e51b815260206004820152603160248201527f5472616e7366657220616d6f756e74206d7573742062652067726561746572206044820152707468616e205a45524f5f4144445245535360781b60648201526084016106d1565b6111b1838361156a565b15610cc757600d54610100900460ff16610cc75760405162461bcd60e51b815260206004820152601860248201527754726164696e67206e6f742079657420656e61626c65642160401b60448201526064016106d1565b6001600160a01b03831661126c5760405162461bcd60e51b815260206004820152602560248201527f45524332303a207472616e736665722066726f6d20746865207a65726f206164604482015264647265737360d81b60648201526084016106d1565b6001600160a01b0382166112ce5760405162461bcd60e51b815260206004820152602360248201527f45524332303a207472616e7366657220746f20746865207a65726f206164647260448201526265737360e81b60648201526084016106d1565b6001600160a01b038316600090815260208190526040902054818110156113465760405162461bcd60e51b815260206004820152602660248201527f45524332303a207472616e7366657220616d6f756e7420657863656564732062604482015265616c616e636560d01b60648201526084016106d1565b6001600160a01b0380851660009081526020819052604080822085850390559185168152908120805484929061137d908490611a83565b92505081905550826001600160a01b0316846001600160a01b0316600080516020611be3833981519152846040516113b791815260200190565b60405180910390a3610ca0565b6000806113d03061077d565b9050600a5481101580156113e75750600d5460ff16155b801561140157506007546001600160a01b03858116911614155b80156114225750600754600090611420906001600160a01b031661077d565b115b801561144757506001600160a01b0383166000908152600e602052604090205460ff16155b801561146c57506001600160a01b0384166000908152600e602052604090205460ff16155b949350505050565b600d805460ff19166001179055600061148c3061077d565b600c54909150611b5890610bb8906114b7906114a88486611ba6565b6114b29190611a9b565b6115fa565b600c546114d2906114c88386611ba6565b6105549190611a9b565b5050600d805460ff1916905550565b6001600160a01b0383166000908152600e602052604081205482919060019060ff168061152657506001600160a01b0385166000908152600e602052604090205460ff165b1561152f575060005b801561155f576115408686866116bc565b9150811561155f576115528285611abd565b925061155f863084611208565b610f85868685611208565b6005546000906001600160a01b0384811691161480159061159957506005546001600160a01b03838116911614155b80156115b057506005546001600160a01b03163214155b80156115ca57506006546001600160a01b03838116911614155b80156115de57506001600160a01b03821615155b80156115f357506001600160a01b0383163014155b9392505050565b6008546000906116149030906001600160a01b0316611775565b60085460105460405163095ea7b360e01b81526001600160a01b03918216600482015260248101869052929350169063095ea7b3906044016020604051808303816000875af115801561166b573d6000803e3d6000fd5b505050506040513d601f19601f8201168201806040525081019061168f9190611bc5565b506010546009546001600160a01b0391821691635c11d795918591600091869116610f3742612710611a83565b6001600160a01b0383166000908152600f60205260408120548190819060ff16156116f9576011546116f29061ffff1683611a83565b915061174c565b6001600160a01b0385166000908152600f602052604090205460ff1615611731576011546116f29062010000900461ffff1683611a83565b60115461174990600160201b900461ffff1683611a83565b91505b811561176c57600c5461175f8386611ba6565b6117699190611a9b565b90505b95945050505050565b6040805160028082526060808301845292600092919060208301908036833701905050905083816000815181106117ae576117ae611ad4565b60200260200101906001600160a01b031690816001600160a01b03168152505082816001815181106117e2576117e2611ad4565b6001600160a01b0390921660209283029190910190910152905092915050565b600060208083528351808285015260005b8181101561182f57858101830151858201604001528201611813565b81811115611841576000604083870101525b50601f01601f1916929092016040019392505050565b6001600160a01b038116811461186c57600080fd5b50565b6000806040838503121561188257600080fd5b823561188d81611857565b946020939093013593505050565b6000806000606084860312156118b057600080fd5b83356118bb81611857565b925060208401356118cb81611857565b929592945050506040919091013590565b801515811461186c57600080fd5b6000602082840312156118fc57600080fd5b81356115f3816118dc565b803561ffff8116811461191957600080fd5b919050565b60008060006060848603121561193357600080fd5b61193c84611907565b925061194a60208501611907565b915061195860408501611907565b90509250925092565b60006020828403121561197357600080fd5b81356115f381611857565b60006020828403121561199057600080fd5b5035919050565b600080604083850312156119aa57600080fd5b82356119b581611857565b915060208301356119c581611857565b809150509250929050565b600080604083850312156119e357600080fd5b82356119ee81611857565b915060208301356119c5816118dc565b600181811c90821680611a1257607f821691505b602082108103611a3257634e487b7160e01b600052602260045260246000fd5b50919050565b6020808252818101527f4f776e61626c653a2063616c6c6572206973206e6f7420746865206f776e6572604082015260600190565b634e487b7160e01b600052601160045260246000fd5b60008219821115611a9657611a96611a6d565b500190565b600082611ab857634e487b7160e01b600052601260045260246000fd5b500490565b600082821015611acf57611acf611a6d565b500390565b634e487b7160e01b600052603260045260246000fd5b600060208284031215611afc57600080fd5b81516115f381611857565b600060a082018783526020878185015260a0604085015281875180845260c086019150828901935060005b81811015611b575784516001600160a01b031683529383019391830191600101611b32565b50506001600160a01b03969096166060850152505050608001529392505050565b600080600060608486031215611b8d57600080fd5b8351925060208401519150604084015190509250925092565b6000816000190483118215151615611bc057611bc0611a6d565b500290565b600060208284031215611bd757600080fd5b81516115f3816118dc56feddf252ad1be2c89b69c2b068fc378daa952ba7f163c4a11628f55a4df523b3efa264697066735822122065a4d5e7096ec534e8140efc4a48700b8e7917808724c1c5bfb6f1e01478fa3b64736f6c634300080d0033",
  "linkReferences": {},
  "deployedLinkReferences": {}
}