{
  "_format": "hh-sol-artifact-1",
  "contractName": "MetaStock",
  "sourceName": "contracts/MetaStock.sol",
  "abi": [
    {
      "inputs": [],
      "stateMutability": "nonpayable",
      "type": "constructor"
    },
    {
      "anonymous": false,
      "inputs": [
        {
          "indexed": true,
          "internalType": "address",
          "name": "owner",
          "type": "address"
        },
        {
          "indexed": true,
          "internalType": "address",
          "name": "spender",
          "type": "address"
        },
        {
          "indexed": false,
          "internalType": "uint256",
          "name": "value",
          "type": "uint256"
        }
      ],
      "name": "Approval",
      "type": "event"
    },
    {
      "anonymous": false,
      "inputs": [
        {
          "indexed": true,
          "internalType": "address",
          "name": "sender",
          "type": "address"
        },
        {
          "indexed": false,
          "internalType": "uint256",
          "name": "amount",
          "type": "uint256"
        }
      ],
      "name": "Burn",
      "type": "event"
    },
    {
      "anonymous": false,
      "inputs": [
        {
          "indexed": true,
          "internalType": "address",
          "name": "previousOwner",
          "type": "address"
        },
        {
          "indexed": true,
          "internalType": "address",
          "name": "newOwner",
          "type": "address"
        }
      ],
      "name": "OwnershipTransferred",
      "type": "event"
    },
    {
      "anonymous": false,
      "inputs": [
        {
          "indexed": true,
          "internalType": "address",
          "name": "from",
          "type": "address"
        },
        {
          "indexed": true,
          "internalType": "address",
          "name": "to",
          "type": "address"
        },
        {
          "indexed": false,
          "internalType": "uint256",
          "name": "value",
          "type": "uint256"
        }
      ],
      "name": "Transfer",
      "type": "event"
    },
    {
      "inputs": [],
      "name": "DEAD",
      "outputs": [
        {
          "internalType": "address",
          "name": "",
          "type": "address"
        }
      ],
      "stateMutability": "view",
      "type": "function"
    },
    {
      "inputs": [],
      "name": "_feesRates",
      "outputs": [
        {
          "internalType": "uint16",
          "name": "buyFee",
          "type": "uint16"
        },
        {
          "internalType": "uint16",
          "name": "sellFee",
          "type": "uint16"
        },
        {
          "internalType": "uint16",
          "name": "transferFee",
          "type": "uint16"
        }
      ],
      "stateMutability": "view",
      "type": "function"
    },
    {
      "inputs": [
        {
          "internalType": "address",
          "name": "owner",
          "type": "address"
        },
        {
          "internalType": "address",
          "name": "spender",
          "type": "address"
        }
      ],
      "name": "allowance",
      "outputs": [
        {
          "internalType": "uint256",
          "name": "",
          "type": "uint256"
        }
      ],
      "stateMutability": "view",
      "type": "function"
    },
    {
      "inputs": [
        {
          "internalType": "address",
          "name": "spender",
          "type": "address"
        },
        {
          "internalType": "uint256",
          "name": "amount",
          "type": "uint256"
        }
      ],
      "name": "approve",
      "outputs": [
        {
          "internalType": "bool",
          "name": "",
          "type": "bool"
        }
      ],
      "stateMutability": "nonpayable",
      "type": "function"
    },
    {
      "inputs": [
        {
          "internalType": "uint256",
          "name": "tokenAmount",
          "type": "uint256"
        }
      ],
      "name": "autoLiquidity",
      "outputs": [],
      "stateMutability": "nonpayable",
      "type": "function"
    },
    {
      "inputs": [
        {
          "internalType": "address",
          "name": "",
          "type": "address"
        }
      ],
      "name": "automatedMarketMakerPairs",
      "outputs": [
        {
          "internalType": "bool",
          "name": "",
          "type": "bool"
        }
      ],
      "stateMutability": "view",
      "type": "function"
    },
    {
      "inputs": [
        {
          "internalType": "address",
          "name": "account",
          "type": "address"
        }
      ],
      "name": "balanceOf",
      "outputs": [
        {
          "internalType": "uint256",
          "name": "",
          "type": "uint256"
        }
      ],
      "stateMutability": "view",
      "type": "function"
    },
    {
      "inputs": [
        {
          "internalType": "address",
          "name": "from",
          "type": "address"
        },
        {
          "internalType": "uint256",
          "name": "amount",
          "type": "uint256"
        }
      ],
      "name": "burn",
      "outputs": [],
      "stateMutability": "nonpayable",
      "type": "function"
    },
    {
      "inputs": [],
      "name": "decimals",
      "outputs": [
        {
          "internalType": "uint8",
          "name": "",
          "type": "uint8"
        }
      ],
      "stateMutability": "view",
      "type": "function"
    },
    {
      "inputs": [
        {
          "internalType": "address",
          "name": "spender",
          "type": "address"
        },
        {
          "internalType": "uint256",
          "name": "subtractedValue",
          "type": "uint256"
        }
      ],
      "name": "decreaseAllowance",
      "outputs": [
        {
          "internalType": "bool",
          "name": "",
          "type": "bool"
        }
      ],
      "stateMutability": "nonpayable",
      "type": "function"
    },
    {
      "inputs": [],
      "name": "dexRouter",
      "outputs": [
        {
          "internalType": "contract IUniswapV2Router02",
          "name": "",
          "type": "address"
        }
      ],
      "stateMutability": "view",
      "type": "function"
    },
    {
      "inputs": [],
      "name": "enableTrading",
      "outputs": [],
      "stateMutability": "nonpayable",
      "type": "function"
    },
    {
      "inputs": [
        {
          "internalType": "address",
          "name": "account",
          "type": "address"
        },
        {
          "internalType": "bool",
          "name": "val",
          "type": "bool"
        }
      ],
      "name": "excludeFromFee",
      "outputs": [],
      "stateMutability": "nonpayable",
      "type": "function"
    },
    {
      "inputs": [],
      "name": "getOwner",
      "outputs": [
        {
          "internalType": "address",
          "name": "",
          "type": "address"
        }
      ],
      "stateMutability": "view",
      "type": "function"
    },
    {
      "inputs": [
        {
          "internalType": "address",
          "name": "spender",
          "type": "address"
        },
        {
          "internalType": "uint256",
          "name": "addedValue",
          "type": "uint256"
        }
      ],
      "name": "increaseAllowance",
      "outputs": [
        {
          "internalType": "bool",
          "name": "",
          "type": "bool"
        }
      ],
      "stateMutability": "nonpayable",
      "type": "function"
    },
    {
      "inputs": [
        {
          "internalType": "address",
          "name": "account",
          "type": "address"
        }
      ],
      "name": "isExcludedFromFee",
      "outputs": [
        {
          "internalType": "bool",
          "name": "",
          "type": "bool"
        }
      ],
      "stateMutability": "view",
      "type": "function"
    },
    {
      "inputs": [],
      "name": "lpPair",
      "outputs": [
        {
          "internalType": "address",
          "name": "",
          "type": "address"
        }
      ],
      "stateMutability": "view",
      "type": "function"
    },
    {
      "inputs": [],
      "name": "name",
      "outputs": [
        {
          "internalType": "string",
          "name": "",
          "type": "string"
        }
      ],
      "stateMutability": "view",
      "type": "function"
    },
    {
      "inputs": [],
      "name": "owner",
      "outputs": [
        {
          "internalType": "address",
          "name": "",
          "type": "address"
        }
      ],
      "stateMutability": "view",
      "type": "function"
    },
    {
      "inputs": [
        {
          "internalType": "uint256",
          "name": "value",
          "type": "uint256"
        }
      ],
      "name": "setMaxTransactionAmount",
      "outputs": [],
      "stateMutability": "nonpayable",
      "type": "function"
    },
    {
      "inputs": [
        {
          "internalType": "uint256",
          "name": "value",
          "type": "uint256"
        }
      ],
      "name": "setMaxWalletAmount",
      "outputs": [],
      "stateMutability": "nonpayable",
      "type": "function"
    },
    {
      "inputs": [
        {
          "internalType": "uint256",
          "name": "value",
          "type": "uint256"
        }
      ],
      "name": "setSwapThreshold",
      "outputs": [],
      "stateMutability": "nonpayable",
      "type": "function"
    },
    {
      "inputs": [
        {
          "internalType": "uint16",
          "name": "buyFeePercentage",
          "type": "uint16"
        },
        {
          "internalType": "uint16",
          "name": "sellFeePercentage",
          "type": "uint16"
        },
        {
          "internalType": "uint16",
          "name": "transferPercentage",
          "type": "uint16"
        }
      ],
      "name": "setTaxes",
      "outputs": [],
      "stateMutability": "nonpayable",
      "type": "function"
    },
    {
      "inputs": [],
      "name": "swapThreshold",
      "outputs": [
        {
          "internalType": "uint256",
          "name": "",
          "type": "uint256"
        }
      ],
      "stateMutability": "view",
      "type": "function"
    },
    {
      "inputs": [],
      "name": "symbol",
      "outputs": [
        {
          "internalType": "string",
          "name": "",
          "type": "string"
        }
      ],
      "stateMutability": "view",
      "type": "function"
    },
    {
      "inputs": [],
      "name": "totalSupply",
      "outputs": [
        {
          "internalType": "uint256",
          "name": "",
          "type": "uint256"
        }
      ],
      "stateMutability": "view",
      "type": "function"
    },
    {
      "inputs": [
        {
          "internalType": "address",
          "name": "to",
          "type": "address"
        },
        {
          "internalType": "uint256",
          "name": "amount",
          "type": "uint256"
        }
      ],
      "name": "transfer",
      "outputs": [
        {
          "internalType": "bool",
          "name": "",
          "type": "bool"
        }
      ],
      "stateMutability": "nonpayable",
      "type": "function"
    },
    {
      "inputs": [
        {
          "internalType": "address",
          "name": "from",
          "type": "address"
        },
        {
          "internalType": "address",
          "name": "to",
          "type": "address"
        },
        {
          "internalType": "uint256",
          "name": "amount",
          "type": "uint256"
        }
      ],
      "name": "transferFrom",
      "outputs": [
        {
          "internalType": "bool",
          "name": "",
          "type": "bool"
        }
      ],
      "stateMutability": "nonpayable",
      "type": "function"
    },
    {
      "inputs": [
        {
          "internalType": "address",
          "name": "account",
          "type": "address"
        }
      ],
      "name": "transferOwnership",
      "outputs": [],
      "stateMutability": "nonpayable",
      "type": "function"
    },
    {
      "inputs": [],
      "name": "usdAddress",
      "outputs": [
        {
          "internalType": "address",
          "name": "",
          "type": "address"
        }
      ],
      "stateMutability": "view",
      "type": "function"
    },
    {
      "inputs": [
        {
          "internalType": "address",
          "name": "",
          "type": "address"
        }
      ],
      "name": "usersBuysCounter",
      "outputs": [
        {
          "internalType": "uint256",
          "name": "",
          "type": "uint256"
        }
      ],
      "stateMutability": "view",
      "type": "function"
    },
    {
      "inputs": [
        {
          "internalType": "uint256",
          "name": "",
          "type": "uint256"
        }
      ],
      "name": "usersLastBuysTxs",
      "outputs": [
        {
          "internalType": "uint256",
          "name": "",
          "type": "uint256"
        }
      ],
      "stateMutability": "view",
      "type": "function"
    },
    {
      "inputs": [
        {
          "internalType": "uint256",
          "name": "",
          "type": "uint256"
        }
      ],
      "name": "usersLastSellsTxs",
      "outputs": [
        {
          "internalType": "uint256",
          "name": "",
          "type": "uint256"
        }
      ],
      "stateMutability": "view",
      "type": "function"
    },
    {
      "inputs": [
        {
          "internalType": "address",
          "name": "",
          "type": "address"
        }
      ],
      "name": "usersSellCounter",
      "outputs": [
        {
          "internalType": "uint256",
          "name": "",
          "type": "uint256"
        }
      ],
      "stateMutability": "view",
      "type": "function"
    },
    {
      "stateMutability": "payable",
      "type": "receive"
    }
  ],
  "bytecode": "0x600680546001600160a01b031990811661dead179091556008805482167378867bbeef44f2326bf8ddd1941a4439382ef2a717905560098054909116739ac64cc6e4415144c455bd8e4837fea55603e5c3179055600a60808181526101e06040529060a061014080368337505081516200008192600a92506020019062000954565b5068d8d726b7177a800000600b55612710600c5569d3c21bcecceda1000000600d819055600e55611388600f556107d060108190556011556103e860125560408051600a808252610160820190925290602082016101408036833750508151620000f3926013925060200190620009be565b503480156200010157600080fd5b50604051806040016040528060098152602001684d65746153746f636b60b81b815250604051806040016040528060038152602001624d534b60e81b815250816003908162000151919062000ab7565b50600462000160828262000ab7565b50505062000180336a52b7d2dcc80cd2e40000006200058460201b60201c565b600580546001600160a01b0319163390811790915560408051606081018252600080825261012c602080840191909152918301819052601c805465ffffffffffff191663012c000017905592835260159052808220805460ff1990811660019081179092553084529190922080549091169091179055620002006200066d565b6009546200021c9033906001600160a01b031660001962000827565b600954620002389030906001600160a01b031660001962000827565b60085460095462000259916001600160a01b03908116911660001962000827565b60085462000274906001600160a01b03163060001962000827565b736644ebde0f26c8f74ad18697cce8a5ac4e608cb4600a600081548110620002a057620002a062000b83565b9060005260206000200160006101000a8154816001600160a01b0302191690836001600160a01b03160217905550733c44cdddb6a900fa2b585dd299e03d12fa4293bc600a600181548110620002fa57620002fa62000b83565b9060005260206000200160006101000a8154816001600160a01b0302191690836001600160a01b031602179055507390f79bf6eb2c4f870365e785982e1f101e93b906600a60028154811062000354576200035462000b83565b9060005260206000200160006101000a8154816001600160a01b0302191690836001600160a01b0316021790555073fbaa3c716da6378a0840754185bff6a05a20e1c8600a600381548110620003ae57620003ae62000b83565b9060005260206000200160006101000a8154816001600160a01b0302191690836001600160a01b03160217905550734cf4525ea8225ef715236538a3d7f06151bfee11600a60048154811062000408576200040862000b83565b9060005260206000200160006101000a8154816001600160a01b0302191690836001600160a01b0316021790555073492a9ce7f973958454fcbcae0e22985e15cdbe58600a60058154811062000462576200046262000b83565b9060005260206000200160006101000a8154816001600160a01b0302191690836001600160a01b031602179055506106406013600081548110620004aa57620004aa62000b83565b90600052602060002001819055506107d06013600181548110620004d257620004d262000b83565b90600052602060002001819055506101f46013600281548110620004fa57620004fa62000b83565b9060005260206000200181905550610b54601360038154811062000522576200052262000b83565b90600052602060002001819055506107d060136004815481106200054a576200054a62000b83565b90600052602060002001819055506103e8601360058154811062000572576200057262000b83565b60009182526020909120015562000bf2565b6001600160a01b038216620005e05760405162461bcd60e51b815260206004820152601f60248201527f45524332303a206d696e7420746f20746865207a65726f20616464726573730060448201526064015b60405180910390fd5b8060026000828254620005f4919062000b99565b90915550506001600160a01b038216600090815260208190526040812080548392906200062390849062000b99565b90915550506040518181526001600160a01b038316906000907fddf252ad1be2c89b69c2b068fc378daa952ba7f163c4a11628f55a4df523b3ef9060200160405180910390a35050565b600954601b80546001600160a01b0319166001600160a01b0390921691821790556040805163c45a015560e01b8152905163c45a0155916004808201926020929091908290030181865afa158015620006ca573d6000803e3d6000fd5b505050506040513d601f19601f82011682018060405250810190620006f0919062000bc0565b6001600160a01b031663c9c6539630601b60009054906101000a90046001600160a01b03166001600160a01b031663ad5c46486040518163ffffffff1660e01b8152600401602060405180830381865afa15801562000753573d6000803e3d6000fd5b505050506040513d601f19601f8201168201806040525081019062000779919062000bc0565b6040516001600160e01b031960e085901b1681526001600160a01b039283166004820152911660248201526044016020604051808303816000875af1158015620007c7573d6000803e3d6000fd5b505050506040513d601f19601f82011682018060405250810190620007ed919062000bc0565b600780546001600160a01b0319166001600160a01b039290921691821790556000908152601660205260409020805460ff19166001179055565b6001600160a01b0383166200088b5760405162461bcd60e51b8152602060048201526024808201527f45524332303a20617070726f76652066726f6d20746865207a65726f206164646044820152637265737360e01b6064820152608401620005d7565b6001600160a01b038216620008ee5760405162461bcd60e51b815260206004820152602260248201527f45524332303a20617070726f766520746f20746865207a65726f206164647265604482015261737360f01b6064820152608401620005d7565b6001600160a01b0383811660008181526001602090815260408083209487168084529482529182902085905590518481527f8c5be1e5ebec7d5bd14f71427d1e84f3dd0314c0f7b2291e5b200ac8c7c3b925910160405180910390a3505050565b505050565b828054828255906000526020600020908101928215620009ac579160200282015b82811115620009ac57825182546001600160a01b0319166001600160a01b0390911617825560209092019160019091019062000975565b50620009ba929150620009fc565b5090565b828054828255906000526020600020908101928215620009ac579160200282015b82811115620009ac578251825591602001919060010190620009df565b5b80821115620009ba5760008155600101620009fd565b634e487b7160e01b600052604160045260246000fd5b600181811c9082168062000a3e57607f821691505b60208210810362000a5f57634e487b7160e01b600052602260045260246000fd5b50919050565b601f8211156200094f57600081815260208120601f850160051c8101602086101562000a8e5750805b601f850160051c820191505b8181101562000aaf5782815560010162000a9a565b505050505050565b81516001600160401b0381111562000ad35762000ad362000a13565b62000aeb8162000ae4845462000a29565b8462000a65565b602080601f83116001811462000b23576000841562000b0a5750858301515b600019600386901b1c1916600185901b17855562000aaf565b600085815260208120601f198616915b8281101562000b545788860151825594840194600190910190840162000b33565b508582101562000b735787850151600019600388901b60f8161c191681555b5050505050600190811b01905550565b634e487b7160e01b600052603260045260246000fd5b6000821982111562000bbb57634e487b7160e01b600052601160045260246000fd5b500190565b60006020828403121562000bd357600080fd5b81516001600160a01b038116811462000beb57600080fd5b9392505050565b6122348062000c026000396000f3fe60806040526004361061018d5760003560e01c806303fd2a45146101995780630445b667146101d657806306fdde03146101fa5780630758d9241461021c578063095ea7b31461023c57806318160ddd1461026c5780631c06a7e1146102815780631e293c10146102d657806323b872dd146102f857806327a14fc214610318578063313ce5671461033857806332cde664146103545780633950935114610374578063452ed4f11461039457806347fa7c88146103b45780635342acb4146103e157806355106e5f1461041a57806370a0823114610447578063893d20e81461046757806389e7bf1c146104855780638a8c523c146104b25780638da5cb5b146104c757806395d89b41146104e75780639d0014b1146104fc5780639dc29fac1461051c5780639e1a86131461053c578063a457c2d71461055c578063a9059cbb1461057c578063b62496f51461059c578063c6aca36b146105cc578063dd62ed3e146105ec578063df8408fe1461060c578063f2fde38b1461062c578063fe9a79c81461064c57600080fd5b3661019457005b600080fd5b3480156101a557600080fd5b506006546101b9906001600160a01b031681565b6040516001600160a01b0390911681526020015b60405180910390f35b3480156101e257600080fd5b506101ec600b5481565b6040519081526020016101cd565b34801561020657600080fd5b5061020f610679565b6040516101cd9190611dc0565b34801561022857600080fd5b50601b546101b9906001600160a01b031681565b34801561024857600080fd5b5061025c610257366004611def565b61070b565b60405190151581526020016101cd565b34801561027857600080fd5b506002546101ec565b34801561028d57600080fd5b50601c546102b19061ffff80821691620100008104821691600160201b9091041683565b6040805161ffff948516815292841660208401529216918101919091526060016101cd565b3480156102e257600080fd5b506102f66102f1366004611e1b565b610723565b005b34801561030457600080fd5b5061025c610313366004611e34565b61075b565b34801561032457600080fd5b506102f6610333366004611e1b565b61077f565b34801561034457600080fd5b50604051601281526020016101cd565b34801561036057600080fd5b506102f661036f366004611e8c565b6107ae565b34801561038057600080fd5b5061025c61038f366004611def565b610953565b3480156103a057600080fd5b506007546101b9906001600160a01b031681565b3480156103c057600080fd5b506101ec6103cf366004611e1b565b601a6020526000908152604090205481565b3480156103ed57600080fd5b5061025c6103fc366004611ecf565b6001600160a01b031660009081526015602052604090205460ff1690565b34801561042657600080fd5b506101ec610435366004611e1b565b60196020526000908152604090205481565b34801561045357600080fd5b506101ec610462366004611ecf565b610975565b34801561047357600080fd5b506005546001600160a01b03166101b9565b34801561049157600080fd5b506101ec6104a0366004611ecf565b60186020526000908152604090205481565b3480156104be57600080fd5b506102f6610990565b3480156104d357600080fd5b506005546101b9906001600160a01b031681565b3480156104f357600080fd5b5061020f610a23565b34801561050857600080fd5b506102f6610517366004611e1b565b610a32565b34801561052857600080fd5b506102f6610537366004611def565b610a61565b34801561054857600080fd5b506008546101b9906001600160a01b031681565b34801561056857600080fd5b5061025c610577366004611def565b610b22565b34801561058857600080fd5b5061025c610597366004611def565b610b9d565b3480156105a857600080fd5b5061025c6105b7366004611ecf565b60166020526000908152604090205460ff1681565b3480156105d857600080fd5b506102f66105e7366004611e1b565b610bab565b3480156105f857600080fd5b506101ec610607366004611eec565b610be4565b34801561061857600080fd5b506102f6610627366004611f33565b610c0f565b34801561063857600080fd5b506102f6610647366004611ecf565b610c64565b34801561065857600080fd5b506101ec610667366004611ecf565b60176020526000908152604090205481565b60606003805461068890611f61565b80601f01602080910402602001604051908101604052809291908181526020018280546106b490611f61565b80156107015780601f106106d657610100808354040283529160200191610701565b820191906000526020600020905b8154815290600101906020018083116106e457829003601f168201915b5050505050905090565b600033610719818585610cb0565b5060019392505050565b6005546001600160a01b031633146107565760405162461bcd60e51b815260040161074d90611f9b565b60405180910390fd5b600e55565b600033610769858285610dd4565b610774858585610e48565b506001949350505050565b6005546001600160a01b031633146107a95760405162461bcd60e51b815260040161074d90611f9b565b600d55565b6005546001600160a01b031633146107d85760405162461bcd60e51b815260040161074d90611f9b565b610bb88361ffff16111561081d5760405162461bcd60e51b815260206004820152600c60248201526b4d415820425559204645455360a01b604482015260640161074d565b610bb88261ffff1611156108635760405162461bcd60e51b815260206004820152600d60248201526c4d41582053454c4c204645455360981b604482015260640161074d565b610bb88161ffff1611156108ad5760405162461bcd60e51b81526020600482015260116024820152704d4158205452414e53464552204645455360781b604482015260640161074d565b610bb8816108bb8486611fe6565b6108c59190611fe6565b61ffff1611156109165760405162461bcd60e51b815260206004820152601c60248201527b4d4158204255592c2053454c4c2c205452414e53464552204645455360201b604482015260640161074d565b601c805461ffff94851663ffffffff199091161762010000938516939093029290921761ffff60201b1916600160201b9190931602919091179055565b6000336107198185856109668383610be4565b610970919061200c565b610cb0565b6001600160a01b031660009081526020819052604090205490565b6005546001600160a01b031633146109ba5760405162461bcd60e51b815260040161074d90611f9b565b601454610100900460ff1615610a125760405162461bcd60e51b815260206004820152601e60248201527f54726164696e67456e61626c656420616c726561647920616374697665640000604482015260640161074d565b6014805461ff001916610100179055565b60606004805461068890611f61565b6005546001600160a01b03163314610a5c5760405162461bcd60e51b815260040161074d90611f9b565b600b55565b610a6a82610975565b811115610ad15760405162461bcd60e51b815260206004820152602f60248201527f4275726e20616d6f756e742073686f756c64206265206c657373207468616e2060448201526e6163636f756e742062616c616e636560881b606482015260840161074d565b610adb8282610f8d565b816001600160a01b03167fcc16f5dbb4873280815c1ee09dbd06736cffcc184412cf7a71a0fdb75d397ca582604051610b1691815260200190565b60405180910390a25050565b60003381610b308286610be4565b905083811015610b905760405162461bcd60e51b815260206004820152602560248201527f45524332303a2064656372656173656420616c6c6f77616e63652062656c6f77604482015264207a65726f60d81b606482015260840161074d565b6107748286868403610cb0565b600033610719818585610e48565b6000610bb8600283612024565b90503031610bc5826110c9565b6000610bd2823031612046565b9050610bde8382611236565b50505050565b6001600160a01b03918216600090815260016020908152604080832093909416825291909152205490565b6005546001600160a01b03163314610c395760405162461bcd60e51b815260040161074d90611f9b565b6001600160a01b03919091166000908152601560205260409020805460ff1916911515919091179055565b6005546001600160a01b03163314610c8e5760405162461bcd60e51b815260040161074d90611f9b565b600580546001600160a01b0319166001600160a01b0392909216919091179055565b6001600160a01b038316610d125760405162461bcd60e51b8152602060048201526024808201527f45524332303a20617070726f76652066726f6d20746865207a65726f206164646044820152637265737360e01b606482015260840161074d565b6001600160a01b038216610d735760405162461bcd60e51b815260206004820152602260248201527f45524332303a20617070726f766520746f20746865207a65726f206164647265604482015261737360f01b606482015260840161074d565b6001600160a01b0383811660008181526001602090815260408083209487168084529482529182902085905590518481527f8c5be1e5ebec7d5bd14f71427d1e84f3dd0314c0f7b2291e5b200ac8c7c3b925910160405180910390a3505050565b6000610de08484610be4565b90506000198114610bde5781811015610e3b5760405162461bcd60e51b815260206004820152601d60248201527f45524332303a20696e73756666696369656e7420616c6c6f77616e6365000000604482015260640161074d565b610bde8484848403610cb0565b610e53838383611312565b60145460ff1615610e6e57610e6983838361173d565b505050565b6000610e7930610975565b90506000610e888585846118f9565b9050610ec060405180604001604052806014815260200173636f6e7472616374546f6b656e42616c616e636560601b8152508361199d565b610eee6040518060400160405280600c81526020016b1b5d5cdd10dbdb9d1c9858dd60a21b815250826119e6565b8015610f7b57610f1c604051806040016040528060078152602001660444f20535741560cc1b815250611a2b565b610f3f600c54600f5484610f30919061205d565b610f3a9190612024565b611a71565b610f5d600c5460105484610f53919061205d565b6105e79190612024565b610f7b30600c54601254610f71908661205d565b6105379190612024565b610f86858585611c16565b5050505050565b6001600160a01b038216610fed5760405162461bcd60e51b815260206004820152602160248201527f45524332303a206275726e2066726f6d20746865207a65726f206164647265736044820152607360f81b606482015260840161074d565b6001600160a01b038216600090815260208190526040902054818110156110615760405162461bcd60e51b815260206004820152602260248201527f45524332303a206275726e20616d6f756e7420657863656564732062616c616e604482015261636560f01b606482015260840161074d565b6001600160a01b0383166000908152602081905260408120838303905560028054849290611090908490612046565b90915550506040518281526000906001600160a01b038516906000805160206121df8339815191529060200160405180910390a3505050565b60408051600280825260608201835260009260208301908036833701905050905030816000815181106110fe576110fe61207c565b6001600160a01b03928316602091820292909201810191909152601b54604080516315ab88c960e31b81529051919093169263ad5c46489260048083019391928290030181865afa158015611157573d6000803e3d6000fd5b505050506040513d601f19601f8201168201806040525081019061117b9190612092565b8160018151811061118e5761118e61207c565b6001600160a01b03909216602092830291909101909101526111bd305b601b546001600160a01b031684610cb0565b601b546001600160a01b031663791ac94783600084305b6111e04261271061200c565b6040518663ffffffff1660e01b81526004016112009594939291906120af565b600060405180830381600087803b15801561121a57600080fd5b505af115801561122e573d6000803e3d6000fd5b505050505050565b61124e30601b546001600160a01b0316600019610cb0565b601b546001600160a01b031663f305d7198230600554869060009081906001600160a01b03166112804261271061200c565b60405160e089901b6001600160e01b03191681526001600160a01b039687166004820152602481019590955260448501939093526064840191909152909216608482015260a481019190915260c40160606040518083038185885af11580156112ed573d6000803e3d6000fd5b50505050506040513d601f19601f82011682018060405250810190610f869190612120565b6001600160a01b03831661137e5760405162461bcd60e51b815260206004820152602d60248201527f45524332303a207472616e736665722066726f6d20746865205a45524f5f414460448201526c4452455353206164647265737360981b606482015260840161074d565b6001600160a01b0382166113e85760405162461bcd60e51b815260206004820152602b60248201527f45524332303a207472616e7366657220746f20746865205a45524f5f4144445260448201526a455353206164647265737360a81b606482015260840161074d565b600081116114525760405162461bcd60e51b815260206004820152603160248201527f5472616e7366657220616d6f756e74206d7573742062652067726561746572206044820152707468616e205a45524f5f4144445245535360781b606482015260840161074d565b6005546001600160a01b0384811691161480159061147e57506005546001600160a01b03838116911614155b801561149257506001600160a01b03821615155b80156114a957506001600160a01b03821661dead14155b80156114b8575060145460ff16155b15610e6957601454610100900460ff166115095760405162461bcd60e51b815260206004820152601260248201527154726164696e67206e6f742061637469766560701b604482015260640161074d565b6001600160a01b03831660009081526016602052604090205460ff161561161257600e5481111561159a5760405162461bcd60e51b815260206004820152603560248201527f427579207472616e7366657220616d6f756e742065786365656473207468652060448201527436b0bc2a3930b739b0b1ba34b7b720b6b7bab73a1760591b606482015260840161074d565b600d546115a683610975565b6115b0908361200c565b11156115ce5760405162461bcd60e51b815260040161074d9061214e565b6001600160a01b0383166000908152601760205260408120805491600191906115f7838561200c565b90915550506000908152601960205260409020429055505050565b6001600160a01b03821660009081526016602052604090205460ff161561170957600e548111156116a45760405162461bcd60e51b815260206004820152603660248201527f53656c6c207472616e7366657220616d6f756e742065786365656473207468656044820152751036b0bc2a3930b739b0b1ba34b7b720b6b7bab73a1760511b606482015260840161074d565b6001600160a01b038316600081815260176020908152604080832054601880845282852080548387526019865293862054968652935293909290916001916116ec838661200c565b9091555050506000908152601a6020526040902042905550505050565b600d5461171583610975565b61171f908361200c565b1115610e695760405162461bcd60e51b815260040161074d9061214e565b6001600160a01b0383166117a15760405162461bcd60e51b815260206004820152602560248201527f45524332303a207472616e736665722066726f6d20746865207a65726f206164604482015264647265737360d81b606482015260840161074d565b6001600160a01b0382166118035760405162461bcd60e51b815260206004820152602360248201527f45524332303a207472616e7366657220746f20746865207a65726f206164647260448201526265737360e81b606482015260840161074d565b6001600160a01b0383166000908152602081905260409020548181101561187b5760405162461bcd60e51b815260206004820152602660248201527f45524332303a207472616e7366657220616d6f756e7420657863656564732062604482015265616c616e636560d01b606482015260840161074d565b6001600160a01b038085166000908152602081905260408082208585039055918516815290812080548492906118b290849061200c565b92505081905550826001600160a01b0316846001600160a01b03166000805160206121df833981519152846040516118ec91815260200190565b60405180910390a3610bde565b6000600b548210158015611910575060145460ff16155b801561192a57506007546001600160a01b03858116911614155b801561194b5750600754600090611949906001600160a01b0316610975565b115b801561197057506001600160a01b03831660009081526015602052604090205460ff16155b801561199557506001600160a01b03841660009081526015602052604090205460ff16155b949350505050565b6119e282826040516024016119b392919061217b565b60408051601f198184030181529190526020810180516001600160e01b03166309710a9d60e41b179052611c99565b5050565b6119e282826040516024016119fc92919061219d565b60408051601f198184030181529190526020810180516001600160e01b031663c3b5563560e01b179052611c99565b611a6e81604051602401611a3f9190611dc0565b60408051601f198184030181529190526020810180516001600160e01b031663104c13eb60e21b179052611c99565b50565b60408051600380825260808201909252600091602082016060803683370190505090503081600081518110611aa857611aa861207c565b6001600160a01b03928316602091820292909201810191909152601b54604080516315ab88c960e31b81529051919093169263ad5c46489260048083019391928290030181865afa158015611b01573d6000803e3d6000fd5b505050506040513d601f19601f82011682018060405250810190611b259190612092565b81600181518110611b3857611b3861207c565b6001600160a01b039283166020918202929092010152600854825191169082906002908110611b6957611b6961207c565b6001600160a01b039283166020918202929092010152600854601b5460405163095ea7b360e01b81529083166004820152600019602482015291169063095ea7b3906044016020604051808303816000875af1158015611bcd573d6000803e3d6000fd5b505050506040513d601f19601f82011682018060405250810190611bf191906121c1565b50611bfb306111ab565b601b546001600160a01b0316635c11d79583600084306111d4565b6001600160a01b03831660009081526015602052604081205482919060019060ff1680611c5b57506001600160a01b03851660009081526015602052604090205460ff165b15611c64575060005b8015611c8e57611c75868686611cba565b9150611c818285612046565b9250611c8e86308461173d565b61122e86868561173d565b80516a636f6e736f6c652e6c6f67602083016000808483855afa5050505050565b6001600160a01b0383166000908152601660205260408120548190819060ff1615611cf757601c54611cf09061ffff168361200c565b9150611d4a565b6001600160a01b03851660009081526016602052604090205460ff1615611d2f57601c54611cf09062010000900461ffff168361200c565b601c54611d4790600160201b900461ffff168361200c565b91505b8115611d6a57600c54611d5d838661205d565b611d679190612024565b90505b95945050505050565b6000815180845260005b81811015611d9957602081850181015186830182015201611d7d565b81811115611dab576000602083870101525b50601f01601f19169290920160200192915050565b602081526000611dd36020830184611d73565b9392505050565b6001600160a01b0381168114611a6e57600080fd5b60008060408385031215611e0257600080fd5b8235611e0d81611dda565b946020939093013593505050565b600060208284031215611e2d57600080fd5b5035919050565b600080600060608486031215611e4957600080fd5b8335611e5481611dda565b92506020840135611e6481611dda565b929592945050506040919091013590565b803561ffff81168114611e8757600080fd5b919050565b600080600060608486031215611ea157600080fd5b611eaa84611e75565b9250611eb860208501611e75565b9150611ec660408501611e75565b90509250925092565b600060208284031215611ee157600080fd5b8135611dd381611dda565b60008060408385031215611eff57600080fd5b8235611f0a81611dda565b91506020830135611f1a81611dda565b809150509250929050565b8015158114611a6e57600080fd5b60008060408385031215611f4657600080fd5b8235611f5181611dda565b91506020830135611f1a81611f25565b600181811c90821680611f7557607f821691505b602082108103611f9557634e487b7160e01b600052602260045260246000fd5b50919050565b6020808252818101527f4f776e61626c653a2063616c6c6572206973206e6f7420746865206f776e6572604082015260600190565b634e487b7160e01b600052601160045260246000fd5b600061ffff80831681851680830382111561200357612003611fd0565b01949350505050565b6000821982111561201f5761201f611fd0565b500190565b60008261204157634e487b7160e01b600052601260045260246000fd5b500490565b60008282101561205857612058611fd0565b500390565b600081600019048311821515161561207757612077611fd0565b500290565b634e487b7160e01b600052603260045260246000fd5b6000602082840312156120a457600080fd5b8151611dd381611dda565b600060a082018783526020878185015260a0604085015281875180845260c086019150828901935060005b818110156120ff5784516001600160a01b0316835293830193918301916001016120da565b50506001600160a01b03969096166060850152505050608001529392505050565b60008060006060848603121561213557600080fd5b8351925060208401519150604084015190509250925092565b60208082526013908201527213585e081dd85b1b195d08195e18d959591959606a1b604082015260600190565b60408152600061218e6040830185611d73565b90508260208301529392505050565b6040815260006121b06040830185611d73565b905082151560208301529392505050565b6000602082840312156121d357600080fd5b8151611dd381611f2556feddf252ad1be2c89b69c2b068fc378daa952ba7f163c4a11628f55a4df523b3efa264697066735822122034bc14b32346ea81996a079369bfbeb054a413269151ac0e5628a11e1bd4104664736f6c634300080f0033",
  "linkReferences": {},
  "deployedLinkReferences": {}
}