{
  "_format": "hh-sol-artifact-1",
  "contractName": "MetaStock",
  "sourceName": "contracts/MetaStock.sol",
  "abi": [
    {
      "inputs": [],
      "stateMutability": "nonpayable",
      "type": "constructor"
    },
    {
      "anonymous": false,
      "inputs": [
        {
          "indexed": true,
          "internalType": "address",
          "name": "owner",
          "type": "address"
        },
        {
          "indexed": true,
          "internalType": "address",
          "name": "spender",
          "type": "address"
        },
        {
          "indexed": false,
          "internalType": "uint256",
          "name": "value",
          "type": "uint256"
        }
      ],
      "name": "Approval",
      "type": "event"
    },
    {
      "anonymous": false,
      "inputs": [
        {
          "indexed": true,
          "internalType": "address",
          "name": "sender",
          "type": "address"
        },
        {
          "indexed": false,
          "internalType": "uint256",
          "name": "amount",
          "type": "uint256"
        }
      ],
      "name": "Burn",
      "type": "event"
    },
    {
      "anonymous": false,
      "inputs": [
        {
          "indexed": true,
          "internalType": "address",
          "name": "previousOwner",
          "type": "address"
        },
        {
          "indexed": true,
          "internalType": "address",
          "name": "newOwner",
          "type": "address"
        }
      ],
      "name": "OwnershipTransferred",
      "type": "event"
    },
    {
      "anonymous": false,
      "inputs": [
        {
          "indexed": true,
          "internalType": "address",
          "name": "from",
          "type": "address"
        },
        {
          "indexed": true,
          "internalType": "address",
          "name": "to",
          "type": "address"
        },
        {
          "indexed": false,
          "internalType": "uint256",
          "name": "value",
          "type": "uint256"
        }
      ],
      "name": "Transfer",
      "type": "event"
    },
    {
      "inputs": [],
      "name": "DEAD",
      "outputs": [
        {
          "internalType": "address",
          "name": "",
          "type": "address"
        }
      ],
      "stateMutability": "view",
      "type": "function"
    },
    {
      "inputs": [],
      "name": "_feesRates",
      "outputs": [
        {
          "internalType": "uint16",
          "name": "buyFee",
          "type": "uint16"
        },
        {
          "internalType": "uint16",
          "name": "sellFee",
          "type": "uint16"
        },
        {
          "internalType": "uint16",
          "name": "transferFee",
          "type": "uint16"
        }
      ],
      "stateMutability": "view",
      "type": "function"
    },
    {
      "inputs": [
        {
          "internalType": "address",
          "name": "owner",
          "type": "address"
        },
        {
          "internalType": "address",
          "name": "spender",
          "type": "address"
        }
      ],
      "name": "allowance",
      "outputs": [
        {
          "internalType": "uint256",
          "name": "",
          "type": "uint256"
        }
      ],
      "stateMutability": "view",
      "type": "function"
    },
    {
      "inputs": [
        {
          "internalType": "address",
          "name": "spender",
          "type": "address"
        },
        {
          "internalType": "uint256",
          "name": "amount",
          "type": "uint256"
        }
      ],
      "name": "approve",
      "outputs": [
        {
          "internalType": "bool",
          "name": "",
          "type": "bool"
        }
      ],
      "stateMutability": "nonpayable",
      "type": "function"
    },
    {
      "inputs": [
        {
          "internalType": "address",
          "name": "",
          "type": "address"
        }
      ],
      "name": "automatedMarketMakerPairs",
      "outputs": [
        {
          "internalType": "bool",
          "name": "",
          "type": "bool"
        }
      ],
      "stateMutability": "view",
      "type": "function"
    },
    {
      "inputs": [
        {
          "internalType": "address",
          "name": "account",
          "type": "address"
        }
      ],
      "name": "balanceOf",
      "outputs": [
        {
          "internalType": "uint256",
          "name": "",
          "type": "uint256"
        }
      ],
      "stateMutability": "view",
      "type": "function"
    },
    {
      "inputs": [
        {
          "internalType": "uint256",
          "name": "amount",
          "type": "uint256"
        }
      ],
      "name": "burn",
      "outputs": [],
      "stateMutability": "nonpayable",
      "type": "function"
    },
    {
      "inputs": [],
      "name": "charityWallet",
      "outputs": [
        {
          "internalType": "address",
          "name": "",
          "type": "address"
        }
      ],
      "stateMutability": "view",
      "type": "function"
    },
    {
      "inputs": [],
      "name": "decimals",
      "outputs": [
        {
          "internalType": "uint8",
          "name": "",
          "type": "uint8"
        }
      ],
      "stateMutability": "view",
      "type": "function"
    },
    {
      "inputs": [
        {
          "internalType": "address",
          "name": "spender",
          "type": "address"
        },
        {
          "internalType": "uint256",
          "name": "subtractedValue",
          "type": "uint256"
        }
      ],
      "name": "decreaseAllowance",
      "outputs": [
        {
          "internalType": "bool",
          "name": "",
          "type": "bool"
        }
      ],
      "stateMutability": "nonpayable",
      "type": "function"
    },
    {
      "inputs": [],
      "name": "dexRouter",
      "outputs": [
        {
          "internalType": "contract IUniswapV2Router02",
          "name": "",
          "type": "address"
        }
      ],
      "stateMutability": "view",
      "type": "function"
    },
    {
      "inputs": [],
      "name": "enableTrading",
      "outputs": [],
      "stateMutability": "nonpayable",
      "type": "function"
    },
    {
      "inputs": [
        {
          "internalType": "address",
          "name": "account",
          "type": "address"
        },
        {
          "internalType": "bool",
          "name": "val",
          "type": "bool"
        }
      ],
      "name": "excludeFromFee",
      "outputs": [],
      "stateMutability": "nonpayable",
      "type": "function"
    },
    {
      "inputs": [],
      "name": "getOwner",
      "outputs": [
        {
          "internalType": "address",
          "name": "",
          "type": "address"
        }
      ],
      "stateMutability": "view",
      "type": "function"
    },
    {
      "inputs": [
        {
          "internalType": "address",
          "name": "spender",
          "type": "address"
        },
        {
          "internalType": "uint256",
          "name": "addedValue",
          "type": "uint256"
        }
      ],
      "name": "increaseAllowance",
      "outputs": [
        {
          "internalType": "bool",
          "name": "",
          "type": "bool"
        }
      ],
      "stateMutability": "nonpayable",
      "type": "function"
    },
    {
      "inputs": [
        {
          "internalType": "address",
          "name": "account",
          "type": "address"
        }
      ],
      "name": "isExcludedFromFee",
      "outputs": [
        {
          "internalType": "bool",
          "name": "",
          "type": "bool"
        }
      ],
      "stateMutability": "view",
      "type": "function"
    },
    {
      "inputs": [],
      "name": "lpPair",
      "outputs": [
        {
          "internalType": "address",
          "name": "",
          "type": "address"
        }
      ],
      "stateMutability": "view",
      "type": "function"
    },
    {
      "inputs": [],
      "name": "name",
      "outputs": [
        {
          "internalType": "string",
          "name": "",
          "type": "string"
        }
      ],
      "stateMutability": "view",
      "type": "function"
    },
    {
      "inputs": [],
      "name": "owner",
      "outputs": [
        {
          "internalType": "address",
          "name": "",
          "type": "address"
        }
      ],
      "stateMutability": "view",
      "type": "function"
    },
    {
      "inputs": [
        {
          "internalType": "uint256",
          "name": "value",
          "type": "uint256"
        }
      ],
      "name": "setMaxTransactionAmount",
      "outputs": [],
      "stateMutability": "nonpayable",
      "type": "function"
    },
    {
      "inputs": [
        {
          "internalType": "uint256",
          "name": "value",
          "type": "uint256"
        }
      ],
      "name": "setMaxWalletAmount",
      "outputs": [],
      "stateMutability": "nonpayable",
      "type": "function"
    },
    {
      "inputs": [
        {
          "internalType": "uint256",
          "name": "value",
          "type": "uint256"
        }
      ],
      "name": "setSwapThreshold",
      "outputs": [],
      "stateMutability": "nonpayable",
      "type": "function"
    },
    {
      "inputs": [
        {
          "internalType": "uint16",
          "name": "buyFee",
          "type": "uint16"
        },
        {
          "internalType": "uint16",
          "name": "sellFee",
          "type": "uint16"
        },
        {
          "internalType": "uint16",
          "name": "transferFee",
          "type": "uint16"
        }
      ],
      "name": "setTaxes",
      "outputs": [],
      "stateMutability": "nonpayable",
      "type": "function"
    },
    {
      "inputs": [],
      "name": "swapThreshold",
      "outputs": [
        {
          "internalType": "uint256",
          "name": "",
          "type": "uint256"
        }
      ],
      "stateMutability": "view",
      "type": "function"
    },
    {
      "inputs": [],
      "name": "swapTokenAddress",
      "outputs": [
        {
          "internalType": "address",
          "name": "",
          "type": "address"
        }
      ],
      "stateMutability": "view",
      "type": "function"
    },
    {
      "inputs": [],
      "name": "symbol",
      "outputs": [
        {
          "internalType": "string",
          "name": "",
          "type": "string"
        }
      ],
      "stateMutability": "view",
      "type": "function"
    },
    {
      "inputs": [
        {
          "internalType": "uint256",
          "name": "",
          "type": "uint256"
        }
      ],
      "name": "teamWallets",
      "outputs": [
        {
          "internalType": "address",
          "name": "",
          "type": "address"
        }
      ],
      "stateMutability": "view",
      "type": "function"
    },
    {
      "inputs": [
        {
          "internalType": "uint256",
          "name": "",
          "type": "uint256"
        }
      ],
      "name": "teamWalletsPercentages",
      "outputs": [
        {
          "internalType": "uint256",
          "name": "",
          "type": "uint256"
        }
      ],
      "stateMutability": "view",
      "type": "function"
    },
    {
      "inputs": [],
      "name": "totalSupply",
      "outputs": [
        {
          "internalType": "uint256",
          "name": "",
          "type": "uint256"
        }
      ],
      "stateMutability": "view",
      "type": "function"
    },
    {
      "inputs": [
        {
          "internalType": "address",
          "name": "to",
          "type": "address"
        },
        {
          "internalType": "uint256",
          "name": "amount",
          "type": "uint256"
        }
      ],
      "name": "transfer",
      "outputs": [
        {
          "internalType": "bool",
          "name": "",
          "type": "bool"
        }
      ],
      "stateMutability": "nonpayable",
      "type": "function"
    },
    {
      "inputs": [
        {
          "internalType": "address",
          "name": "from",
          "type": "address"
        },
        {
          "internalType": "address",
          "name": "to",
          "type": "address"
        },
        {
          "internalType": "uint256",
          "name": "amount",
          "type": "uint256"
        }
      ],
      "name": "transferFrom",
      "outputs": [
        {
          "internalType": "bool",
          "name": "",
          "type": "bool"
        }
      ],
      "stateMutability": "nonpayable",
      "type": "function"
    },
    {
      "inputs": [
        {
          "internalType": "address",
          "name": "account",
          "type": "address"
        }
      ],
      "name": "transferOwnership",
      "outputs": [],
      "stateMutability": "nonpayable",
      "type": "function"
    },
    {
      "inputs": [
        {
          "internalType": "address",
          "name": "",
          "type": "address"
        }
      ],
      "name": "usersLastSellsDates",
      "outputs": [
        {
          "internalType": "uint256",
          "name": "",
          "type": "uint256"
        }
      ],
      "stateMutability": "view",
      "type": "function"
    },
    {
      "stateMutability": "payable",
      "type": "receive"
    }
  ],
  "bytecode": "0x600680546001600160a01b031990811661dead179091556008805482167378867bbeef44f2326bf8ddd1941a4439382ef2a71790556009805490911673492a9ce7f973958454fcbcae0e22985e15cdbe58179055600a60808181526101e06040529060a061014080368337505081516200008192600a92506020019062000985565b5060408051600a808252610160820190925290602082016101408036833750508151620000b692600b925060200190620009ef565b50600c80546001600160a01b031916739ac64cc6e4415144c455bd8e4837fea55603e5c317905569d3c21bcecceda1000000600d819055612710600e55600f8190556113886010556107d060118190556012556103e8601355601455604051620001209062000a2d565b604051809103906000f0801580156200013d573d6000803e3d6000fd5b50601b80546001600160a01b0319166001600160a01b03929092169190911790553480156200016b57600080fd5b50604051806040016040528060098152602001684d65746153746f636b60b81b815250604051806040016040528060038152602001624d534b60e81b8152508160039081620001bb919062000af6565b506004620001ca828262000af6565b505050620001ea336a52b7d2dcc80cd2e40000006200076f60201b60201c565b600580546001600160a01b03199081163390811790925560408051606081018252600080825261012c602080840191909152918301819052601a805465ffffffffffff191663012c000017905593845260168152818420805460ff19908116600190811790925530865294839020805490951617909355600c54601980549093166001600160a01b0391909116908117909255805163c45a015560e01b81529051919263c45a0155926004838101938290030181865afa158015620002b3573d6000803e3d6000fd5b505050506040513d601f19601f82011682018060405250810190620002d9919062000bc2565b6001600160a01b031663c9c6539630601960009054906101000a90046001600160a01b03166001600160a01b031663ad5c46486040518163ffffffff1660e01b8152600401602060405180830381865afa1580156200033c573d6000803e3d6000fd5b505050506040513d601f19601f8201168201806040525081019062000362919062000bc2565b6040516001600160e01b031960e085901b1681526001600160a01b039283166004820152911660248201526044016020604051808303816000875af1158015620003b0573d6000803e3d6000fd5b505050506040513d601f19601f82011682018060405250810190620003d6919062000bc2565b600780546001600160a01b0319166001600160a01b039283169081179091556000908152601760205260409020805460ff19166001179055600c54620004229133911660001962000858565b600c546200043e9030906001600160a01b031660001962000858565b600854600c546200045f916001600160a01b03908116911660001962000858565b734cf4525ea8225ef715236538a3d7f06151bfee11600a6000815481106200048b576200048b62000bf4565b9060005260206000200160006101000a8154816001600160a01b0302191690836001600160a01b031602179055506107d0600b600081548110620004d357620004d362000bf4565b9060005260206000200181905550736644ebde0f26c8f74ad18697cce8a5ac4e608cb4600a6001815481106200050d576200050d62000bf4565b9060005260206000200160006101000a8154816001600160a01b0302191690836001600160a01b03160217905550610640600b60018154811062000555576200055562000bf4565b9060005260206000200181905550733c44cdddb6a900fa2b585dd299e03d12fa4293bc600a6002815481106200058f576200058f62000bf4565b9060005260206000200160006101000a8154816001600160a01b0302191690836001600160a01b03160217905550610bb8600b600281548110620005d757620005d762000bf4565b90600052602060002001819055507390f79bf6eb2c4f870365e785982e1f101e93b906600a60038154811062000611576200061162000bf4565b9060005260206000200160006101000a8154816001600160a01b0302191690836001600160a01b031602179055506101f4600b60038154811062000659576200065962000bf4565b906000526020600020018190555073fbaa3c716da6378a0840754185bff6a05a20e1c8600a60048154811062000693576200069362000bf4565b9060005260206000200160006101000a8154816001600160a01b0302191690836001600160a01b03160217905550610b54600b600481548110620006db57620006db62000bf4565b9060005260206000200181905550734cf4525ea8225ef715236538a3d7f06151bfee11600a60058154811062000715576200071562000bf4565b9060005260206000200160006101000a8154816001600160a01b0302191690836001600160a01b031602179055506107d0600b6005815481106200075d576200075d62000bf4565b60009182526020909120015562000c31565b6001600160a01b038216620007cb5760405162461bcd60e51b815260206004820152601f60248201527f45524332303a206d696e7420746f20746865207a65726f20616464726573730060448201526064015b60405180910390fd5b8060026000828254620007df919062000c0a565b90915550506001600160a01b038216600090815260208190526040812080548392906200080e90849062000c0a565b90915550506040518181526001600160a01b038316906000907fddf252ad1be2c89b69c2b068fc378daa952ba7f163c4a11628f55a4df523b3ef9060200160405180910390a35050565b6001600160a01b038316620008bc5760405162461bcd60e51b8152602060048201526024808201527f45524332303a20617070726f76652066726f6d20746865207a65726f206164646044820152637265737360e01b6064820152608401620007c2565b6001600160a01b0382166200091f5760405162461bcd60e51b815260206004820152602260248201527f45524332303a20617070726f766520746f20746865207a65726f206164647265604482015261737360f01b6064820152608401620007c2565b6001600160a01b0383811660008181526001602090815260408083209487168084529482529182902085905590518481527f8c5be1e5ebec7d5bd14f71427d1e84f3dd0314c0f7b2291e5b200ac8c7c3b925910160405180910390a3505050565b505050565b828054828255906000526020600020908101928215620009dd579160200282015b82811115620009dd57825182546001600160a01b0319166001600160a01b03909116178255602090920191600190910190620009a6565b50620009eb92915062000a3b565b5090565b828054828255906000526020600020908101928215620009dd579160200282015b82811115620009dd57825182559160200191906001019062000a10565b610e628062002a1283390190565b5b80821115620009eb576000815560010162000a3c565b634e487b7160e01b600052604160045260246000fd5b600181811c9082168062000a7d57607f821691505b60208210810362000a9e57634e487b7160e01b600052602260045260246000fd5b50919050565b601f8211156200098057600081815260208120601f850160051c8101602086101562000acd5750805b601f850160051c820191505b8181101562000aee5782815560010162000ad9565b505050505050565b81516001600160401b0381111562000b125762000b1262000a52565b62000b2a8162000b23845462000a68565b8462000aa4565b602080601f83116001811462000b62576000841562000b495750858301515b600019600386901b1c1916600185901b17855562000aee565b600085815260208120601f198616915b8281101562000b935788860151825594840194600190910190840162000b72565b508582101562000bb25787850151600019600388901b60f8161c191681555b5050505050600190811b01905550565b60006020828403121562000bd557600080fd5b81516001600160a01b038116811462000bed57600080fd5b9392505050565b634e487b7160e01b600052603260045260246000fd5b6000821982111562000c2c57634e487b7160e01b600052601160045260246000fd5b500190565b611dd18062000c416000396000f3fe6080604052600436106101f25760003560e01c80634e48f6151161010d57806395d89b41116100a0578063b62496f51161006f578063b62496f5146105fe578063dd62ed3e1461062e578063df8408fe1461064e578063f2fde38b1461066e578063f36f79e01461068e57600080fd5b806395d89b41146105895780639d0014b11461059e578063a457c2d7146105be578063a9059cbb146105de57600080fd5b80637bf9ae8f116100dc5780637bf9ae8f14610509578063893d20e8146105365780638a8c523c146105545780638da5cb5b1461056957600080fd5b80634e48f6151461045a5780635342acb41461047a57806370a08231146104b35780637b208769146104e957600080fd5b806323b872dd11610185578063395093511161015457806339509351146103da57806342966c68146103fa578063452ed4f11461041a5780634c1ccf121461043a57600080fd5b806323b872dd1461035e57806327a14fc21461037e578063313ce5671461039e57806332cde664146103ba57600080fd5b8063095ea7b3116101c1578063095ea7b3146102a157806318160ddd146102d15780631c06a7e1146102e65780631e293c101461033c57600080fd5b806303fd2a45146101fe5780630445b6671461023b57806306fdde031461025f5780630758d9241461028157600080fd5b366101f957005b600080fd5b34801561020a57600080fd5b5060065461021e906001600160a01b031681565b6040516001600160a01b0390911681526020015b60405180910390f35b34801561024757600080fd5b50610251600d5481565b604051908152602001610232565b34801561026b57600080fd5b506102746106ae565b60405161023291906119e8565b34801561028d57600080fd5b5060195461021e906001600160a01b031681565b3480156102ad57600080fd5b506102c16102bc366004611a59565b610740565b6040519015158152602001610232565b3480156102dd57600080fd5b50600254610251565b3480156102f257600080fd5b50601a546103179061ffff808216916201000081048216916401000000009091041683565b6040805161ffff94851681529284166020840152921691810191909152606001610232565b34801561034857600080fd5b5061035c610357366004611a83565b610758565b005b34801561036a57600080fd5b506102c1610379366004611a9c565b610790565b34801561038a57600080fd5b5061035c610399366004611a83565b6107b4565b3480156103aa57600080fd5b5060405160128152602001610232565b3480156103c657600080fd5b5061035c6103d5366004611aea565b6107e3565b3480156103e657600080fd5b506102c16103f5366004611a59565b61098b565b34801561040657600080fd5b5061035c610415366004611a83565b6109ad565b34801561042657600080fd5b5060075461021e906001600160a01b031681565b34801561044657600080fd5b5061021e610455366004611a83565b610a66565b34801561046657600080fd5b50610251610475366004611a83565b610a90565b34801561048657600080fd5b506102c1610495366004611b2d565b6001600160a01b031660009081526016602052604090205460ff1690565b3480156104bf57600080fd5b506102516104ce366004611b2d565b6001600160a01b031660009081526020819052604090205490565b3480156104f557600080fd5b5060095461021e906001600160a01b031681565b34801561051557600080fd5b50610251610524366004611b2d565b60186020526000908152604090205481565b34801561054257600080fd5b506005546001600160a01b031661021e565b34801561056057600080fd5b5061035c610ab1565b34801561057557600080fd5b5060055461021e906001600160a01b031681565b34801561059557600080fd5b50610274610b44565b3480156105aa57600080fd5b5061035c6105b9366004611a83565b610b53565b3480156105ca57600080fd5b506102c16105d9366004611a59565b610b82565b3480156105ea57600080fd5b506102c16105f9366004611a59565b610bfd565b34801561060a57600080fd5b506102c1610619366004611b2d565b60176020526000908152604090205460ff1681565b34801561063a57600080fd5b50610251610649366004611b4f565b610c0b565b34801561065a57600080fd5b5061035c610669366004611b93565b610c36565b34801561067a57600080fd5b5061035c610689366004611b2d565b610c8b565b34801561069a57600080fd5b5060085461021e906001600160a01b031681565b6060600380546106bd90611bca565b80601f01602080910402602001604051908101604052809291908181526020018280546106e990611bca565b80156107365780601f1061070b57610100808354040283529160200191610736565b820191906000526020600020905b81548152906001019060200180831161071957829003601f168201915b5050505050905090565b60003361074e818585610cd7565b5060019392505050565b6005546001600160a01b0316331461078b5760405162461bcd60e51b815260040161078290611c04565b60405180910390fd5b601455565b60003361079e858285610dfb565b6107a9858585610e75565b506001949350505050565b6005546001600160a01b031633146107de5760405162461bcd60e51b815260040161078290611c04565b600f55565b6005546001600160a01b0316331461080d5760405162461bcd60e51b815260040161078290611c04565b610bb88361ffff1611156108525760405162461bcd60e51b815260206004820152600c60248201526b4d415820425559204645455360a01b6044820152606401610782565b610bb88261ffff1611156108985760405162461bcd60e51b815260206004820152600d60248201526c4d41582053454c4c204645455360981b6044820152606401610782565b610bb88161ffff1611156108e25760405162461bcd60e51b81526020600482015260116024820152704d4158205452414e53464552204645455360781b6044820152606401610782565b610bb8816108f08486611c4f565b6108fa9190611c4f565b61ffff16111561094c5760405162461bcd60e51b815260206004820152601c60248201527f4d4158204255592c2053454c4c2c205452414e534645522046454553000000006044820152606401610782565b601a805461ffff94851663ffffffff199091161762010000938516939093029290921765ffff0000000019166401000000009190931602919091179055565b60003361074e81858561099e8383610c0b565b6109a89190611c75565b610cd7565b33600090815260208190526040902054811115610a245760405162461bcd60e51b815260206004820152602f60248201527f4275726e20616d6f756e742073686f756c64206265206c657373207468616e2060448201526e6163636f756e742062616c616e636560881b6064820152608401610782565b610a2e3382611132565b60405181815233907fcc16f5dbb4873280815c1ee09dbd06736cffcc184412cf7a71a0fdb75d397ca59060200160405180910390a250565b600a8181548110610a7657600080fd5b6000918252602090912001546001600160a01b0316905081565b600b8181548110610aa057600080fd5b600091825260209091200154905081565b6005546001600160a01b03163314610adb5760405162461bcd60e51b815260040161078290611c04565b601554610100900460ff1615610b335760405162461bcd60e51b815260206004820152601e60248201527f54726164696e67456e61626c656420616c7265616479206163746976656400006044820152606401610782565b6015805461ff001916610100179055565b6060600480546106bd90611bca565b6005546001600160a01b03163314610b7d5760405162461bcd60e51b815260040161078290611c04565b600d55565b60003381610b908286610c0b565b905083811015610bf05760405162461bcd60e51b815260206004820152602560248201527f45524332303a2064656372656173656420616c6c6f77616e63652062656c6f77604482015264207a65726f60d81b6064820152608401610782565b6107a98286868403610cd7565b60003361074e818585610e75565b6001600160a01b03918216600090815260016020908152604080832093909416825291909152205490565b6005546001600160a01b03163314610c605760405162461bcd60e51b815260040161078290611c04565b6001600160a01b03919091166000908152601660205260409020805460ff1916911515919091179055565b6005546001600160a01b03163314610cb55760405162461bcd60e51b815260040161078290611c04565b600580546001600160a01b0319166001600160a01b0392909216919091179055565b6001600160a01b038316610d395760405162461bcd60e51b8152602060048201526024808201527f45524332303a20617070726f76652066726f6d20746865207a65726f206164646044820152637265737360e01b6064820152608401610782565b6001600160a01b038216610d9a5760405162461bcd60e51b815260206004820152602260248201527f45524332303a20617070726f766520746f20746865207a65726f206164647265604482015261737360f01b6064820152608401610782565b6001600160a01b0383811660008181526001602090815260408083209487168084529482529182902085905590518481527f8c5be1e5ebec7d5bd14f71427d1e84f3dd0314c0f7b2291e5b200ac8c7c3b925910160405180910390a3505050565b6000610e078484610c0b565b90506000198114610e6f5781811015610e625760405162461bcd60e51b815260206004820152601d60248201527f45524332303a20696e73756666696369656e7420616c6c6f77616e63650000006044820152606401610782565b610e6f8484848403610cd7565b50505050565b610e80838383611280565b60155460ff1615610e9b57610e96838383611622565b505050565b610ea583836117f0565b15611127576000610eb5306104ce565b601b546019549192506001600160a01b03908116916305158061911630600854600e546010546001600160a01b0390921691610ef19088611c8d565b610efb9190611cac565b6040516001600160e01b031960e087901b1681526001600160a01b0394851660048201529284166024840152921660448201526064810191909152608401600060405180830381600087803b158015610f5357600080fd5b505af1158015610f67573d6000803e3d6000fd5b5050601b54604051631ee5508360e31b81526001600160a01b03909116925063f72a84189150610fa1903090600a90600b90600401611cce565b600060405180830381600087803b158015610fbb57600080fd5b505af1158015610fcf573d6000803e3d6000fd5b5050601b546019546001600160a01b039182169350639b3c2ee592501630600e54601154610ffd9087611c8d565b6110079190611cac565b60055460405160e086901b6001600160e01b03191681526001600160a01b03948516600482015292841660248401526044830191909152919091166064820152608401600060405180830381600087803b15801561106457600080fd5b505af1158015611078573d6000803e3d6000fd5b505050506110833090565b600954600e546013546001600160a01b039384169363a9059cbb931691906110ab9086611c8d565b6110b59190611cac565b6040516001600160e01b031960e085901b1681526001600160a01b03909216600483015260248201526044016020604051808303816000875af1158015611100573d6000803e3d6000fd5b505050506040513d601f19601f820116820180604052508101906111249190611d67565b50505b610e968383836118a3565b6001600160a01b0382166111925760405162461bcd60e51b815260206004820152602160248201527f45524332303a206275726e2066726f6d20746865207a65726f206164647265736044820152607360f81b6064820152608401610782565b6001600160a01b038216600090815260208190526040902054818110156112065760405162461bcd60e51b815260206004820152602260248201527f45524332303a206275726e20616d6f756e7420657863656564732062616c616e604482015261636560f01b6064820152608401610782565b6001600160a01b0383166000908152602081905260408120838303905560028054849290611235908490611d84565b90915550506040518281526000906001600160a01b038516907fddf252ad1be2c89b69c2b068fc378daa952ba7f163c4a11628f55a4df523b3ef9060200160405180910390a3505050565b6001600160a01b0383166112ec5760405162461bcd60e51b815260206004820152602d60248201527f45524332303a207472616e736665722066726f6d20746865205a45524f5f414460448201526c4452455353206164647265737360981b6064820152608401610782565b6001600160a01b0382166113565760405162461bcd60e51b815260206004820152602b60248201527f45524332303a207472616e7366657220746f20746865205a45524f5f4144445260448201526a455353206164647265737360a81b6064820152608401610782565b600081116113c05760405162461bcd60e51b815260206004820152603160248201527f5472616e7366657220616d6f756e74206d7573742062652067726561746572206044820152707468616e205a45524f5f4144445245535360781b6064820152608401610782565b6005546001600160a01b038481169116148015906113ec57506005546001600160a01b03838116911614155b801561140057506001600160a01b03821615155b801561141757506001600160a01b03821661dead14155b8015611426575060155460ff16155b15610e9657601554610100900460ff166114775760405162461bcd60e51b815260206004820152601260248201527154726164696e67206e6f742061637469766560701b6044820152606401610782565b6001600160a01b03831660009081526017602052604090205460ff1615611572576014548111156115085760405162461bcd60e51b815260206004820152603560248201527f427579207472616e7366657220616d6f756e742065786365656473207468652060448201527436b0bc2a3930b739b0b1ba34b7b720b6b7bab73a1760591b6064820152608401610782565b600f546001600160a01b03831660009081526020819052604090205461152e9083611c75565b1115610e965760405162461bcd60e51b815260206004820152601360248201527213585e081dd85b1b195d08195e18d959591959606a1b6044820152606401610782565b6001600160a01b03821660009081526017602052604090205460ff1615611508576014548111156116045760405162461bcd60e51b815260206004820152603660248201527f53656c6c207472616e7366657220616d6f756e742065786365656473207468656044820152751036b0bc2a3930b739b0b1ba34b7b720b6b7bab73a1760511b6064820152608401610782565b50506001600160a01b03166000908152601860205260409020429055565b6001600160a01b0383166116865760405162461bcd60e51b815260206004820152602560248201527f45524332303a207472616e736665722066726f6d20746865207a65726f206164604482015264647265737360d81b6064820152608401610782565b6001600160a01b0382166116e85760405162461bcd60e51b815260206004820152602360248201527f45524332303a207472616e7366657220746f20746865207a65726f206164647260448201526265737360e81b6064820152608401610782565b6001600160a01b038316600090815260208190526040902054818110156117605760405162461bcd60e51b815260206004820152602660248201527f45524332303a207472616e7366657220616d6f756e7420657863656564732062604482015265616c616e636560d01b6064820152608401610782565b6001600160a01b03808516600090815260208190526040808220858503905591851681529081208054849290611797908490611c75565b92505081905550826001600160a01b0316846001600160a01b03167fddf252ad1be2c89b69c2b068fc378daa952ba7f163c4a11628f55a4df523b3ef846040516117e391815260200190565b60405180910390a3610e6f565b6000806117fc306104ce565b9050600d548110158015611813575060155460ff16155b801561182d57506007546001600160a01b03858116911614155b801561185157506007546001600160a01b0316600090815260208190526040812054115b801561187657506001600160a01b03831660009081526016602052604090205460ff16155b801561189b57506001600160a01b03841660009081526016602052604090205460ff16155b949350505050565b6001600160a01b03831660009081526016602052604081205482919060019060ff16806118e857506001600160a01b03851660009081526016602052604090205460ff165b156118f1575060005b801561191b5761190286868661192e565b915061190e8285611d84565b925061191b863084611622565b611926868685611622565b505050505050565b6001600160a01b0383166000908152601760205260408120548190819060ff161561196b57601a546119649061ffff1683611c75565b91506119bf565b6001600160a01b03851660009081526017602052604090205460ff16156119a357601a546119649062010000900461ffff1683611c75565b601a546119bc90640100000000900461ffff1683611c75565b91505b81156119df57600e546119d28386611c8d565b6119dc9190611cac565b90505b95945050505050565b600060208083528351808285015260005b81811015611a15578581018301518582016040015282016119f9565b81811115611a27576000604083870101525b50601f01601f1916929092016040019392505050565b80356001600160a01b0381168114611a5457600080fd5b919050565b60008060408385031215611a6c57600080fd5b611a7583611a3d565b946020939093013593505050565b600060208284031215611a9557600080fd5b5035919050565b600080600060608486031215611ab157600080fd5b611aba84611a3d565b9250611ac860208501611a3d565b9150604084013590509250925092565b803561ffff81168114611a5457600080fd5b600080600060608486031215611aff57600080fd5b611b0884611ad8565b9250611b1660208501611ad8565b9150611b2460408501611ad8565b90509250925092565b600060208284031215611b3f57600080fd5b611b4882611a3d565b9392505050565b60008060408385031215611b6257600080fd5b611b6b83611a3d565b9150611b7960208401611a3d565b90509250929050565b8015158114611b9057600080fd5b50565b60008060408385031215611ba657600080fd5b611baf83611a3d565b91506020830135611bbf81611b82565b809150509250929050565b600181811c90821680611bde57607f821691505b602082108103611bfe57634e487b7160e01b600052602260045260246000fd5b50919050565b6020808252818101527f4f776e61626c653a2063616c6c6572206973206e6f7420746865206f776e6572604082015260600190565b634e487b7160e01b600052601160045260246000fd5b600061ffff808316818516808303821115611c6c57611c6c611c39565b01949350505050565b60008219821115611c8857611c88611c39565b500190565b6000816000190483118215151615611ca757611ca7611c39565b500290565b600082611cc957634e487b7160e01b600052601260045260246000fd5b500490565b60006060820160018060a01b038087168452602060608186015282875480855260808701915060009450888552828520855b82811015611d1e578154861684529284019260019182019101611d00565b5050508581036040870152865480825287855282852091830193505b80851015611d5957815484526001948501949383019390910190611d3a565b509198975050505050505050565b600060208284031215611d7957600080fd5b8151611b4881611b82565b600082821015611d9657611d96611c39565b50039056fea2646970667358221220d56d216c660156132120dd9f01917b4d5b7135c43ae3915cec1de2890c7d3e1364736f6c634300080f0033608060405234801561001057600080fd5b50610e42806100206000396000f3fe608060405234801561001057600080fd5b50600436106100625760003560e01c806305158061146100675780632606222a1461007c5780633b4a4af41461008f5780634b2fc7bb146100b85780639b3c2ee5146100cb578063f72a8418146100de575b600080fd5b61007a61007536600461090e565b6100f1565b005b61007a61008a36600461095f565b6103c7565b6100a261009d3660046109a0565b61058c565b6040516100af9190610a1d565b60405180910390f35b61007a6100c6366004610a37565b610619565b61007a6100d9366004610a96565b610742565b61007a6100ec366004610bbf565b610795565b6040805160038082526080820190925260009160208201606080368337019050509050838160008151811061012857610128610c95565b60200260200101906001600160a01b031690816001600160a01b031681525050846001600160a01b031663ad5c46486040518163ffffffff1660e01b8152600401602060405180830381865afa158015610186573d6000803e3d6000fd5b505050506040513d601f19601f820116820180604052508101906101aa9190610cab565b816001815181106101bd576101bd610c95565b60200260200101906001600160a01b031690816001600160a01b03168152505082816002815181106101f1576101f1610c95565b6001600160a01b03928316602091820292909201015260405163095ea7b360e01b8152868216600482015260001960248201529084169063095ea7b3906044016020604051808303816000875af1158015610250573d6000803e3d6000fd5b505050506040513d601f19601f820116820180604052508101906102749190610cc8565b50846001600160a01b031663ad5c46486040518163ffffffff1660e01b8152600401602060405180830381865afa1580156102b3573d6000803e3d6000fd5b505050506040513d601f19601f820116820180604052508101906102d79190610cab565b60405163095ea7b360e01b81526001600160a01b0387811660048301526000196024830152919091169063095ea7b3906044016020604051808303816000875af1158015610329573d6000803e3d6000fd5b505050506040513d601f19601f8201168201806040525081019061034d9190610cc8565b506001600160a01b038516635c11d795836000848861036e426103e8610d00565b6040518663ffffffff1660e01b815260040161038e959493929190610d18565b600060405180830381600087803b1580156103a857600080fd5b505af11580156103bc573d6000803e3d6000fd5b505050505050505050565b60408051600280825260608201835260009260208301908036833701905050905082816000815181106103fc576103fc610c95565b60200260200101906001600160a01b031690816001600160a01b031681525050836001600160a01b031663ad5c46486040518163ffffffff1660e01b8152600401602060405180830381865afa15801561045a573d6000803e3d6000fd5b505050506040513d601f19601f8201168201806040525081019061047e9190610cab565b8160018151811061049157610491610c95565b6001600160a01b03928316602091820292909201015260405163095ea7b360e01b81528582166004820152602481018490529084169063095ea7b3906044016020604051808303816000875af11580156104ef573d6000803e3d6000fd5b505050506040513d601f19601f820116820180604052508101906105139190610cc8565b506001600160a01b03841663791ac9478360008487610534426103e8610d00565b6040518663ffffffff1660e01b8152600401610554959493929190610d18565b600060405180830381600087803b15801561056e57600080fd5b505af1158015610582573d6000803e3d6000fd5b5050505050505050565b6040805160028082526060808301845292600092919060208301908036833701905050905083816000815181106105c5576105c5610c95565b60200260200101906001600160a01b031690816001600160a01b03168152505082816001815181106105f9576105f9610c95565b6001600160a01b0390921660209283029190910190910152905092915050565b60405163095ea7b360e01b81526001600160a01b038681166004830152600019602483015285169063095ea7b3906044016020604051808303816000875af1158015610669573d6000803e3d6000fd5b505050506040513d601f19601f8201168201806040525081019061068d9190610cc8565b506001600160a01b03851663f305d719838686600080876106b042612710610d00565b60405160e089901b6001600160e01b03191681526001600160a01b039687166004820152602481019590955260448501939093526064840191909152909216608482015260a481019190915260c40160606040518083038185885af115801561071d573d6000803e3d6000fd5b50505050506040513d601f19601f820116820180604052508101906105829190610d54565b600061074f600284610d82565b90506001600160a01b038416316107678686846103c7565b600061077d826001600160a01b03881631610da4565b905061078c8787858488610619565b50505050505050565b6040516370a0823160e01b81526001600160a01b0384166004820181905261271091600091906370a0823190602401602060405180830381865afa1580156107e1573d6000803e3d6000fd5b505050506040513d601f19601f820116820180604052508101906108059190610dbb565b905060005b84518110156108ee57856001600160a01b031663a9059cbb86838151811061083457610834610c95565b60200260200101518587858151811061084f5761084f610c95565b6020026020010151866108629190610dd4565b61086c9190610d82565b6040516001600160e01b031960e085901b1681526001600160a01b03909216600483015260248201526044016020604051808303816000875af11580156108b7573d6000803e3d6000fd5b505050506040513d601f19601f820116820180604052508101906108db9190610cc8565b50806108e681610df3565b91505061080a565b505050505050565b6001600160a01b038116811461090b57600080fd5b50565b6000806000806080858703121561092457600080fd5b843561092f816108f6565b9350602085013561093f816108f6565b9250604085013561094f816108f6565b9396929550929360600135925050565b60008060006060848603121561097457600080fd5b833561097f816108f6565b9250602084013561098f816108f6565b929592945050506040919091013590565b600080604083850312156109b357600080fd5b82356109be816108f6565b915060208301356109ce816108f6565b809150509250929050565b600081518084526020808501945080840160005b83811015610a125781516001600160a01b0316875295820195908201906001016109ed565b509495945050505050565b602081526000610a3060208301846109d9565b9392505050565b600080600080600060a08688031215610a4f57600080fd5b8535610a5a816108f6565b94506020860135610a6a816108f6565b935060408601359250606086013591506080860135610a88816108f6565b809150509295509295909350565b60008060008060808587031215610aac57600080fd5b8435610ab7816108f6565b93506020850135610ac7816108f6565b9250604085013591506060850135610ade816108f6565b939692955090935050565b634e487b7160e01b600052604160045260246000fd5b604051601f8201601f1916810167ffffffffffffffff81118282101715610b2857610b28610ae9565b604052919050565b600067ffffffffffffffff821115610b4a57610b4a610ae9565b5060051b60200190565b600082601f830112610b6557600080fd5b81356020610b7a610b7583610b30565b610aff565b82815260059290921b84018101918181019086841115610b9957600080fd5b8286015b84811015610bb45780358352918301918301610b9d565b509695505050505050565b600080600060608486031215610bd457600080fd5b8335610bdf816108f6565b925060208481013567ffffffffffffffff80821115610bfd57600080fd5b818701915087601f830112610c1157600080fd5b8135610c1f610b7582610b30565b81815260059190911b8301840190848101908a831115610c3e57600080fd5b938501935b82851015610c65578435610c56816108f6565b82529385019390850190610c43565b965050506040870135925080831115610c7d57600080fd5b5050610c8b86828701610b54565b9150509250925092565b634e487b7160e01b600052603260045260246000fd5b600060208284031215610cbd57600080fd5b8151610a30816108f6565b600060208284031215610cda57600080fd5b81518015158114610a3057600080fd5b634e487b7160e01b600052601160045260246000fd5b60008219821115610d1357610d13610cea565b500190565b85815284602082015260a060408201526000610d3760a08301866109d9565b6001600160a01b0394909416606083015250608001529392505050565b600080600060608486031215610d6957600080fd5b8351925060208401519150604084015190509250925092565b600082610d9f57634e487b7160e01b600052601260045260246000fd5b500490565b600082821015610db657610db6610cea565b500390565b600060208284031215610dcd57600080fd5b5051919050565b6000816000190483118215151615610dee57610dee610cea565b500290565b600060018201610e0557610e05610cea565b506001019056fea26469706673582212202ef4359e2bc3611044458789ee884e0932778c2e93c912a44c33d1783094364c64736f6c634300080f0033",
  "linkReferences": {},
  "deployedLinkReferences": {}
}