{
  "_format": "hh-sol-artifact-1",
  "contractName": "MetaStock",
  "sourceName": "contracts/MetaStock.sol",
  "abi": [
    {
      "inputs": [],
      "stateMutability": "nonpayable",
      "type": "constructor"
    },
    {
      "anonymous": false,
      "inputs": [
        {
          "indexed": true,
          "internalType": "address",
          "name": "owner",
          "type": "address"
        },
        {
          "indexed": true,
          "internalType": "address",
          "name": "spender",
          "type": "address"
        },
        {
          "indexed": false,
          "internalType": "uint256",
          "name": "value",
          "type": "uint256"
        }
      ],
      "name": "Approval",
      "type": "event"
    },
    {
      "anonymous": false,
      "inputs": [
        {
          "indexed": true,
          "internalType": "address",
          "name": "sender",
          "type": "address"
        },
        {
          "indexed": false,
          "internalType": "uint256",
          "name": "amount",
          "type": "uint256"
        }
      ],
      "name": "Burn",
      "type": "event"
    },
    {
      "anonymous": false,
      "inputs": [
        {
          "indexed": true,
          "internalType": "address",
          "name": "previousOwner",
          "type": "address"
        },
        {
          "indexed": true,
          "internalType": "address",
          "name": "newOwner",
          "type": "address"
        }
      ],
      "name": "OwnershipTransferred",
      "type": "event"
    },
    {
      "anonymous": false,
      "inputs": [
        {
          "indexed": true,
          "internalType": "address",
          "name": "from",
          "type": "address"
        },
        {
          "indexed": true,
          "internalType": "address",
          "name": "to",
          "type": "address"
        },
        {
          "indexed": false,
          "internalType": "uint256",
          "name": "value",
          "type": "uint256"
        }
      ],
      "name": "Transfer",
      "type": "event"
    },
    {
      "inputs": [],
      "name": "DEAD",
      "outputs": [
        {
          "internalType": "address",
          "name": "",
          "type": "address"
        }
      ],
      "stateMutability": "view",
      "type": "function"
    },
    {
      "inputs": [],
      "name": "_feesRates",
      "outputs": [
        {
          "internalType": "uint16",
          "name": "buyFee",
          "type": "uint16"
        },
        {
          "internalType": "uint16",
          "name": "sellFee",
          "type": "uint16"
        },
        {
          "internalType": "uint16",
          "name": "transferFee",
          "type": "uint16"
        }
      ],
      "stateMutability": "view",
      "type": "function"
    },
    {
      "inputs": [
        {
          "internalType": "address",
          "name": "owner",
          "type": "address"
        },
        {
          "internalType": "address",
          "name": "spender",
          "type": "address"
        }
      ],
      "name": "allowance",
      "outputs": [
        {
          "internalType": "uint256",
          "name": "",
          "type": "uint256"
        }
      ],
      "stateMutability": "view",
      "type": "function"
    },
    {
      "inputs": [
        {
          "internalType": "address",
          "name": "spender",
          "type": "address"
        },
        {
          "internalType": "uint256",
          "name": "amount",
          "type": "uint256"
        }
      ],
      "name": "approve",
      "outputs": [
        {
          "internalType": "bool",
          "name": "",
          "type": "bool"
        }
      ],
      "stateMutability": "nonpayable",
      "type": "function"
    },
    {
      "inputs": [
        {
          "internalType": "uint256",
          "name": "tokenAmount",
          "type": "uint256"
        }
      ],
      "name": "autoLiquidity",
      "outputs": [],
      "stateMutability": "nonpayable",
      "type": "function"
    },
    {
      "inputs": [
        {
          "internalType": "address",
          "name": "",
          "type": "address"
        }
      ],
      "name": "automatedMarketMakerPairs",
      "outputs": [
        {
          "internalType": "bool",
          "name": "",
          "type": "bool"
        }
      ],
      "stateMutability": "view",
      "type": "function"
    },
    {
      "inputs": [
        {
          "internalType": "address",
          "name": "account",
          "type": "address"
        }
      ],
      "name": "balanceOf",
      "outputs": [
        {
          "internalType": "uint256",
          "name": "",
          "type": "uint256"
        }
      ],
      "stateMutability": "view",
      "type": "function"
    },
    {
      "inputs": [
        {
          "internalType": "address",
          "name": "from",
          "type": "address"
        },
        {
          "internalType": "uint256",
          "name": "amount",
          "type": "uint256"
        }
      ],
      "name": "burn",
      "outputs": [],
      "stateMutability": "nonpayable",
      "type": "function"
    },
    {
      "inputs": [],
      "name": "decimals",
      "outputs": [
        {
          "internalType": "uint8",
          "name": "",
          "type": "uint8"
        }
      ],
      "stateMutability": "view",
      "type": "function"
    },
    {
      "inputs": [
        {
          "internalType": "address",
          "name": "spender",
          "type": "address"
        },
        {
          "internalType": "uint256",
          "name": "subtractedValue",
          "type": "uint256"
        }
      ],
      "name": "decreaseAllowance",
      "outputs": [
        {
          "internalType": "bool",
          "name": "",
          "type": "bool"
        }
      ],
      "stateMutability": "nonpayable",
      "type": "function"
    },
    {
      "inputs": [],
      "name": "dexRouter",
      "outputs": [
        {
          "internalType": "contract IUniswapV2Router02",
          "name": "",
          "type": "address"
        }
      ],
      "stateMutability": "view",
      "type": "function"
    },
    {
      "inputs": [],
      "name": "enableTrading",
      "outputs": [],
      "stateMutability": "nonpayable",
      "type": "function"
    },
    {
      "inputs": [
        {
          "internalType": "address",
          "name": "account",
          "type": "address"
        },
        {
          "internalType": "bool",
          "name": "val",
          "type": "bool"
        }
      ],
      "name": "excludeFromFee",
      "outputs": [],
      "stateMutability": "nonpayable",
      "type": "function"
    },
    {
      "inputs": [],
      "name": "getOwner",
      "outputs": [
        {
          "internalType": "address",
          "name": "",
          "type": "address"
        }
      ],
      "stateMutability": "view",
      "type": "function"
    },
    {
      "inputs": [
        {
          "internalType": "address",
          "name": "spender",
          "type": "address"
        },
        {
          "internalType": "uint256",
          "name": "addedValue",
          "type": "uint256"
        }
      ],
      "name": "increaseAllowance",
      "outputs": [
        {
          "internalType": "bool",
          "name": "",
          "type": "bool"
        }
      ],
      "stateMutability": "nonpayable",
      "type": "function"
    },
    {
      "inputs": [
        {
          "internalType": "address",
          "name": "account",
          "type": "address"
        }
      ],
      "name": "isExcludedFromFee",
      "outputs": [
        {
          "internalType": "bool",
          "name": "",
          "type": "bool"
        }
      ],
      "stateMutability": "view",
      "type": "function"
    },
    {
      "inputs": [],
      "name": "lpPair",
      "outputs": [
        {
          "internalType": "address",
          "name": "",
          "type": "address"
        }
      ],
      "stateMutability": "view",
      "type": "function"
    },
    {
      "inputs": [],
      "name": "name",
      "outputs": [
        {
          "internalType": "string",
          "name": "",
          "type": "string"
        }
      ],
      "stateMutability": "view",
      "type": "function"
    },
    {
      "inputs": [],
      "name": "owner",
      "outputs": [
        {
          "internalType": "address",
          "name": "",
          "type": "address"
        }
      ],
      "stateMutability": "view",
      "type": "function"
    },
    {
      "inputs": [
        {
          "internalType": "uint256",
          "name": "value",
          "type": "uint256"
        }
      ],
      "name": "setMaxTransactionAmount",
      "outputs": [],
      "stateMutability": "nonpayable",
      "type": "function"
    },
    {
      "inputs": [
        {
          "internalType": "uint256",
          "name": "value",
          "type": "uint256"
        }
      ],
      "name": "setMaxWalletAmount",
      "outputs": [],
      "stateMutability": "nonpayable",
      "type": "function"
    },
    {
      "inputs": [
        {
          "internalType": "uint256",
          "name": "value",
          "type": "uint256"
        }
      ],
      "name": "setSwapThreshold",
      "outputs": [],
      "stateMutability": "nonpayable",
      "type": "function"
    },
    {
      "inputs": [
        {
          "internalType": "uint16",
          "name": "buyFeePercentage",
          "type": "uint16"
        },
        {
          "internalType": "uint16",
          "name": "sellFeePercentage",
          "type": "uint16"
        },
        {
          "internalType": "uint16",
          "name": "transferPercentage",
          "type": "uint16"
        }
      ],
      "name": "setTaxes",
      "outputs": [],
      "stateMutability": "nonpayable",
      "type": "function"
    },
    {
      "inputs": [],
      "name": "swapThreshold",
      "outputs": [
        {
          "internalType": "uint256",
          "name": "",
          "type": "uint256"
        }
      ],
      "stateMutability": "view",
      "type": "function"
    },
    {
      "inputs": [],
      "name": "symbol",
      "outputs": [
        {
          "internalType": "string",
          "name": "",
          "type": "string"
        }
      ],
      "stateMutability": "view",
      "type": "function"
    },
    {
      "inputs": [],
      "name": "totalSupply",
      "outputs": [
        {
          "internalType": "uint256",
          "name": "",
          "type": "uint256"
        }
      ],
      "stateMutability": "view",
      "type": "function"
    },
    {
      "inputs": [
        {
          "internalType": "address",
          "name": "to",
          "type": "address"
        },
        {
          "internalType": "uint256",
          "name": "amount",
          "type": "uint256"
        }
      ],
      "name": "transfer",
      "outputs": [
        {
          "internalType": "bool",
          "name": "",
          "type": "bool"
        }
      ],
      "stateMutability": "nonpayable",
      "type": "function"
    },
    {
      "inputs": [
        {
          "internalType": "address",
          "name": "from",
          "type": "address"
        },
        {
          "internalType": "address",
          "name": "to",
          "type": "address"
        },
        {
          "internalType": "uint256",
          "name": "amount",
          "type": "uint256"
        }
      ],
      "name": "transferFrom",
      "outputs": [
        {
          "internalType": "bool",
          "name": "",
          "type": "bool"
        }
      ],
      "stateMutability": "nonpayable",
      "type": "function"
    },
    {
      "inputs": [
        {
          "internalType": "address",
          "name": "account",
          "type": "address"
        }
      ],
      "name": "transferOwnership",
      "outputs": [],
      "stateMutability": "nonpayable",
      "type": "function"
    },
    {
      "inputs": [],
      "name": "usdAddress",
      "outputs": [
        {
          "internalType": "address",
          "name": "",
          "type": "address"
        }
      ],
      "stateMutability": "view",
      "type": "function"
    },
    {
      "inputs": [
        {
          "internalType": "address",
          "name": "",
          "type": "address"
        }
      ],
      "name": "usersBuysCounter",
      "outputs": [
        {
          "internalType": "uint256",
          "name": "",
          "type": "uint256"
        }
      ],
      "stateMutability": "view",
      "type": "function"
    },
    {
      "inputs": [
        {
          "internalType": "uint256",
          "name": "",
          "type": "uint256"
        }
      ],
      "name": "usersLastBuysTxs",
      "outputs": [
        {
          "internalType": "uint256",
          "name": "",
          "type": "uint256"
        }
      ],
      "stateMutability": "view",
      "type": "function"
    },
    {
      "inputs": [
        {
          "internalType": "uint256",
          "name": "",
          "type": "uint256"
        }
      ],
      "name": "usersLastSellsTxs",
      "outputs": [
        {
          "internalType": "uint256",
          "name": "",
          "type": "uint256"
        }
      ],
      "stateMutability": "view",
      "type": "function"
    },
    {
      "inputs": [
        {
          "internalType": "address",
          "name": "",
          "type": "address"
        }
      ],
      "name": "usersSellCounter",
      "outputs": [
        {
          "internalType": "uint256",
          "name": "",
          "type": "uint256"
        }
      ],
      "stateMutability": "view",
      "type": "function"
    },
    {
      "stateMutability": "payable",
      "type": "receive"
    }
  ],
  "bytecode": "0x600680546001600160a01b031990811661dead179091556008805482167378867bbeef44f2326bf8ddd1941a4439382ef2a717905560098054909116739ac64cc6e4415144c455bd8e4837fea55603e5c3179055600a60808181526101e06040529060a061014080368337505081516200008192600a925060200190620008cd565b5068d8d726b7177a800000600b55612710600c5569d3c21bcecceda1000000600d819055600e55611388600f556107d060108190556011556103e860125560408051600a808252610160820190925290602082016101408036833750508151620000f392601392506020019062000937565b503480156200010157600080fd5b50604051806040016040528060098152602001684d65746153746f636b60b81b815250604051806040016040528060038152602001624d534b60e81b815250816003908162000151919062000a30565b50600462000160828262000a30565b50505062000180336a52b7d2dcc80cd2e40000006200057460201b60201c565b600580546001600160a01b031916339081179091556040805160608101825260008082526020808301829052918301819052601c805465ffffffffffff1916905592835260159052808220805460ff1990811660019081179092553084529190922080549091169091179055620001f66200065d565b600954620002129033906001600160a01b0316600019620007a0565b6009546200022e9030906001600160a01b0316600019620007a0565b6008546009546200024f916001600160a01b039081169116600019620007a0565b6008546200026a906001600160a01b031630600019620007a0565b736644ebde0f26c8f74ad18697cce8a5ac4e608cb4600a60008154811062000296576200029662000afc565b9060005260206000200160006101000a8154816001600160a01b0302191690836001600160a01b03160217905550733c44cdddb6a900fa2b585dd299e03d12fa4293bc600a600181548110620002f057620002f062000afc565b9060005260206000200160006101000a8154816001600160a01b0302191690836001600160a01b031602179055507390f79bf6eb2c4f870365e785982e1f101e93b906600a6002815481106200034a576200034a62000afc565b9060005260206000200160006101000a8154816001600160a01b0302191690836001600160a01b0316021790555073fbaa3c716da6378a0840754185bff6a05a20e1c8600a600381548110620003a457620003a462000afc565b9060005260206000200160006101000a8154816001600160a01b0302191690836001600160a01b03160217905550734cf4525ea8225ef715236538a3d7f06151bfee11600a600481548110620003fe57620003fe62000afc565b9060005260206000200160006101000a8154816001600160a01b0302191690836001600160a01b0316021790555073492a9ce7f973958454fcbcae0e22985e15cdbe58600a60058154811062000458576200045862000afc565b9060005260206000200160006101000a8154816001600160a01b0302191690836001600160a01b03160217905550606460136000815481106200049f576200049f62000afc565b906000526020600020018190555060646013600181548110620004c657620004c662000afc565b906000526020600020018190555060646013600281548110620004ed57620004ed62000afc565b90600052602060002001819055506064601360038154811062000514576200051462000afc565b9060005260206000200181905550606460136004815481106200053b576200053b62000afc565b90600052602060002001819055506064601360058154811062000562576200056262000afc565b60009182526020909120015562000b6b565b6001600160a01b038216620005d05760405162461bcd60e51b815260206004820152601f60248201527f45524332303a206d696e7420746f20746865207a65726f20616464726573730060448201526064015b60405180910390fd5b8060026000828254620005e4919062000b12565b90915550506001600160a01b038216600090815260208190526040812080548392906200061390849062000b12565b90915550506040518181526001600160a01b038316906000907fddf252ad1be2c89b69c2b068fc378daa952ba7f163c4a11628f55a4df523b3ef9060200160405180910390a35050565b600954601b80546001600160a01b0319166001600160a01b0390921691821790556040805163c45a015560e01b8152905163c45a0155916004808201926020929091908290030181865afa158015620006ba573d6000803e3d6000fd5b505050506040513d601f19601f82011682018060405250810190620006e0919062000b39565b6001600160a01b031663c9c653963060085460405160e084901b6001600160e01b03191681526001600160a01b039283166004820152911660248201526044016020604051808303816000875af115801562000740573d6000803e3d6000fd5b505050506040513d601f19601f8201168201806040525081019062000766919062000b39565b600780546001600160a01b0319166001600160a01b039290921691821790556000908152601660205260409020805460ff19166001179055565b6001600160a01b038316620008045760405162461bcd60e51b8152602060048201526024808201527f45524332303a20617070726f76652066726f6d20746865207a65726f206164646044820152637265737360e01b6064820152608401620005c7565b6001600160a01b038216620008675760405162461bcd60e51b815260206004820152602260248201527f45524332303a20617070726f766520746f20746865207a65726f206164647265604482015261737360f01b6064820152608401620005c7565b6001600160a01b0383811660008181526001602090815260408083209487168084529482529182902085905590518481527f8c5be1e5ebec7d5bd14f71427d1e84f3dd0314c0f7b2291e5b200ac8c7c3b925910160405180910390a3505050565b505050565b82805482825590600052602060002090810192821562000925579160200282015b828111156200092557825182546001600160a01b0319166001600160a01b03909116178255602090920191600190910190620008ee565b506200093392915062000975565b5090565b82805482825590600052602060002090810192821562000925579160200282015b828111156200092557825182559160200191906001019062000958565b5b8082111562000933576000815560010162000976565b634e487b7160e01b600052604160045260246000fd5b600181811c90821680620009b757607f821691505b602082108103620009d857634e487b7160e01b600052602260045260246000fd5b50919050565b601f821115620008c857600081815260208120601f850160051c8101602086101562000a075750805b601f850160051c820191505b8181101562000a285782815560010162000a13565b505050505050565b81516001600160401b0381111562000a4c5762000a4c6200098c565b62000a648162000a5d8454620009a2565b84620009de565b602080601f83116001811462000a9c576000841562000a835750858301515b600019600386901b1c1916600185901b17855562000a28565b600085815260208120601f198616915b8281101562000acd5788860151825594840194600190910190840162000aac565b508582101562000aec5787850151600019600388901b60f8161c191681555b5050505050600190811b01905550565b634e487b7160e01b600052603260045260246000fd5b6000821982111562000b3457634e487b7160e01b600052601160045260246000fd5b500190565b60006020828403121562000b4c57600080fd5b81516001600160a01b038116811462000b6457600080fd5b9392505050565b6123848062000b7b6000396000f3fe60806040526004361061018d5760003560e01c806303fd2a45146101995780630445b667146101cf57806306fdde03146101f35780630758d92414610215578063095ea7b31461023557806318160ddd146102655780631c06a7e11461027a5780631e293c10146102cf57806323b872dd146102f157806327a14fc214610311578063313ce5671461033157806332cde6641461034d578063395093511461036d578063452ed4f11461038d57806347fa7c88146103ad5780635342acb4146103da57806355106e5f1461041357806370a0823114610440578063893d20e81461046057806389e7bf1c1461047e5780638a8c523c146104ab5780638da5cb5b146104c057806395d89b41146104e05780639d0014b1146104f55780639dc29fac146105155780639e1a861314610535578063a457c2d714610555578063a9059cbb14610575578063b62496f514610595578063c6aca36b146105c5578063dd62ed3e146105e5578063df8408fe14610605578063f2fde38b14610625578063fe9a79c81461064557600080fd5b3661019457005b600080fd5b3480156101a557600080fd5b506006546101b9906001600160a01b031681565b6040516101c69190611ebc565b60405180910390f35b3480156101db57600080fd5b506101e5600b5481565b6040519081526020016101c6565b3480156101ff57600080fd5b50610208610672565b6040516101c69190611f1d565b34801561022157600080fd5b50601b546101b9906001600160a01b031681565b34801561024157600080fd5b50610255610250366004611f4c565b610704565b60405190151581526020016101c6565b34801561027157600080fd5b506002546101e5565b34801561028657600080fd5b50601c546102aa9061ffff80821691620100008104821691600160201b9091041683565b6040805161ffff948516815292841660208401529216918101919091526060016101c6565b3480156102db57600080fd5b506102ef6102ea366004611f78565b61071c565b005b3480156102fd57600080fd5b5061025561030c366004611f91565b610754565b34801561031d57600080fd5b506102ef61032c366004611f78565b610778565b34801561033d57600080fd5b50604051600881526020016101c6565b34801561035957600080fd5b506102ef610368366004611fe9565b6107a7565b34801561037957600080fd5b50610255610388366004611f4c565b61094c565b34801561039957600080fd5b506007546101b9906001600160a01b031681565b3480156103b957600080fd5b506101e56103c8366004611f78565b601a6020526000908152604090205481565b3480156103e657600080fd5b506102556103f536600461202c565b6001600160a01b031660009081526015602052604090205460ff1690565b34801561041f57600080fd5b506101e561042e366004611f78565b60196020526000908152604090205481565b34801561044c57600080fd5b506101e561045b36600461202c565b61096e565b34801561046c57600080fd5b506005546001600160a01b03166101b9565b34801561048a57600080fd5b506101e561049936600461202c565b60186020526000908152604090205481565b3480156104b757600080fd5b506102ef610989565b3480156104cc57600080fd5b506005546101b9906001600160a01b031681565b3480156104ec57600080fd5b50610208610a1c565b34801561050157600080fd5b506102ef610510366004611f78565b610a2b565b34801561052157600080fd5b506102ef610530366004611f4c565b610a5a565b34801561054157600080fd5b506008546101b9906001600160a01b031681565b34801561056157600080fd5b50610255610570366004611f4c565b610b24565b34801561058157600080fd5b50610255610590366004611f4c565b610b9f565b3480156105a157600080fd5b506102556105b036600461202c565b60166020526000908152604090205460ff1681565b3480156105d157600080fd5b506102ef6105e0366004611f78565b610bad565b3480156105f157600080fd5b506101e5610600366004612049565b610be6565b34801561061157600080fd5b506102ef610620366004612082565b610c11565b34801561063157600080fd5b506102ef61064036600461202c565b610c66565b34801561065157600080fd5b506101e561066036600461202c565b60176020526000908152604090205481565b606060038054610681906120b5565b80601f01602080910402602001604051908101604052809291908181526020018280546106ad906120b5565b80156106fa5780601f106106cf576101008083540402835291602001916106fa565b820191906000526020600020905b8154815290600101906020018083116106dd57829003601f168201915b5050505050905090565b600033610712818585610cb2565b5060019392505050565b6005546001600160a01b0316331461074f5760405162461bcd60e51b8152600401610746906120ef565b60405180910390fd5b600e55565b600033610762858285610dd6565b61076d858585610e4a565b506001949350505050565b6005546001600160a01b031633146107a25760405162461bcd60e51b8152600401610746906120ef565b600d55565b6005546001600160a01b031633146107d15760405162461bcd60e51b8152600401610746906120ef565b610bb88361ffff1611156108165760405162461bcd60e51b815260206004820152600c60248201526b4d415820425559204645455360a01b6044820152606401610746565b610bb88261ffff16111561085c5760405162461bcd60e51b815260206004820152600d60248201526c4d41582053454c4c204645455360981b6044820152606401610746565b610bb88161ffff1611156108a65760405162461bcd60e51b81526020600482015260116024820152704d4158205452414e53464552204645455360781b6044820152606401610746565b610bb8816108b4848661213a565b6108be919061213a565b61ffff16111561090f5760405162461bcd60e51b815260206004820152601c60248201527b4d4158204255592c2053454c4c2c205452414e53464552204645455360201b6044820152606401610746565b601c805461ffff94851663ffffffff199091161762010000938516939093029290921761ffff60201b1916600160201b9190931602919091179055565b60003361071281858561095f8383610be6565b6109699190612160565b610cb2565b6001600160a01b031660009081526020819052604090205490565b6005546001600160a01b031633146109b35760405162461bcd60e51b8152600401610746906120ef565b601454610100900460ff1615610a0b5760405162461bcd60e51b815260206004820152601e60248201527f54726164696e67456e61626c656420616c7265616479206163746976656400006044820152606401610746565b6014805461ff001916610100179055565b606060048054610681906120b5565b6005546001600160a01b03163314610a555760405162461bcd60e51b8152600401610746906120ef565b600b55565b610a638261096e565b811115610ad35760405162461bcd60e51b815260206004820152603860248201527f4275726e20616d6f756e742073686f756c64206265206c657373206f7220657160448201527775616c207468616e206163636f756e742062616c616e636560401b6064820152608401610746565b610add828261100e565b816001600160a01b03167fcc16f5dbb4873280815c1ee09dbd06736cffcc184412cf7a71a0fdb75d397ca582604051610b1891815260200190565b60405180910390a25050565b60003381610b328286610be6565b905083811015610b925760405162461bcd60e51b815260206004820152602560248201527f45524332303a2064656372656173656420616c6c6f77616e63652062656c6f77604482015264207a65726f60d81b6064820152608401610746565b61076d8286868403610cb2565b600033610712818585610e4a565b6000610bba600283612178565b90503031610bc78261114a565b6000610bd482303161219a565b9050610be083826112b7565b50505050565b6001600160a01b03918216600090815260016020908152604080832093909416825291909152205490565b6005546001600160a01b03163314610c3b5760405162461bcd60e51b8152600401610746906120ef565b6001600160a01b03919091166000908152601560205260409020805460ff1916911515919091179055565b6005546001600160a01b03163314610c905760405162461bcd60e51b8152600401610746906120ef565b600580546001600160a01b0319166001600160a01b0392909216919091179055565b6001600160a01b038316610d145760405162461bcd60e51b8152602060048201526024808201527f45524332303a20617070726f76652066726f6d20746865207a65726f206164646044820152637265737360e01b6064820152608401610746565b6001600160a01b038216610d755760405162461bcd60e51b815260206004820152602260248201527f45524332303a20617070726f766520746f20746865207a65726f206164647265604482015261737360f01b6064820152608401610746565b6001600160a01b0383811660008181526001602090815260408083209487168084529482529182902085905590518481527f8c5be1e5ebec7d5bd14f71427d1e84f3dd0314c0f7b2291e5b200ac8c7c3b925910160405180910390a3505050565b6000610de28484610be6565b90506000198114610be05781811015610e3d5760405162461bcd60e51b815260206004820152601d60248201527f45524332303a20696e73756666696369656e7420616c6c6f77616e63650000006044820152606401610746565b610be08484848403610cb2565b610e55838383611394565b60145460ff1615610e7057610e6b8383836117bf565b505050565b6000610e7b3061096e565b90506000610e8a85858461197b565b9050610ec260405180604001604052806014815260200173636f6e7472616374546f6b656e42616c616e636560601b81525083611a1f565b610ef06040518060400160405280600c81526020016b1b5d5cdd10dbdb9d1c9858dd60a21b81525082611a68565b8015610ffc57610f1e604051806040016040528060078152602001660444f20535741560cc1b815250611aad565b610f41600c54600f5484610f3291906121b1565b610f3c9190612178565b611af3565b610f5f600c5460105484610f5591906121b1565b6105e09190612178565b610f7d30600c54601254610f7390866121b1565b6105309190612178565b6008546040516370a0823160e01b81526000916001600160a01b0316906370a0823190610fae903090600401611ebc565b602060405180830381865afa158015610fcb573d6000803e3d6000fd5b505050506040513d601f19601f82011682018060405250810190610fef91906121d0565b9050610ffa81611c27565b505b611007858585611d5f565b5050505050565b6001600160a01b03821661106e5760405162461bcd60e51b815260206004820152602160248201527f45524332303a206275726e2066726f6d20746865207a65726f206164647265736044820152607360f81b6064820152608401610746565b6001600160a01b038216600090815260208190526040902054818110156110e25760405162461bcd60e51b815260206004820152602260248201527f45524332303a206275726e20616d6f756e7420657863656564732062616c616e604482015261636560f01b6064820152608401610746565b6001600160a01b038316600090815260208190526040812083830390556002805484929061111190849061219a565b90915550506040518281526000906001600160a01b0385169060008051602061232f8339815191529060200160405180910390a3505050565b604080516002808252606082018352600092602083019080368337019050509050308160008151811061117f5761117f6121e9565b6001600160a01b03928316602091820292909201810191909152601b54604080516315ab88c960e31b81529051919093169263ad5c46489260048083019391928290030181865afa1580156111d8573d6000803e3d6000fd5b505050506040513d601f19601f820116820180604052508101906111fc91906121ff565b8160018151811061120f5761120f6121e9565b6001600160a01b039092166020928302919091019091015261123e305b601b546001600160a01b031684610cb2565b601b546001600160a01b031663791ac94783600084305b61126142612710612160565b6040518663ffffffff1660e01b815260040161128195949392919061221c565b600060405180830381600087803b15801561129b57600080fd5b505af11580156112af573d6000803e3d6000fd5b505050505050565b6112d0305b601b546001600160a01b0316600019610cb2565b601b546001600160a01b031663f305d7198230600554869060009081906001600160a01b031661130242612710612160565b60405160e089901b6001600160e01b03191681526001600160a01b039687166004820152602481019590955260448501939093526064840191909152909216608482015260a481019190915260c40160606040518083038185885af115801561136f573d6000803e3d6000fd5b50505050506040513d601f19601f82011682018060405250810190611007919061228d565b6001600160a01b0383166114005760405162461bcd60e51b815260206004820152602d60248201527f45524332303a207472616e736665722066726f6d20746865205a45524f5f414460448201526c4452455353206164647265737360981b6064820152608401610746565b6001600160a01b03821661146a5760405162461bcd60e51b815260206004820152602b60248201527f45524332303a207472616e7366657220746f20746865205a45524f5f4144445260448201526a455353206164647265737360a81b6064820152608401610746565b600081116114d45760405162461bcd60e51b815260206004820152603160248201527f5472616e7366657220616d6f756e74206d7573742062652067726561746572206044820152707468616e205a45524f5f4144445245535360781b6064820152608401610746565b6005546001600160a01b0384811691161480159061150057506005546001600160a01b03838116911614155b801561151457506001600160a01b03821615155b801561152b57506001600160a01b03821661dead14155b801561153a575060145460ff16155b15610e6b57601454610100900460ff1661158b5760405162461bcd60e51b815260206004820152601260248201527154726164696e67206e6f742061637469766560701b6044820152606401610746565b6001600160a01b03831660009081526016602052604090205460ff161561169457600e5481111561161c5760405162461bcd60e51b815260206004820152603560248201527f427579207472616e7366657220616d6f756e742065786365656473207468652060448201527436b0bc2a3930b739b0b1ba34b7b720b6b7bab73a1760591b6064820152608401610746565b600d546116288361096e565b6116329083612160565b11156116505760405162461bcd60e51b8152600401610746906122bb565b6001600160a01b0383166000908152601760205260408120805491600191906116798385612160565b90915550506000908152601960205260409020429055505050565b6001600160a01b03821660009081526016602052604090205460ff161561178b57600e548111156117265760405162461bcd60e51b815260206004820152603660248201527f53656c6c207472616e7366657220616d6f756e742065786365656473207468656044820152751036b0bc2a3930b739b0b1ba34b7b720b6b7bab73a1760511b6064820152608401610746565b6001600160a01b0383166000818152601760209081526040808320546018808452828520805483875260198652938620549686529352939092909160019161176e8386612160565b9091555050506000908152601a6020526040902042905550505050565b600d546117978361096e565b6117a19083612160565b1115610e6b5760405162461bcd60e51b8152600401610746906122bb565b6001600160a01b0383166118235760405162461bcd60e51b815260206004820152602560248201527f45524332303a207472616e736665722066726f6d20746865207a65726f206164604482015264647265737360d81b6064820152608401610746565b6001600160a01b0382166118855760405162461bcd60e51b815260206004820152602360248201527f45524332303a207472616e7366657220746f20746865207a65726f206164647260448201526265737360e81b6064820152608401610746565b6001600160a01b038316600090815260208190526040902054818110156118fd5760405162461bcd60e51b815260206004820152602660248201527f45524332303a207472616e7366657220616d6f756e7420657863656564732062604482015265616c616e636560d01b6064820152608401610746565b6001600160a01b03808516600090815260208190526040808220858503905591851681529081208054849290611934908490612160565b92505081905550826001600160a01b0316846001600160a01b031660008051602061232f8339815191528460405161196e91815260200190565b60405180910390a3610be0565b6000600b548210158015611992575060145460ff16155b80156119ac57506007546001600160a01b03858116911614155b80156119cd57506007546000906119cb906001600160a01b031661096e565b115b80156119f257506001600160a01b03831660009081526015602052604090205460ff16155b8015611a1757506001600160a01b03841660009081526015602052604090205460ff16155b949350505050565b611a648282604051602401611a359291906122e8565b60408051601f198184030181529190526020810180516001600160e01b03166309710a9d60e41b179052611de2565b5050565b611a648282604051602401611a7e92919061230a565b60408051601f198184030181529190526020810180516001600160e01b031663c3b5563560e01b179052611de2565b611af081604051602401611ac19190611f1d565b60408051601f198184030181529190526020810180516001600160e01b031663104c13eb60e21b179052611de2565b50565b60408051600380825260808201909252600091602082016060803683370190505090503081600081518110611b2a57611b2a6121e9565b6001600160a01b03928316602091820292909201810191909152601b54604080516315ab88c960e31b81529051919093169263ad5c46489260048083019391928290030181865afa158015611b83573d6000803e3d6000fd5b505050506040513d601f19601f82011682018060405250810190611ba791906121ff565b81600181518110611bba57611bba6121e9565b6001600160a01b039283166020918202929092010152600854825191169082906002908110611beb57611beb6121e9565b6001600160a01b0390921660209283029190910190910152611c0c3061122c565b601b546001600160a01b0316635c11d7958360008430611255565b6040805160038082526080820190925260009160208201606080368337505060085482519293506001600160a01b031691839150600090611c6a57611c6a6121e9565b6001600160a01b03928316602091820292909201810191909152601b54604080516315ab88c960e31b81529051919093169263ad5c46489260048083019391928290030181865afa158015611cc3573d6000803e3d6000fd5b505050506040513d601f19601f82011682018060405250810190611ce791906121ff565b81600181518110611cfa57611cfa6121e9565b6001600160a01b03909216602092830291909101909101523081600281518110611d2657611d266121e9565b6001600160a01b0390921660209283029190910190910152611d47306112bc565b611c0c306008546001600160a01b0316600019610cb2565b6001600160a01b03831660009081526015602052604081205482919060019060ff1680611da457506001600160a01b03851660009081526015602052604090205460ff165b15611dad575060005b8015611dd757611dbe868686611e03565b9150611dca828561219a565b9250611dd78630846117bf565b6112af8686856117bf565b80516a636f6e736f6c652e6c6f67602083016000808483855afa5050505050565b6001600160a01b0383166000908152601660205260408120548190819060ff1615611e4057601c54611e399061ffff1683612160565b9150611e93565b6001600160a01b03851660009081526016602052604090205460ff1615611e7857601c54611e399062010000900461ffff1683612160565b601c54611e9090600160201b900461ffff1683612160565b91505b8115611eb357600c54611ea683866121b1565b611eb09190612178565b90505b95945050505050565b6001600160a01b0391909116815260200190565b6000815180845260005b81811015611ef657602081850181015186830182015201611eda565b81811115611f08576000602083870101525b50601f01601f19169290920160200192915050565b602081526000611f306020830184611ed0565b9392505050565b6001600160a01b0381168114611af057600080fd5b60008060408385031215611f5f57600080fd5b8235611f6a81611f37565b946020939093013593505050565b600060208284031215611f8a57600080fd5b5035919050565b600080600060608486031215611fa657600080fd5b8335611fb181611f37565b92506020840135611fc181611f37565b929592945050506040919091013590565b803561ffff81168114611fe457600080fd5b919050565b600080600060608486031215611ffe57600080fd5b61200784611fd2565b925061201560208501611fd2565b915061202360408501611fd2565b90509250925092565b60006020828403121561203e57600080fd5b8135611f3081611f37565b6000806040838503121561205c57600080fd5b823561206781611f37565b9150602083013561207781611f37565b809150509250929050565b6000806040838503121561209557600080fd5b82356120a081611f37565b91506020830135801515811461207757600080fd5b600181811c908216806120c957607f821691505b6020821081036120e957634e487b7160e01b600052602260045260246000fd5b50919050565b6020808252818101527f4f776e61626c653a2063616c6c6572206973206e6f7420746865206f776e6572604082015260600190565b634e487b7160e01b600052601160045260246000fd5b600061ffff80831681851680830382111561215757612157612124565b01949350505050565b6000821982111561217357612173612124565b500190565b60008261219557634e487b7160e01b600052601260045260246000fd5b500490565b6000828210156121ac576121ac612124565b500390565b60008160001904831182151516156121cb576121cb612124565b500290565b6000602082840312156121e257600080fd5b5051919050565b634e487b7160e01b600052603260045260246000fd5b60006020828403121561221157600080fd5b8151611f3081611f37565b600060a082018783526020878185015260a0604085015281875180845260c086019150828901935060005b8181101561226c5784516001600160a01b031683529383019391830191600101612247565b50506001600160a01b03969096166060850152505050608001529392505050565b6000806000606084860312156122a257600080fd5b8351925060208401519150604084015190509250925092565b60208082526013908201527213585e081dd85b1b195d08195e18d959591959606a1b604082015260600190565b6040815260006122fb6040830185611ed0565b90508260208301529392505050565b60408152600061231d6040830185611ed0565b90508215156020830152939250505056feddf252ad1be2c89b69c2b068fc378daa952ba7f163c4a11628f55a4df523b3efa2646970667358221220282436b64aead532203f41c355458df2b76fd90f8ae1fb32efae296baafc123d64736f6c634300080f0033",
  "linkReferences": {},
  "deployedLinkReferences": {}
}