{
  "_format": "hh-sol-artifact-1",
  "contractName": "MetaStock",
  "sourceName": "contracts/MetaStock.sol",
  "abi": [
    {
      "inputs": [],
      "stateMutability": "nonpayable",
      "type": "constructor"
    },
    {
      "anonymous": false,
      "inputs": [
        {
          "indexed": true,
          "internalType": "address",
          "name": "owner",
          "type": "address"
        },
        {
          "indexed": true,
          "internalType": "address",
          "name": "spender",
          "type": "address"
        },
        {
          "indexed": false,
          "internalType": "uint256",
          "name": "value",
          "type": "uint256"
        }
      ],
      "name": "Approval",
      "type": "event"
    },
    {
      "anonymous": false,
      "inputs": [
        {
          "indexed": true,
          "internalType": "address",
          "name": "sender",
          "type": "address"
        },
        {
          "indexed": false,
          "internalType": "uint256",
          "name": "amount",
          "type": "uint256"
        }
      ],
      "name": "Burn",
      "type": "event"
    },
    {
      "anonymous": false,
      "inputs": [
        {
          "indexed": true,
          "internalType": "address",
          "name": "previousOwner",
          "type": "address"
        },
        {
          "indexed": true,
          "internalType": "address",
          "name": "newOwner",
          "type": "address"
        }
      ],
      "name": "OwnershipTransferred",
      "type": "event"
    },
    {
      "anonymous": false,
      "inputs": [
        {
          "indexed": true,
          "internalType": "address",
          "name": "from",
          "type": "address"
        },
        {
          "indexed": true,
          "internalType": "address",
          "name": "to",
          "type": "address"
        },
        {
          "indexed": false,
          "internalType": "uint256",
          "name": "value",
          "type": "uint256"
        }
      ],
      "name": "Transfer",
      "type": "event"
    },
    {
      "inputs": [],
      "name": "DEAD",
      "outputs": [
        {
          "internalType": "address",
          "name": "",
          "type": "address"
        }
      ],
      "stateMutability": "view",
      "type": "function"
    },
    {
      "inputs": [],
      "name": "_feesRates",
      "outputs": [
        {
          "internalType": "uint16",
          "name": "buyFee",
          "type": "uint16"
        },
        {
          "internalType": "uint16",
          "name": "sellFee",
          "type": "uint16"
        },
        {
          "internalType": "uint16",
          "name": "transferFee",
          "type": "uint16"
        }
      ],
      "stateMutability": "view",
      "type": "function"
    },
    {
      "inputs": [
        {
          "internalType": "address",
          "name": "owner",
          "type": "address"
        },
        {
          "internalType": "address",
          "name": "spender",
          "type": "address"
        }
      ],
      "name": "allowance",
      "outputs": [
        {
          "internalType": "uint256",
          "name": "",
          "type": "uint256"
        }
      ],
      "stateMutability": "view",
      "type": "function"
    },
    {
      "inputs": [
        {
          "internalType": "address",
          "name": "spender",
          "type": "address"
        },
        {
          "internalType": "uint256",
          "name": "amount",
          "type": "uint256"
        }
      ],
      "name": "approve",
      "outputs": [
        {
          "internalType": "bool",
          "name": "",
          "type": "bool"
        }
      ],
      "stateMutability": "nonpayable",
      "type": "function"
    },
    {
      "inputs": [
        {
          "internalType": "uint256",
          "name": "tokenAmount",
          "type": "uint256"
        }
      ],
      "name": "autoLiquidity",
      "outputs": [],
      "stateMutability": "nonpayable",
      "type": "function"
    },
    {
      "inputs": [
        {
          "internalType": "address",
          "name": "",
          "type": "address"
        }
      ],
      "name": "automatedMarketMakerPairs",
      "outputs": [
        {
          "internalType": "bool",
          "name": "",
          "type": "bool"
        }
      ],
      "stateMutability": "view",
      "type": "function"
    },
    {
      "inputs": [
        {
          "internalType": "address",
          "name": "account",
          "type": "address"
        }
      ],
      "name": "balanceOf",
      "outputs": [
        {
          "internalType": "uint256",
          "name": "",
          "type": "uint256"
        }
      ],
      "stateMutability": "view",
      "type": "function"
    },
    {
      "inputs": [
        {
          "internalType": "uint256",
          "name": "amount",
          "type": "uint256"
        }
      ],
      "name": "burn",
      "outputs": [],
      "stateMutability": "nonpayable",
      "type": "function"
    },
    {
      "inputs": [],
      "name": "decimals",
      "outputs": [
        {
          "internalType": "uint8",
          "name": "",
          "type": "uint8"
        }
      ],
      "stateMutability": "view",
      "type": "function"
    },
    {
      "inputs": [
        {
          "internalType": "address",
          "name": "spender",
          "type": "address"
        },
        {
          "internalType": "uint256",
          "name": "subtractedValue",
          "type": "uint256"
        }
      ],
      "name": "decreaseAllowance",
      "outputs": [
        {
          "internalType": "bool",
          "name": "",
          "type": "bool"
        }
      ],
      "stateMutability": "nonpayable",
      "type": "function"
    },
    {
      "inputs": [],
      "name": "dexRouter",
      "outputs": [
        {
          "internalType": "contract IUniswapV2Router02",
          "name": "",
          "type": "address"
        }
      ],
      "stateMutability": "view",
      "type": "function"
    },
    {
      "inputs": [],
      "name": "enableTrading",
      "outputs": [],
      "stateMutability": "nonpayable",
      "type": "function"
    },
    {
      "inputs": [
        {
          "internalType": "address",
          "name": "account",
          "type": "address"
        },
        {
          "internalType": "bool",
          "name": "val",
          "type": "bool"
        }
      ],
      "name": "excludeFromFee",
      "outputs": [],
      "stateMutability": "nonpayable",
      "type": "function"
    },
    {
      "inputs": [],
      "name": "getOwner",
      "outputs": [
        {
          "internalType": "address",
          "name": "",
          "type": "address"
        }
      ],
      "stateMutability": "view",
      "type": "function"
    },
    {
      "inputs": [
        {
          "internalType": "address",
          "name": "spender",
          "type": "address"
        },
        {
          "internalType": "uint256",
          "name": "addedValue",
          "type": "uint256"
        }
      ],
      "name": "increaseAllowance",
      "outputs": [
        {
          "internalType": "bool",
          "name": "",
          "type": "bool"
        }
      ],
      "stateMutability": "nonpayable",
      "type": "function"
    },
    {
      "inputs": [
        {
          "internalType": "address",
          "name": "account",
          "type": "address"
        }
      ],
      "name": "isExcludedFromFee",
      "outputs": [
        {
          "internalType": "bool",
          "name": "",
          "type": "bool"
        }
      ],
      "stateMutability": "view",
      "type": "function"
    },
    {
      "inputs": [],
      "name": "lpPair",
      "outputs": [
        {
          "internalType": "address",
          "name": "",
          "type": "address"
        }
      ],
      "stateMutability": "view",
      "type": "function"
    },
    {
      "inputs": [],
      "name": "name",
      "outputs": [
        {
          "internalType": "string",
          "name": "",
          "type": "string"
        }
      ],
      "stateMutability": "view",
      "type": "function"
    },
    {
      "inputs": [],
      "name": "owner",
      "outputs": [
        {
          "internalType": "address",
          "name": "",
          "type": "address"
        }
      ],
      "stateMutability": "view",
      "type": "function"
    },
    {
      "inputs": [
        {
          "internalType": "uint256",
          "name": "value",
          "type": "uint256"
        }
      ],
      "name": "setMaxTransactionAmount",
      "outputs": [],
      "stateMutability": "nonpayable",
      "type": "function"
    },
    {
      "inputs": [
        {
          "internalType": "uint256",
          "name": "value",
          "type": "uint256"
        }
      ],
      "name": "setMaxWalletAmount",
      "outputs": [],
      "stateMutability": "nonpayable",
      "type": "function"
    },
    {
      "inputs": [
        {
          "internalType": "uint256",
          "name": "value",
          "type": "uint256"
        }
      ],
      "name": "setSwapThreshold",
      "outputs": [],
      "stateMutability": "nonpayable",
      "type": "function"
    },
    {
      "inputs": [
        {
          "internalType": "uint16",
          "name": "buyFee",
          "type": "uint16"
        },
        {
          "internalType": "uint16",
          "name": "sellFee",
          "type": "uint16"
        },
        {
          "internalType": "uint16",
          "name": "transferFee",
          "type": "uint16"
        }
      ],
      "name": "setTaxes",
      "outputs": [],
      "stateMutability": "nonpayable",
      "type": "function"
    },
    {
      "inputs": [],
      "name": "swapThreshold",
      "outputs": [
        {
          "internalType": "uint256",
          "name": "",
          "type": "uint256"
        }
      ],
      "stateMutability": "view",
      "type": "function"
    },
    {
      "inputs": [],
      "name": "symbol",
      "outputs": [
        {
          "internalType": "string",
          "name": "",
          "type": "string"
        }
      ],
      "stateMutability": "view",
      "type": "function"
    },
    {
      "inputs": [],
      "name": "totalSupply",
      "outputs": [
        {
          "internalType": "uint256",
          "name": "",
          "type": "uint256"
        }
      ],
      "stateMutability": "view",
      "type": "function"
    },
    {
      "inputs": [
        {
          "internalType": "address",
          "name": "to",
          "type": "address"
        },
        {
          "internalType": "uint256",
          "name": "amount",
          "type": "uint256"
        }
      ],
      "name": "transfer",
      "outputs": [
        {
          "internalType": "bool",
          "name": "",
          "type": "bool"
        }
      ],
      "stateMutability": "nonpayable",
      "type": "function"
    },
    {
      "inputs": [
        {
          "internalType": "address",
          "name": "from",
          "type": "address"
        },
        {
          "internalType": "address",
          "name": "to",
          "type": "address"
        },
        {
          "internalType": "uint256",
          "name": "amount",
          "type": "uint256"
        }
      ],
      "name": "transferFrom",
      "outputs": [
        {
          "internalType": "bool",
          "name": "",
          "type": "bool"
        }
      ],
      "stateMutability": "nonpayable",
      "type": "function"
    },
    {
      "inputs": [
        {
          "internalType": "address",
          "name": "account",
          "type": "address"
        }
      ],
      "name": "transferOwnership",
      "outputs": [],
      "stateMutability": "nonpayable",
      "type": "function"
    },
    {
      "inputs": [],
      "name": "usdAddress",
      "outputs": [
        {
          "internalType": "address",
          "name": "",
          "type": "address"
        }
      ],
      "stateMutability": "view",
      "type": "function"
    },
    {
      "inputs": [
        {
          "internalType": "address",
          "name": "",
          "type": "address"
        }
      ],
      "name": "usersBuysCounter",
      "outputs": [
        {
          "internalType": "uint256",
          "name": "",
          "type": "uint256"
        }
      ],
      "stateMutability": "view",
      "type": "function"
    },
    {
      "inputs": [
        {
          "internalType": "uint256",
          "name": "",
          "type": "uint256"
        }
      ],
      "name": "usersLastBuysTxs",
      "outputs": [
        {
          "internalType": "uint256",
          "name": "",
          "type": "uint256"
        }
      ],
      "stateMutability": "view",
      "type": "function"
    },
    {
      "inputs": [
        {
          "internalType": "uint256",
          "name": "",
          "type": "uint256"
        }
      ],
      "name": "usersLastSellsTxs",
      "outputs": [
        {
          "internalType": "uint256",
          "name": "",
          "type": "uint256"
        }
      ],
      "stateMutability": "view",
      "type": "function"
    },
    {
      "inputs": [
        {
          "internalType": "address",
          "name": "",
          "type": "address"
        }
      ],
      "name": "usersSellCounter",
      "outputs": [
        {
          "internalType": "uint256",
          "name": "",
          "type": "uint256"
        }
      ],
      "stateMutability": "view",
      "type": "function"
    },
    {
      "stateMutability": "payable",
      "type": "receive"
    }
  ],
  "bytecode": "0x600680546001600160a01b031990811661dead179091556008805482167378867bbeef44f2326bf8ddd1941a4439382ef2a717905560098054909116739ac64cc6e4415144c455bd8e4837fea55603e5c3179055600a60808181526101e06040529060a061014080368337505081516200008192600a92506020019062000885565b5069943b1377290cbd800000600b55612710600c5569d3c21bcecceda1000000600d55610640600e55610bb8600f556101f4601055610b546011556107d06012556113886013556107d06014556107d06015556107d06016556103e860175569d3c21bcecceda1000000601855600a6001600160401b038111156200010a576200010a62000944565b60405190808252806020026020018201604052801562000134578160200160208202803683370190505b5080516200014b91601991602090910190620008ef565b503480156200015957600080fd5b50604051806040016040528060098152602001684d65746153746f636b60b81b815250604051806040016040528060038152602001624d534b60e81b8152508160039081620001a99190620009e8565b506004620001b88282620009e8565b505050620001d8336a52b7d2dcc80cd2e40000006200066f60201b60201c565b600580546001600160a01b03199081163390811790925560408051606081018252600080825261012c6020808401919091529183018190526022805465ffffffffffff191663012c0000179055938452601b8152818420805460ff19908116600190811790925530865294839020805490951617909355600954602180549093166001600160a01b0391909116908117909255805163c45a015560e01b81529051919263c45a0155926004838101938290030181865afa158015620002a1573d6000803e3d6000fd5b505050506040513d601f19601f82011682018060405250810190620002c7919062000ab4565b6001600160a01b031663c9c6539630602160009054906101000a90046001600160a01b03166001600160a01b031663ad5c46486040518163ffffffff1660e01b8152600401602060405180830381865afa1580156200032a573d6000803e3d6000fd5b505050506040513d601f19601f8201168201806040525081019062000350919062000ab4565b6040516001600160e01b031960e085901b1681526001600160a01b039283166004820152911660248201526044016020604051808303816000875af11580156200039e573d6000803e3d6000fd5b505050506040513d601f19601f82011682018060405250810190620003c4919062000ab4565b600780546001600160a01b0319166001600160a01b039283169081179091556000908152601c60205260409020805460ff19166001179055600954620004109133911660001962000758565b6009546200042c9030906001600160a01b031660001962000758565b6008546009546200044d916001600160a01b03908116911660001962000758565b736644ebde0f26c8f74ad18697cce8a5ac4e608cb4600a60008154811062000479576200047962000ae6565b9060005260206000200160006101000a8154816001600160a01b0302191690836001600160a01b03160217905550733c44cdddb6a900fa2b585dd299e03d12fa4293bc600a600181548110620004d357620004d362000ae6565b9060005260206000200160006101000a8154816001600160a01b0302191690836001600160a01b031602179055507390f79bf6eb2c4f870365e785982e1f101e93b906600a6002815481106200052d576200052d62000ae6565b9060005260206000200160006101000a8154816001600160a01b0302191690836001600160a01b0316021790555073fbaa3c716da6378a0840754185bff6a05a20e1c8600a60038154811062000587576200058762000ae6565b9060005260206000200160006101000a8154816001600160a01b0302191690836001600160a01b03160217905550734cf4525ea8225ef715236538a3d7f06151bfee11600a600481548110620005e157620005e162000ae6565b9060005260206000200160006101000a8154816001600160a01b0302191690836001600160a01b0316021790555073492a9ce7f973958454fcbcae0e22985e15cdbe58600a6005815481106200063b576200063b62000ae6565b9060005260206000200160006101000a8154816001600160a01b0302191690836001600160a01b0316021790555062000b23565b6001600160a01b038216620006cb5760405162461bcd60e51b815260206004820152601f60248201527f45524332303a206d696e7420746f20746865207a65726f20616464726573730060448201526064015b60405180910390fd5b8060026000828254620006df919062000afc565b90915550506001600160a01b038216600090815260208190526040812080548392906200070e90849062000afc565b90915550506040518181526001600160a01b038316906000907fddf252ad1be2c89b69c2b068fc378daa952ba7f163c4a11628f55a4df523b3ef9060200160405180910390a35050565b6001600160a01b038316620007bc5760405162461bcd60e51b8152602060048201526024808201527f45524332303a20617070726f76652066726f6d20746865207a65726f206164646044820152637265737360e01b6064820152608401620006c2565b6001600160a01b0382166200081f5760405162461bcd60e51b815260206004820152602260248201527f45524332303a20617070726f766520746f20746865207a65726f206164647265604482015261737360f01b6064820152608401620006c2565b6001600160a01b0383811660008181526001602090815260408083209487168084529482529182902085905590518481527f8c5be1e5ebec7d5bd14f71427d1e84f3dd0314c0f7b2291e5b200ac8c7c3b925910160405180910390a3505050565b505050565b828054828255906000526020600020908101928215620008dd579160200282015b82811115620008dd57825182546001600160a01b0319166001600160a01b03909116178255602090920191600190910190620008a6565b50620008eb9291506200092d565b5090565b828054828255906000526020600020908101928215620008dd579160200282015b82811115620008dd57825182559160200191906001019062000910565b5b80821115620008eb57600081556001016200092e565b634e487b7160e01b600052604160045260246000fd5b600181811c908216806200096f57607f821691505b6020821081036200099057634e487b7160e01b600052602260045260246000fd5b50919050565b601f8211156200088057600081815260208120601f850160051c81016020861015620009bf5750805b601f850160051c820191505b81811015620009e057828155600101620009cb565b505050505050565b81516001600160401b0381111562000a045762000a0462000944565b62000a1c8162000a1584546200095a565b8462000996565b602080601f83116001811462000a54576000841562000a3b5750858301515b600019600386901b1c1916600185901b178555620009e0565b600085815260208120601f198616915b8281101562000a855788860151825594840194600190910190840162000a64565b508582101562000aa45787850151600019600388901b60f8161c191681555b5050505050600190811b01905550565b60006020828403121562000ac757600080fd5b81516001600160a01b038116811462000adf57600080fd5b9392505050565b634e487b7160e01b600052603260045260246000fd5b6000821982111562000b1e57634e487b7160e01b600052601160045260246000fd5b500190565b6121b78062000b336000396000f3fe6080604052600436106101fd5760003560e01c806355106e5f1161010d5780639e1a8613116100a0578063c6aca36b1161006f578063c6aca36b1461063c578063dd62ed3e1461065c578063df8408fe1461067c578063f2fde38b1461069c578063fe9a79c8146106bc57600080fd5b80639e1a8613146105ac578063a457c2d7146105cc578063a9059cbb146105ec578063b62496f51461060c57600080fd5b80638a8c523c116100dc5780638a8c523c146105425780638da5cb5b1461055757806395d89b41146105775780639d0014b11461058c57600080fd5b806355106e5f146104aa57806370a08231146104d7578063893d20e8146104f757806389e7bf1c1461051557600080fd5b806323b872dd11610190578063395093511161015f57806339509351146103e557806342966c6814610405578063452ed4f11461042557806347fa7c88146104455780635342acb41461047157600080fd5b806323b872dd1461036957806327a14fc214610389578063313ce567146103a957806332cde664146103c557600080fd5b8063095ea7b3116101cc578063095ea7b3146102ac57806318160ddd146102dc5780631c06a7e1146102f15780631e293c101461034757600080fd5b806303fd2a45146102095780630445b6671461024657806306fdde031461026a5780630758d9241461028c57600080fd5b3661020457005b600080fd5b34801561021557600080fd5b50600654610229906001600160a01b031681565b6040516001600160a01b0390911681526020015b60405180910390f35b34801561025257600080fd5b5061025c600b5481565b60405190815260200161023d565b34801561027657600080fd5b5061027f6106e9565b60405161023d9190611d91565b34801561029857600080fd5b50602154610229906001600160a01b031681565b3480156102b857600080fd5b506102cc6102c7366004611dfe565b61077b565b604051901515815260200161023d565b3480156102e857600080fd5b5060025461025c565b3480156102fd57600080fd5b506022546103229061ffff808216916201000081048216916401000000009091041683565b6040805161ffff9485168152928416602084015292169181019190915260600161023d565b34801561035357600080fd5b50610367610362366004611e2a565b610793565b005b34801561037557600080fd5b506102cc610384366004611e43565b6107cb565b34801561039557600080fd5b506103676103a4366004611e2a565b6107ef565b3480156103b557600080fd5b506040516012815260200161023d565b3480156103d157600080fd5b506103676103e0366004611e9b565b61081e565b3480156103f157600080fd5b506102cc610400366004611dfe565b6109c6565b34801561041157600080fd5b50610367610420366004611e2a565b6109e8565b34801561043157600080fd5b50600754610229906001600160a01b031681565b34801561045157600080fd5b5061025c610460366004611e2a565b602080526000908152604090205481565b34801561047d57600080fd5b506102cc61048c366004611ede565b6001600160a01b03166000908152601b602052604090205460ff1690565b3480156104b657600080fd5b5061025c6104c5366004611e2a565b601f6020526000908152604090205481565b3480156104e357600080fd5b5061025c6104f2366004611ede565b610a9a565b34801561050357600080fd5b506005546001600160a01b0316610229565b34801561052157600080fd5b5061025c610530366004611ede565b601e6020526000908152604090205481565b34801561054e57600080fd5b50610367610ab5565b34801561056357600080fd5b50600554610229906001600160a01b031681565b34801561058357600080fd5b5061027f610b48565b34801561059857600080fd5b506103676105a7366004611e2a565b610b57565b3480156105b857600080fd5b50600854610229906001600160a01b031681565b3480156105d857600080fd5b506102cc6105e7366004611dfe565b610b86565b3480156105f857600080fd5b506102cc610607366004611dfe565b610c01565b34801561061857600080fd5b506102cc610627366004611ede565b601c6020526000908152604090205460ff1681565b34801561064857600080fd5b50610367610657366004611e2a565b610c0f565b34801561066857600080fd5b5061025c610677366004611f02565b610c46565b34801561068857600080fd5b50610367610697366004611f49565b610c71565b3480156106a857600080fd5b506103676106b7366004611ede565b610cc6565b3480156106c857600080fd5b5061025c6106d7366004611ede565b601d6020526000908152604090205481565b6060600380546106f890611f77565b80601f016020809104026020016040519081016040528092919081815260200182805461072490611f77565b80156107715780601f1061074657610100808354040283529160200191610771565b820191906000526020600020905b81548152906001019060200180831161075457829003601f168201915b5050505050905090565b600033610789818585610d12565b5060019392505050565b6005546001600160a01b031633146107c65760405162461bcd60e51b81526004016107bd90611fb1565b60405180910390fd5b601855565b6000336107d9858285610e36565b6107e4858585610eaa565b506001949350505050565b6005546001600160a01b031633146108195760405162461bcd60e51b81526004016107bd90611fb1565b600d55565b6005546001600160a01b031633146108485760405162461bcd60e51b81526004016107bd90611fb1565b610bb88361ffff16111561088d5760405162461bcd60e51b815260206004820152600c60248201526b4d415820425559204645455360a01b60448201526064016107bd565b610bb88261ffff1611156108d35760405162461bcd60e51b815260206004820152600d60248201526c4d41582053454c4c204645455360981b60448201526064016107bd565b610bb88161ffff16111561091d5760405162461bcd60e51b81526020600482015260116024820152704d4158205452414e53464552204645455360781b60448201526064016107bd565b610bb88161092b8486611ffc565b6109359190611ffc565b61ffff1611156109875760405162461bcd60e51b815260206004820152601c60248201527f4d4158204255592c2053454c4c2c205452414e5346455220464545530000000060448201526064016107bd565b6022805461ffff94851663ffffffff199091161762010000938516939093029290921765ffff0000000019166401000000009190931602919091179055565b6000336107898185856109d98383610c46565b6109e39190612022565b610d12565b6109f133610a9a565b811115610a585760405162461bcd60e51b815260206004820152602f60248201527f4275726e20616d6f756e742073686f756c64206265206c657373207468616e2060448201526e6163636f756e742062616c616e636560881b60648201526084016107bd565b610a623382610f3a565b60405181815233907fcc16f5dbb4873280815c1ee09dbd06736cffcc184412cf7a71a0fdb75d397ca59060200160405180910390a250565b6001600160a01b031660009081526020819052604090205490565b6005546001600160a01b03163314610adf5760405162461bcd60e51b81526004016107bd90611fb1565b601a54610100900460ff1615610b375760405162461bcd60e51b815260206004820152601e60248201527f54726164696e67456e61626c656420616c72656164792061637469766564000060448201526064016107bd565b601a805461ff001916610100179055565b6060600480546106f890611f77565b6005546001600160a01b03163314610b815760405162461bcd60e51b81526004016107bd90611fb1565b600b55565b60003381610b948286610c46565b905083811015610bf45760405162461bcd60e51b815260206004820152602560248201527f45524332303a2064656372656173656420616c6c6f77616e63652062656c6f77604482015264207a65726f60d81b60648201526084016107bd565b6107e48286868403610d12565b600033610789818585610eaa565b6000610c1c60028361203a565b905047610c2882611088565b6000610c34824761205c565b9050610c4083826111eb565b50505050565b6001600160a01b03918216600090815260016020908152604080832093909416825291909152205490565b6005546001600160a01b03163314610c9b5760405162461bcd60e51b81526004016107bd90611fb1565b6001600160a01b03919091166000908152601b60205260409020805460ff1916911515919091179055565b6005546001600160a01b03163314610cf05760405162461bcd60e51b81526004016107bd90611fb1565b600580546001600160a01b0319166001600160a01b0392909216919091179055565b6001600160a01b038316610d745760405162461bcd60e51b8152602060048201526024808201527f45524332303a20617070726f76652066726f6d20746865207a65726f206164646044820152637265737360e01b60648201526084016107bd565b6001600160a01b038216610dd55760405162461bcd60e51b815260206004820152602260248201527f45524332303a20617070726f766520746f20746865207a65726f206164647265604482015261737360f01b60648201526084016107bd565b6001600160a01b0383811660008181526001602090815260408083209487168084529482529182902085905590518481527f8c5be1e5ebec7d5bd14f71427d1e84f3dd0314c0f7b2291e5b200ac8c7c3b925910160405180910390a3505050565b6000610e428484610c46565b90506000198114610c405781811015610e9d5760405162461bcd60e51b815260206004820152601d60248201527f45524332303a20696e73756666696369656e7420616c6c6f77616e636500000060448201526064016107bd565b610c408484848403610d12565b610eb58383836112ce565b601a5460ff1615610ed057610ecb838383611744565b505050565b610eda8383611912565b15610f2f576000610eea30610a9a565b9050610f0f600c5460135483610f009190612073565b610f0a919061203a565b6119c2565b610f2d600c5460145483610f239190612073565b610657919061203a565b505b610ecb838383611c54565b6001600160a01b038216610f9a5760405162461bcd60e51b815260206004820152602160248201527f45524332303a206275726e2066726f6d20746865207a65726f206164647265736044820152607360f81b60648201526084016107bd565b6001600160a01b0382166000908152602081905260409020548181101561100e5760405162461bcd60e51b815260206004820152602260248201527f45524332303a206275726e20616d6f756e7420657863656564732062616c616e604482015261636560f01b60648201526084016107bd565b6001600160a01b038316600090815260208190526040812083830390556002805484929061103d90849061205c565b90915550506040518281526000906001600160a01b038516907fddf252ad1be2c89b69c2b068fc378daa952ba7f163c4a11628f55a4df523b3ef9060200160405180910390a3505050565b60408051600280825260608201835260009260208301908036833701905050905030816000815181106110bd576110bd612092565b6001600160a01b03928316602091820292909201810191909152602154604080516315ab88c960e31b81529051919093169263ad5c46489260048083019391928290030181865afa158015611116573d6000803e3d6000fd5b505050506040513d601f19601f8201168201806040525081019061113a91906120a8565b8160018151811061114d5761114d612092565b6001600160a01b0392831660209182029290920101526021546111739130911684610d12565b6021546001600160a01b031663791ac9478360008430611195426103e8612022565b6040518663ffffffff1660e01b81526004016111b59594939291906120c5565b600060405180830381600087803b1580156111cf57600080fd5b505af11580156111e3573d6000803e3d6000fd5b505050505050565b6021546112059030906001600160a01b0316600019610d12565b6021546005546001600160a01b039182169163f305d7199184913091879160009182911661123542612710612022565b60405160e089901b6001600160e01b03191681526001600160a01b039687166004820152602481019590955260448501939093526064840191909152909216608482015260a481019190915260c40160606040518083038185885af11580156112a2573d6000803e3d6000fd5b50505050506040513d601f19601f820116820180604052508101906112c79190612136565b5050505050565b6001600160a01b03831661133a5760405162461bcd60e51b815260206004820152602d60248201527f45524332303a207472616e736665722066726f6d20746865205a45524f5f414460448201526c4452455353206164647265737360981b60648201526084016107bd565b6001600160a01b0382166113a45760405162461bcd60e51b815260206004820152602b60248201527f45524332303a207472616e7366657220746f20746865205a45524f5f4144445260448201526a455353206164647265737360a81b60648201526084016107bd565b6000811161140e5760405162461bcd60e51b815260206004820152603160248201527f5472616e7366657220616d6f756e74206d7573742062652067726561746572206044820152707468616e205a45524f5f4144445245535360781b60648201526084016107bd565b6005546001600160a01b0384811691161480159061143a57506005546001600160a01b03838116911614155b801561144e57506001600160a01b03821615155b801561146557506001600160a01b03821661dead14155b80156114745750601a5460ff16155b15610ecb57601a54610100900460ff166114c55760405162461bcd60e51b815260206004820152601260248201527154726164696e67206e6f742061637469766560701b60448201526064016107bd565b6001600160a01b0383166000908152601c602052604090205460ff16156115f4576018548111156115565760405162461bcd60e51b815260206004820152603560248201527f427579207472616e7366657220616d6f756e742065786365656473207468652060448201527436b0bc2a3930b739b0b1ba34b7b720b6b7bab73a1760591b60648201526084016107bd565b600d5461156283610a9a565b61156c9083612022565b11156115b05760405162461bcd60e51b815260206004820152601360248201527213585e081dd85b1b195d08195e18d959591959606a1b60448201526064016107bd565b6001600160a01b0383166000908152601d60205260408120805491600191906115d98385612022565b90915550506000908152601f60205260409020429055505050565b6001600160a01b0382166000908152601c602052604090205460ff16156116ea576018548111156116865760405162461bcd60e51b815260206004820152603660248201527f53656c6c207472616e7366657220616d6f756e742065786365656473207468656044820152751036b0bc2a3930b739b0b1ba34b7b720b6b7bab73a1760511b60648201526084016107bd565b6001600160a01b0383166000818152601d6020908152604080832054601e8084528285208054838752601f865293862054968652935293909290916001916116ce8386612022565b9091555050506000908152602080526040902042905550505050565b600d546116f683610a9a565b6117009083612022565b1115610ecb5760405162461bcd60e51b815260206004820152601360248201527213585e081dd85b1b195d08195e18d959591959606a1b60448201526064016107bd565b6001600160a01b0383166117a85760405162461bcd60e51b815260206004820152602560248201527f45524332303a207472616e736665722066726f6d20746865207a65726f206164604482015264647265737360d81b60648201526084016107bd565b6001600160a01b03821661180a5760405162461bcd60e51b815260206004820152602360248201527f45524332303a207472616e7366657220746f20746865207a65726f206164647260448201526265737360e81b60648201526084016107bd565b6001600160a01b038316600090815260208190526040902054818110156118825760405162461bcd60e51b815260206004820152602660248201527f45524332303a207472616e7366657220616d6f756e7420657863656564732062604482015265616c616e636560d01b60648201526084016107bd565b6001600160a01b038085166000908152602081905260408082208585039055918516815290812080548492906118b9908490612022565b92505081905550826001600160a01b0316846001600160a01b03167fddf252ad1be2c89b69c2b068fc378daa952ba7f163c4a11628f55a4df523b3ef8460405161190591815260200190565b60405180910390a3610c40565b60008061191e30610a9a565b9050600b5481101580156119355750601a5460ff16155b801561194f57506007546001600160a01b03858116911614155b8015611970575060075460009061196e906001600160a01b0316610a9a565b115b801561199557506001600160a01b0383166000908152601b602052604090205460ff16155b80156119ba57506001600160a01b0384166000908152601b602052604090205460ff16155b949350505050565b604080516003808252608082019092526000916020820160608036833701905050905030816000815181106119f9576119f9612092565b6001600160a01b03928316602091820292909201810191909152602154604080516315ab88c960e31b81529051919093169263ad5c46489260048083019391928290030181865afa158015611a52573d6000803e3d6000fd5b505050506040513d601f19601f82011682018060405250810190611a7691906120a8565b81600181518110611a8957611a89612092565b6001600160a01b039283166020918202929092010152600854825191169082906002908110611aba57611aba612092565b6001600160a01b03928316602091820292909201015260085460215460405163095ea7b360e01b81529083166004820152600019602482015291169063095ea7b3906044016020604051808303816000875af1158015611b1e573d6000803e3d6000fd5b505050506040513d601f19601f82011682018060405250810190611b429190612164565b50602160009054906101000a90046001600160a01b03166001600160a01b031663ad5c46486040518163ffffffff1660e01b8152600401602060405180830381865afa158015611b96573d6000803e3d6000fd5b505050506040513d601f19601f82011682018060405250810190611bba91906120a8565b60215460405163095ea7b360e01b81526001600160a01b039182166004820152600019602482015291169063095ea7b3906044016020604051808303816000875af1158015611c0d573d6000803e3d6000fd5b505050506040513d601f19601f82011682018060405250810190611c319190612164565b506021546001600160a01b0316635c11d7958360008430611195426103e8612022565b6001600160a01b0383166000908152601b602052604081205482919060019060ff1680611c9957506001600160a01b0385166000908152601b602052604090205460ff165b15611ca2575060005b8015611ccc57611cb3868686611cd7565b9150611cbf828561205c565b9250611ccc863084611744565b6111e3868685611744565b6001600160a01b0383166000908152601c60205260408120548190819060ff1615611d1457602254611d0d9061ffff1683612022565b9150611d68565b6001600160a01b0385166000908152601c602052604090205460ff1615611d4c57602254611d0d9062010000900461ffff1683612022565b602254611d6590640100000000900461ffff1683612022565b91505b8115611d8857600c54611d7b8386612073565b611d85919061203a565b90505b95945050505050565b600060208083528351808285015260005b81811015611dbe57858101830151858201604001528201611da2565b81811115611dd0576000604083870101525b50601f01601f1916929092016040019392505050565b6001600160a01b0381168114611dfb57600080fd5b50565b60008060408385031215611e1157600080fd5b8235611e1c81611de6565b946020939093013593505050565b600060208284031215611e3c57600080fd5b5035919050565b600080600060608486031215611e5857600080fd5b8335611e6381611de6565b92506020840135611e7381611de6565b929592945050506040919091013590565b803561ffff81168114611e9657600080fd5b919050565b600080600060608486031215611eb057600080fd5b611eb984611e84565b9250611ec760208501611e84565b9150611ed560408501611e84565b90509250925092565b600060208284031215611ef057600080fd5b8135611efb81611de6565b9392505050565b60008060408385031215611f1557600080fd5b8235611f2081611de6565b91506020830135611f3081611de6565b809150509250929050565b8015158114611dfb57600080fd5b60008060408385031215611f5c57600080fd5b8235611f6781611de6565b91506020830135611f3081611f3b565b600181811c90821680611f8b57607f821691505b602082108103611fab57634e487b7160e01b600052602260045260246000fd5b50919050565b6020808252818101527f4f776e61626c653a2063616c6c6572206973206e6f7420746865206f776e6572604082015260600190565b634e487b7160e01b600052601160045260246000fd5b600061ffff80831681851680830382111561201957612019611fe6565b01949350505050565b6000821982111561203557612035611fe6565b500190565b60008261205757634e487b7160e01b600052601260045260246000fd5b500490565b60008282101561206e5761206e611fe6565b500390565b600081600019048311821515161561208d5761208d611fe6565b500290565b634e487b7160e01b600052603260045260246000fd5b6000602082840312156120ba57600080fd5b8151611efb81611de6565b600060a082018783526020878185015260a0604085015281875180845260c086019150828901935060005b818110156121155784516001600160a01b0316835293830193918301916001016120f0565b50506001600160a01b03969096166060850152505050608001529392505050565b60008060006060848603121561214b57600080fd5b8351925060208401519150604084015190509250925092565b60006020828403121561217657600080fd5b8151611efb81611f3b56fea26469706673582212201048c9d36bafbdfb8b7821090b3ac9765990231d80effa1f9466f488584d4c9a64736f6c634300080f0033",
  "linkReferences": {},
  "deployedLinkReferences": {}
}