{
  "_format": "hh-sol-artifact-1",
  "contractName": "MetaStock",
  "sourceName": "contracts/MetaStock.sol",
  "abi": [
    {
      "inputs": [],
      "stateMutability": "nonpayable",
      "type": "constructor"
    },
    {
      "anonymous": false,
      "inputs": [
        {
          "indexed": true,
          "internalType": "address",
          "name": "owner",
          "type": "address"
        },
        {
          "indexed": true,
          "internalType": "address",
          "name": "spender",
          "type": "address"
        },
        {
          "indexed": false,
          "internalType": "uint256",
          "name": "value",
          "type": "uint256"
        }
      ],
      "name": "Approval",
      "type": "event"
    },
    {
      "anonymous": false,
      "inputs": [
        {
          "indexed": true,
          "internalType": "address",
          "name": "sender",
          "type": "address"
        },
        {
          "indexed": false,
          "internalType": "uint256",
          "name": "amount",
          "type": "uint256"
        }
      ],
      "name": "Burn",
      "type": "event"
    },
    {
      "anonymous": false,
      "inputs": [
        {
          "indexed": true,
          "internalType": "address",
          "name": "previousOwner",
          "type": "address"
        },
        {
          "indexed": true,
          "internalType": "address",
          "name": "newOwner",
          "type": "address"
        }
      ],
      "name": "OwnershipTransferred",
      "type": "event"
    },
    {
      "anonymous": false,
      "inputs": [
        {
          "indexed": true,
          "internalType": "address",
          "name": "from",
          "type": "address"
        },
        {
          "indexed": true,
          "internalType": "address",
          "name": "to",
          "type": "address"
        },
        {
          "indexed": false,
          "internalType": "uint256",
          "name": "value",
          "type": "uint256"
        }
      ],
      "name": "Transfer",
      "type": "event"
    },
    {
      "inputs": [],
      "name": "DEAD",
      "outputs": [
        {
          "internalType": "address",
          "name": "",
          "type": "address"
        }
      ],
      "stateMutability": "view",
      "type": "function"
    },
    {
      "inputs": [],
      "name": "_feesRates",
      "outputs": [
        {
          "internalType": "uint16",
          "name": "buyFee",
          "type": "uint16"
        },
        {
          "internalType": "uint16",
          "name": "sellFee",
          "type": "uint16"
        },
        {
          "internalType": "uint16",
          "name": "transferFee",
          "type": "uint16"
        }
      ],
      "stateMutability": "view",
      "type": "function"
    },
    {
      "inputs": [
        {
          "internalType": "address",
          "name": "owner",
          "type": "address"
        },
        {
          "internalType": "address",
          "name": "spender",
          "type": "address"
        }
      ],
      "name": "allowance",
      "outputs": [
        {
          "internalType": "uint256",
          "name": "",
          "type": "uint256"
        }
      ],
      "stateMutability": "view",
      "type": "function"
    },
    {
      "inputs": [
        {
          "internalType": "address",
          "name": "spender",
          "type": "address"
        },
        {
          "internalType": "uint256",
          "name": "amount",
          "type": "uint256"
        }
      ],
      "name": "approve",
      "outputs": [
        {
          "internalType": "bool",
          "name": "",
          "type": "bool"
        }
      ],
      "stateMutability": "nonpayable",
      "type": "function"
    },
    {
      "inputs": [
        {
          "internalType": "uint256",
          "name": "tokenAmount",
          "type": "uint256"
        }
      ],
      "name": "autoLiquidity",
      "outputs": [],
      "stateMutability": "nonpayable",
      "type": "function"
    },
    {
      "inputs": [
        {
          "internalType": "address",
          "name": "",
          "type": "address"
        }
      ],
      "name": "automatedMarketMakerPairs",
      "outputs": [
        {
          "internalType": "bool",
          "name": "",
          "type": "bool"
        }
      ],
      "stateMutability": "view",
      "type": "function"
    },
    {
      "inputs": [
        {
          "internalType": "address",
          "name": "account",
          "type": "address"
        }
      ],
      "name": "balanceOf",
      "outputs": [
        {
          "internalType": "uint256",
          "name": "",
          "type": "uint256"
        }
      ],
      "stateMutability": "view",
      "type": "function"
    },
    {
      "inputs": [
        {
          "internalType": "uint256",
          "name": "amount",
          "type": "uint256"
        }
      ],
      "name": "burn",
      "outputs": [],
      "stateMutability": "nonpayable",
      "type": "function"
    },
    {
      "inputs": [],
      "name": "charityWallet",
      "outputs": [
        {
          "internalType": "address",
          "name": "",
          "type": "address"
        }
      ],
      "stateMutability": "view",
      "type": "function"
    },
    {
      "inputs": [],
      "name": "decimals",
      "outputs": [
        {
          "internalType": "uint8",
          "name": "",
          "type": "uint8"
        }
      ],
      "stateMutability": "view",
      "type": "function"
    },
    {
      "inputs": [
        {
          "internalType": "address",
          "name": "spender",
          "type": "address"
        },
        {
          "internalType": "uint256",
          "name": "subtractedValue",
          "type": "uint256"
        }
      ],
      "name": "decreaseAllowance",
      "outputs": [
        {
          "internalType": "bool",
          "name": "",
          "type": "bool"
        }
      ],
      "stateMutability": "nonpayable",
      "type": "function"
    },
    {
      "inputs": [],
      "name": "dexRouter",
      "outputs": [
        {
          "internalType": "contract IUniswapV2Router02",
          "name": "",
          "type": "address"
        }
      ],
      "stateMutability": "view",
      "type": "function"
    },
    {
      "inputs": [],
      "name": "enableTrading",
      "outputs": [],
      "stateMutability": "nonpayable",
      "type": "function"
    },
    {
      "inputs": [
        {
          "internalType": "address",
          "name": "account",
          "type": "address"
        },
        {
          "internalType": "bool",
          "name": "val",
          "type": "bool"
        }
      ],
      "name": "excludeFromFee",
      "outputs": [],
      "stateMutability": "nonpayable",
      "type": "function"
    },
    {
      "inputs": [],
      "name": "getOwner",
      "outputs": [
        {
          "internalType": "address",
          "name": "",
          "type": "address"
        }
      ],
      "stateMutability": "view",
      "type": "function"
    },
    {
      "inputs": [
        {
          "internalType": "address",
          "name": "spender",
          "type": "address"
        },
        {
          "internalType": "uint256",
          "name": "addedValue",
          "type": "uint256"
        }
      ],
      "name": "increaseAllowance",
      "outputs": [
        {
          "internalType": "bool",
          "name": "",
          "type": "bool"
        }
      ],
      "stateMutability": "nonpayable",
      "type": "function"
    },
    {
      "inputs": [
        {
          "internalType": "address",
          "name": "account",
          "type": "address"
        }
      ],
      "name": "isExcludedFromFee",
      "outputs": [
        {
          "internalType": "bool",
          "name": "",
          "type": "bool"
        }
      ],
      "stateMutability": "view",
      "type": "function"
    },
    {
      "inputs": [],
      "name": "lpPair",
      "outputs": [
        {
          "internalType": "address",
          "name": "",
          "type": "address"
        }
      ],
      "stateMutability": "view",
      "type": "function"
    },
    {
      "inputs": [],
      "name": "name",
      "outputs": [
        {
          "internalType": "string",
          "name": "",
          "type": "string"
        }
      ],
      "stateMutability": "view",
      "type": "function"
    },
    {
      "inputs": [],
      "name": "owner",
      "outputs": [
        {
          "internalType": "address",
          "name": "",
          "type": "address"
        }
      ],
      "stateMutability": "view",
      "type": "function"
    },
    {
      "inputs": [
        {
          "internalType": "uint256",
          "name": "value",
          "type": "uint256"
        }
      ],
      "name": "setMaxTransactionAmount",
      "outputs": [],
      "stateMutability": "nonpayable",
      "type": "function"
    },
    {
      "inputs": [
        {
          "internalType": "uint256",
          "name": "value",
          "type": "uint256"
        }
      ],
      "name": "setMaxWalletAmount",
      "outputs": [],
      "stateMutability": "nonpayable",
      "type": "function"
    },
    {
      "inputs": [
        {
          "internalType": "uint256",
          "name": "value",
          "type": "uint256"
        }
      ],
      "name": "setSwapThreshold",
      "outputs": [],
      "stateMutability": "nonpayable",
      "type": "function"
    },
    {
      "inputs": [
        {
          "internalType": "uint16",
          "name": "buyFee",
          "type": "uint16"
        },
        {
          "internalType": "uint16",
          "name": "sellFee",
          "type": "uint16"
        },
        {
          "internalType": "uint16",
          "name": "transferFee",
          "type": "uint16"
        }
      ],
      "name": "setTaxes",
      "outputs": [],
      "stateMutability": "nonpayable",
      "type": "function"
    },
    {
      "inputs": [],
      "name": "swapThreshold",
      "outputs": [
        {
          "internalType": "uint256",
          "name": "",
          "type": "uint256"
        }
      ],
      "stateMutability": "view",
      "type": "function"
    },
    {
      "inputs": [],
      "name": "swapTokenAddress",
      "outputs": [
        {
          "internalType": "address",
          "name": "",
          "type": "address"
        }
      ],
      "stateMutability": "view",
      "type": "function"
    },
    {
      "inputs": [],
      "name": "symbol",
      "outputs": [
        {
          "internalType": "string",
          "name": "",
          "type": "string"
        }
      ],
      "stateMutability": "view",
      "type": "function"
    },
    {
      "inputs": [],
      "name": "totalSupply",
      "outputs": [
        {
          "internalType": "uint256",
          "name": "",
          "type": "uint256"
        }
      ],
      "stateMutability": "view",
      "type": "function"
    },
    {
      "inputs": [
        {
          "internalType": "address",
          "name": "to",
          "type": "address"
        },
        {
          "internalType": "uint256",
          "name": "amount",
          "type": "uint256"
        }
      ],
      "name": "transfer",
      "outputs": [
        {
          "internalType": "bool",
          "name": "",
          "type": "bool"
        }
      ],
      "stateMutability": "nonpayable",
      "type": "function"
    },
    {
      "inputs": [
        {
          "internalType": "address",
          "name": "from",
          "type": "address"
        },
        {
          "internalType": "address",
          "name": "to",
          "type": "address"
        },
        {
          "internalType": "uint256",
          "name": "amount",
          "type": "uint256"
        }
      ],
      "name": "transferFrom",
      "outputs": [
        {
          "internalType": "bool",
          "name": "",
          "type": "bool"
        }
      ],
      "stateMutability": "nonpayable",
      "type": "function"
    },
    {
      "inputs": [
        {
          "internalType": "address",
          "name": "account",
          "type": "address"
        }
      ],
      "name": "transferOwnership",
      "outputs": [],
      "stateMutability": "nonpayable",
      "type": "function"
    },
    {
      "inputs": [
        {
          "internalType": "address",
          "name": "",
          "type": "address"
        }
      ],
      "name": "usersLastSellsDates",
      "outputs": [
        {
          "internalType": "uint256",
          "name": "",
          "type": "uint256"
        }
      ],
      "stateMutability": "view",
      "type": "function"
    },
    {
      "inputs": [],
      "name": "w1Address",
      "outputs": [
        {
          "internalType": "address",
          "name": "",
          "type": "address"
        }
      ],
      "stateMutability": "view",
      "type": "function"
    },
    {
      "inputs": [],
      "name": "w2Address",
      "outputs": [
        {
          "internalType": "address",
          "name": "",
          "type": "address"
        }
      ],
      "stateMutability": "view",
      "type": "function"
    },
    {
      "inputs": [],
      "name": "w3Address",
      "outputs": [
        {
          "internalType": "address",
          "name": "",
          "type": "address"
        }
      ],
      "stateMutability": "view",
      "type": "function"
    },
    {
      "inputs": [],
      "name": "w4Address",
      "outputs": [
        {
          "internalType": "address",
          "name": "",
          "type": "address"
        }
      ],
      "stateMutability": "view",
      "type": "function"
    },
    {
      "inputs": [],
      "name": "w5Address",
      "outputs": [
        {
          "internalType": "address",
          "name": "",
          "type": "address"
        }
      ],
      "stateMutability": "view",
      "type": "function"
    },
    {
      "stateMutability": "payable",
      "type": "receive"
    }
  ],
  "bytecode": "0x6080604052600680546001600160a01b031990811661dead179091556008805482167378867bbeef44f2326bf8ddd1941a4439382ef2a7179055600980548216736644ebde0f26c8f74ad18697cce8a5ac4e608cb4179055600a80548216733c44cdddb6a900fa2b585dd299e03d12fa4293bc179055600b805482167390f79bf6eb2c4f870365e785982e1f101e93b906179055600c8054821673fbaa3c716da6378a0840754185bff6a05a20e1c8179055600d80548216734cf4525ea8225ef715236538a3d7f06151bfee11179055600e8054821673492a9ce7f973958454fcbcae0e22985e15cdbe58179055600f8054909116739ac64cc6e4415144c455bd8e4837fea55603e5c317905569d3c21bcecceda100000060108190556127106011556012819055610640601355610bb86014556101f4601555610b546016556107d060178190556113886018556019819055601a556103e8601b55601c553480156200016b57600080fd5b50604051806040016040528060098152602001684d65746153746f636b60b81b815250604051806040016040528060038152602001624d534b60e81b8152508160039081620001bb91906200071f565b506004620001ca82826200071f565b505050620001ea336a52b7d2dcc80cd2e40000006200046560201b60201c565b600580546001600160a01b03199081163390811790925560408051606081018252600080825261012c6020808401919091529183018190526022805465ffffffffffff191663012c0000179055938452601e8152818420805460ff19908116600190811790925530865294839020805490951617909355600f54602180549093166001600160a01b0391909116908117909255805163c45a015560e01b81529051919263c45a0155926004838101938290030181865afa158015620002b3573d6000803e3d6000fd5b505050506040513d601f19601f82011682018060405250810190620002d99190620007eb565b6001600160a01b031663c9c6539630602160009054906101000a90046001600160a01b03166001600160a01b031663ad5c46486040518163ffffffff1660e01b8152600401602060405180830381865afa1580156200033c573d6000803e3d6000fd5b505050506040513d601f19601f82011682018060405250810190620003629190620007eb565b6040516001600160e01b031960e085901b1681526001600160a01b039283166004820152911660248201526044016020604051808303816000875af1158015620003b0573d6000803e3d6000fd5b505050506040513d601f19601f82011682018060405250810190620003d69190620007eb565b600780546001600160a01b0319166001600160a01b039283169081179091556000908152601f60205260409020805460ff19166001179055600f5462000422913391166000196200054e565b600f546200043e9030906001600160a01b03166000196200054e565b600854600f546200045f916001600160a01b0390811691166000196200054e565b62000844565b6001600160a01b038216620004c15760405162461bcd60e51b815260206004820152601f60248201527f45524332303a206d696e7420746f20746865207a65726f20616464726573730060448201526064015b60405180910390fd5b8060026000828254620004d591906200081d565b90915550506001600160a01b03821660009081526020819052604081208054839290620005049084906200081d565b90915550506040518181526001600160a01b038316906000907fddf252ad1be2c89b69c2b068fc378daa952ba7f163c4a11628f55a4df523b3ef9060200160405180910390a35050565b6001600160a01b038316620005b25760405162461bcd60e51b8152602060048201526024808201527f45524332303a20617070726f76652066726f6d20746865207a65726f206164646044820152637265737360e01b6064820152608401620004b8565b6001600160a01b038216620006155760405162461bcd60e51b815260206004820152602260248201527f45524332303a20617070726f766520746f20746865207a65726f206164647265604482015261737360f01b6064820152608401620004b8565b6001600160a01b0383811660008181526001602090815260408083209487168084529482529182902085905590518481527f8c5be1e5ebec7d5bd14f71427d1e84f3dd0314c0f7b2291e5b200ac8c7c3b925910160405180910390a3505050565b505050565b634e487b7160e01b600052604160045260246000fd5b600181811c90821680620006a657607f821691505b602082108103620006c757634e487b7160e01b600052602260045260246000fd5b50919050565b601f8211156200067657600081815260208120601f850160051c81016020861015620006f65750805b601f850160051c820191505b81811015620007175782815560010162000702565b505050505050565b81516001600160401b038111156200073b576200073b6200067b565b62000753816200074c845462000691565b84620006cd565b602080601f8311600181146200078b5760008415620007725750858301515b600019600386901b1c1916600185901b17855562000717565b600085815260208120601f198616915b82811015620007bc578886015182559484019460019091019084016200079b565b5085821015620007db5787850151600019600388901b60f8161c191681555b5050505050600190811b01905550565b600060208284031215620007fe57600080fd5b81516001600160a01b03811681146200081657600080fd5b9392505050565b600082198211156200083f57634e487b7160e01b600052601160045260246000fd5b500190565b6125b680620008546000396000f3fe60806040526004361061021e5760003560e01c80635932959c116101235780639d0014b1116100ab578063c6aca36b1161006f578063c6aca36b146106b9578063dd62ed3e146106d9578063df8408fe146106f9578063f2fde38b14610719578063f36f79e01461073957600080fd5b80639d0014b114610609578063a457c2d714610629578063a9059cbb14610649578063adb3b63514610669578063b62496f51461068957600080fd5b80637bf9ae8f116100f25780637bf9ae8f14610575578063893d20e8146105a15780638a8c523c146105bf5780638da5cb5b146105d457806395d89b41146105f457600080fd5b80635932959c146104df5780636f3433d4146104ff57806370a082311461051f5780637b2087691461055557600080fd5b806327a14fc2116101a657806339d915f11161017557806339d915f11461042657806342966c6814610446578063452ed4f1146104665780635342acb414610486578063578aaa00146104bf57600080fd5b806327a14fc2146103aa578063313ce567146103ca57806332cde664146103e6578063395093511461040657600080fd5b8063095ea7b3116101ed578063095ea7b3146102cd57806318160ddd146102fd5780631c06a7e1146103125780631e293c101461036857806323b872dd1461038a57600080fd5b806303fd2a451461022a5780630445b6671461026757806306fdde031461028b5780630758d924146102ad57600080fd5b3661022557005b600080fd5b34801561023657600080fd5b5060065461024a906001600160a01b031681565b6040516001600160a01b0390911681526020015b60405180910390f35b34801561027357600080fd5b5061027d60105481565b60405190815260200161025e565b34801561029757600080fd5b506102a0610759565b60405161025e9190612177565b3480156102b957600080fd5b5060215461024a906001600160a01b031681565b3480156102d957600080fd5b506102ed6102e83660046121e4565b6107eb565b604051901515815260200161025e565b34801561030957600080fd5b5060025461027d565b34801561031e57600080fd5b506022546103439061ffff808216916201000081048216916401000000009091041683565b6040805161ffff9485168152928416602084015292169181019190915260600161025e565b34801561037457600080fd5b50610388610383366004612210565b610803565b005b34801561039657600080fd5b506102ed6103a5366004612229565b61083b565b3480156103b657600080fd5b506103886103c5366004612210565b61085f565b3480156103d657600080fd5b506040516012815260200161025e565b3480156103f257600080fd5b50610388610401366004612281565b61088e565b34801561041257600080fd5b506102ed6104213660046121e4565b610a36565b34801561043257600080fd5b50600b5461024a906001600160a01b031681565b34801561045257600080fd5b50610388610461366004612210565b610a58565b34801561047257600080fd5b5060075461024a906001600160a01b031681565b34801561049257600080fd5b506102ed6104a13660046122c4565b6001600160a01b03166000908152601e602052604090205460ff1690565b3480156104cb57600080fd5b50600d5461024a906001600160a01b031681565b3480156104eb57600080fd5b5060095461024a906001600160a01b031681565b34801561050b57600080fd5b50600a5461024a906001600160a01b031681565b34801561052b57600080fd5b5061027d61053a3660046122c4565b6001600160a01b031660009081526020819052604090205490565b34801561056157600080fd5b50600e5461024a906001600160a01b031681565b34801561058157600080fd5b5061027d6105903660046122c4565b602080526000908152604090205481565b3480156105ad57600080fd5b506005546001600160a01b031661024a565b3480156105cb57600080fd5b50610388610b11565b3480156105e057600080fd5b5060055461024a906001600160a01b031681565b34801561060057600080fd5b506102a0610ba4565b34801561061557600080fd5b50610388610624366004612210565b610bb3565b34801561063557600080fd5b506102ed6106443660046121e4565b610be2565b34801561065557600080fd5b506102ed6106643660046121e4565b610c5d565b34801561067557600080fd5b50600c5461024a906001600160a01b031681565b34801561069557600080fd5b506102ed6106a43660046122c4565b601f6020526000908152604090205460ff1681565b3480156106c557600080fd5b506103886106d4366004612210565b610c6b565b3480156106e557600080fd5b5061027d6106f43660046122e8565b610ca2565b34801561070557600080fd5b5061038861071436600461232f565b610ccd565b34801561072557600080fd5b506103886107343660046122c4565b610d22565b34801561074557600080fd5b5060085461024a906001600160a01b031681565b6060600380546107689061235d565b80601f01602080910402602001604051908101604052809291908181526020018280546107949061235d565b80156107e15780601f106107b6576101008083540402835291602001916107e1565b820191906000526020600020905b8154815290600101906020018083116107c457829003601f168201915b5050505050905090565b6000336107f9818585610d6e565b5060019392505050565b6005546001600160a01b031633146108365760405162461bcd60e51b815260040161082d90612397565b60405180910390fd5b601c55565b600033610849858285610e92565b610854858585610f06565b506001949350505050565b6005546001600160a01b031633146108895760405162461bcd60e51b815260040161082d90612397565b601255565b6005546001600160a01b031633146108b85760405162461bcd60e51b815260040161082d90612397565b610bb88361ffff1611156108fd5760405162461bcd60e51b815260206004820152600c60248201526b4d415820425559204645455360a01b604482015260640161082d565b610bb88261ffff1611156109435760405162461bcd60e51b815260206004820152600d60248201526c4d41582053454c4c204645455360981b604482015260640161082d565b610bb88161ffff16111561098d5760405162461bcd60e51b81526020600482015260116024820152704d4158205452414e53464552204645455360781b604482015260640161082d565b610bb88161099b84866123e2565b6109a591906123e2565b61ffff1611156109f75760405162461bcd60e51b815260206004820152601c60248201527f4d4158204255592c2053454c4c2c205452414e53464552204645455300000000604482015260640161082d565b6022805461ffff94851663ffffffff199091161762010000938516939093029290921765ffff0000000019166401000000009190931602919091179055565b6000336107f9818585610a498383610ca2565b610a539190612408565b610d6e565b33600090815260208190526040902054811115610acf5760405162461bcd60e51b815260206004820152602f60248201527f4275726e20616d6f756e742073686f756c64206265206c657373207468616e2060448201526e6163636f756e742062616c616e636560881b606482015260840161082d565b610ad93382611043565b60405181815233907fcc16f5dbb4873280815c1ee09dbd06736cffcc184412cf7a71a0fdb75d397ca59060200160405180910390a250565b6005546001600160a01b03163314610b3b5760405162461bcd60e51b815260040161082d90612397565b601d54610100900460ff1615610b935760405162461bcd60e51b815260206004820152601e60248201527f54726164696e67456e61626c656420616c726561647920616374697665640000604482015260640161082d565b601d805461ff001916610100179055565b6060600480546107689061235d565b6005546001600160a01b03163314610bdd5760405162461bcd60e51b815260040161082d90612397565b601055565b60003381610bf08286610ca2565b905083811015610c505760405162461bcd60e51b815260206004820152602560248201527f45524332303a2064656372656173656420616c6c6f77616e63652062656c6f77604482015264207a65726f60d81b606482015260840161082d565b6108548286868403610d6e565b6000336107f9818585610f06565b6000610c78600283612420565b905047610c8482611191565b6000610c908247612442565b9050610c9c83826112f4565b50505050565b6001600160a01b03918216600090815260016020908152604080832093909416825291909152205490565b6005546001600160a01b03163314610cf75760405162461bcd60e51b815260040161082d90612397565b6001600160a01b03919091166000908152601e60205260409020805460ff1916911515919091179055565b6005546001600160a01b03163314610d4c5760405162461bcd60e51b815260040161082d90612397565b600580546001600160a01b0319166001600160a01b0392909216919091179055565b6001600160a01b038316610dd05760405162461bcd60e51b8152602060048201526024808201527f45524332303a20617070726f76652066726f6d20746865207a65726f206164646044820152637265737360e01b606482015260840161082d565b6001600160a01b038216610e315760405162461bcd60e51b815260206004820152602260248201527f45524332303a20617070726f766520746f20746865207a65726f206164647265604482015261737360f01b606482015260840161082d565b6001600160a01b0383811660008181526001602090815260408083209487168084529482529182902085905590518481527f8c5be1e5ebec7d5bd14f71427d1e84f3dd0314c0f7b2291e5b200ac8c7c3b925910160405180910390a3505050565b6000610e9e8484610ca2565b90506000198114610c9c5781811015610ef95760405162461bcd60e51b815260206004820152601d60248201527f45524332303a20696e73756666696369656e7420616c6c6f77616e6365000000604482015260640161082d565b610c9c8484848403610d6e565b610f118383836113d7565b601d5460ff1615610f2c57610f27838383611778565b505050565b610f368383611946565b156110385730600090815260208190526040902054601154601854610f6f9190610f609084612459565b610f6a9190612420565b6119fb565b610f77611c8d565b610f9560115460195483610f8b9190612459565b6106d49190612420565b600e54601154601b54309263a9059cbb926001600160a01b0390911691610fbc9086612459565b610fc69190612420565b6040516001600160e01b031960e085901b1681526001600160a01b03909216600483015260248201526044016020604051808303816000875af1158015611011573d6000803e3d6000fd5b505050506040513d601f19601f820116820180604052508101906110359190612478565b50505b610f2783838361203a565b6001600160a01b0382166110a35760405162461bcd60e51b815260206004820152602160248201527f45524332303a206275726e2066726f6d20746865207a65726f206164647265736044820152607360f81b606482015260840161082d565b6001600160a01b038216600090815260208190526040902054818110156111175760405162461bcd60e51b815260206004820152602260248201527f45524332303a206275726e20616d6f756e7420657863656564732062616c616e604482015261636560f01b606482015260840161082d565b6001600160a01b0383166000908152602081905260408120838303905560028054849290611146908490612442565b90915550506040518281526000906001600160a01b038516907fddf252ad1be2c89b69c2b068fc378daa952ba7f163c4a11628f55a4df523b3ef9060200160405180910390a3505050565b60408051600280825260608201835260009260208301908036833701905050905030816000815181106111c6576111c6612495565b6001600160a01b03928316602091820292909201810191909152602154604080516315ab88c960e31b81529051919093169263ad5c46489260048083019391928290030181865afa15801561121f573d6000803e3d6000fd5b505050506040513d601f19601f8201168201806040525081019061124391906124ab565b8160018151811061125657611256612495565b6001600160a01b03928316602091820292909201015260215461127c9130911684610d6e565b6021546001600160a01b031663791ac947836000843061129e426103e8612408565b6040518663ffffffff1660e01b81526004016112be9594939291906124c8565b600060405180830381600087803b1580156112d857600080fd5b505af11580156112ec573d6000803e3d6000fd5b505050505050565b60215461130e9030906001600160a01b0316600019610d6e565b6021546005546001600160a01b039182169163f305d7199184913091879160009182911661133e42612710612408565b60405160e089901b6001600160e01b03191681526001600160a01b039687166004820152602481019590955260448501939093526064840191909152909216608482015260a481019190915260c40160606040518083038185885af11580156113ab573d6000803e3d6000fd5b50505050506040513d601f19601f820116820180604052508101906113d09190612539565b5050505050565b6001600160a01b0383166114435760405162461bcd60e51b815260206004820152602d60248201527f45524332303a207472616e736665722066726f6d20746865205a45524f5f414460448201526c4452455353206164647265737360981b606482015260840161082d565b6001600160a01b0382166114ad5760405162461bcd60e51b815260206004820152602b60248201527f45524332303a207472616e7366657220746f20746865205a45524f5f4144445260448201526a455353206164647265737360a81b606482015260840161082d565b600081116115175760405162461bcd60e51b815260206004820152603160248201527f5472616e7366657220616d6f756e74206d7573742062652067726561746572206044820152707468616e205a45524f5f4144445245535360781b606482015260840161082d565b6005546001600160a01b0384811691161480159061154357506005546001600160a01b03838116911614155b801561155757506001600160a01b03821615155b801561156e57506001600160a01b03821661dead14155b801561157d5750601d5460ff16155b15610f2757601d54610100900460ff166115ce5760405162461bcd60e51b815260206004820152601260248201527154726164696e67206e6f742061637469766560701b604482015260640161082d565b6001600160a01b0383166000908152601f602052604090205460ff16156116c957601c5481111561165f5760405162461bcd60e51b815260206004820152603560248201527f427579207472616e7366657220616d6f756e742065786365656473207468652060448201527436b0bc2a3930b739b0b1ba34b7b720b6b7bab73a1760591b606482015260840161082d565b6012546001600160a01b0383166000908152602081905260409020546116859083612408565b1115610f275760405162461bcd60e51b815260206004820152601360248201527213585e081dd85b1b195d08195e18d959591959606a1b604482015260640161082d565b6001600160a01b0382166000908152601f602052604090205460ff161561165f57601c5481111561175b5760405162461bcd60e51b815260206004820152603660248201527f53656c6c207472616e7366657220616d6f756e742065786365656473207468656044820152751036b0bc2a3930b739b0b1ba34b7b720b6b7bab73a1760511b606482015260840161082d565b50506001600160a01b031660009081526020805260409020429055565b6001600160a01b0383166117dc5760405162461bcd60e51b815260206004820152602560248201527f45524332303a207472616e736665722066726f6d20746865207a65726f206164604482015264647265737360d81b606482015260840161082d565b6001600160a01b03821661183e5760405162461bcd60e51b815260206004820152602360248201527f45524332303a207472616e7366657220746f20746865207a65726f206164647260448201526265737360e81b606482015260840161082d565b6001600160a01b038316600090815260208190526040902054818110156118b65760405162461bcd60e51b815260206004820152602660248201527f45524332303a207472616e7366657220616d6f756e7420657863656564732062604482015265616c616e636560d01b606482015260840161082d565b6001600160a01b038085166000908152602081905260408082208585039055918516815290812080548492906118ed908490612408565b92505081905550826001600160a01b0316846001600160a01b03167fddf252ad1be2c89b69c2b068fc378daa952ba7f163c4a11628f55a4df523b3ef8460405161193991815260200190565b60405180910390a3610c9c565b30600090815260208190526040812054601054811015801561196b5750601d5460ff16155b801561198557506007546001600160a01b03858116911614155b80156119a957506007546001600160a01b0316600090815260208190526040812054115b80156119ce57506001600160a01b0383166000908152601e602052604090205460ff16155b80156119f357506001600160a01b0384166000908152601e602052604090205460ff16155b949350505050565b60408051600380825260808201909252600091602082016060803683370190505090503081600081518110611a3257611a32612495565b6001600160a01b03928316602091820292909201810191909152602154604080516315ab88c960e31b81529051919093169263ad5c46489260048083019391928290030181865afa158015611a8b573d6000803e3d6000fd5b505050506040513d601f19601f82011682018060405250810190611aaf91906124ab565b81600181518110611ac257611ac2612495565b6001600160a01b039283166020918202929092010152600854825191169082906002908110611af357611af3612495565b6001600160a01b03928316602091820292909201015260085460215460405163095ea7b360e01b81529083166004820152600019602482015291169063095ea7b3906044016020604051808303816000875af1158015611b57573d6000803e3d6000fd5b505050506040513d601f19601f82011682018060405250810190611b7b9190612478565b50602160009054906101000a90046001600160a01b03166001600160a01b031663ad5c46486040518163ffffffff1660e01b8152600401602060405180830381865afa158015611bcf573d6000803e3d6000fd5b505050506040513d601f19601f82011682018060405250810190611bf391906124ab565b60215460405163095ea7b360e01b81526001600160a01b039182166004820152600019602482015291169063095ea7b3906044016020604051808303816000875af1158015611c46573d6000803e3d6000fd5b505050506040513d601f19601f82011682018060405250810190611c6a9190612478565b506021546001600160a01b0316635c11d795836000843061129e426103e8612408565b6008546040516370a0823160e01b81523060048201526000916001600160a01b0316906370a0823190602401602060405180830381865afa158015611cd6573d6000803e3d6000fd5b505050506040513d601f19601f82011682018060405250810190611cfa9190612567565b6008546009546011546013549394506001600160a01b039283169363a9059cbb9390921691611d299086612459565b611d339190612420565b6040516001600160e01b031960e085901b1681526001600160a01b03909216600483015260248201526044016020604051808303816000875af1158015611d7e573d6000803e3d6000fd5b505050506040513d601f19601f82011682018060405250810190611da29190612478565b50600854600a546011546014546001600160a01b039384169363a9059cbb93169190611dce9086612459565b611dd89190612420565b6040516001600160e01b031960e085901b1681526001600160a01b03909216600483015260248201526044016020604051808303816000875af1158015611e23573d6000803e3d6000fd5b505050506040513d601f19601f82011682018060405250810190611e479190612478565b50600854600b546011546015546001600160a01b039384169363a9059cbb93169190611e739086612459565b611e7d9190612420565b6040516001600160e01b031960e085901b1681526001600160a01b03909216600483015260248201526044016020604051808303816000875af1158015611ec8573d6000803e3d6000fd5b505050506040513d601f19601f82011682018060405250810190611eec9190612478565b50600854600c546011546016546001600160a01b039384169363a9059cbb93169190611f189086612459565b611f229190612420565b6040516001600160e01b031960e085901b1681526001600160a01b03909216600483015260248201526044016020604051808303816000875af1158015611f6d573d6000803e3d6000fd5b505050506040513d601f19601f82011682018060405250810190611f919190612478565b50600854600d546011546017546001600160a01b039384169363a9059cbb93169190611fbd9086612459565b611fc79190612420565b6040516001600160e01b031960e085901b1681526001600160a01b03909216600483015260248201526044016020604051808303816000875af1158015612012573d6000803e3d6000fd5b505050506040513d601f19601f820116820180604052508101906120369190612478565b5050565b6001600160a01b0383166000908152601e602052604081205482919060019060ff168061207f57506001600160a01b0385166000908152601e602052604090205460ff165b15612088575060005b80156120b2576120998686866120bd565b91506120a58285612442565b92506120b2863084611778565b6112ec868685611778565b6001600160a01b0383166000908152601f60205260408120548190819060ff16156120fa576022546120f39061ffff1683612408565b915061214e565b6001600160a01b0385166000908152601f602052604090205460ff1615612132576022546120f39062010000900461ffff1683612408565b60225461214b90640100000000900461ffff1683612408565b91505b811561216e576011546121618386612459565b61216b9190612420565b90505b95945050505050565b600060208083528351808285015260005b818110156121a457858101830151858201604001528201612188565b818111156121b6576000604083870101525b50601f01601f1916929092016040019392505050565b6001600160a01b03811681146121e157600080fd5b50565b600080604083850312156121f757600080fd5b8235612202816121cc565b946020939093013593505050565b60006020828403121561222257600080fd5b5035919050565b60008060006060848603121561223e57600080fd5b8335612249816121cc565b92506020840135612259816121cc565b929592945050506040919091013590565b803561ffff8116811461227c57600080fd5b919050565b60008060006060848603121561229657600080fd5b61229f8461226a565b92506122ad6020850161226a565b91506122bb6040850161226a565b90509250925092565b6000602082840312156122d657600080fd5b81356122e1816121cc565b9392505050565b600080604083850312156122fb57600080fd5b8235612306816121cc565b91506020830135612316816121cc565b809150509250929050565b80151581146121e157600080fd5b6000806040838503121561234257600080fd5b823561234d816121cc565b9150602083013561231681612321565b600181811c9082168061237157607f821691505b60208210810361239157634e487b7160e01b600052602260045260246000fd5b50919050565b6020808252818101527f4f776e61626c653a2063616c6c6572206973206e6f7420746865206f776e6572604082015260600190565b634e487b7160e01b600052601160045260246000fd5b600061ffff8083168185168083038211156123ff576123ff6123cc565b01949350505050565b6000821982111561241b5761241b6123cc565b500190565b60008261243d57634e487b7160e01b600052601260045260246000fd5b500490565b600082821015612454576124546123cc565b500390565b6000816000190483118215151615612473576124736123cc565b500290565b60006020828403121561248a57600080fd5b81516122e181612321565b634e487b7160e01b600052603260045260246000fd5b6000602082840312156124bd57600080fd5b81516122e1816121cc565b600060a082018783526020878185015260a0604085015281875180845260c086019150828901935060005b818110156125185784516001600160a01b0316835293830193918301916001016124f3565b50506001600160a01b03969096166060850152505050608001529392505050565b60008060006060848603121561254e57600080fd5b8351925060208401519150604084015190509250925092565b60006020828403121561257957600080fd5b505191905056fea2646970667358221220a7d25ce4f25ea80ff08ccfd0a966f7b7c95c2210e708919cb09219779dccfcdc64736f6c634300080f0033",
  "linkReferences": {},
  "deployedLinkReferences": {}
}